{
  "_format": "hh-sol-artifact-1",
  "contractName": "ConditionalTokens",
  "sourceName": "contracts/ConditionalTokens.sol",
  "abi": [
    {
      "inputs": [
        {
          "internalType": "string",
          "name": "uri_",
          "type": "string"
        }
      ],
      "stateMutability": "nonpayable",
      "type": "constructor"
    },
    {
      "inputs": [
        {
          "internalType": "address",
          "name": "sender",
          "type": "address"
        },
        {
          "internalType": "uint256",
          "name": "balance",
          "type": "uint256"
        },
        {
          "internalType": "uint256",
          "name": "needed",
          "type": "uint256"
        },
        {
          "internalType": "uint256",
          "name": "tokenId",
          "type": "uint256"
        }
      ],
      "name": "ERC1155InsufficientBalance",
      "type": "error"
    },
    {
      "inputs": [
        {
          "internalType": "address",
          "name": "approver",
          "type": "address"
        }
      ],
      "name": "ERC1155InvalidApprover",
      "type": "error"
    },
    {
      "inputs": [
        {
          "internalType": "uint256",
          "name": "idsLength",
          "type": "uint256"
        },
        {
          "internalType": "uint256",
          "name": "valuesLength",
          "type": "uint256"
        }
      ],
      "name": "ERC1155InvalidArrayLength",
      "type": "error"
    },
    {
      "inputs": [
        {
          "internalType": "address",
          "name": "operator",
          "type": "address"
        }
      ],
      "name": "ERC1155InvalidOperator",
      "type": "error"
    },
    {
      "inputs": [
        {
          "internalType": "address",
          "name": "receiver",
          "type": "address"
        }
      ],
      "name": "ERC1155InvalidReceiver",
      "type": "error"
    },
    {
      "inputs": [
        {
          "internalType": "address",
          "name": "sender",
          "type": "address"
        }
      ],
      "name": "ERC1155InvalidSender",
      "type": "error"
    },
    {
      "inputs": [
        {
          "internalType": "address",
          "name": "operator",
          "type": "address"
        },
        {
          "internalType": "address",
          "name": "owner",
          "type": "address"
        }
      ],
      "name": "ERC1155MissingApprovalForAll",
      "type": "error"
    },
    {
      "inputs": [
        {
          "internalType": "address",
          "name": "owner",
          "type": "address"
        }
      ],
      "name": "OwnableInvalidOwner",
      "type": "error"
    },
    {
      "inputs": [
        {
          "internalType": "address",
          "name": "account",
          "type": "address"
        }
      ],
      "name": "OwnableUnauthorizedAccount",
      "type": "error"
    },
    {
      "anonymous": false,
      "inputs": [
        {
          "indexed": true,
          "internalType": "address",
          "name": "account",
          "type": "address"
        },
        {
          "indexed": true,
          "internalType": "address",
          "name": "operator",
          "type": "address"
        },
        {
          "indexed": false,
          "internalType": "bool",
          "name": "approved",
          "type": "bool"
        }
      ],
      "name": "ApprovalForAll",
      "type": "event"
    },
    {
      "anonymous": false,
      "inputs": [
        {
          "indexed": true,
          "internalType": "bytes32",
          "name": "conditionId",
          "type": "bytes32"
        },
        {
          "indexed": true,
          "internalType": "address",
          "name": "oracle",
          "type": "address"
        },
        {
          "indexed": true,
          "internalType": "bytes32",
          "name": "questionId",
          "type": "bytes32"
        },
        {
          "indexed": false,
          "internalType": "uint256",
          "name": "outcomeSlotCount",
          "type": "uint256"
        }
      ],
      "name": "ConditionPreparation",
      "type": "event"
    },
    {
      "anonymous": false,
      "inputs": [
        {
          "indexed": true,
          "internalType": "bytes32",
          "name": "conditionId",
          "type": "bytes32"
        },
        {
          "indexed": true,
          "internalType": "address",
          "name": "oracle",
          "type": "address"
        },
        {
          "indexed": true,
          "internalType": "bytes32",
          "name": "questionId",
          "type": "bytes32"
        },
        {
          "indexed": false,
          "internalType": "uint256",
          "name": "outcomeSlotCount",
          "type": "uint256"
        },
        {
          "indexed": false,
          "internalType": "uint256[]",
          "name": "payoutNumerators",
          "type": "uint256[]"
        }
      ],
      "name": "ConditionResolution",
      "type": "event"
    },
    {
      "anonymous": false,
      "inputs": [
        {
          "indexed": true,
          "internalType": "address",
          "name": "previousOwner",
          "type": "address"
        },
        {
          "indexed": true,
          "internalType": "address",
          "name": "newOwner",
          "type": "address"
        }
      ],
      "name": "OwnershipTransferred",
      "type": "event"
    },
    {
      "anonymous": false,
      "inputs": [
        {
          "indexed": true,
          "internalType": "address",
          "name": "redeemer",
          "type": "address"
        },
        {
          "indexed": true,
          "internalType": "contract IERC20",
          "name": "collateralToken",
          "type": "address"
        },
        {
          "indexed": true,
          "internalType": "bytes32",
          "name": "parentCollectionId",
          "type": "bytes32"
        },
        {
          "indexed": false,
          "internalType": "bytes32",
          "name": "conditionId",
          "type": "bytes32"
        },
        {
          "indexed": false,
          "internalType": "uint256[]",
          "name": "indexSets",
          "type": "uint256[]"
        },
        {
          "indexed": false,
          "internalType": "uint256",
          "name": "payout",
          "type": "uint256"
        }
      ],
      "name": "PayoutRedemption",
      "type": "event"
    },
    {
      "anonymous": false,
      "inputs": [
        {
          "indexed": true,
          "internalType": "address",
          "name": "stakeholder",
          "type": "address"
        },
        {
          "indexed": false,
          "internalType": "contract IERC20",
          "name": "collateralToken",
          "type": "address"
        },
        {
          "indexed": true,
          "internalType": "bytes32",
          "name": "parentCollectionId",
          "type": "bytes32"
        },
        {
          "indexed": true,
          "internalType": "bytes32",
          "name": "conditionId",
          "type": "bytes32"
        },
        {
          "indexed": false,
          "internalType": "uint256[]",
          "name": "partition",
          "type": "uint256[]"
        },
        {
          "indexed": false,
          "internalType": "uint256",
          "name": "amount",
          "type": "uint256"
        }
      ],
      "name": "PositionSplit",
      "type": "event"
    },
    {
      "anonymous": false,
      "inputs": [
        {
          "indexed": true,
          "internalType": "address",
          "name": "stakeholder",
          "type": "address"
        },
        {
          "indexed": false,
          "internalType": "contract IERC20",
          "name": "collateralToken",
          "type": "address"
        },
        {
          "indexed": true,
          "internalType": "bytes32",
          "name": "parentCollectionId",
          "type": "bytes32"
        },
        {
          "indexed": true,
          "internalType": "bytes32",
          "name": "conditionId",
          "type": "bytes32"
        },
        {
          "indexed": false,
          "internalType": "uint256[]",
          "name": "partition",
          "type": "uint256[]"
        },
        {
          "indexed": false,
          "internalType": "uint256",
          "name": "amount",
          "type": "uint256"
        }
      ],
      "name": "PositionsMerge",
      "type": "event"
    },
    {
      "anonymous": false,
      "inputs": [
        {
          "indexed": true,
          "internalType": "address",
          "name": "operator",
          "type": "address"
        },
        {
          "indexed": true,
          "internalType": "address",
          "name": "from",
          "type": "address"
        },
        {
          "indexed": true,
          "internalType": "address",
          "name": "to",
          "type": "address"
        },
        {
          "indexed": false,
          "internalType": "uint256[]",
          "name": "ids",
          "type": "uint256[]"
        },
        {
          "indexed": false,
          "internalType": "uint256[]",
          "name": "values",
          "type": "uint256[]"
        }
      ],
      "name": "TransferBatch",
      "type": "event"
    },
    {
      "anonymous": false,
      "inputs": [
        {
          "indexed": true,
          "internalType": "address",
          "name": "operator",
          "type": "address"
        },
        {
          "indexed": true,
          "internalType": "address",
          "name": "from",
          "type": "address"
        },
        {
          "indexed": true,
          "internalType": "address",
          "name": "to",
          "type": "address"
        },
        {
          "indexed": false,
          "internalType": "uint256",
          "name": "id",
          "type": "uint256"
        },
        {
          "indexed": false,
          "internalType": "uint256",
          "name": "value",
          "type": "uint256"
        }
      ],
      "name": "TransferSingle",
      "type": "event"
    },
    {
      "anonymous": false,
      "inputs": [
        {
          "indexed": false,
          "internalType": "string",
          "name": "value",
          "type": "string"
        },
        {
          "indexed": true,
          "internalType": "uint256",
          "name": "id",
          "type": "uint256"
        }
      ],
      "name": "URI",
      "type": "event"
    },
    {
      "inputs": [
        {
          "internalType": "address",
          "name": "account",
          "type": "address"
        },
        {
          "internalType": "uint256",
          "name": "id",
          "type": "uint256"
        }
      ],
      "name": "balanceOf",
      "outputs": [
        {
          "internalType": "uint256",
          "name": "",
          "type": "uint256"
        }
      ],
      "stateMutability": "view",
      "type": "function"
    },
    {
      "inputs": [
        {
          "internalType": "address[]",
          "name": "accounts",
          "type": "address[]"
        },
        {
          "internalType": "uint256[]",
          "name": "ids",
          "type": "uint256[]"
        }
      ],
      "name": "balanceOfBatch",
      "outputs": [
        {
          "internalType": "uint256[]",
          "name": "",
          "type": "uint256[]"
        }
      ],
      "stateMutability": "view",
      "type": "function"
    },
    {
      "inputs": [
        {
          "internalType": "bytes32",
          "name": "parentCollectionId",
          "type": "bytes32"
        },
        {
          "internalType": "bytes32",
          "name": "conditionId",
          "type": "bytes32"
        },
        {
          "internalType": "uint256",
          "name": "indexSet",
          "type": "uint256"
        }
      ],
      "name": "getCollectionId",
      "outputs": [
        {
          "internalType": "bytes32",
          "name": "",
          "type": "bytes32"
        }
      ],
      "stateMutability": "view",
      "type": "function"
    },
    {
      "inputs": [
        {
          "internalType": "address",
          "name": "oracle",
          "type": "address"
        },
        {
          "internalType": "bytes32",
          "name": "questionId",
          "type": "bytes32"
        },
        {
          "internalType": "uint256",
          "name": "outcomeSlotCount",
          "type": "uint256"
        }
      ],
      "name": "getConditionId",
      "outputs": [
        {
          "internalType": "bytes32",
          "name": "",
          "type": "bytes32"
        }
      ],
      "stateMutability": "pure",
      "type": "function"
    },
    {
      "inputs": [
        {
          "internalType": "bytes32",
          "name": "conditionId",
          "type": "bytes32"
        }
      ],
      "name": "getOutcomeSlotCount",
      "outputs": [
        {
          "internalType": "uint256",
          "name": "",
          "type": "uint256"
        }
      ],
      "stateMutability": "view",
      "type": "function"
    },
    {
      "inputs": [
        {
          "internalType": "contract IERC20",
          "name": "collateralToken",
          "type": "address"
        },
        {
          "internalType": "bytes32",
          "name": "collectionId",
          "type": "bytes32"
        }
      ],
      "name": "getPositionId",
      "outputs": [
        {
          "internalType": "uint256",
          "name": "",
          "type": "uint256"
        }
      ],
      "stateMutability": "pure",
      "type": "function"
    },
    {
      "inputs": [
        {
          "internalType": "address",
          "name": "account",
          "type": "address"
        },
        {
          "internalType": "address",
          "name": "operator",
          "type": "address"
        }
      ],
      "name": "isApprovedForAll",
      "outputs": [
        {
          "internalType": "bool",
          "name": "",
          "type": "bool"
        }
      ],
      "stateMutability": "view",
      "type": "function"
    },
    {
      "inputs": [
        {
          "internalType": "contract IERC20",
          "name": "collateralToken",
          "type": "address"
        },
        {
          "internalType": "bytes32",
          "name": "parentCollectionId",
          "type": "bytes32"
        },
        {
          "internalType": "bytes32",
          "name": "conditionId",
          "type": "bytes32"
        },
        {
          "internalType": "uint256[]",
          "name": "partition",
          "type": "uint256[]"
        },
        {
          "internalType": "uint256",
          "name": "amount",
          "type": "uint256"
        }
      ],
      "name": "mergePositions",
      "outputs": [],
      "stateMutability": "nonpayable",
      "type": "function"
    },
    {
      "inputs": [],
      "name": "oracleAddress",
      "outputs": [
        {
          "internalType": "address",
          "name": "",
          "type": "address"
        }
      ],
      "stateMutability": "view",
      "type": "function"
    },
    {
      "inputs": [],
      "name": "owner",
      "outputs": [
        {
          "internalType": "address",
          "name": "",
          "type": "address"
        }
      ],
      "stateMutability": "view",
      "type": "function"
    },
    {
      "inputs": [
        {
          "internalType": "bytes32",
          "name": "",
          "type": "bytes32"
        }
      ],
      "name": "payoutDenominator",
      "outputs": [
        {
          "internalType": "uint256",
          "name": "",
          "type": "uint256"
        }
      ],
      "stateMutability": "view",
      "type": "function"
    },
    {
      "inputs": [
        {
          "internalType": "bytes32",
          "name": "",
          "type": "bytes32"
        },
        {
          "internalType": "uint256",
          "name": "",
          "type": "uint256"
        }
      ],
      "name": "payoutNumerators",
      "outputs": [
        {
          "internalType": "uint256",
          "name": "",
          "type": "uint256"
        }
      ],
      "stateMutability": "view",
      "type": "function"
    },
    {
      "inputs": [
        {
          "internalType": "address",
          "name": "oracle",
          "type": "address"
        },
        {
          "internalType": "bytes32",
          "name": "questionId",
          "type": "bytes32"
        },
        {
          "internalType": "uint256",
          "name": "outcomeSlotCount",
          "type": "uint256"
        }
      ],
      "name": "prepareCondition",
      "outputs": [],
      "stateMutability": "nonpayable",
      "type": "function"
    },
    {
      "inputs": [
        {
          "internalType": "contract IERC20",
          "name": "collateralToken",
          "type": "address"
        },
        {
          "internalType": "bytes32",
          "name": "parentCollectionId",
          "type": "bytes32"
        },
        {
          "internalType": "bytes32",
          "name": "conditionId",
          "type": "bytes32"
        },
        {
          "internalType": "uint256[]",
          "name": "indexSets",
          "type": "uint256[]"
        }
      ],
      "name": "redeemPositions",
      "outputs": [],
      "stateMutability": "nonpayable",
      "type": "function"
    },
    {
      "inputs": [
        {
          "internalType": "contract IERC20",
          "name": "collateralToken",
          "type": "address"
        },
        {
          "internalType": "bytes32",
          "name": "parentCollectionId",
          "type": "bytes32"
        },
        {
          "internalType": "bytes32",
          "name": "conditionId",
          "type": "bytes32"
        },
        {
          "internalType": "uint256[]",
          "name": "indexSets",
          "type": "uint256[]"
        },
        {
          "internalType": "address",
          "name": "redeemerAddress",
          "type": "address"
        }
      ],
      "name": "redeemPositionsOnBehalf",
      "outputs": [
        {
          "internalType": "uint256",
          "name": "totalPayout",
          "type": "uint256"
        }
      ],
      "stateMutability": "nonpayable",
      "type": "function"
    },
    {
      "inputs": [],
      "name": "renounceOwnership",
      "outputs": [],
      "stateMutability": "nonpayable",
      "type": "function"
    },
    {
      "inputs": [
        {
          "internalType": "bytes32",
          "name": "questionId",
          "type": "bytes32"
        },
        {
          "internalType": "uint256[]",
          "name": "payouts",
          "type": "uint256[]"
        }
      ],
      "name": "reportPayouts",
      "outputs": [],
      "stateMutability": "nonpayable",
      "type": "function"
    },
    {
      "inputs": [
        {
          "internalType": "address",
          "name": "from",
          "type": "address"
        },
        {
          "internalType": "address",
          "name": "to",
          "type": "address"
        },
        {
          "internalType": "uint256[]",
          "name": "ids",
          "type": "uint256[]"
        },
        {
          "internalType": "uint256[]",
          "name": "values",
          "type": "uint256[]"
        },
        {
          "internalType": "bytes",
          "name": "data",
          "type": "bytes"
        }
      ],
      "name": "safeBatchTransferFrom",
      "outputs": [],
      "stateMutability": "nonpayable",
      "type": "function"
    },
    {
      "inputs": [
        {
          "internalType": "address",
          "name": "from",
          "type": "address"
        },
        {
          "internalType": "address",
          "name": "to",
          "type": "address"
        },
        {
          "internalType": "uint256",
          "name": "id",
          "type": "uint256"
        },
        {
          "internalType": "uint256",
          "name": "value",
          "type": "uint256"
        },
        {
          "internalType": "bytes",
          "name": "data",
          "type": "bytes"
        }
      ],
      "name": "safeTransferFrom",
      "outputs": [],
      "stateMutability": "nonpayable",
      "type": "function"
    },
    {
      "inputs": [
        {
          "internalType": "address",
          "name": "operator",
          "type": "address"
        },
        {
          "internalType": "bool",
          "name": "approved",
          "type": "bool"
        }
      ],
      "name": "setApprovalForAll",
      "outputs": [],
      "stateMutability": "nonpayable",
      "type": "function"
    },
    {
      "inputs": [
        {
          "internalType": "address",
          "name": "_oracleAddress",
          "type": "address"
        }
      ],
      "name": "setOracleAddress",
      "outputs": [],
      "stateMutability": "nonpayable",
      "type": "function"
    },
    {
      "inputs": [
        {
          "internalType": "string",
          "name": "newuri",
          "type": "string"
        }
      ],
      "name": "setURI",
      "outputs": [],
      "stateMutability": "nonpayable",
      "type": "function"
    },
    {
      "inputs": [
        {
          "internalType": "contract IERC20",
          "name": "collateralToken",
          "type": "address"
        },
        {
          "internalType": "bytes32",
          "name": "parentCollectionId",
          "type": "bytes32"
        },
        {
          "internalType": "bytes32",
          "name": "conditionId",
          "type": "bytes32"
        },
        {
          "internalType": "uint256[]",
          "name": "partition",
          "type": "uint256[]"
        },
        {
          "internalType": "uint256",
          "name": "amount",
          "type": "uint256"
        }
      ],
      "name": "splitPosition",
      "outputs": [],
      "stateMutability": "nonpayable",
      "type": "function"
    },
    {
      "inputs": [
        {
          "internalType": "bytes4",
          "name": "interfaceId",
          "type": "bytes4"
        }
      ],
      "name": "supportsInterface",
      "outputs": [
        {
          "internalType": "bool",
          "name": "",
          "type": "bool"
        }
      ],
      "stateMutability": "view",
      "type": "function"
    },
    {
      "inputs": [
        {
          "internalType": "uint256",
          "name": "_id",
          "type": "uint256"
        }
      ],
      "name": "tokenURI",
      "outputs": [
        {
          "internalType": "string",
          "name": "",
          "type": "string"
        }
      ],
      "stateMutability": "view",
      "type": "function"
    },
    {
      "inputs": [
        {
          "internalType": "address",
          "name": "newOwner",
          "type": "address"
        }
      ],
      "name": "transferOwnership",
      "outputs": [],
      "stateMutability": "nonpayable",
      "type": "function"
    },
    {
      "inputs": [
        {
          "internalType": "uint256",
          "name": "_id",
          "type": "uint256"
        }
      ],
      "name": "uri",
      "outputs": [
        {
          "internalType": "string",
          "name": "",
          "type": "string"
        }
      ],
      "stateMutability": "view",
      "type": "function"
    }
  ],
  "bytecode": "0x60a0604052600060809081526004906100189082610184565b5034801561002557600080fd5b50604051614abd380380614abd83398101604081905261004491610242565b80338061006b57604051631e4fbdf760e01b81526000600482015260240160405180910390fd5b61007481610085565b5061007e816100d5565b505061030e565b600080546001600160a01b038381166001600160a01b0319831681178455604051919092169283917f8be0079c531659141344cd1fd0a4f28419497f9722a3daafe3b4186f6b6457e09190a35050565b60036100e18282610184565b5050565b634e487b7160e01b600052604160045260246000fd5b600181811c9082168061010f57607f821691505b60208210810361012f57634e487b7160e01b600052602260045260246000fd5b50919050565b601f82111561017f57806000526020600020601f840160051c8101602085101561015c5750805b601f840160051c820191505b8181101561017c5760008155600101610168565b50505b505050565b81516001600160401b0381111561019d5761019d6100e5565b6101b1816101ab84546100fb565b84610135565b6020601f8211600181146101e557600083156101cd5750848201515b600019600385901b1c1916600184901b17845561017c565b600084815260208120601f198516915b8281101561021557878501518255602094850194600190920191016101f5565b50848210156102335786840151600019600387901b60f8161c191681555b50505050600190811b01905550565b60006020828403121561025457600080fd5b81516001600160401b0381111561026a57600080fd5b8201601f8101841361027b57600080fd5b80516001600160401b03811115610294576102946100e5565b604051601f8201601f19908116603f011681016001600160401b03811182821017156102c2576102c26100e5565b6040528181528282016020018610156102da57600080fd5b60005b828110156102f9576020818501810151838301820152016102dd565b50600091810160200191909152949350505050565b6147a08061031d6000396000f3fe608060405234801561001057600080fd5b50600436106101b85760003560e01c8063852c6ae2116100f9578063c87b56dd11610097578063dd34de6711610071578063dd34de67146103b2578063e985e9c5146103d2578063f242432a1461040e578063f2fde38b1461042157600080fd5b8063c87b56dd14610254578063d42dc0c21461037f578063d96ee7541461039f57600080fd5b80639e7212ad116100d35780639e7212ad14610333578063a22cb46514610346578063a89ae4ba14610359578063c49298ac1461036c57600080fd5b8063852c6ae2146102e8578063856296f7146102fb5780638da5cb5b1461030e57600080fd5b80630e89341c116101665780634c69c00f116101405780634c69c00f1461029a5780634e1273f4146102ad578063715018a6146102cd57806372ce4275146102d557600080fd5b80630e89341c146102545780632eb2c2d61461027457806339dd75301461028757600080fd5b806302fe53051161019757806302fe53051461021b5780630504c8141461022e57806306ffc3301461024157600080fd5b8062fdd58e146101bd57806301b7037c146101e357806301ffc9a7146101f8575b600080fd5b6101d06101cb3660046139c9565b610434565b6040519081526020015b60405180910390f35b6101f66101f1366004613a41565b61045e565b005b61020b610206366004613ad9565b6108a8565b60405190151581526020016101da565b6101f6610229366004613bb2565b61098b565b6101d061023c366004613bfb565b61099f565b6101d061024f366004613c1d565b6109d0565b610267610262366004613c99565b610e9a565b6040516101da9190613d02565b6101f6610282366004613dc6565b610ed5565b6101d06102953660046139c9565b610f74565b6101f66102a8366004613e80565b610fbf565b6102c06102bb366004613e9d565b611001565b6040516101da9190613fa4565b6101f66110e7565b6101f66102e3366004613fb7565b6110fb565b6101d06102f6366004614029565b61155b565b6101d061030936600461405e565b6115ae565b6000546001600160a01b03165b6040516001600160a01b0390911681526020016101da565b6101f6610341366004613fb7565b6115bb565b6101f6610354366004614098565b6119da565b60065461031b906001600160a01b031681565b6101f661037a3660046140d1565b6119e9565b6101d061038d366004613c99565b60009081526007602052604090205490565b6101f66103ad366004614029565b611d06565b6101d06103c0366004613c99565b60086020526000908152604090205481565b61020b6103e036600461411d565b6001600160a01b03918216600090815260026020908152604080832093909416825291909152205460ff1690565b6101f661041c36600461414b565b611f25565b6101f661042f366004613e80565b611fbc565b60008181526001602090815260408083206001600160a01b03861684529091529020545b92915050565b600083815260086020526040902054806104e55760405162461bcd60e51b815260206004820152602560248201527f726573756c7420666f7220636f6e646974696f6e206e6f74207265636569766560448201527f642079657400000000000000000000000000000000000000000000000000000060648201526084015b60405180910390fd5b600084815260076020526040902054806105415760405162461bcd60e51b815260206004820152601a60248201527f636f6e646974696f6e206e6f742070726570617265642079657400000000000060448201526064016104dc565b600080610551600180851b6141d7565b905060005b858110156106e2576000878783818110610572576105726141ea565b90506020020135905060008111801561058a57508281105b6105d65760405162461bcd60e51b815260206004820152601560248201527f676f7420696e76616c696420696e64657820736574000000000000000000000060448201526064016104dc565b600061062f8c6105e78d8d86612010565b6040516bffffffffffffffffffffffff19606084901b1660208201526034810182905260009060540160408051601f1981840301815291905280516020909101209392505050565b90506000805b87811015610692576001811b84161561068a5760008c8152600760205260409020805461068791908390811061066d5761066d6141ea565b9060005260206000200154836123fd90919063ffffffff16565b91505b600101610635565b50600061069f3384610434565b905080156106d2576106c56106be8a6106b88486612419565b9061244e565b88906123fd565b96506106d2338483612468565b5050600190920191506105569050565b50811561084b57876107ef576040517fa9059cbb000000000000000000000000000000000000000000000000000000008152336004820152602481018390526001600160a01b038a169063a9059cbb906044016020604051808303816000875af1158015610754573d6000803e3d6000fd5b505050506040513d601f19601f820116820180604052508101906107789190614219565b6107ea5760405162461bcd60e51b815260206004820152602b60248201527f636f756c64206e6f74207472616e73666572207061796f757420746f206d657360448201527f736167652073656e64657200000000000000000000000000000000000000000060648201526084016104dc565b61084b565b6040805160608b901b6bffffffffffffffffffffffff191660208083019190915260348083018c9052835180840390910181526054909201909252805191012061084b90339084604051806020016040528060008152506124f1565b87896001600160a01b0316336001600160a01b03167f2682012a4a4f1973119f1c9b90745d1bd91fa2bab387344f044cb3586864d18d8a8a8a886040516108959493929190614281565b60405180910390a4505050505050505050565b60007fffffffff0000000000000000000000000000000000000000000000000000000082167fd9b67a2600000000000000000000000000000000000000000000000000000000148061093b57507fffffffff0000000000000000000000000000000000000000000000000000000082167f0e89341c00000000000000000000000000000000000000000000000000000000145b8061045857507f01ffc9a7000000000000000000000000000000000000000000000000000000007fffffffff00000000000000000000000000000000000000000000000000000000831614610458565b610993612567565b61099c816125ad565b50565b600760205281600052604060002081815481106109bb57600080fd5b90600052602060002001600091509150505481565b6006546000906001600160a01b03163314610a535760405162461bcd60e51b815260206004820152602260248201527f6f6e6c79206f7261636c652063616e2063616c6c20746869732066756e63746960448201527f6f6e00000000000000000000000000000000000000000000000000000000000060648201526084016104dc565b60008581526008602052604090205480610ad55760405162461bcd60e51b815260206004820152602560248201527f726573756c7420666f7220636f6e646974696f6e206e6f74207265636569766560448201527f642079657400000000000000000000000000000000000000000000000000000060648201526084016104dc565b60008681526007602052604090205480610b315760405162461bcd60e51b815260206004820152601a60248201527f636f6e646974696f6e206e6f742070726570617265642079657400000000000060448201526064016104dc565b6000610b40600180841b6141d7565b905060005b86811015610c69576000888883818110610b6157610b616141ea565b905060200201359050600081118015610b7957508281105b610bc55760405162461bcd60e51b815260206004820152601560248201527f676f7420696e76616c696420696e64657820736574000000000000000000000060448201526064016104dc565b6000610bd68d6105e78e8e86612010565b90506000805b86811015610c1f576001811b841615610c175760008d81526007602052604090208054610c1491908390811061066d5761066d6141ea565b91505b600101610bdc565b506000610c2c8a84610434565b90508015610c5957610c4c610c45896106b88486612419565b8a906123fd565b9850610c598a8483612468565b505060019092019150610b459050565b506006546001600160a01b0316610cc25760405162461bcd60e51b815260206004820152601660248201527f6f7261636c652061646472657373206e6f74207365740000000000000000000060448201526064016104dc565b8315610e3b5788610dd4576006546040517fa9059cbb0000000000000000000000000000000000000000000000000000000081526001600160a01b03918216600482015260248101869052908b169063a9059cbb906044016020604051808303816000875af1158015610d39573d6000803e3d6000fd5b505050506040513d601f19601f82011682018060405250810190610d5d9190614219565b610dcf5760405162461bcd60e51b815260206004820152602d60248201527f636f756c64206e6f74207472616e73666572207061796f757420746f2072656460448201527f65656d657220616464726573730000000000000000000000000000000000000060648201526084016104dc565b610e3b565b6006546040805160608d901b6bffffffffffffffffffffffff191660208083019190915260348083018e90528351808403909101815260549092019092528051910120610e3b916001600160a01b03169086604051806020016040528060008152506124f1565b888a6001600160a01b0316866001600160a01b03167f2682012a4a4f1973119f1c9b90745d1bd91fa2bab387344f044cb3586864d18d8b8b8b8a604051610e859493929190614281565b60405180910390a45050509695505050505050565b6060610ea5826125b9565b610eae83612698565b604051602001610ebf9291906142ac565b6040516020818303038152906040529050919050565b336001600160a01b0386168114801590610f1557506001600160a01b0380871660009081526002602090815260408083209385168352929052205460ff16155b15610f5f576040517fe237d9220000000000000000000000000000000000000000000000000000000081526001600160a01b038083166004830152871660248201526044016104dc565b610f6c8686868686612756565b505050505050565b60408051606084901b6bffffffffffffffffffffffff1916602080830191909152603480830185905283518084039091018152605490920190925280519101206000905b9392505050565b610fc7612567565b600680547fffffffffffffffffffffffff0000000000000000000000000000000000000000166001600160a01b0392909216919091179055565b6060815183511461104b57815183516040517f5b059991000000000000000000000000000000000000000000000000000000008152600481019290925260248201526044016104dc565b6000835167ffffffffffffffff81111561106757611067613af6565b604051908082528060200260200182016040528015611090578160200160208202803683370190505b50905060005b84518110156110df576020808202860101516110ba90602080840287010151610434565b8282815181106110cc576110cc6141ea565b6020908102919091010152600101611096565b509392505050565b6110ef612567565b6110f960006127e9565b565b6001821161114b5760405162461bcd60e51b815260206004820181905260248201527f676f7420656d707479206f722073696e676c65746f6e20706172746974696f6e60448201526064016104dc565b600084815260076020526040902054806111a75760405162461bcd60e51b815260206004820152601a60248201527f636f6e646974696f6e206e6f742070726570617265642079657400000000000060448201526064016104dc565b60006111b6600180841b6141d7565b90508060008567ffffffffffffffff8111156111d4576111d4613af6565b6040519080825280602002602001820160405280156111fd578160200160208202803683370190505b50905060008667ffffffffffffffff81111561121b5761121b613af6565b604051908082528060200260200182016040528015611244578160200160208202803683370190505b50905060005b87811015611373576000898983818110611266576112666141ea565b90506020020135905060008111801561127e57508581105b6112ca5760405162461bcd60e51b815260206004820152601560248201527f676f7420696e76616c696420696e64657820736574000000000000000000000060448201526064016104dc565b808582161461131b5760405162461bcd60e51b815260206004820152601660248201527f706172746974696f6e206e6f74206469736a6f696e740000000000000000000060448201526064016104dc565b9384189361132e8d6105e78e8e85612010565b848381518110611340576113406141ea565b6020026020010181815250508783838151811061135f5761135f6141ea565b60209081029190910101525060010161124a565b50826000036114d55789611488576040517f23b872dd000000000000000000000000000000000000000000000000000000008152336004820152306024820152604481018790526001600160a01b038c16906323b872dd906064016020604051808303816000875af11580156113ed573d6000803e3d6000fd5b505050506040513d601f19601f820116820180604052508101906114119190614219565b6114835760405162461bcd60e51b815260206004820152602360248201527f636f756c64206e6f74207265636569766520636f6c6c61746572616c20746f6b60448201527f656e73000000000000000000000000000000000000000000000000000000000060648201526084016104dc565b6114ea565b6040805160608d901b6bffffffffffffffffffffffff191660208083019190915260348083018e905283518084039091018152605490920190925280519101206114839033905b88612468565b6114ea336114cf8d6105e78e8e898b18612010565b61150533838360405180602001604052806000815250612851565b888a336001600160a01b03167f2e6bb91f8cbcda0c93623c54d0403a43514fabc40084ec96b6d5379a747862988e8c8c8c6040516115469493929190614303565b60405180910390a45050505050505050505050565b60408051606085901b6bffffffffffffffffffffffff191660208083019190915260348201859052605480830185905283518084039091018152607490920190925280519101206000905b949350505050565b60006115a6848484612010565b6001821161160b5760405162461bcd60e51b815260206004820181905260248201527f676f7420656d707479206f722073696e676c65746f6e20706172746974696f6e60448201526064016104dc565b600084815260076020526040902054806116675760405162461bcd60e51b815260206004820152601a60248201527f636f6e646974696f6e206e6f742070726570617265642079657400000000000060448201526064016104dc565b6000611676600180841b6141d7565b90508060008567ffffffffffffffff81111561169457611694613af6565b6040519080825280602002602001820160405280156116bd578160200160208202803683370190505b50905060008667ffffffffffffffff8111156116db576116db613af6565b604051908082528060200260200182016040528015611704578160200160208202803683370190505b50905060005b87811015611833576000898983818110611726576117266141ea565b90506020020135905060008111801561173e57508581105b61178a5760405162461bcd60e51b815260206004820152601560248201527f676f7420696e76616c696420696e64657820736574000000000000000000000060448201526064016104dc565b80858216146117db5760405162461bcd60e51b815260206004820152601660248201527f706172746974696f6e206e6f74206469736a6f696e740000000000000000000060448201526064016104dc565b938418936117ee8d6105e78e8e85612010565b848381518110611800576118006141ea565b6020026020010181815250508783838151811061181f5761181f6141ea565b60209081029190910101525060010161170a565b5061183f3383836128a8565b826000036119845789611927576040517fa9059cbb000000000000000000000000000000000000000000000000000000008152336004820152602481018790526001600160a01b038c169063a9059cbb906044016020604051808303816000875af11580156118b2573d6000803e3d6000fd5b505050506040513d601f19601f820116820180604052508101906118d69190614219565b6119225760405162461bcd60e51b815260206004820181905260248201527f636f756c64206e6f742073656e6420636f6c6c61746572616c20746f6b656e7360448201526064016104dc565b611999565b6040805160608d901b6bffffffffffffffffffffffff191660208083019190915260348083018e905283518084039091018152605490920190925280519101206119229033905b88604051806020016040528060008152506124f1565b6119993361196e8d6105e78e8e898b18612010565b888a336001600160a01b03167f6f13ca62553fcc2bcd2372180a43949c1e4cebba603901ede2f4e14f36b282ca8e8c8c8c6040516115469493929190614303565b6119e533838361290d565b5050565b8060018111611a605760405162461bcd60e51b815260206004820152602a60248201527f74686572652073686f756c64206265206d6f7265207468616e206f6e65206f7560448201527f74636f6d6520736c6f740000000000000000000000000000000000000000000060648201526084016104dc565b604080516bffffffffffffffffffffffff193360601b16602080830191909152603482018790526054808301859052835180840390910181526074909201835281519181019190912060008181526007909252919020548214611b055760405162461bcd60e51b815260206004820152601f60248201527f636f6e646974696f6e206e6f74207072657061726564206f7220666f756e640060448201526064016104dc565b60008181526008602052604090205415611b615760405162461bcd60e51b815260206004820152601e60248201527f7061796f75742064656e6f6d696e61746f7220616c726561647920736574000060448201526064016104dc565b6000805b83811015611c53576000868683818110611b8157611b816141ea565b905060200201359050611b9d81846123fd90919063ffffffff16565b600085815260076020526040902080549194509083908110611bc157611bc16141ea565b9060005260206000200154600014611c1b5760405162461bcd60e51b815260206004820152601c60248201527f7061796f7574206e756d657261746f7220616c7265616479207365740000000060448201526064016104dc565b6000848152600760205260409020805482919084908110611c3e57611c3e6141ea565b60009182526020909120015550600101611b65565b5060008111611ca45760405162461bcd60e51b815260206004820152601460248201527f7061796f757420697320616c6c207a65726f657300000000000000000000000060448201526064016104dc565b600082815260086020908152604080832084905560079091529081902090518791339185917fb44d84d3289691f71497564b85d4233648d9dbae8cbdbb4329f301c3a018589491611cf6918991614326565b60405180910390a4505050505050565b610100811115611d585760405162461bcd60e51b815260206004820152601660248201527f746f6f206d616e79206f7574636f6d6520736c6f74730000000000000000000060448201526064016104dc565b60018111611dce5760405162461bcd60e51b815260206004820152602a60248201527f74686572652073686f756c64206265206d6f7265207468616e206f6e65206f7560448201527f74636f6d6520736c6f740000000000000000000000000000000000000000000060648201526084016104dc565b604080516bffffffffffffffffffffffff19606086901b166020808301919091526034820185905260548083018590528351808403909101815260749092018352815191810191909120600081815260079092529190205415611e735760405162461bcd60e51b815260206004820152601a60248201527f636f6e646974696f6e20616c726561647920707265706172656400000000000060448201526064016104dc565b8167ffffffffffffffff811115611e8c57611e8c613af6565b604051908082528060200260200182016040528015611eb5578160200160208202803683370190505b5060008281526007602090815260409091208251611ed99391929190910190613954565b5082846001600160a01b0316827fab3760c3bd2bb38b5bcf54dc79802ed67338b4cf29f3054ded67ed24661e417785604051611f1791815260200190565b60405180910390a450505050565b336001600160a01b0386168114801590611f6557506001600160a01b0380871660009081526002602090815260408083209385168352929052205460ff16155b15611faf576040517fe237d9220000000000000000000000000000000000000000000000000000000081526001600160a01b038083166004830152871660248201526044016104dc565b610f6c86868686866129db565b611fc4612567565b6001600160a01b038116612007576040517f1e4fbdf7000000000000000000000000000000000000000000000000000000008152600060048201526024016104dc565b61099c816127e9565b600080838360405160200161202f929190918252602082015260400190565b60408051601f198184030181529190528051602090910120905060ff81901c15156000805b7f30644e72e131a029b85045b68181585d97816a916871ca8d3c208c16d87cfd476001850893507f30644e72e131a029b85045b68181585d97816a916871ca8d3c208c16d87cfd4760037f30644e72e131a029b85045b68181585d97816a916871ca8d3c208c16d87cfd478087880987090890506120d181612a9c565b9150807f30644e72e131a029b85045b68181585d97816a916871ca8d3c208c16d87cfd47838409036120545782801561211257506121106002836143a9565b155b80612130575082158015612130575061212c6002836143a9565b6001145b156121625761215f827f30644e72e131a029b85045b68181585d97816a916871ca8d3c208c16d87cfd476141d7565b91505b8780156123b85760fe81901c151593507f3fffffffffffffffffffffffffffffffffffffffffffffffffffffffffffffff167f30644e72e131a029b85045b68181585d97816a916871ca8d3c208c16d87cfd4760037f30644e72e131a029b85045b68181585d97816a916871ca8d3c208c16d87cfd4780848509840908915060006121ec83612a9c565b905084801561220357506122016002826143a9565b155b80612221575084158015612221575061221d6002826143a9565b6001145b1561225357612250817f30644e72e131a029b85045b68181585d97816a916871ca8d3c208c16d87cfd476141d7565b90505b827f30644e72e131a029b85045b68181585d97816a916871ca8d3c208c16d87cfd47828309146122c55760405162461bcd60e51b815260206004820152601c60248201527f696e76616c696420706172656e7420636f6c6c656374696f6e2049440000000060448201526064016104dc565b60408051602081018890529081018590526060810183905260808101829052600090819060069060a00160408051601f1981840301815290829052612309916143bd565b600060405180830381855afa9150503d8060008114612344576040519150601f19603f3d011682016040523d82523d6000602084013e612349565b606091505b50915091508161239b5760405162461bcd60e51b815260206004820152600c60248201527f6563616464206661696c6564000000000000000000000000000000000000000060448201526064016104dc565b808060200190518101906123af91906143d9565b90985095505050505b6123c36002846143a9565b6001036123f0577f4000000000000000000000000000000000000000000000000000000000000000851894505b5092979650505050505050565b60008061240a83856143fd565b905083811015610fb857600080fd5b60008260000361242b57506000610458565b60006124378385614410565b9050826124448583614427565b14610fb857600080fd5b600080821161245c57600080fd5b60006115a68385614427565b6001600160a01b0383166124ab576040517f01a83514000000000000000000000000000000000000000000000000000000008152600060048201526024016104dc565b604080516001808252602082018590528183019081526060820184905260a082019092526000608082018181529192916124ea91879185908590613253565b5050505050565b6001600160a01b038416612534576040517f57f447ce000000000000000000000000000000000000000000000000000000008152600060048201526024016104dc565b60408051600180825260208201869052818301908152606082018590526080820190925290610f6c600087848487613253565b6000546001600160a01b031633146110f9576040517f118cdaa70000000000000000000000000000000000000000000000000000000081523360048201526024016104dc565b60036119e582826144d5565b6000818152600560205260408120805460609291906125d79061443b565b80601f01602080910402602001604051908101604052809291908181526020018280546126039061443b565b80156126505780601f1061262557610100808354040283529160200191612650565b820191906000526020600020905b81548152906001019060200180831161263357829003601f168201915b50505050509050600081511161266e57612669836132a6565b610fb8565b6004816040516020016126829291906145d0565b6040516020818303038152906040529392505050565b606060006126a58361333a565b600101905060008167ffffffffffffffff8111156126c5576126c5613af6565b6040519080825280601f01601f1916602001820160405280156126ef576020820181803683370190505b5090508181016020015b7fffffffffffffffffffffffffffffffffffffffffffffffffffffffffffffffff017f3031323334353637383961626364656600000000000000000000000000000000600a86061a8153600a85049450846126f957509392505050565b6001600160a01b038416612799576040517f57f447ce000000000000000000000000000000000000000000000000000000008152600060048201526024016104dc565b6001600160a01b0385166127dc576040517f01a83514000000000000000000000000000000000000000000000000000000008152600060048201526024016104dc565b6124ea8585858585613253565b600080546001600160a01b038381167fffffffffffffffffffffffff0000000000000000000000000000000000000000831681178455604051919092169283917f8be0079c531659141344cd1fd0a4f28419497f9722a3daafe3b4186f6b6457e09190a35050565b6001600160a01b038416612894576040517f57f447ce000000000000000000000000000000000000000000000000000000008152600060048201526024016104dc565b6128a2600085858585613253565b50505050565b6001600160a01b0383166128eb576040517f01a83514000000000000000000000000000000000000000000000000000000008152600060048201526024016104dc565b612908836000848460405180602001604052806000815250613253565b505050565b6001600160a01b038216612950576040517fced3e100000000000000000000000000000000000000000000000000000000008152600060048201526024016104dc565b6001600160a01b0383811660008181526002602090815260408083209487168084529482529182902080547fffffffffffffffffffffffffffffffffffffffffffffffffffffffffffffff001686151590811790915591519182527f17307eab39ab6107e8899845ad3d59bd9653f200f220920489ca2b5937696c31910160405180910390a3505050565b6001600160a01b038416612a1e576040517f57f447ce000000000000000000000000000000000000000000000000000000008152600060048201526024016104dc565b6001600160a01b038516612a61576040517f01a83514000000000000000000000000000000000000000000000000000000008152600060048201526024016104dc565b60408051600180825260208201869052818301908152606082018590526080820190925290612a938787848487613253565b50505050505050565b60007f30644e72e131a029b85045b68181585d97816a916871ca8d3c208c16d87cfd47808380099150808283098181820990508181840992508183850993508184840992508183840990508181820982818309905082818209905082818209905082818309915082828609945082858609915082828309915082828509935082848509915082828309915082828309915082828509915082828609945082858609915082828309915082828309915082828609915082828509935082848609945082858609915082828309915082828509935082848509915082828309905082818209905082818209905082818309915082828609945082858509935082848509915082828309915082828309915082828609945082858609915082828309915082828609915082828309915082828309915082828609915082828509935082848509915082828309905082818209905082818309905082818509905082818209905082818209905082818209905082818209905082818309915082828609945082858609915082828609915082828509935082848509915082828509915082828309915082828309905082818309905082818209838182099050838182099050838182099050838182099050838183099150508281830991508282860994508285850993508284850991508282860994508285850993508284860994508285850993508284860994508285860991508282860991508282830991508282850993508284850991508282830991508282860994508285850993508284850991508282850991508282860994508285850993508284860994508285850993508284850991508282830991508282850991508282860994508285860991508282860991508282850993508284860994508285850993508284860994508285850993508284850991508282850991508282830991508282860994508285850993508284850991508282850991508282830991508282860994508285860991508282830990508281820990508281830990508281860990508281820990508281820990508281820990508281820990508281830991508282850993508284860994508285850993508284860994508285860991508282860991508282830991508282830991508282830991508282860991508282850993508284850991508282850991508282830991508282860994508285860991508282860991508282850993508284860994508285860991508282830991508282850993508284860994508285860991508282850993508284860994508285850993508284850991508282850991508282860994508285850993508284850991508282850991508282830991508282830991508282860994508285860991508282830991508282830991508282860991508282850993508284860994508285860991508282860990508281820990508281820990508281830991508282850993508284850991508282860994508285850993508284860994508285850993508284860994508285850993508284850991508282850990508281850991508282830991508282830991508282820991505081818509935081848409925081838509935081848409925081838509935081848509905081818509905081818409925050808284099250808384099250808384099250808384099250808384099250808384099250808384099250808384099250808384099250808384099250808384099250808384099250808384099250808384099250808384099250808384099250808384099250808384099250808384099250808384099250808384099250808384099250808384099250808384099250808384099250808384099250808384099250808384099250808384099250808384099250808384099250808384099250808384099250808384099250808384099250808384099250808384099250808384099250808384099250808384099250808384099250808384099250808384099250808384099250808384099250808384099250808384099250808384099250808384099250808384099250808384099250808384099250808384099250808384099250808384099250808384099250808384099250808384099250808384099250808384099250808384099250808384099250808384099250808384099250808384099250808384099250808384099250808384099250808384099250808384099250808384099250808384099250808384099250808384099250808384099250808384099250808384099250808384099250808384099250808384099250808384099250808384099250808384099250808384099250808384099250808384099250808384099250808384099250808384099250808384099250808384099250808384099250808384099250808384099250808384099250808384099250808384099250808384099250808384099250808384099250808384099250808384099250808384099250808384099250808384099250808384099250808384099250808384099250808384099250808384099250808384099250808384099250808384099250808384099250808384099250808384099250808384099250808384099250808384099250808384099250808384099250808384099250808384099250808384099250808384099250808384099250808384099250808383099392505050565b61325f8585858561341c565b6001600160a01b038416156124ea57825133906001036132985760208481015190840151613291838989858589613668565b5050610f6c565b610f6c818787878787613808565b6060600380546132b59061443b565b80601f01602080910402602001604051908101604052809291908181526020018280546132e19061443b565b801561332e5780601f106133035761010080835404028352916020019161332e565b820191906000526020600020905b81548152906001019060200180831161331157829003601f168201915b50505050509050919050565b6000807a184f03e93ff9f4daa797ed6e38ed64bf6a1f0100000000000000008310613383577a184f03e93ff9f4daa797ed6e38ed64bf6a1f010000000000000000830492506040015b6d04ee2d6d415b85acef810000000083106133af576d04ee2d6d415b85acef8100000000830492506020015b662386f26fc1000083106133cd57662386f26fc10000830492506010015b6305f5e10083106133e5576305f5e100830492506008015b61271083106133f957612710830492506004015b6064831061340b576064830492506002015b600a83106104585760010192915050565b805182511461346457815181516040517f5b059991000000000000000000000000000000000000000000000000000000008152600481019290925260248201526044016104dc565b3360005b8351811015613589576020818102858101820151908501909101516001600160a01b038816156135385760008281526001602090815260408083206001600160a01b038c1684529091529020548181101561350f576040517f03dee4c50000000000000000000000000000000000000000000000000000000081526001600160a01b038a1660048201526024810182905260448101839052606481018490526084016104dc565b60008381526001602090815260408083206001600160a01b038d16845290915290209082900390555b6001600160a01b0387161561357f5760008281526001602090815260408083206001600160a01b038b168452909152812080548392906135799084906143fd565b90915550505b5050600101613468565b50825160010361360a5760208301516000906020840151909150856001600160a01b0316876001600160a01b0316846001600160a01b03167fc3d58168c5ae7397731d063d5bbf3d657854427343f4c083240f7aacaa2d0f6285856040516135fb929190918252602082015260400190565b60405180910390a450506124ea565b836001600160a01b0316856001600160a01b0316826001600160a01b03167f4a39dc06d4c0dbc64b70af90fd698a233a518aa5d07e595d983b8c0526c8f7fb8686604051613659929190614674565b60405180910390a45050505050565b6001600160a01b0384163b15610f6c576040517ff23a6e610000000000000000000000000000000000000000000000000000000081526001600160a01b0385169063f23a6e61906136c590899089908890889088906004016146a2565b6020604051808303816000875af1925050508015613700575060408051601f3d908101601f191682019092526136fd918101906146ea565b60015b613782573d80801561372e576040519150601f19603f3d011682016040523d82523d6000602084013e613733565b606091505b50805160000361377a576040517f57f447ce0000000000000000000000000000000000000000000000000000000081526001600160a01b03861660048201526024016104dc565b805160208201fd5b7fffffffff0000000000000000000000000000000000000000000000000000000081167ff23a6e610000000000000000000000000000000000000000000000000000000014612a93576040517f57f447ce0000000000000000000000000000000000000000000000000000000081526001600160a01b03861660048201526024016104dc565b6001600160a01b0384163b15610f6c576040517fbc197c810000000000000000000000000000000000000000000000000000000081526001600160a01b0385169063bc197c81906138659089908990889088908890600401614707565b6020604051808303816000875af19250505080156138a0575060408051601f3d908101601f1916820190925261389d918101906146ea565b60015b6138ce573d80801561372e576040519150601f19603f3d011682016040523d82523d6000602084013e613733565b7fffffffff0000000000000000000000000000000000000000000000000000000081167fbc197c810000000000000000000000000000000000000000000000000000000014612a93576040517f57f447ce0000000000000000000000000000000000000000000000000000000081526001600160a01b03861660048201526024016104dc565b82805482825590600052602060002090810192821561398f579160200282015b8281111561398f578251825591602001919060010190613974565b5061399b92915061399f565b5090565b5b8082111561399b57600081556001016139a0565b6001600160a01b038116811461099c57600080fd5b600080604083850312156139dc57600080fd5b82356139e7816139b4565b946020939093013593505050565b60008083601f840112613a0757600080fd5b50813567ffffffffffffffff811115613a1f57600080fd5b6020830191508360208260051b8501011115613a3a57600080fd5b9250929050565b600080600080600060808688031215613a5957600080fd5b8535613a64816139b4565b94506020860135935060408601359250606086013567ffffffffffffffff811115613a8e57600080fd5b613a9a888289016139f5565b969995985093965092949392505050565b7fffffffff000000000000000000000000000000000000000000000000000000008116811461099c57600080fd5b600060208284031215613aeb57600080fd5b8135610fb881613aab565b7f4e487b7100000000000000000000000000000000000000000000000000000000600052604160045260246000fd5b604051601f8201601f1916810167ffffffffffffffff81118282101715613b4e57613b4e613af6565b604052919050565b60008067ffffffffffffffff841115613b7157613b71613af6565b50601f8301601f1916602001613b8681613b25565b915050828152838383011115613b9b57600080fd5b828260208301376000602084830101529392505050565b600060208284031215613bc457600080fd5b813567ffffffffffffffff811115613bdb57600080fd5b8201601f81018413613bec57600080fd5b6115a684823560208401613b56565b60008060408385031215613c0e57600080fd5b50508035926020909101359150565b60008060008060008060a08789031215613c3657600080fd5b8635613c41816139b4565b95506020870135945060408701359350606087013567ffffffffffffffff811115613c6b57600080fd5b613c7789828a016139f5565b9094509250506080870135613c8b816139b4565b809150509295509295509295565b600060208284031215613cab57600080fd5b5035919050565b60005b83811015613ccd578181015183820152602001613cb5565b50506000910152565b60008151808452613cee816020860160208601613cb2565b601f01601f19169290920160200192915050565b602081526000610fb86020830184613cd6565b600067ffffffffffffffff821115613d2f57613d2f613af6565b5060051b60200190565b600082601f830112613d4a57600080fd5b8135613d5d613d5882613d15565b613b25565b8082825260208201915060208360051b860101925085831115613d7f57600080fd5b602085015b83811015613d9c578035835260209283019201613d84565b5095945050505050565b600082601f830112613db757600080fd5b610fb883833560208501613b56565b600080600080600060a08688031215613dde57600080fd5b8535613de9816139b4565b94506020860135613df9816139b4565b9350604086013567ffffffffffffffff811115613e1557600080fd5b613e2188828901613d39565b935050606086013567ffffffffffffffff811115613e3e57600080fd5b613e4a88828901613d39565b925050608086013567ffffffffffffffff811115613e6757600080fd5b613e7388828901613da6565b9150509295509295909350565b600060208284031215613e9257600080fd5b8135610fb8816139b4565b60008060408385031215613eb057600080fd5b823567ffffffffffffffff811115613ec757600080fd5b8301601f81018513613ed857600080fd5b8035613ee6613d5882613d15565b8082825260208201915060208360051b850101925087831115613f0857600080fd5b6020840193505b82841015613f33578335613f22816139b4565b825260209384019390910190613f0f565b9450505050602083013567ffffffffffffffff811115613f5257600080fd5b613f5e85828601613d39565b9150509250929050565b600081518084526020840193506020830160005b82811015613f9a578151865260209586019590910190600101613f7c565b5093949350505050565b602081526000610fb86020830184613f68565b60008060008060008060a08789031215613fd057600080fd5b8635613fdb816139b4565b95506020870135945060408701359350606087013567ffffffffffffffff81111561400557600080fd5b61401189828a016139f5565b979a9699509497949695608090950135949350505050565b60008060006060848603121561403e57600080fd5b8335614049816139b4565b95602085013595506040909401359392505050565b60008060006060848603121561407357600080fd5b505081359360208301359350604090920135919050565b801515811461099c57600080fd5b600080604083850312156140ab57600080fd5b82356140b6816139b4565b915060208301356140c68161408a565b809150509250929050565b6000806000604084860312156140e657600080fd5b83359250602084013567ffffffffffffffff81111561410457600080fd5b614110868287016139f5565b9497909650939450505050565b6000806040838503121561413057600080fd5b823561413b816139b4565b915060208301356140c6816139b4565b600080600080600060a0868803121561416357600080fd5b853561416e816139b4565b9450602086013561417e816139b4565b93506040860135925060608601359150608086013567ffffffffffffffff811115613e6757600080fd5b7f4e487b7100000000000000000000000000000000000000000000000000000000600052601160045260246000fd5b81810381811115610458576104586141a8565b7f4e487b7100000000000000000000000000000000000000000000000000000000600052603260045260246000fd5b60006020828403121561422b57600080fd5b8151610fb88161408a565b81835260007f07ffffffffffffffffffffffffffffffffffffffffffffffffffffffffffffff83111561426857600080fd5b8260051b80836020870137939093016020019392505050565b84815260606020820152600061429b606083018587614236565b905082604083015295945050505050565b600083516142be818460208801613cb2565b8351908301906142d2818360208801613cb2565b7f2e6a736f6e0000000000000000000000000000000000000000000000000000009101908152600501949350505050565b6001600160a01b038516815260606020820152600061429b606083018587614236565b60006040820184835260406020840152808454808352606085019150856000526020600020925060005b8181101561436e578354835260019384019360209093019201614350565b50909695505050505050565b7f4e487b7100000000000000000000000000000000000000000000000000000000600052601260045260246000fd5b6000826143b8576143b861437a565b500690565b600082516143cf818460208701613cb2565b9190910192915050565b600080604083850312156143ec57600080fd5b505080516020909101519092909150565b80820180821115610458576104586141a8565b8082028115828204841417610458576104586141a8565b6000826144365761443661437a565b500490565b600181811c9082168061444f57607f821691505b602082108103614488577f4e487b7100000000000000000000000000000000000000000000000000000000600052602260045260246000fd5b50919050565b601f82111561290857806000526020600020601f840160051c810160208510156144b55750805b601f840160051c820191505b818110156124ea57600081556001016144c1565b815167ffffffffffffffff8111156144ef576144ef613af6565b614503816144fd845461443b565b8461448e565b6020601f821160018114614555576000831561451f5750848201515b7fffffffffffffffffffffffffffffffffffffffffffffffffffffffffffffffff600385901b1c1916600184901b1784556124ea565b600084815260208120601f198516915b828110156145855787850151825560209485019460019092019101614565565b50848210156145c157868401517fffffffffffffffffffffffffffffffffffffffffffffffffffffffffffffffff600387901b60f8161c191681555b50505050600190811b01905550565b60008084546145de8161443b565b6001821680156145f5576001811461462857614658565b7fffffffffffffffffffffffffffffffffffffffffffffffffffffffffffffff0083168652811515820286019350614658565b87600052602060002060005b8381101561465057815488820152600190910190602001614634565b505081860193505b505050835161466b818360208801613cb2565b01949350505050565b6040815260006146876040830185613f68565b82810360208401526146998185613f68565b95945050505050565b6001600160a01b03861681526001600160a01b038516602082015283604082015282606082015260a0608082015260006146df60a0830184613cd6565b979650505050505050565b6000602082840312156146fc57600080fd5b8151610fb881613aab565b6001600160a01b03861681526001600160a01b038516602082015260a06040820152600061473860a0830186613f68565b828103606084015261474a8186613f68565b9050828103608084015261475e8185613cd6565b9897505050505050505056fea2646970667358221220e04b3fe88812c61e2fc6db345cbb0279b0091ca4fb7ea8531f5e4c9223bc53af64736f6c634300081c0033",
  "linkReferences": {},
  "deployedLinkReferences": {}
}