{
  "_format": "hh-sol-artifact-1",
  "contractName": "Factory",
  "sourceName": "contracts/Factory.sol",
  "abi": [
    {
      "inputs": [],
      "stateMutability": "nonpayable",
      "type": "constructor"
    },
    {
      "anonymous": false,
      "inputs": [
        {
          "indexed": true,
          "internalType": "address",
          "name": "creator",
          "type": "address"
        },
        {
          "indexed": false,
          "internalType": "contract FixedProductMarketMaker",
          "name": "fixedProductMarketMaker",
          "type": "address"
        },
        {
          "indexed": true,
          "internalType": "contract ConditionalTokens",
          "name": "conditionalTokens",
          "type": "address"
        },
        {
          "indexed": true,
          "internalType": "contract IERC20",
          "name": "collateralToken",
          "type": "address"
        },
        {
          "indexed": false,
          "internalType": "bytes32[]",
          "name": "conditionIds",
          "type": "bytes32[]"
        },
        {
          "indexed": false,
          "internalType": "uint256",
          "name": "fee",
          "type": "uint256"
        }
      ],
      "name": "FixedProductMarketMakerCreation",
      "type": "event"
    },
    {
      "inputs": [
        {
          "internalType": "contract ConditionalTokens",
          "name": "conditionalTokens",
          "type": "address"
        },
        {
          "internalType": "contract IERC20",
          "name": "collateralToken",
          "type": "address"
        },
        {
          "internalType": "bytes32[]",
          "name": "conditionIds",
          "type": "bytes32[]"
        },
        {
          "internalType": "uint256",
          "name": "fee",
          "type": "uint256"
        },
        {
          "internalType": "uint256",
          "name": "marketEndTime",
          "type": "uint256"
        },
        {
          "internalType": "address",
          "name": "oracleAddress",
          "type": "address"
        }
      ],
      "name": "createFixedProductMarketMaker",
      "outputs": [
        {
          "internalType": "contract FixedProductMarketMaker",
          "name": "fpmm",
          "type": "address"
        }
      ],
      "stateMutability": "nonpayable",
      "type": "function"
    }
  ],
  "bytecode": "0x6080604052348015600f57600080fd5b506159a98061001f6000396000f3fe608060405234801561001057600080fd5b506004361061002b5760003560e01c80634aeecdc714610030575b600080fd5b61004361003e366004610236565b61006c565b60405173ffffffffffffffffffffffffffffffffffffffff909116815260200160405180910390f35b6000806040518060200161007f906101f4565b6020820181038252601f19601f820116604052509050600089898989896040516020016100b09594939291906102f7565b604051602081830303815290604052805190602001209050808251602084016000f56040517f279b152b00000000000000000000000000000000000000000000000000000000815290935073ffffffffffffffffffffffffffffffffffffffff84169063279b152b90610133908d908d908d908d908d908d908d906004016103e6565b600060405180830381600087803b15801561014d57600080fd5b505af1158015610161573d6000803e3d6000fd5b505050508873ffffffffffffffffffffffffffffffffffffffff168a73ffffffffffffffffffffffffffffffffffffffff163373ffffffffffffffffffffffffffffffffffffffff167f92e0912d3d7f3192cad5c7ae3b47fb97f9c465c1dd12a5c24fd901ddb3905f43868c8c8c6040516101df9493929190610467565b60405180910390a45050979650505050505050565b6154cb806104a983390190565b73ffffffffffffffffffffffffffffffffffffffff8116811461022357600080fd5b50565b803561023181610201565b919050565b600080600080600080600060c0888a03121561025157600080fd5b873561025c81610201565b9650602088013561026c81610201565b9550604088013567ffffffffffffffff81111561028857600080fd5b8801601f81018a1361029957600080fd5b803567ffffffffffffffff8111156102b057600080fd5b8a60208260051b84010111156102c557600080fd5b6020919091019550935060608801359250608088013591506102e960a08901610226565b905092959891949750929550565b7fffffffffffffffffffffffffffffffffffffffff0000000000000000000000008660601b1681527fffffffffffffffffffffffffffffffffffffffff0000000000000000000000008560601b16601482015260007f07ffffffffffffffffffffffffffffffffffffffffffffffffffffffffffffff84111561037957600080fd5b8360051b80866028850137602892019182019290925260480195945050505050565b81835260007f07ffffffffffffffffffffffffffffffffffffffffffffffffffffffffffffff8311156103cd57600080fd5b8260051b80836020870137939093016020019392505050565b73ffffffffffffffffffffffffffffffffffffffff8816815273ffffffffffffffffffffffffffffffffffffffff8716602082015260c06040820152600061043260c08301878961039b565b606083019590955250608081019290925273ffffffffffffffffffffffffffffffffffffffff1660a090910152949350505050565b73ffffffffffffffffffffffffffffffffffffffff8516815260606020820152600061049760608301858761039b565b90508260408301529594505050505056fe6080604052633b9aca0060135534801561001857600080fd5b5060408051808201825260048082526346504d4d60e01b60208084018290528451808601909552918452908301529060036100538382610107565b5060046100608282610107565b5050506101c5565b634e487b7160e01b600052604160045260246000fd5b600181811c9082168061009257607f821691505b6020821081036100b257634e487b7160e01b600052602260045260246000fd5b50919050565b601f82111561010257806000526020600020601f840160051c810160208510156100df5750805b601f840160051c820191505b818110156100ff57600081556001016100eb565b50505b505050565b81516001600160401b0381111561012057610120610068565b6101348161012e845461007e565b846100b8565b6020601f82116001811461016857600083156101505750848201515b600019600385901b1c1916600184901b1784556100ff565b600084815260208120601f198516915b828110156101985787850151825560209485019460019092019101610178565b50848210156101b65786840151600019600387901b60f8161c191681555b50505050600190811b01905550565b6152f7806101d46000396000f3fe608060405234801561001057600080fd5b50600436106102775760003560e01c806370a0823111610160578063bc197c81116100d8578063dd62ed3e1161008c578063e03031a611610071578063e03031a614610577578063f23a6e611461058a578063f55c79d0146105c257600080fd5b8063dd62ed3e14610535578063ddca3f431461056e57600080fd5b8063d5f15a46116100bd578063d5f15a4614610506578063d67b529d14610519578063d8c55af71461052257600080fd5b8063bc197c811461048a578063d3c9727c146104f357600080fd5b806391c024a61161012f578063a89ae4ba11610114578063a89ae4ba14610451578063a9059cbb14610464578063b2016bd41461047757600080fd5b806391c024a61461044057806395d89b411461044957600080fd5b806370a08231146103e957806371667c581461041257806380a08f47146104255780639003adfe1461043857600080fd5b80632cc76d3f116101f357806340993b26116101c25780635bd9e299116101a75780635bd9e299146103a25780635d3e3c14146103cd57806369c41a74146103e057600080fd5b806340993b261461037c5780634343116a1461038f57600080fd5b80632cc76d3f14610343578063313ce567146103585780633913190614610367578063392e53cd1461036f57600080fd5b806316dbd7761161024a5780631e2aea061161022f5780631e2aea061461030a57806323b872dd1461031d578063279b152b1461033057600080fd5b806316dbd776146102e157806318160ddd1461030257600080fd5b806301ffc9a71461027c57806306fdde03146102a4578063095ea7b3146102b9578063164e68de146102cc575b600080fd5b61028f61028a366004614852565b6105d5565b60405190151581526020015b60405180910390f35b6102ac61066e565b60405161029b91906148b8565b61028f6102c7366004614900565b610700565b6102df6102da36600461492c565b610718565b005b6102f46102ef36600461492c565b610899565b60405190815260200161029b565b6002546102f4565b6102f4610318366004614a3a565b6108ff565b61028f61032b366004614a6f565b610943565b6102df61033e366004614afc565b610967565b61034b610c27565b60405161029b9190614bc8565b6040516012815260200161029b565b61034b610db4565b60095461028f9060ff1681565b6102df61038a366004614bdb565b610e0b565b6102f461039d366004614c07565b611378565b6005546103b5906001600160a01b031681565b6040516001600160a01b03909116815260200161029b565b6102df6103db366004614bdb565b611537565b6102f4600a5481565b6102f46103f736600461492c565b6001600160a01b031660009081526020819052604090205490565b61034b61042036600461492c565b61199d565b6102f4610433366004614c29565b611abc565b6102f4612024565b6102f4600b5481565b6102ac612042565b600c546103b5906001600160a01b031681565b61028f610472366004614900565b612051565b6006546103b5906001600160a01b031681565b6104c2610498366004614cda565b7fbc197c810000000000000000000000000000000000000000000000000000000095945050505050565b6040517fffffffff00000000000000000000000000000000000000000000000000000000909116815260200161029b565b6102df610501366004614bdb565b61205f565b6102df610514366004614d94565b612519565b6102f460135481565b6102f4610530366004614de0565b612cb5565b6102f4610543366004614df9565b6001600160a01b03918216600090815260016020908152604080832093909416825291909152205490565b6102f460085481565b6102df610585366004614de0565b612cd6565b6104c2610598366004614e32565b7ff23a6e610000000000000000000000000000000000000000000000000000000095945050505050565b6102f46105d0366004614c07565b612f79565b60007fffffffff0000000000000000000000000000000000000000000000000000000082167f4e2312e000000000000000000000000000000000000000000000000000000000148061066857507f01ffc9a7000000000000000000000000000000000000000000000000000000007fffffffff000000000000000000000000000000000000000000000000000000008316145b92915050565b60606003805461067d90614e8f565b80601f01602080910402602001604051908101604052809291908181526020018280546106a990614e8f565b80156106f65780601f106106cb576101008083540402835291602001916106f6565b820191906000526020600020905b8154815290600101906020018083116106d957829003601f168201915b5050505050905090565b60003361070e81858561310f565b5060019392505050565b600061072360025490565b61074e610745846001600160a01b031660009081526020819052604090205490565b6012549061311c565b6107589190614f3a565b6001600160a01b03831660009081526010602052604081205491925090610780908390613151565b90508015610894576001600160a01b03831660009081526010602052604090208290556011546107b09082613174565b6011556006546040517fa9059cbb0000000000000000000000000000000000000000000000000000000081526001600160a01b038581166004830152602482018490529091169063a9059cbb906044016020604051808303816000875af115801561081f573d6000803e3d6000fd5b505050506040513d601f19601f820116820180604052508101906108439190614f4e565b6108945760405162461bcd60e51b815260206004820152601a60248201527f7769746864726177616c207472616e73666572206661696c656400000000000060448201526064015b60405180910390fd5b505050565b6000806108a560025490565b6108c7610745856001600160a01b031660009081526020819052604090205490565b6108d19190614f3a565b6001600160a01b0384166000908152601060205260409020549091506108f8908290613151565b9392505050565b600080805b835181101561093c5783818151811061091f5761091f614f70565b6020026020010151826109329190614f9f565b9150600101610904565b5092915050565b600033610951858285613190565b61095c858585613246565b506001949350505050565b60095460ff161561097757600080fd5b600580546001600160a01b03808a167fffffffffffffffffffffffff00000000000000000000000000000000000000009283161790925560068054928916929091169190911790556109cb60078686614720565b506008839055600a829055600c80547fffffffffffffffffffffffff0000000000000000000000000000000000000000166001600160a01b03831617905560018467ffffffffffffffff811115610a2457610a24614949565b604051908082528060200260200182016040528015610a4d578160200160208202803683370190505b508051610a6291600d9160209091019061476b565b5060005b85811015610b31576005546000906001600160a01b031663d42dc0c2898985818110610a9457610a94614f70565b905060200201356040518263ffffffff1660e01b8152600401610ab991815260200190565b602060405180830381865afa158015610ad6573d6000803e3d6000fd5b505050506040513d601f19601f82011682018060405250810190610afa9190614fb2565b9050610b068184614fcb565b925080600d8381548110610b1c57610b1c614f70565b60009182526020909120015550600101610a66565b5060018111610b825760405162461bcd60e51b815260206004820152601860248201527f636f6e646974696f6e73206d7573742062652076616c69640000000000000000604482015260640161088b565b8467ffffffffffffffff811115610b9b57610b9b614949565b604051908082528060200260200182016040528015610bce57816020015b6060815260200190600190039081610bb95790505b508051610be391600e916020909101906147a6565b50600754610bf29060006132d7565b5050600980547fffffffffffffffffffffffffffffffffffffffffffffffffffffffffffffff00166001179055505050505050565b60606000610c33613413565b90506000805b8251811015610c7857610c6e838281518110610c5757610c57614f70565b60200260200101518361317490919063ffffffff16565b9150600101610c39565b5060008111610cef5760405162461bcd60e51b815260206004820152602c60248201527f546f74616c20706f6f6c2062616c616e6365206d75737420626520677265617460448201527f6572207468616e207a65726f0000000000000000000000000000000000000000606482015260840161088b565b6000825167ffffffffffffffff811115610d0b57610d0b614949565b604051908082528060200260200182016040528015610d34578160200160208202803683370190505b50905060005b8351811015610dac57610d87610d7e84610d78601354888681518110610d6257610d62614f70565b602002602001015161311c90919063ffffffff16565b90613538565b60135490613151565b828281518110610d9957610d99614f70565b6020908102919091010152600101610d3a565b509392505050565b6060600f8054806020026020016040519081016040528092919081815260200182805480156106f657602002820191906000526020600020905b815481526020019060010190808311610dee575050505050905090565b600c546001600160a01b031615610ef357600c60009054906101000a90046001600160a01b03166001600160a01b0316635b212f3d6040518163ffffffff1660e01b8152600401602060405180830381865afa158015610e6f573d6000803e3d6000fd5b505050506040513d601f19601f82011682018060405250810190610e939190614fb2565b600a54610ea09190614fe2565b4210610eee5760405162461bcd60e51b815260206004820152601460248201527f6d61726b6574206973206e6f7420616374697665000000000000000000000000604482015260640161088b565b610f44565b600a544210610f445760405162461bcd60e51b815260206004820152601460248201527f6d61726b6574206973206e6f7420616374697665000000000000000000000000604482015260640161088b565b600c546001600160a01b031615610fc35760405162461bcd60e51b815260206004820152602d60248201527f6f7261636c65206164647265737320697320636f6e666967757265642c20757360448201527f65206275794f6e426568616c6600000000000000000000000000000000000000606482015260840161088b565b6000610fcf8484612f79565b9050818110156110215760405162461bcd60e51b815260206004820152601e60248201527f6d696e696d756d2062757920616d6f756e74206e6f7420726561636865640000604482015260640161088b565b61102d6103183361199d565b60000361104a57600b805490600061104483614ff5565b91905055505b6006546040517f23b872dd000000000000000000000000000000000000000000000000000000008152336004820152306024820152604481018690526001600160a01b03909116906323b872dd906064016020604051808303816000875af11580156110ba573d6000803e3d6000fd5b505050506040513d601f19601f820116820180604052508101906110de9190614f4e565b61112a5760405162461bcd60e51b815260206004820152601460248201527f636f7374207472616e73666572206661696c6564000000000000000000000000604482015260640161088b565b6000670de0b6b3a764000061114a6008548761311c90919063ffffffff16565b6111549190614f3a565b6012549091506111649082613174565b60125560006111738683613151565b6006546005546040517f095ea7b30000000000000000000000000000000000000000000000000000000081526001600160a01b03918216600482015260248101849052929350169063095ea7b3906044016020604051808303816000875af11580156111e3573d6000803e3d6000fd5b505050506040513d601f19601f820116820180604052508101906112079190614f4e565b6112535760405162461bcd60e51b815260206004820152601a60248201527f617070726f76616c20666f722073706c697473206661696c6564000000000000604482015260640161088b565b61125c81613552565b600554600f80546001600160a01b039092169163f242432a9130913391908a90811061128a5761128a614f70565b60009182526020822001546040517fffffffff0000000000000000000000000000000000000000000000000000000060e087901b1681526001600160a01b03948516600482015293909216602484015260448301919091526064820187905260a0608483015260a482015260c401600060405180830381600087803b15801561131257600080fd5b505af1158015611326573d6000803e3d6000fd5b505060408051898152602081018690529081018690528792503391507f4f62630f51608fc8a7603a9391a5101e58bd7c276139366fc107dc3b67c3dcf8906060015b60405180910390a3505050505050565b600f5460009082106113cc5760405162461bcd60e51b815260206004820152601560248201527f696e76616c6964206f7574636f6d6520696e6465780000000000000000000000604482015260640161088b565b60006113d6613413565b905060006113f7600854670de0b6b3a764000061315190919063ffffffff16565b61140986670de0b6b3a764000061311c565b6114139190614f3a565b9050600082858151811061142957611429614f70565b602002602001015190506000611450670de0b6b3a76400008361311c90919063ffffffff16565b905060005b84518110156114b5578681146114ad57600085828151811061147957611479614f70565b602002602001015190506114a9611499868361315190919063ffffffff16565b6114a3858461311c565b906136ab565b9250505b600101611455565b50600081116115065760405162461bcd60e51b815260206004820152601b60248201527f6d7573742068617665206e6f6e2d7a65726f2062616c616e6365730000000000604482015260640161088b565b61152c8261152661151f84670de0b6b3a76400006136ab565b8690613174565b90613151565b979650505050505050565b600c546001600160a01b03161561161f57600c60009054906101000a90046001600160a01b03166001600160a01b0316635b212f3d6040518163ffffffff1660e01b8152600401602060405180830381865afa15801561159b573d6000803e3d6000fd5b505050506040513d601f19601f820116820180604052508101906115bf9190614fb2565b600a546115cc9190614fe2565b421061161a5760405162461bcd60e51b815260206004820152601460248201527f6d61726b6574206973206e6f7420616374697665000000000000000000000000604482015260640161088b565b611670565b600a5442106116705760405162461bcd60e51b815260206004820152601460248201527f6d61726b6574206973206e6f7420616374697665000000000000000000000000604482015260640161088b565b600c546001600160a01b0316158015906116fc5750600c60009054906101000a90046001600160a01b03166001600160a01b03166358197a9d6040518163ffffffff1660e01b8152600401602060405180830381865afa1580156116d8573d6000803e3d6000fd5b505050506040513d601f19601f820116820180604052508101906116fc9190614f4e565b6117485760405162461bcd60e51b815260206004820152601360248201527f73656c6c696e672069732064697361626c656400000000000000000000000000604482015260640161088b565b600554600f80546001600160a01b039092169163f242432a9133913091908790811061177657611776614f70565b60009182526020822001546040517fffffffff0000000000000000000000000000000000000000000000000000000060e087901b1681526001600160a01b03948516600482015293909216602484015260448301919091526064820185905260a0608483015260a482015260c401600060405180830381600087803b1580156117fe57600080fd5b505af1158015611812573d6000803e3d6000fd5b505050506000611835600854670de0b6b3a764000061315190919063ffffffff16565b60085461184390869061311c565b61184d9190614f3a565b60125490915061185d9082613174565b601255600061186c8583613174565b9050611877816136e5565b6006546040517fa9059cbb000000000000000000000000000000000000000000000000000000008152336004820152602481018790526001600160a01b039091169063a9059cbb906044016020604051808303816000875af11580156118e1573d6000803e3d6000fd5b505050506040513d601f19601f820116820180604052508101906119059190614f4e565b6119515760405162461bcd60e51b815260206004820152601660248201527f72657475726e207472616e73666572206661696c656400000000000000000000604482015260640161088b565b6040805186815260208101849052908101849052849033907fadcf2a240ed9300d681d9a3f5382b6c1beed1b7e46643e0c7b42cbe6e2d766b49060600160405180910390a35050505050565b600f5460609060009067ffffffffffffffff8111156119be576119be614949565b6040519080825280602002602001820160405280156119e7578160200160208202803683370190505b50905060005b600f54811015611a2a5783828281518110611a0a57611a0a614f70565b6001600160a01b03909216602092830291909101909101526001016119ed565b506005546040517f4e1273f40000000000000000000000000000000000000000000000000000000081526001600160a01b0390911690634e1273f490611a77908490600f90600401615064565b600060405180830381865afa158015611a94573d6000803e3d6000fd5b505050506040513d6000823e601f3d908101601f191682016040526108f891908101906150c5565b600c546000906001600160a01b031615611ba757600c60009054906101000a90046001600160a01b03166001600160a01b0316635b212f3d6040518163ffffffff1660e01b8152600401602060405180830381865afa158015611b23573d6000803e3d6000fd5b505050506040513d601f19601f82011682018060405250810190611b479190614fb2565b600a54611b549190614fe2565b4210611ba25760405162461bcd60e51b815260206004820152601460248201527f6d61726b6574206973206e6f7420616374697665000000000000000000000000604482015260640161088b565b611bf8565b600a544210611bf85760405162461bcd60e51b815260206004820152601460248201527f6d61726b6574206973206e6f7420616374697665000000000000000000000000604482015260640161088b565b600c546001600160a01b031615611c6357600c546001600160a01b03163314611c635760405162461bcd60e51b815260206004820152601d60248201527f6f6e6c79206f7261636c652063616e20627579206f6e20626568616c66000000604482015260640161088b565b6000611c6f8686612f79565b905083811015611cc15760405162461bcd60e51b815260206004820152601e60248201527f6d696e696d756d2062757920616d6f756e74206e6f7420726561636865640000604482015260640161088b565b611ccd6103188461199d565b600003611cea57600b8054906000611ce483614ff5565b91905055505b6006546040517f23b872dd000000000000000000000000000000000000000000000000000000008152336004820152306024820152604481018890526001600160a01b03909116906323b872dd906064016020604051808303816000875af1158015611d5a573d6000803e3d6000fd5b505050506040513d601f19601f82011682018060405250810190611d7e9190614f4e565b611dca5760405162461bcd60e51b815260206004820152601460248201527f636f7374207472616e73666572206661696c6564000000000000000000000000604482015260640161088b565b6000670de0b6b3a7640000611dea6008548961311c90919063ffffffff16565b611df49190614f3a565b601254909150611e049082613174565b6012556000611e138883613151565b6006546005546040517f095ea7b30000000000000000000000000000000000000000000000000000000081526001600160a01b03918216600482015260248101849052929350169063095ea7b3906044016020604051808303816000875af1158015611e83573d6000803e3d6000fd5b505050506040513d601f19601f82011682018060405250810190611ea79190614f4e565b611ef35760405162461bcd60e51b815260206004820152601a60248201527f617070726f76616c20666f722073706c697473206661696c6564000000000000604482015260640161088b565b611efc81613552565b600554600f80546001600160a01b039092169163f242432a9130918991908c908110611f2a57611f2a614f70565b60009182526020822001546040517fffffffff0000000000000000000000000000000000000000000000000000000060e087901b1681526001600160a01b03948516600482015293909216602484015260448301919091526064820187905260a0608483015260a482015260c401600060405180830381600087803b158015611fb257600080fd5b505af1158015611fc6573d6000803e3d6000fd5b5050604080518b8152602081018690529081018690528992506001600160a01b03881691507f4f62630f51608fc8a7603a9391a5101e58bd7c276139366fc107dc3b67c3dcf89060600160405180910390a350909695505050505050565b600061203d60115460125461315190919063ffffffff16565b905090565b60606004805461067d90614e8f565b60003361070e818585613246565b600c546001600160a01b03161561214757600c60009054906101000a90046001600160a01b03166001600160a01b0316635b212f3d6040518163ffffffff1660e01b8152600401602060405180830381865afa1580156120c3573d6000803e3d6000fd5b505050506040513d601f19601f820116820180604052508101906120e79190614fb2565b600a546120f49190614fe2565b42106121425760405162461bcd60e51b815260206004820152601460248201527f6d61726b6574206973206e6f7420616374697665000000000000000000000000604482015260640161088b565b612198565b600a5442106121985760405162461bcd60e51b815260206004820152601460248201527f6d61726b6574206973206e6f7420616374697665000000000000000000000000604482015260640161088b565b600c546001600160a01b0316158015906122245750600c60009054906101000a90046001600160a01b03166001600160a01b03166358197a9d6040518163ffffffff1660e01b8152600401602060405180830381865afa158015612200573d6000803e3d6000fd5b505050506040513d601f19601f820116820180604052508101906122249190614f4e565b6122705760405162461bcd60e51b815260206004820152601360248201527f73656c6c696e672069732064697361626c656400000000000000000000000000604482015260640161088b565b600061227c8484611378565b9050818111156122ce5760405162461bcd60e51b815260206004820152601c60248201527f6d6178696d756d2073656c6c20616d6f756e7420657863656564656400000000604482015260640161088b565b600554600f80546001600160a01b039092169163f242432a913391309190889081106122fc576122fc614f70565b60009182526020822001546040517fffffffff0000000000000000000000000000000000000000000000000000000060e087901b1681526001600160a01b03948516600482015293909216602484015260448301919091526064820185905260a0608483015260a482015260c401600060405180830381600087803b15801561238457600080fd5b505af1158015612398573d6000803e3d6000fd5b5050505060006123bb600854670de0b6b3a764000061315190919063ffffffff16565b6008546123c990879061311c565b6123d39190614f3a565b6012549091506123e39082613174565b60125560006123f28683613174565b90506123fd816136e5565b6006546040517fa9059cbb000000000000000000000000000000000000000000000000000000008152336004820152602481018890526001600160a01b039091169063a9059cbb906044016020604051808303816000875af1158015612467573d6000803e3d6000fd5b505050506040513d601f19601f8201168201806040525081019061248b9190614f4e565b6124d75760405162461bcd60e51b815260206004820152601660248201527f72657475726e207472616e73666572206661696c656400000000000000000000604482015260640161088b565b6040805187815260208101849052908101849052859033907fadcf2a240ed9300d681d9a3f5382b6c1beed1b7e46643e0c7b42cbe6e2d766b490606001611368565b600c546001600160a01b03161561260157600c60009054906101000a90046001600160a01b03166001600160a01b0316635b212f3d6040518163ffffffff1660e01b8152600401602060405180830381865afa15801561257d573d6000803e3d6000fd5b505050506040513d601f19601f820116820180604052508101906125a19190614fb2565b600a546125ae9190614fe2565b42106125fc5760405162461bcd60e51b815260206004820152601460248201527f6d61726b6574206973206e6f7420616374697665000000000000000000000000604482015260640161088b565b612652565b600a5442106126525760405162461bcd60e51b815260206004820152601460248201527f6d61726b6574206973206e6f7420616374697665000000000000000000000000604482015260640161088b565b600083116126a25760405162461bcd60e51b815260206004820152601860248201527f66756e64696e67206d757374206265206e6f6e2d7a65726f0000000000000000604482015260640161088b565b600f5460009067ffffffffffffffff8111156126c0576126c0614949565b6040519080825280602002602001820160405280156126e9578160200160208202803683370190505b50905060006126f760025490565b9050600081156128585783156127755760405162461bcd60e51b815260206004820152603260248201527f63616e6e6f742075736520646973747269627574696f6e2068696e742061667460448201527f657220696e697469616c2066756e64696e670000000000000000000000000000606482015260840161088b565b600061277f613413565b90506000805b82518110156127c15760008382815181106127a2576127a2614f70565b60200260200101519050808310156127b8578092505b50600101612785565b5060005b8251811015612839576000826127fd8584815181106127e6576127e6614f70565b60200260200101518c61311c90919063ffffffff16565b6128079190614f3a565b90506128138a82613151565b87838151811061282557612825614f70565b6020908102919091010152506001016127c5565b5080612845898661311c565b61284f9190614f3a565b925050506129b9565b83156129b657600f5484146128af5760405162461bcd60e51b815260206004820152600f60248201527f68696e74206c656e677468206f66660000000000000000000000000000000000604482015260640161088b565b6000805b858110156128ed5760008787838181106128cf576128cf614f70565b905060200201359050808310156128e4578092505b506001016128b3565b5060005b858110156129b35760008261292789898581811061291157612911614f70565b905060200201358b61311c90919063ffffffff16565b6129319190614f3a565b9050600081116129835760405162461bcd60e51b815260206004820152601e60248201527f6d7573742068696e7420612076616c696420646973747269627574696f6e0000604482015260640161088b565b61298d8982613151565b86838151811061299f5761299f614f70565b6020908102919091010152506001016128f1565b50505b50845b6006546040517f23b872dd000000000000000000000000000000000000000000000000000000008152336004820152306024820152604481018890526001600160a01b03909116906323b872dd906064016020604051808303816000875af1158015612a29573d6000803e3d6000fd5b505050506040513d601f19601f82011682018060405250810190612a4d9190614f4e565b612a995760405162461bcd60e51b815260206004820152601760248201527f66756e64696e67207472616e73666572206661696c6564000000000000000000604482015260640161088b565b6006546005546040517f095ea7b30000000000000000000000000000000000000000000000000000000081526001600160a01b0391821660048201526024810189905291169063095ea7b3906044016020604051808303816000875af1158015612b07573d6000803e3d6000fd5b505050506040513d601f19601f82011682018060405250810190612b2b9190614f4e565b612b775760405162461bcd60e51b815260206004820152601a60248201527f617070726f76616c20666f722073706c697473206661696c6564000000000000604482015260640161088b565b612b8086613552565b612b8a3382613812565b6005546040517f2eb2c2d60000000000000000000000000000000000000000000000000000000081526001600160a01b0390911690632eb2c2d690612bda9030903390600f908990600401615151565b600060405180830381600087803b158015612bf457600080fd5b505af1158015612c08573d6000803e3d6000fd5b5050505060005b8351811015612c6957612c44848281518110612c2d57612c2d614f70565b60200260200101518861315190919063ffffffff16565b848281518110612c5657612c56614f70565b6020908102919091010152600101612c0f565b50336001600160a01b03167fec2dc3e5a3bb9aa0a1deb905d2bd23640d07f107e6ceb484024501aad964a9518483604051612ca59291906151b1565b60405180910390a2505050505050565b60078181548110612cc557600080fd5b600091825260209091200154905081565b6000612ce0613413565b90506000815167ffffffffffffffff811115612cfe57612cfe614949565b604051908082528060200260200182016040528015612d27578160200160208202803683370190505b5090506000612d3560025490565b905060005b8351811015612d895781612d5a86868481518110610d6257610d62614f70565b612d649190614f3a565b838281518110612d7657612d76614f70565b6020908102919091010152600101612d3a565b506006546040517f70a082310000000000000000000000000000000000000000000000000000000081523060048201526000916001600160a01b0316906370a0823190602401602060405180830381865afa158015612dec573d6000803e3d6000fd5b505050506040513d601f19601f82011682018060405250810190612e109190614fb2565b9050612e1c3386613861565b6006546040517f70a08231000000000000000000000000000000000000000000000000000000008152306004820152612eaa916001600160a01b0316906370a0823190602401602060405180830381865afa158015612e7f573d6000803e3d6000fd5b505050506040513d601f19601f82011682018060405250810190612ea39190614fb2565b8290613151565b6005546040517f2eb2c2d60000000000000000000000000000000000000000000000000000000081529192506001600160a01b031690632eb2c2d690612efb9030903390600f908990600401615151565b600060405180830381600087803b158015612f1557600080fd5b505af1158015612f29573d6000803e3d6000fd5b50505050336001600160a01b03167f8b4b2c8ebd04c47fc8bce136a85df9b93fcb1f47c8aa296457d4391519d190e7848388604051612f6a939291906151d3565b60405180910390a25050505050565b600f546000908210612fcd5760405162461bcd60e51b815260206004820152601560248201527f696e76616c6964206f7574636f6d6520696e6465780000000000000000000000604482015260640161088b565b6000612fd7613413565b9050600061300d670de0b6b3a7640000612ffc6008548861311c90919063ffffffff16565b6130069190614f3a565b8690613151565b9050600082858151811061302357613023614f70565b60200260200101519050600061304a670de0b6b3a76400008361311c90919063ffffffff16565b905060005b845181101561309f5786811461309757600085828151811061307357613073614f70565b60200260200101519050613093611499868361317490919063ffffffff16565b9250505b60010161304f565b50600081116130f05760405162461bcd60e51b815260206004820152601b60248201527f6d7573742068617665206e6f6e2d7a65726f2062616c616e6365730000000000604482015260640161088b565b61152c61310582670de0b6b3a76400006136ab565b6115268486613174565b61089483838360016138b0565b60008260000361312e57506000610668565b600061313a8385614fcb565b9050826131478583614f3a565b146108f857600080fd5b60008282111561316057600080fd5b600061316c8385614fe2565b949350505050565b6000806131818385614f9f565b9050838110156108f857600080fd5b6001600160a01b038381166000908152600160209081526040808320938616835292905220547fffffffffffffffffffffffffffffffffffffffffffffffffffffffffffffffff8110156132405781811015613231576040517ffb8f41b20000000000000000000000000000000000000000000000000000000081526001600160a01b0384166004820152602481018290526044810183905260640161088b565b613240848484840360006138b0565b50505050565b6001600160a01b038316613289576040517f96c6fd1e0000000000000000000000000000000000000000000000000000000081526000600482015260240161088b565b6001600160a01b0382166132cc576040517fec442f050000000000000000000000000000000000000000000000000000000081526000600482015260240161088b565b6108948383836139b7565b8160000361336c576006546040805160609290921b7fffffffffffffffffffffffffffffffffffffffff0000000000000000000000001660208084019190915260348084019490945281518084039094018452605490920190528151910120600f80546001810182556000919091527f8d1108e10bcb7c27dddfc02ed9d693a074039d026cf4ea4240b40f7d581ac802015550565b81613376816151f8565b9250506000600d838154811061338e5761338e614f70565b90600052602060002001549050600e83815481106133ae576133ae614f70565b600091825260208083209091018054600181018255908352908220018390555b818110156132405761340b8461340685600788815481106133f1576133f1614f70565b9060005260206000200154856001901b613afa565b6132d7565b6001016133ce565b600f5460609060009067ffffffffffffffff81111561343457613434614949565b60405190808252806020026020018201604052801561345d578160200160208202803683370190505b50905060005b600f548110156134a0573082828151811061348057613480614f70565b6001600160a01b0390921660209283029190910190910152600101613463565b506005546040517f4e1273f40000000000000000000000000000000000000000000000000000000081526001600160a01b0390911690634e1273f4906134ed908490600f90600401615064565b600060405180830381865afa15801561350a573d6000803e3d6000fd5b505050506040513d6000823e601f3d908101601f1916820160405261353291908101906150c5565b91505090565b600080821161354657600080fd5b600061316c8385614f3a565b6007545b80156136a7576000613569600183614fe2565b90506000613593600d838154811061358357613583614f70565b9060005260206000200154613ee7565b905060005b600e83815481106135ab576135ab614f70565b60009182526020909120015481101561369157600554600654600e80546001600160a01b03938416936372ce427593169190879081106135ed576135ed614f70565b90600052602060002001848154811061360857613608614f70565b90600052602060002001546007878154811061362657613626614f70565b9060005260206000200154868a6040518663ffffffff1660e01b815260040161365395949392919061522d565b600060405180830381600087803b15801561366d57600080fd5b505af1158015613681573d6000803e3d6000fd5b5050600190920191506135989050565b505050808061369f906151f8565b915050613556565b5050565b600082156136db57816136bf600185614fe2565b6136c99190614f3a565b6136d4906001614f9f565b9050610668565b6108f88284614f3a565b60005b6007548110156136a757600061370a600d838154811061358357613583614f70565b905060005b600e838154811061372257613722614f70565b60009182526020909120015481101561380857600554600654600e80546001600160a01b0393841693639e7212ad931691908790811061376457613764614f70565b90600052602060002001848154811061377f5761377f614f70565b90600052602060002001546007878154811061379d5761379d614f70565b906000526020600020015486896040518663ffffffff1660e01b81526004016137ca95949392919061522d565b600060405180830381600087803b1580156137e457600080fd5b505af11580156137f8573d6000803e3d6000fd5b50506001909201915061370f9050565b50506001016136e8565b6001600160a01b038216613855576040517fec442f050000000000000000000000000000000000000000000000000000000081526000600482015260240161088b565b6136a7600083836139b7565b6001600160a01b0382166138a4576040517f96c6fd1e0000000000000000000000000000000000000000000000000000000081526000600482015260240161088b565b6136a7826000836139b7565b6001600160a01b0384166138f3576040517fe602df050000000000000000000000000000000000000000000000000000000081526000600482015260240161088b565b6001600160a01b038316613936576040517f94280d620000000000000000000000000000000000000000000000000000000081526000600482015260240161088b565b6001600160a01b038085166000908152600160209081526040808320938716835292905220829055801561324057826001600160a01b0316846001600160a01b03167f8c5be1e5ebec7d5bd14f71427d1e84f3dd0314c0f7b2291e5b200ac8c7c3b925846040516139a991815260200190565b60405180910390a350505050565b6001600160a01b0383166139e25780600260008282546139d79190614f9f565b90915550613a6d9050565b6001600160a01b03831660009081526020819052604090205481811015613a4e576040517fe450d38c0000000000000000000000000000000000000000000000000000000081526001600160a01b0385166004820152602481018290526044810183905260640161088b565b6001600160a01b03841660009081526020819052604090209082900390555b6001600160a01b038216613a8957600280548290039055613aa8565b6001600160a01b03821660009081526020819052604090208054820190555b816001600160a01b0316836001600160a01b03167fddf252ad1be2c89b69c2b068fc378daa952ba7f163c4a11628f55a4df523b3ef83604051613aed91815260200190565b60405180910390a3505050565b6000808383604051602001613b19929190918252602082015260400190565b60408051601f198184030181529190528051602090910120905060ff81901c15156000805b7f30644e72e131a029b85045b68181585d97816a916871ca8d3c208c16d87cfd476001850893507f30644e72e131a029b85045b68181585d97816a916871ca8d3c208c16d87cfd4760037f30644e72e131a029b85045b68181585d97816a916871ca8d3c208c16d87cfd47808788098709089050613bbb81613f69565b9150807f30644e72e131a029b85045b68181585d97816a916871ca8d3c208c16d87cfd4783840903613b3e57828015613bfc5750613bfa60028361526d565b155b80613c1a575082158015613c1a5750613c1660028361526d565b6001145b15613c4c57613c49827f30644e72e131a029b85045b68181585d97816a916871ca8d3c208c16d87cfd47614fe2565b91505b878015613ea25760fe81901c151593507f3fffffffffffffffffffffffffffffffffffffffffffffffffffffffffffffff167f30644e72e131a029b85045b68181585d97816a916871ca8d3c208c16d87cfd4760037f30644e72e131a029b85045b68181585d97816a916871ca8d3c208c16d87cfd478084850984090891506000613cd683613f69565b9050848015613ced5750613ceb60028261526d565b155b80613d0b575084158015613d0b5750613d0760028261526d565b6001145b15613d3d57613d3a817f30644e72e131a029b85045b68181585d97816a916871ca8d3c208c16d87cfd47614fe2565b90505b827f30644e72e131a029b85045b68181585d97816a916871ca8d3c208c16d87cfd4782830914613daf5760405162461bcd60e51b815260206004820152601c60248201527f696e76616c696420706172656e7420636f6c6c656374696f6e20494400000000604482015260640161088b565b60408051602081018890529081018590526060810183905260808101829052600090819060069060a00160408051601f1981840301815290829052613df391615281565b600060405180830381855afa9150503d8060008114613e2e576040519150601f19603f3d011682016040523d82523d6000602084013e613e33565b606091505b509150915081613e855760405162461bcd60e51b815260206004820152600c60248201527f6563616464206661696c65640000000000000000000000000000000000000000604482015260640161088b565b80806020019051810190613e99919061529d565b90985095505050505b613ead60028461526d565b600103613eda577f4000000000000000000000000000000000000000000000000000000000000000851894505b5092979650505050505050565b60608167ffffffffffffffff811115613f0257613f02614949565b604051908082528060200260200182016040528015613f2b578160200160208202803683370190505b50905060005b82811015613f6357806001901b828281518110613f5057613f50614f70565b6020908102919091010152600101613f31565b50919050565b60007f30644e72e131a029b85045b68181585d97816a916871ca8d3c208c16d87cfd47808380099150808283098181820990508181840992508183850993508184840992508183840990508181820982818309905082818209905082818209905082818309915082828609945082858609915082828309915082828509935082848509915082828309915082828309915082828509915082828609945082858609915082828309915082828309915082828609915082828509935082848609945082858609915082828309915082828509935082848509915082828309905082818209905082818209905082818309915082828609945082858509935082848509915082828309915082828309915082828609945082858609915082828309915082828609915082828309915082828309915082828609915082828509935082848509915082828309905082818209905082818309905082818509905082818209905082818209905082818209905082818209905082818309915082828609945082858609915082828609915082828509935082848509915082828509915082828309915082828309905082818309905082818209838182099050838182099050838182099050838182099050838183099150508281830991508282860994508285850993508284850991508282860994508285850993508284860994508285850993508284860994508285860991508282860991508282830991508282850993508284850991508282830991508282860994508285850993508284850991508282850991508282860994508285850993508284860994508285850993508284850991508282830991508282850991508282860994508285860991508282860991508282850993508284860994508285850993508284860994508285850993508284850991508282850991508282830991508282860994508285850993508284850991508282850991508282830991508282860994508285860991508282830990508281820990508281830990508281860990508281820990508281820990508281820990508281820990508281830991508282850993508284860994508285850993508284860994508285860991508282860991508282830991508282830991508282830991508282860991508282850993508284850991508282850991508282830991508282860994508285860991508282860991508282850993508284860994508285860991508282830991508282850993508284860994508285860991508282850993508284860994508285850993508284850991508282850991508282860994508285850993508284850991508282850991508282830991508282830991508282860994508285860991508282830991508282830991508282860991508282850993508284860994508285860991508282860990508281820990508281820990508281830991508282850993508284850991508282860994508285850993508284860994508285850993508284860994508285850993508284850991508282850990508281850991508282830991508282830991508282820991505081818509935081848409925081838509935081848409925081838509935081848509905081818509905081818409925050808284099250808384099250808384099250808384099250808384099250808384099250808384099250808384099250808384099250808384099250808384099250808384099250808384099250808384099250808384099250808384099250808384099250808384099250808384099250808384099250808384099250808384099250808384099250808384099250808384099250808384099250808384099250808384099250808384099250808384099250808384099250808384099250808384099250808384099250808384099250808384099250808384099250808384099250808384099250808384099250808384099250808384099250808384099250808384099250808384099250808384099250808384099250808384099250808384099250808384099250808384099250808384099250808384099250808384099250808384099250808384099250808384099250808384099250808384099250808384099250808384099250808384099250808384099250808384099250808384099250808384099250808384099250808384099250808384099250808384099250808384099250808384099250808384099250808384099250808384099250808384099250808384099250808384099250808384099250808384099250808384099250808384099250808384099250808384099250808384099250808384099250808384099250808384099250808384099250808384099250808384099250808384099250808384099250808384099250808384099250808384099250808384099250808384099250808384099250808384099250808384099250808384099250808384099250808384099250808384099250808384099250808384099250808384099250808384099250808384099250808384099250808384099250808384099250808384099250808384099250808384099250808384099250808384099250808384099250808384099250808384099250808384099250808384099250808384099250808384099250808384099250808384099250808383099392505050565b82805482825590600052602060002090810192821561475b579160200282015b8281111561475b578235825591602001919060010190614740565b506147679291506147ff565b5090565b82805482825590600052602060002090810192821561475b579160200282015b8281111561475b57825182559160200191906001019061478b565b8280548282559060005260206000209081019282156147f3579160200282015b828111156147f357825180516147e391849160209091019061476b565b50916020019190600101906147c6565b50614767929150614814565b5b808211156147675760008155600101614800565b808211156147675760006148288282614831565b50600101614814565b508054600082559060005260206000209081019061484f91906147ff565b50565b60006020828403121561486457600080fd5b81357fffffffff00000000000000000000000000000000000000000000000000000000811681146108f857600080fd5b60005b838110156148af578181015183820152602001614897565b50506000910152565b60208152600082518060208401526148d7816040850160208701614894565b601f01601f19169190910160400192915050565b6001600160a01b038116811461484f57600080fd5b6000806040838503121561491357600080fd5b823561491e816148eb565b946020939093013593505050565b60006020828403121561493e57600080fd5b81356108f8816148eb565b7f4e487b7100000000000000000000000000000000000000000000000000000000600052604160045260246000fd5b604051601f8201601f1916810167ffffffffffffffff811182821017156149a1576149a1614949565b604052919050565b600067ffffffffffffffff8211156149c3576149c3614949565b5060051b60200190565b600082601f8301126149de57600080fd5b81356149f16149ec826149a9565b614978565b8082825260208201915060208360051b860101925085831115614a1357600080fd5b602085015b83811015614a30578035835260209283019201614a18565b5095945050505050565b600060208284031215614a4c57600080fd5b813567ffffffffffffffff811115614a6357600080fd5b61316c848285016149cd565b600080600060608486031215614a8457600080fd5b8335614a8f816148eb565b92506020840135614a9f816148eb565b929592945050506040919091013590565b60008083601f840112614ac257600080fd5b50813567ffffffffffffffff811115614ada57600080fd5b6020830191508360208260051b8501011115614af557600080fd5b9250929050565b600080600080600080600060c0888a031215614b1757600080fd5b8735614b22816148eb565b96506020880135614b32816148eb565b9550604088013567ffffffffffffffff811115614b4e57600080fd5b614b5a8a828b01614ab0565b909650945050606088013592506080880135915060a0880135614b7c816148eb565b8091505092959891949750929550565b600081518084526020840193506020830160005b82811015614bbe578151865260209586019590910190600101614ba0565b5093949350505050565b6020815260006108f86020830184614b8c565b600080600060608486031215614bf057600080fd5b505081359360208301359350604090920135919050565b60008060408385031215614c1a57600080fd5b50508035926020909101359150565b60008060008060808587031215614c3f57600080fd5b8435935060208501359250604085013591506060850135614c5f816148eb565b939692955090935050565b600082601f830112614c7b57600080fd5b813567ffffffffffffffff811115614c9557614c95614949565b614ca86020601f19601f84011601614978565b818152846020838601011115614cbd57600080fd5b816020850160208301376000918101602001919091529392505050565b600080600080600060a08688031215614cf257600080fd5b8535614cfd816148eb565b94506020860135614d0d816148eb565b9350604086013567ffffffffffffffff811115614d2957600080fd5b614d35888289016149cd565b935050606086013567ffffffffffffffff811115614d5257600080fd5b614d5e888289016149cd565b925050608086013567ffffffffffffffff811115614d7b57600080fd5b614d8788828901614c6a565b9150509295509295909350565b600080600060408486031215614da957600080fd5b83359250602084013567ffffffffffffffff811115614dc757600080fd5b614dd386828701614ab0565b9497909650939450505050565b600060208284031215614df257600080fd5b5035919050565b60008060408385031215614e0c57600080fd5b8235614e17816148eb565b91506020830135614e27816148eb565b809150509250929050565b600080600080600060a08688031215614e4a57600080fd5b8535614e55816148eb565b94506020860135614e65816148eb565b93506040860135925060608601359150608086013567ffffffffffffffff811115614d7b57600080fd5b600181811c90821680614ea357607f821691505b602082108103613f63577f4e487b7100000000000000000000000000000000000000000000000000000000600052602260045260246000fd5b7f4e487b7100000000000000000000000000000000000000000000000000000000600052601260045260246000fd5b7f4e487b7100000000000000000000000000000000000000000000000000000000600052601160045260246000fd5b600082614f4957614f49614edc565b500490565b600060208284031215614f6057600080fd5b815180151581146108f857600080fd5b7f4e487b7100000000000000000000000000000000000000000000000000000000600052603260045260246000fd5b8082018082111561066857610668614f0b565b600060208284031215614fc457600080fd5b5051919050565b808202811582820484141761066857610668614f0b565b8181038181111561066857610668614f0b565b60007fffffffffffffffffffffffffffffffffffffffffffffffffffffffffffffffff820361502657615026614f0b565b5060010190565b6000815480845260208401935082600052602060002060005b82811015614bbe578154865260209095019460019182019101615046565b6040808252835190820181905260009060208501906060840190835b818110156150a75783516001600160a01b0316835260209384019390920191600101615080565b505083810360208501526150bb818661502d565b9695505050505050565b6000602082840312156150d757600080fd5b815167ffffffffffffffff8111156150ee57600080fd5b8201601f810184136150ff57600080fd5b805161510d6149ec826149a9565b8082825260208201915060208360051b85010192508683111561512f57600080fd5b6020840193505b828410156150bb578351825260209384019390910190615136565b6001600160a01b03851681526001600160a01b038416602082015260a06040820152600061518260a083018561502d565b82810360608401526151948185614b8c565b838103608090940193909352505060008152602001949350505050565b6040815260006151c46040830185614b8c565b90508260208301529392505050565b6060815260006151e66060830186614b8c565b60208301949094525060400152919050565b60008161520757615207614f0b565b507fffffffffffffffffffffffffffffffffffffffffffffffffffffffffffffffff0190565b6001600160a01b038616815284602082015283604082015260a06060820152600061525b60a0830185614b8c565b90508260808301529695505050505050565b60008261527c5761527c614edc565b500690565b60008251615293818460208701614894565b9190910192915050565b600080604083850312156152b057600080fd5b50508051602090910151909290915056fea26469706673582212208d33915a6b9066dc14e3d75de44bba07cd0115af429d5485772a4b775f4801b164736f6c634300081c0033a2646970667358221220d1322c8324bb16439a706e1da26b18ac811efb9e88563c592e93a7b3a60256cc64736f6c634300081c0033",
  "linkReferences": {},
  "deployedLinkReferences": {}
}