{
  "_format": "hh-sol-artifact-1",
  "contractName": "ProofOfHuman",
  "sourceName": "contracts/AgeVerification.sol",
  "abi": [
    {
      "inputs": [
        {
          "internalType": "address",
          "name": "identityVerificationHubV2Address",
          "type": "address"
        },
        {
          "internalType": "string",
          "name": "scope",
          "type": "string"
        },
        {
          "components": [
            {
              "internalType": "uint256",
              "name": "olderThan",
              "type": "uint256"
            },
            {
              "internalType": "string[]",
              "name": "forbiddenCountries",
              "type": "string[]"
            },
            {
              "internalType": "bool",
              "name": "ofacEnabled",
              "type": "bool"
            }
          ],
          "internalType": "struct SelfUtils.UnformattedVerificationConfigV2",
          "name": "_verificationConfig",
          "type": "tuple"
        }
      ],
      "stateMutability": "nonpayable",
      "type": "constructor"
    },
    {
      "inputs": [],
      "name": "InvalidDataFormat",
      "type": "error"
    },
    {
      "inputs": [],
      "name": "UnauthorizedCaller",
      "type": "error"
    },
    {
      "anonymous": false,
      "inputs": [
        {
          "components": [
            {
              "internalType": "bytes32",
              "name": "attestationId",
              "type": "bytes32"
            },
            {
              "internalType": "uint256",
              "name": "userIdentifier",
              "type": "uint256"
            },
            {
              "internalType": "uint256",
              "name": "nullifier",
              "type": "uint256"
            },
            {
              "internalType": "uint256[4]",
              "name": "forbiddenCountriesListPacked",
              "type": "uint256[4]"
            },
            {
              "internalType": "string",
              "name": "issuingState",
              "type": "string"
            },
            {
              "internalType": "string[]",
              "name": "name",
              "type": "string[]"
            },
            {
              "internalType": "string",
              "name": "idNumber",
              "type": "string"
            },
            {
              "internalType": "string",
              "name": "nationality",
              "type": "string"
            },
            {
              "internalType": "string",
              "name": "dateOfBirth",
              "type": "string"
            },
            {
              "internalType": "string",
              "name": "gender",
              "type": "string"
            },
            {
              "internalType": "string",
              "name": "expiryDate",
              "type": "string"
            },
            {
              "internalType": "uint256",
              "name": "olderThan",
              "type": "uint256"
            },
            {
              "internalType": "bool[3]",
              "name": "ofac",
              "type": "bool[3]"
            }
          ],
          "indexed": false,
          "internalType": "struct ISelfVerificationRoot.GenericDiscloseOutputV2",
          "name": "output",
          "type": "tuple"
        },
        {
          "indexed": false,
          "internalType": "bytes",
          "name": "userData",
          "type": "bytes"
        }
      ],
      "name": "VerificationCompleted",
      "type": "event"
    },
    {
      "inputs": [
        {
          "internalType": "bytes32",
          "name": "",
          "type": "bytes32"
        },
        {
          "internalType": "bytes32",
          "name": "",
          "type": "bytes32"
        },
        {
          "internalType": "bytes",
          "name": "",
          "type": "bytes"
        }
      ],
      "name": "getConfigId",
      "outputs": [
        {
          "internalType": "bytes32",
          "name": "",
          "type": "bytes32"
        }
      ],
      "stateMutability": "view",
      "type": "function"
    },
    {
      "inputs": [],
      "name": "lastOutput",
      "outputs": [
        {
          "internalType": "bytes32",
          "name": "attestationId",
          "type": "bytes32"
        },
        {
          "internalType": "uint256",
          "name": "userIdentifier",
          "type": "uint256"
        },
        {
          "internalType": "uint256",
          "name": "nullifier",
          "type": "uint256"
        },
        {
          "internalType": "string",
          "name": "issuingState",
          "type": "string"
        },
        {
          "internalType": "string",
          "name": "idNumber",
          "type": "string"
        },
        {
          "internalType": "string",
          "name": "nationality",
          "type": "string"
        },
        {
          "internalType": "string",
          "name": "dateOfBirth",
          "type": "string"
        },
        {
          "internalType": "string",
          "name": "gender",
          "type": "string"
        },
        {
          "internalType": "string",
          "name": "expiryDate",
          "type": "string"
        },
        {
          "internalType": "uint256",
          "name": "olderThan",
          "type": "uint256"
        }
      ],
      "stateMutability": "view",
      "type": "function"
    },
    {
      "inputs": [],
      "name": "lastUserAddress",
      "outputs": [
        {
          "internalType": "address",
          "name": "",
          "type": "address"
        }
      ],
      "stateMutability": "view",
      "type": "function"
    },
    {
      "inputs": [],
      "name": "lastUserData",
      "outputs": [
        {
          "internalType": "bytes",
          "name": "",
          "type": "bytes"
        }
      ],
      "stateMutability": "view",
      "type": "function"
    },
    {
      "inputs": [
        {
          "internalType": "bytes",
          "name": "output",
          "type": "bytes"
        },
        {
          "internalType": "bytes",
          "name": "userData",
          "type": "bytes"
        }
      ],
      "name": "onVerificationSuccess",
      "outputs": [],
      "stateMutability": "nonpayable",
      "type": "function"
    },
    {
      "inputs": [],
      "name": "scope",
      "outputs": [
        {
          "internalType": "uint256",
          "name": "",
          "type": "uint256"
        }
      ],
      "stateMutability": "view",
      "type": "function"
    },
    {
      "inputs": [
        {
          "internalType": "bytes32",
          "name": "configId",
          "type": "bytes32"
        }
      ],
      "name": "setConfigId",
      "outputs": [],
      "stateMutability": "nonpayable",
      "type": "function"
    },
    {
      "inputs": [],
      "name": "verificationConfig",
      "outputs": [
        {
          "internalType": "bool",
          "name": "olderThanEnabled",
          "type": "bool"
        },
        {
          "internalType": "uint256",
          "name": "olderThan",
          "type": "uint256"
        },
        {
          "internalType": "bool",
          "name": "forbiddenCountriesEnabled",
          "type": "bool"
        }
      ],
      "stateMutability": "view",
      "type": "function"
    },
    {
      "inputs": [],
      "name": "verificationConfigId",
      "outputs": [
        {
          "internalType": "bytes32",
          "name": "",
          "type": "bytes32"
        }
      ],
      "stateMutability": "view",
      "type": "function"
    },
    {
      "inputs": [],
      "name": "verificationSuccessful",
      "outputs": [
        {
          "internalType": "bool",
          "name": "",
          "type": "bool"
        }
      ],
      "stateMutability": "view",
      "type": "function"
    },
    {
      "inputs": [
        {
          "internalType": "address",
          "name": "",
          "type": "address"
        }
      ],
      "name": "verifiedHumans",
      "outputs": [
        {
          "internalType": "bool",
          "name": "",
          "type": "bool"
        }
      ],
      "stateMutability": "view",
      "type": "function"
    },
    {
      "inputs": [
        {
          "internalType": "bytes",
          "name": "proofPayload",
          "type": "bytes"
        },
        {
          "internalType": "bytes",
          "name": "userContextData",
          "type": "bytes"
        }
      ],
      "name": "verifySelfProof",
      "outputs": [],
      "stateMutability": "nonpayable",
      "type": "function"
    }
  ],
  "bytecode": "0x60a060405234801561001057600080fd5b5060405161277f38038061277f83398101604081905261002f91610b6c565b6001600160a01b0383166080528282610050308261004b610135565b61018a565b6000555061005f905081610247565b80516013805491151560ff199283161781556020830151601455604083015160158054911515919093161790915560608201516100a0906016906004610900565b5060808201516100b6906007830190600361093e565b50506040516309ddb09160e01b81526001600160a01b03851691506309ddb091906100e690601390600401610cd8565b6020604051808303816000875af1158015610105573d6000803e3d6000fd5b505050506040513d601f19601f820116820180604052508101906101299190610d60565b601b5550610e7d915050565b60004661a4ec81900361015d5773f134707a4c4a3a76b8410fc0294d620a7c34158191505090565b8062aa044c0361018257730a782f7f9f8aac6e0bacaf3cd4aa292c3275c6f291505090565b600091505090565b60006001600160a01b0382166101a257506000610240565b60006101ae85846102b9565b905060006101bb8561037d565b604080518082018252848152602081018390529051632b0aac7f60e11b81529192506001600160a01b0386169163561558fe916101fa91600401610d79565b602060405180830381865afa158015610217573d6000803e3d6000fd5b505050506040513d601f19601f8201168201806040525081019061023b9190610d60565b925050505b9392505050565b61024f6109cb565b610257610a09565b6040838101805115158352805115156020808501919091529051151583830152815160a081018352855115158152855181830152908501805151151592820192909252905160608201906102aa90610495565b81526020019190915292915050565b6000806102c58461065d565b905060006102dd6102d88383601f61083e565b61037d565b905060006102f16102d884601f602a61083e565b604080518082018252848152602081018390529051632b0aac7f60e11b81529192506001600160a01b0387169163561558fe9161033091600401610d79565b602060405180830381865afa15801561034d573d6000803e3d6000fd5b505050506040513d601f19601f820116820180604052508101906103719190610d60565b93505050505b92915050565b600080829050601f815111156103e85760405162461bcd60e51b815260206004820152602560248201527f537472696e6720746f6f206c6f6e6720666f7220426967496e7420636f6e76656044820152643939b4b7b760d91b60648201526084015b60405180910390fd5b6000805b825181101561048d57607f83828151811061040957610409610daa565b016020015160f81c111561045f5760405162461bcd60e51b815260206004820152601c60248201527f4e6f6e2d4153434949206368617261637465722064657465637465640000000060448201526064016103df565b82818151811061047157610471610daa565b60209101015160f81c60089290921b91909117906001016103ec565b509392505050565b61049d610a27565b601f6004606060005b85518110156105725760008682815181106104c3576104c3610daa565b6020026020010151905080516003146105445760405162461bcd60e51b815260206004820152603760248201527f496e76616c696420636f756e74727920636f64653a206d75737420626520657860448201527f6163746c7920332063686172616374657273206c6f6e6700000000000000000060648201526084016103df565b8281604051602001610557929190610dc0565b60408051601f198184030181529190529250506001016104a6565b5080518360008160016105858286610e05565b61058f9190610e18565b6105999190610e2b565b905060005b81811080156105ac57508581105b15610651576000805b84811015610625576000816105ca8588610e4d565b6105d49190610e05565b90508681101561061c5760008882815181106105f2576105f2610daa565b016020015160f81c90506000610609846008610e4d565b905061061782821b86610e05565b945050505b506001016105b5565b508089836004811061063957610639610daa565b6020020152508061064981610e64565b91505061059e565b50505050505050919050565b604080518082018252601081526f181899199a1a9b1b9c1cb0b131b232b360811b60208201528151602a80825260608281019094526001600160a01b0385169291600091602082018180368337019050509050600360fc1b816000815181106106c8576106c8610daa565b60200101906001600160f81b031916908160001a905350600f60fb1b816001815181106106f7576106f7610daa565b60200101906001600160f81b031916908160001a90535060005b6014811015610835578260048561072984600c610e05565b6020811061073957610739610daa565b1a60f81b6001600160f81b031916901c60f81c60ff168151811061075f5761075f610daa565b01602001516001600160f81b0319168261077a836002610e4d565b610785906002610e05565b8151811061079557610795610daa565b60200101906001600160f81b031916908160001a90535082846107b983600c610e05565b602081106107c9576107c9610daa565b825191901a600f169081106107e0576107e0610daa565b01602001516001600160f81b031916826107fb836002610e4d565b610806906003610e05565b8151811061081657610816610daa565b60200101906001600160f81b031916908160001a905350600101610711565b50949350505050565b606083600061084d8585610e18565b6001600160401b0381111561086457610864610a5a565b6040519080825280601f01601f19166020018201604052801561088e576020820181803683370190505b509050845b848110156108f6578281815181106108ad576108ad610daa565b01602001516001600160f81b031916826108c78884610e18565b815181106108d7576108d7610daa565b60200101906001600160f81b031916908160001a905350600101610893565b5095945050505050565b826004810192821561092e579160200282015b8281111561092e578251825591602001919060010190610913565b5061093a929150610a45565b5090565b60018301918390821561092e5791602002820160005b8382111561099157835183826101000a81548160ff0219169083151502179055509260200192600101602081600001049283019260010302610954565b80156109be5782816101000a81549060ff0219169055600101602081600001049283019260010302610991565b505061093a929150610a45565b6040518060a00160405280600015158152602001600081526020016000151581526020016109f7610a27565b8152602001610a04610a09565b905290565b60405180606001604052806003906020820280368337509192915050565b60405180608001604052806004906020820280368337509192915050565b5b8082111561093a5760008155600101610a46565b634e487b7160e01b600052604160045260246000fd5b604051606081016001600160401b0381118282101715610a9257610a92610a5a565b60405290565b604051601f8201601f191681016001600160401b0381118282101715610ac057610ac0610a5a565b604052919050565b60005b83811015610ae3578181015183820152602001610acb565b50506000910152565b600082601f830112610afd57600080fd5b81516001600160401b03811115610b1657610b16610a5a565b610b29601f8201601f1916602001610a98565b818152846020838601011115610b3e57600080fd5b610b4f826020830160208701610ac8565b949350505050565b80518015158114610b6757600080fd5b919050565b600080600060608486031215610b8157600080fd5b83516001600160a01b0381168114610b9857600080fd5b60208501519093506001600160401b03811115610bb457600080fd5b610bc086828701610aec565b604086015190935090506001600160401b03811115610bde57600080fd5b840160608187031215610bf057600080fd5b610bf8610a70565b8151815260208201516001600160401b03811115610c1557600080fd5b8201601f81018813610c2657600080fd5b80516001600160401b03811115610c3f57610c3f610a5a565b8060051b610c4f60208201610a98565b9182526020818401810192908101908b841115610c6b57600080fd5b6020850192505b83831015610cb15782516001600160401b03811115610c9057600080fd5b610c9f8d602083890101610aec565b83525060209283019290910190610c72565b602086015250610cc79250505060408301610b57565b604082015280925050509250925092565b815460ff9081161515825260018301546020830152600283015416151560408201526101408101606082016003840160005b6004811015610d29578154835260209092019160019182019101610d0a565b505050600783015460ff808216151560e0850152600882901c8116151561010085015260109190911c161515610120830152610377565b600060208284031215610d7257600080fd5b5051919050565b60408101818360005b6002811015610da1578151835260209283019290910190600101610d82565b50505092915050565b634e487b7160e01b600052603260045260246000fd5b60008351610dd2818460208801610ac8565b835190830190610de6818360208801610ac8565b01949350505050565b634e487b7160e01b600052601160045260246000fd5b8082018082111561037757610377610def565b8181038181111561037757610377610def565b600082610e4857634e487b7160e01b600052601260045260246000fd5b500490565b808202811582820484141761037757610377610def565b600060018201610e7657610e76610def565b5060010190565b6080516118e0610e9f600039600081816102e1015261080001526118e06000f3fe608060405234801561001057600080fd5b50600436106100d45760003560e01c806397228a7e11610081578063bb4437441161005b578063bb4437441461020c578063c385abae14610215578063d161802b1461022857600080fd5b806397228a7e146101b35780639957459f146101d1578063ada1b319146101f457600080fd5b80636e62d0a8116100b25780636e62d0a81461016f5780637793a843146101815780638d2d8d6a1461019e57600080fd5b8063037b410e146100d957806311e37ed0146101155780635417c7551461012a575b600080fd5b6013546014546015546100f19260ff90811692911683565b60408051931515845260208401929092521515908201526060015b60405180910390f35b61011d61023b565b60405161010c9190610c96565b601c5461014a9073ffffffffffffffffffffffffffffffffffffffff1681565b60405173ffffffffffffffffffffffffffffffffffffffff909116815260200161010c565b6000545b60405190815260200161010c565b60015461018e9060ff1681565b604051901515815260200161010c565b6101b16101ac366004610df4565b6102c9565b005b6101bb61035f565b60405161010c9a99989796959493929190610e5d565b61018e6101df366004610f00565b601d6020526000908152604090205460ff1681565b610173610202366004610f36565b601b549392505050565b610173601b5481565b6101b1610223366004610f86565b601b55565b6101b1610236366004610fe8565b6106cc565b6012805461024890611059565b80601f016020809104026020016040519081016040528092919081815260200182805461027490611059565b80156102c15780601f10610296576101008083540402835291602001916102c1565b820191906000526020600020905b8154815290600101906020018083116102a457829003601f168201915b505050505081565b3373ffffffffffffffffffffffffffffffffffffffff7f00000000000000000000000000000000000000000000000000000000000000001614610338576040517f5c427cd900000000000000000000000000000000000000000000000000000000815260040160405180910390fd5b60008280602001905181019061034e9190611248565b905061035a81836108ba565b505050565b60028054600354600454600980549394929391929161037d90611059565b80601f01602080910402602001604051908101604052809291908181526020018280546103a990611059565b80156103f65780601f106103cb576101008083540402835291602001916103f6565b820191906000526020600020905b8154815290600101906020018083116103d957829003601f168201915b50505050509080600901805461040b90611059565b80601f016020809104026020016040519081016040528092919081815260200182805461043790611059565b80156104845780601f1061045957610100808354040283529160200191610484565b820191906000526020600020905b81548152906001019060200180831161046757829003601f168201915b50505050509080600a01805461049990611059565b80601f01602080910402602001604051908101604052809291908181526020018280546104c590611059565b80156105125780601f106104e757610100808354040283529160200191610512565b820191906000526020600020905b8154815290600101906020018083116104f557829003601f168201915b50505050509080600b01805461052790611059565b80601f016020809104026020016040519081016040528092919081815260200182805461055390611059565b80156105a05780601f10610575576101008083540402835291602001916105a0565b820191906000526020600020905b81548152906001019060200180831161058357829003601f168201915b50505050509080600c0180546105b590611059565b80601f01602080910402602001604051908101604052809291908181526020018280546105e190611059565b801561062e5780601f106106035761010080835404028352916020019161062e565b820191906000526020600020905b81548152906001019060200180831161061157829003601f168201915b50505050509080600d01805461064390611059565b80601f016020809104026020016040519081016040528092919081815260200182805461066f90611059565b80156106bc5780601f10610691576101008083540402835291602001916106bc565b820191906000526020600020905b81548152906001019060200180831161069f57829003601f168201915b50505050509080600e015490508a565b6020831015610707576040517fa512e2ff00000000000000000000000000000000000000000000000000000000815260040160405180910390fd5b6040811015610742576040517fa512e2ff00000000000000000000000000000000000000000000000000000000815260040160405180910390fd5b83356000610753602082858761141b565b61075c91611445565b9050600061076e60406020868861141b565b61077791611445565b90506000610788856040818961141b565b8080601f0160208091040260200160405190810160405280939291908181526020018383808284376000920182905250601b549495509392506107c9915050565b905060006002600060081b6000548c8c6040516020016107ed959493929190611482565b60405160208183030381529060405290507f000000000000000000000000000000000000000000000000000000000000000073ffffffffffffffffffffffffffffffffffffffff1663f7e83aee82848b8b604051602001610850939291906114f1565b6040516020818303038152906040526040518363ffffffff1660e01b815260040161087c92919061150b565b600060405180830381600087803b15801561089657600080fd5b505af11580156108aa573d6000803e3d6000fd5b5050505050505050505050505050565b600180547fffffffffffffffffffffffffffffffffffffffffffffffffffffffffffffff00168117905581516002908155602083015160035560408301516004908155606084015184929161091191600591610aa0565b50608082015160078201906109269082611587565b5060a08201518051610942916008840191602090910190610ade565b5060c082015160098201906109579082611587565b5060e0820151600a82019061096c9082611587565b50610100820151600b8201906109829082611587565b50610120820151600c8201906109989082611587565b50610140820151600d8201906109ae9082611587565b50610160820151600e8201556101808201516109d090600f8301906003610b30565b50601291506109e190508282611587565b50602082810151601c80547fffffffffffffffffffffffff00000000000000000000000000000000000000001673ffffffffffffffffffffffffffffffffffffffff90921691821790556000908152601d90915260409081902080547fffffffffffffffffffffffffffffffffffffffffffffffffffffffffffffff00166001179055517f4d69fc00874a9f9f03a2bf733b9bddf88ea7b7cc852031f3491fcefe2eabe23b90610a949084908490611768565b60405180910390a15050565b8260048101928215610ace579160200282015b82811115610ace578251825591602001919060010190610ab3565b50610ada929150610bb9565b5090565b828054828255906000526020600020908101928215610b24579160200282015b82811115610b245782518290610b149082611587565b5091602001919060010190610afe565b50610ada929150610bce565b600183019183908215610ace5791602002820160005b83821115610b8357835183826101000a81548160ff0219169083151502179055509260200192600101602081600001049283019260010302610b46565b8015610bb05782816101000a81549060ff0219169055600101602081600001049283019260010302610b83565b5050610ada9291505b5b80821115610ada5760008155600101610bba565b80821115610ada576000610be28282610beb565b50600101610bce565b508054610bf790611059565b6000825580601f10610c07575050565b601f016020900490600052602060002090810190610c259190610bb9565b50565b60005b83811015610c43578181015183820152602001610c2b565b50506000910152565b60008151808452610c64816020860160208601610c28565b601f017fffffffffffffffffffffffffffffffffffffffffffffffffffffffffffffffe0169290920160200192915050565b602081526000610ca96020830184610c4c565b9392505050565b7f4e487b7100000000000000000000000000000000000000000000000000000000600052604160045260246000fd5b6040516101a0810167ffffffffffffffff81118282101715610d0357610d03610cb0565b60405290565b604051601f82017fffffffffffffffffffffffffffffffffffffffffffffffffffffffffffffffe016810167ffffffffffffffff81118282101715610d5057610d50610cb0565b604052919050565b600067ffffffffffffffff821115610d7257610d72610cb0565b50601f017fffffffffffffffffffffffffffffffffffffffffffffffffffffffffffffffe01660200190565b600082601f830112610daf57600080fd5b8135610dc2610dbd82610d58565b610d09565b818152846020838601011115610dd757600080fd5b816020850160208301376000918101602001919091529392505050565b60008060408385031215610e0757600080fd5b823567ffffffffffffffff811115610e1e57600080fd5b610e2a85828601610d9e565b925050602083013567ffffffffffffffff811115610e4757600080fd5b610e5385828601610d9e565b9150509250929050565b8a815289602082015288604082015261014060608201526000610e8461014083018a610c4c565b8281036080840152610e96818a610c4c565b905082810360a0840152610eaa8189610c4c565b905082810360c0840152610ebe8188610c4c565b905082810360e0840152610ed28187610c4c565b9050828103610100840152610ee78186610c4c565b915050826101208301529b9a5050505050505050505050565b600060208284031215610f1257600080fd5b813573ffffffffffffffffffffffffffffffffffffffff81168114610ca957600080fd5b600080600060608486031215610f4b57600080fd5b8335925060208401359150604084013567ffffffffffffffff811115610f7057600080fd5b610f7c86828701610d9e565b9150509250925092565b600060208284031215610f9857600080fd5b5035919050565b60008083601f840112610fb157600080fd5b50813567ffffffffffffffff811115610fc957600080fd5b602083019150836020828501011115610fe157600080fd5b9250929050565b60008060008060408587031215610ffe57600080fd5b843567ffffffffffffffff81111561101557600080fd5b61102187828801610f9f565b909550935050602085013567ffffffffffffffff81111561104157600080fd5b61104d87828801610f9f565b95989497509550505050565b600181811c9082168061106d57607f821691505b6020821081036110a6577f4e487b7100000000000000000000000000000000000000000000000000000000600052602260045260246000fd5b50919050565b600082601f8301126110bd57600080fd5b6110c76080610d09565b8060808401858111156110d957600080fd5b845b818110156110f35780518452602093840193016110db565b509095945050505050565b600082601f83011261110f57600080fd5b815161111d610dbd82610d58565b81815284602083860101111561113257600080fd5b611143826020830160208701610c28565b949350505050565b600082601f83011261115c57600080fd5b815167ffffffffffffffff81111561117657611176610cb0565b8060051b61118660208201610d09565b918252602081850181019290810190868411156111a257600080fd5b6020860192505b838310156111e957825167ffffffffffffffff8111156111c857600080fd5b6111d7886020838a01016110fe565b835250602092830192909101906111a9565b9695505050505050565b600082601f83011261120457600080fd5b61120e6060610d09565b80606084018581111561122057600080fd5b845b818110156110f3578051801515811461123a57600080fd5b845260209384019301611222565b60006020828403121561125a57600080fd5b815167ffffffffffffffff81111561127157600080fd5b8201610240818503121561128457600080fd5b61128c610cdf565b8151815260208083015190820152604080830151908201526112b185606084016110ac565b606082015260e082015167ffffffffffffffff8111156112d057600080fd5b6112dc868285016110fe565b60808301525061010082015167ffffffffffffffff8111156112fd57600080fd5b6113098682850161114b565b60a08301525061012082015167ffffffffffffffff81111561132a57600080fd5b611336868285016110fe565b60c08301525061014082015167ffffffffffffffff81111561135757600080fd5b611363868285016110fe565b60e08301525061016082015167ffffffffffffffff81111561138457600080fd5b611390868285016110fe565b6101008301525061018082015167ffffffffffffffff8111156113b257600080fd5b6113be868285016110fe565b610120830152506101a082015167ffffffffffffffff8111156113e057600080fd5b6113ec868285016110fe565b610140830152506101c082015161016082015261140d856101e084016111f3565b610180820152949350505050565b6000808585111561142b57600080fd5b8386111561143857600080fd5b5050820193919092039150565b8035602083101561147c577fffffffffffffffffffffffffffffffffffffffffffffffffffffffffffffffff602084900360031b1b165b92915050565b7fff000000000000000000000000000000000000000000000000000000000000008660f81b1681527fffffffffffffffffffffffffffffffffffffffffffffffffffffffffffffff00851660018201528360208201528183604083013760009101604001908152949350505050565b838152818360208301376000910160200190815292915050565b60408152600061151e6040830185610c4c565b82810360208401526115308185610c4c565b95945050505050565b601f82111561035a57806000526020600020601f840160051c810160208510156115605750805b601f840160051c820191505b81811015611580576000815560010161156c565b5050505050565b815167ffffffffffffffff8111156115a1576115a1610cb0565b6115b5816115af8454611059565b84611539565b6020601f82116001811461160757600083156115d15750848201515b7fffffffffffffffffffffffffffffffffffffffffffffffffffffffffffffffff600385901b1c1916600184901b178455611580565b6000848152602081207fffffffffffffffffffffffffffffffffffffffffffffffffffffffffffffffe08516915b828110156116555787850151825560209485019460019092019101611635565b508482101561169157868401517fffffffffffffffffffffffffffffffffffffffffffffffffffffffffffffffff600387901b60f8161c191681555b50505050600190811b01905550565b8060005b60048110156116c35781518452602093840193909101906001016116a4565b50505050565b600082825180855260208501945060208160051b8301016020850160005b83811015611737577fffffffffffffffffffffffffffffffffffffffffffffffffffffffffffffffe0858403018852611721838351610c4c565b60209889019890935091909101906001016116e7565b50909695505050505050565b8060005b60038110156116c35781511515845260209384019390910190600101611747565b604081528251604082015260208301516060820152604083015160808201526000606084015161179b60a08401826116a0565b5060808401516102406101208401526117b8610280840182610c4c565b905060a0850151603f19848303016101408501526117d682826116c9565b91505060c0850151603f19848303016101608501526117f58282610c4c565b91505060e0850151603f19848303016101808501526118148282610c4c565b915050610100850151603f19848303016101a08501526118348282610c4c565b915050610120850151603f19848303016101c08501526118548282610c4c565b915050610140850151603f19848303016101e08501526118748282610c4c565b915050610160850151610200840152610180850151611897610220850182611743565b5082810360208401526115308185610c4c56fea2646970667358221220643d15b0b15aec0f670bfed111fbc3bcfe00768ff524d1f350f7c615da04243764736f6c634300081c0033",
  "linkReferences": {},
  "deployedLinkReferences": {}
}