{
  "_format": "hh-sol-artifact-1",
  "contractName": "MockIdentityVerificationHub",
  "sourceName": "contracts/MockIdentityVerificationHub.sol",
  "abi": [
    {
      "anonymous": false,
      "inputs": [
        {
          "indexed": true,
          "internalType": "bytes32",
          "name": "configId",
          "type": "bytes32"
        },
        {
          "components": [
            {
              "internalType": "bool",
              "name": "olderThanEnabled",
              "type": "bool"
            },
            {
              "internalType": "uint256",
              "name": "olderThan",
              "type": "uint256"
            },
            {
              "internalType": "bool",
              "name": "forbiddenCountriesEnabled",
              "type": "bool"
            },
            {
              "internalType": "uint256[4]",
              "name": "forbiddenCountriesListPacked",
              "type": "uint256[4]"
            },
            {
              "internalType": "bool[3]",
              "name": "ofacEnabled",
              "type": "bool[3]"
            }
          ],
          "indexed": false,
          "internalType": "struct SelfStructs.VerificationConfigV2",
          "name": "config",
          "type": "tuple"
        }
      ],
      "name": "VerificationConfigSet",
      "type": "event"
    },
    {
      "inputs": [
        {
          "internalType": "bytes32",
          "name": "configId",
          "type": "bytes32"
        }
      ],
      "name": "getVerificationConfig",
      "outputs": [
        {
          "components": [
            {
              "internalType": "bool",
              "name": "olderThanEnabled",
              "type": "bool"
            },
            {
              "internalType": "uint256",
              "name": "olderThan",
              "type": "uint256"
            },
            {
              "internalType": "bool",
              "name": "forbiddenCountriesEnabled",
              "type": "bool"
            },
            {
              "internalType": "uint256[4]",
              "name": "forbiddenCountriesListPacked",
              "type": "uint256[4]"
            },
            {
              "internalType": "bool[3]",
              "name": "ofacEnabled",
              "type": "bool[3]"
            }
          ],
          "internalType": "struct SelfStructs.VerificationConfigV2",
          "name": "",
          "type": "tuple"
        }
      ],
      "stateMutability": "view",
      "type": "function"
    },
    {
      "inputs": [
        {
          "internalType": "address",
          "name": "verificationContract",
          "type": "address"
        },
        {
          "internalType": "address",
          "name": "userAddress",
          "type": "address"
        },
        {
          "internalType": "bytes",
          "name": "userData",
          "type": "bytes"
        }
      ],
      "name": "mockVerifyUser",
      "outputs": [],
      "stateMutability": "nonpayable",
      "type": "function"
    },
    {
      "inputs": [
        {
          "components": [
            {
              "internalType": "bool",
              "name": "olderThanEnabled",
              "type": "bool"
            },
            {
              "internalType": "uint256",
              "name": "olderThan",
              "type": "uint256"
            },
            {
              "internalType": "bool",
              "name": "forbiddenCountriesEnabled",
              "type": "bool"
            },
            {
              "internalType": "uint256[4]",
              "name": "forbiddenCountriesListPacked",
              "type": "uint256[4]"
            },
            {
              "internalType": "bool[3]",
              "name": "ofacEnabled",
              "type": "bool[3]"
            }
          ],
          "internalType": "struct SelfStructs.VerificationConfigV2",
          "name": "config",
          "type": "tuple"
        }
      ],
      "name": "setVerificationConfigV2",
      "outputs": [
        {
          "internalType": "bytes32",
          "name": "",
          "type": "bytes32"
        }
      ],
      "stateMutability": "nonpayable",
      "type": "function"
    },
    {
      "inputs": [
        {
          "internalType": "bytes32",
          "name": "",
          "type": "bytes32"
        }
      ],
      "name": "verificationConfigs",
      "outputs": [
        {
          "internalType": "bool",
          "name": "olderThanEnabled",
          "type": "bool"
        },
        {
          "internalType": "uint256",
          "name": "olderThan",
          "type": "uint256"
        },
        {
          "internalType": "bool",
          "name": "forbiddenCountriesEnabled",
          "type": "bool"
        }
      ],
      "stateMutability": "view",
      "type": "function"
    }
  ],
  "bytecode": "0x6080604052348015600f57600080fd5b5061089e8061001f6000396000f3fe608060405234801561001057600080fd5b506004361061004b5760003560e01c806209ca9a1461005057806309ddb091146100655780635bccf7941461008b578063fcf959db146100ab575b600080fd5b61006361005e36600461056a565b505050565b005b6100786100733660046106ac565b6100fe565b6040519081526020015b60405180910390f35b61009e610099366004610759565b610262565b604051610082919061079d565b6100df6100b9366004610759565b60006020819052908152604090208054600182015460029092015460ff91821692911683565b6040805193151584526020840192909252151590820152606001610082565b600180546000918261010f83610809565b91905055506000426001543360405160200161016393929190928352602083019190915260601b7fffffffffffffffffffffffffffffffffffffffff00000000000000000000000016604082015260540190565b604080517fffffffffffffffffffffffffffffffffffffffffffffffffffffffffffffffe081840301815291815281516020928301206000818152808452829020865181549015157fffffffffffffffffffffffffffffffffffffffffffffffffffffffffffffff009182161782559387015160018201559186015160028301805491151591909416179092556060850151919250849161020a9060038301906004610340565b506080820151610220906007830190600361037e565b50905050807f7b0fc5eae65cda34c4fd525c70b7a496e6f370276961373e272965af9ce2adc484604051610254919061079d565b60405180910390a292915050565b61026a61040b565b60008281526020818152604091829020825160a081018452815460ff90811615158252600183015493820193909352600282015490921615158284015282516080810193849052919290916060840191600384019060049082845b8154815260200190600101908083116102c5575050509183525050604080516060810191829052602090920191906007840190600390826000855b825461010083900a900460ff1615158152602060019283018181049485019490930390920291018084116103005790505050505050815250509050919050565b826004810192821561036e579160200282015b8281111561036e578251825591602001919060010190610353565b5061037a929150610449565b5090565b60018301918390821561036e5791602002820160005b838211156103d157835183826101000a81548160ff0219169083151502179055509260200192600101602081600001049283019260010302610394565b80156103fe5782816101000a81549060ff02191690556001016020816000010492830192600103026103d1565b505061037a929150610449565b6040518060a001604052806000151581526020016000815260200160001515815260200161043761045e565b815260200161044461047c565b905290565b5b8082111561037a576000815560010161044a565b60405180608001604052806004906020820280368337509192915050565b60405180606001604052806003906020820280368337509192915050565b803573ffffffffffffffffffffffffffffffffffffffff811681146104be57600080fd5b919050565b7f4e487b7100000000000000000000000000000000000000000000000000000000600052604160045260246000fd5b60405160a0810167ffffffffffffffff81118282101715610515576105156104c3565b60405290565b604051601f82017fffffffffffffffffffffffffffffffffffffffffffffffffffffffffffffffe016810167ffffffffffffffff81118282101715610562576105626104c3565b604052919050565b60008060006060848603121561057f57600080fd5b6105888461049a565b92506105966020850161049a565b9150604084013567ffffffffffffffff8111156105b257600080fd5b8401601f810186136105c357600080fd5b803567ffffffffffffffff8111156105dd576105dd6104c3565b61060e60207fffffffffffffffffffffffffffffffffffffffffffffffffffffffffffffffe0601f8401160161051b565b81815287602083850101111561062357600080fd5b816020840160208301376000602083830101528093505050509250925092565b803580151581146104be57600080fd5b600082601f83011261066457600080fd5b61066e606061051b565b80606084018581111561068057600080fd5b845b818110156106a15761069381610643565b845260209384019301610682565b509095945050505050565b60006101408284031280156106c057600080fd5b5060006106cb6104f2565b6106d484610643565b8152602084810135908201526106ec60408501610643565b604082015284607f8501126106ff578182fd5b610709608061051b565b8060e086018781111561071a578485fd5b606087015b8181101561073757803584526020938401930161071f565b508160608501526107488882610653565b608085015250919695505050505050565b60006020828403121561076b57600080fd5b5035919050565b8060005b60038110156107975781511515845260209384019390910190600101610776565b50505050565b6000610140820190508251151582526020830151602083015260408301511515604083015260608301516060830160005b60048110156107ed5782518252602092830192909101906001016107ce565b505050608083015161080260e0840182610772565b5092915050565b60007fffffffffffffffffffffffffffffffffffffffffffffffffffffffffffffffff8203610861577f4e487b7100000000000000000000000000000000000000000000000000000000600052601160045260246000fd5b506001019056fea2646970667358221220d81596f523586c4a5235b0b87bce01971d5fe02d02f7c912df9f32c0c075242564736f6c634300081c0033",
  "linkReferences": {},
  "deployedLinkReferences": {}
}