{
  "_format": "hh-sol-artifact-1",
  "contractName": "SimplePredictionsOracle",
  "sourceName": "contracts/SimplePredictionsOracle.sol",
  "abi": [
    {
      "inputs": [
        {
          "internalType": "address",
          "name": "_conditionalTokens",
          "type": "address"
        },
        {
          "internalType": "address",
          "name": "_FPMMFactory",
          "type": "address"
        },
        {
          "internalType": "address",
          "name": "_collateralToken",
          "type": "address"
        },
        {
          "internalType": "address",
          "name": "_pythOracle",
          "type": "address"
        }
      ],
      "stateMutability": "nonpayable",
      "type": "constructor"
    },
    {
      "inputs": [
        {
          "internalType": "address",
          "name": "owner",
          "type": "address"
        }
      ],
      "name": "OwnableInvalidOwner",
      "type": "error"
    },
    {
      "inputs": [
        {
          "internalType": "address",
          "name": "account",
          "type": "address"
        }
      ],
      "name": "OwnableUnauthorizedAccount",
      "type": "error"
    },
    {
      "inputs": [],
      "name": "ReentrancyGuardReentrantCall",
      "type": "error"
    },
    {
      "anonymous": false,
      "inputs": [
        {
          "indexed": true,
          "internalType": "bytes32",
          "name": "questionId",
          "type": "bytes32"
        },
        {
          "indexed": false,
          "internalType": "int64",
          "name": "initialPrice",
          "type": "int64"
        },
        {
          "indexed": false,
          "internalType": "int64",
          "name": "finalPrice",
          "type": "int64"
        },
        {
          "indexed": false,
          "internalType": "bool",
          "name": "priceWentUp",
          "type": "bool"
        }
      ],
      "name": "AutoResolutionTriggered",
      "type": "event"
    },
    {
      "anonymous": false,
      "inputs": [
        {
          "indexed": true,
          "internalType": "address",
          "name": "wallet",
          "type": "address"
        },
        {
          "indexed": true,
          "internalType": "address",
          "name": "fpmmAddress",
          "type": "address"
        },
        {
          "indexed": true,
          "internalType": "bytes32",
          "name": "questionId",
          "type": "bytes32"
        },
        {
          "indexed": false,
          "internalType": "uint256",
          "name": "investmentAmount",
          "type": "uint256"
        },
        {
          "indexed": false,
          "internalType": "uint256",
          "name": "feeAmount",
          "type": "uint256"
        },
        {
          "indexed": false,
          "internalType": "uint256",
          "name": "outcomeIndex",
          "type": "uint256"
        },
        {
          "indexed": false,
          "internalType": "uint256",
          "name": "outcomeTokensBought",
          "type": "uint256"
        }
      ],
      "name": "BuyPosition",
      "type": "event"
    },
    {
      "anonymous": false,
      "inputs": [
        {
          "indexed": true,
          "internalType": "bytes32",
          "name": "questionId",
          "type": "bytes32"
        },
        {
          "indexed": false,
          "internalType": "uint256[]",
          "name": "payouts",
          "type": "uint256[]"
        },
        {
          "indexed": false,
          "internalType": "address",
          "name": "resolver",
          "type": "address"
        },
        {
          "indexed": false,
          "internalType": "string",
          "name": "answerCid",
          "type": "string"
        }
      ],
      "name": "MarketResolved",
      "type": "event"
    },
    {
      "anonymous": false,
      "inputs": [
        {
          "indexed": true,
          "internalType": "address",
          "name": "previousOwner",
          "type": "address"
        },
        {
          "indexed": true,
          "internalType": "address",
          "name": "newOwner",
          "type": "address"
        }
      ],
      "name": "OwnershipTransferred",
      "type": "event"
    },
    {
      "anonymous": false,
      "inputs": [
        {
          "indexed": true,
          "internalType": "bytes32",
          "name": "priceId",
          "type": "bytes32"
        },
        {
          "indexed": false,
          "internalType": "int64",
          "name": "price",
          "type": "int64"
        },
        {
          "indexed": false,
          "internalType": "uint64",
          "name": "publishTime",
          "type": "uint64"
        }
      ],
      "name": "PriceUpdated",
      "type": "event"
    },
    {
      "anonymous": false,
      "inputs": [
        {
          "indexed": true,
          "internalType": "bytes32",
          "name": "questionId",
          "type": "bytes32"
        },
        {
          "indexed": true,
          "internalType": "bytes32",
          "name": "priceId",
          "type": "bytes32"
        },
        {
          "indexed": false,
          "internalType": "int64",
          "name": "initialPrice",
          "type": "int64"
        },
        {
          "indexed": false,
          "internalType": "uint256",
          "name": "endTimestamp",
          "type": "uint256"
        },
        {
          "indexed": false,
          "internalType": "address",
          "name": "fpmmAddress",
          "type": "address"
        }
      ],
      "name": "RandomMarketCreated",
      "type": "event"
    },
    {
      "anonymous": false,
      "inputs": [
        {
          "indexed": true,
          "internalType": "address",
          "name": "wallet",
          "type": "address"
        },
        {
          "indexed": true,
          "internalType": "address",
          "name": "fpmmAddress",
          "type": "address"
        },
        {
          "indexed": true,
          "internalType": "bytes32",
          "name": "questionId",
          "type": "bytes32"
        },
        {
          "indexed": false,
          "internalType": "uint256[]",
          "name": "indexSets",
          "type": "uint256[]"
        },
        {
          "indexed": false,
          "internalType": "uint256",
          "name": "totalPayout",
          "type": "uint256"
        }
      ],
      "name": "RedeemPosition",
      "type": "event"
    },
    {
      "inputs": [],
      "name": "FPMMFactory",
      "outputs": [
        {
          "internalType": "contract IFactory",
          "name": "",
          "type": "address"
        }
      ],
      "stateMutability": "view",
      "type": "function"
    },
    {
      "inputs": [
        {
          "internalType": "bytes32",
          "name": "",
          "type": "bytes32"
        }
      ],
      "name": "activePriceFeeds",
      "outputs": [
        {
          "internalType": "bool",
          "name": "",
          "type": "bool"
        }
      ],
      "stateMutability": "view",
      "type": "function"
    },
    {
      "inputs": [
        {
          "internalType": "bytes32",
          "name": "",
          "type": "bytes32"
        }
      ],
      "name": "answers",
      "outputs": [
        {
          "internalType": "uint256",
          "name": "answerTimestamp",
          "type": "uint256"
        },
        {
          "internalType": "string",
          "name": "answerCid",
          "type": "string"
        }
      ],
      "stateMutability": "view",
      "type": "function"
    },
    {
      "inputs": [
        {
          "internalType": "bytes32[]",
          "name": "questionIds",
          "type": "bytes32[]"
        },
        {
          "internalType": "bytes[]",
          "name": "priceUpdateData",
          "type": "bytes[]"
        }
      ],
      "name": "autoResolveMarkets",
      "outputs": [],
      "stateMutability": "payable",
      "type": "function"
    },
    {
      "inputs": [
        {
          "internalType": "bytes32",
          "name": "questionId",
          "type": "bytes32"
        },
        {
          "internalType": "uint256",
          "name": "outcomeIndex",
          "type": "uint256"
        },
        {
          "internalType": "uint256",
          "name": "amount",
          "type": "uint256"
        },
        {
          "internalType": "uint256",
          "name": "minOutcomeTokensToBuy",
          "type": "uint256"
        },
        {
          "internalType": "address",
          "name": "conditionTokensReceiver",
          "type": "address"
        }
      ],
      "name": "buyPosition",
      "outputs": [],
      "stateMutability": "nonpayable",
      "type": "function"
    },
    {
      "inputs": [],
      "name": "canCreateRandomMarket",
      "outputs": [
        {
          "internalType": "bool",
          "name": "",
          "type": "bool"
        }
      ],
      "stateMutability": "view",
      "type": "function"
    },
    {
      "inputs": [],
      "name": "collateralToken",
      "outputs": [
        {
          "internalType": "contract Token",
          "name": "",
          "type": "address"
        }
      ],
      "stateMutability": "view",
      "type": "function"
    },
    {
      "inputs": [],
      "name": "conditionalTokens",
      "outputs": [
        {
          "internalType": "contract ConditionalTokens",
          "name": "",
          "type": "address"
        }
      ],
      "stateMutability": "view",
      "type": "function"
    },
    {
      "inputs": [
        {
          "internalType": "bytes32[]",
          "name": "_priceIds",
          "type": "bytes32[]"
        },
        {
          "internalType": "uint256",
          "name": "_minDuration",
          "type": "uint256"
        },
        {
          "internalType": "uint256",
          "name": "_maxDuration",
          "type": "uint256"
        },
        {
          "internalType": "uint256",
          "name": "_marketInterval",
          "type": "uint256"
        },
        {
          "internalType": "uint256",
          "name": "_initialFunding",
          "type": "uint256"
        },
        {
          "internalType": "bool",
          "name": "_autoCreateEnabled",
          "type": "bool"
        }
      ],
      "name": "configureRandomMarkets",
      "outputs": [],
      "stateMutability": "nonpayable",
      "type": "function"
    },
    {
      "inputs": [
        {
          "internalType": "bytes[]",
          "name": "priceUpdateData",
          "type": "bytes[]"
        }
      ],
      "name": "createRandomMarket",
      "outputs": [
        {
          "internalType": "bytes32",
          "name": "",
          "type": "bytes32"
        }
      ],
      "stateMutability": "payable",
      "type": "function"
    },
    {
      "inputs": [],
      "name": "emergencyWithdraw",
      "outputs": [],
      "stateMutability": "nonpayable",
      "type": "function"
    },
    {
      "inputs": [],
      "name": "emergencyWithdrawETH",
      "outputs": [],
      "stateMutability": "nonpayable",
      "type": "function"
    },
    {
      "inputs": [
        {
          "internalType": "bytes32",
          "name": "priceId",
          "type": "bytes32"
        }
      ],
      "name": "getCurrentPrice",
      "outputs": [
        {
          "components": [
            {
              "internalType": "int64",
              "name": "price",
              "type": "int64"
            },
            {
              "internalType": "uint64",
              "name": "conf",
              "type": "uint64"
            },
            {
              "internalType": "int32",
              "name": "expo",
              "type": "int32"
            },
            {
              "internalType": "uint256",
              "name": "publishTime",
              "type": "uint256"
            }
          ],
          "internalType": "struct PythStructs.Price",
          "name": "",
          "type": "tuple"
        }
      ],
      "stateMutability": "view",
      "type": "function"
    },
    {
      "inputs": [
        {
          "internalType": "bytes32",
          "name": "questionId",
          "type": "bytes32"
        }
      ],
      "name": "getDetailedMarketData",
      "outputs": [
        {
          "components": [
            {
              "internalType": "uint256",
              "name": "beginTimestamp",
              "type": "uint256"
            },
            {
              "internalType": "uint256",
              "name": "endTimestamp",
              "type": "uint256"
            },
            {
              "internalType": "address",
              "name": "fpmm",
              "type": "address"
            },
            {
              "internalType": "bytes32",
              "name": "conditionId",
              "type": "bytes32"
            },
            {
              "internalType": "bytes32",
              "name": "priceId",
              "type": "bytes32"
            },
            {
              "internalType": "int64",
              "name": "initialPrice",
              "type": "int64"
            },
            {
              "internalType": "int64",
              "name": "finalPrice",
              "type": "int64"
            },
            {
              "internalType": "uint256",
              "name": "initialPriceTimestamp",
              "type": "uint256"
            },
            {
              "internalType": "uint256",
              "name": "finalPriceTimestamp",
              "type": "uint256"
            }
          ],
          "internalType": "struct SimplePredictionsOracle.QuestionData",
          "name": "questionData",
          "type": "tuple"
        },
        {
          "components": [
            {
              "internalType": "uint256[]",
              "name": "payouts",
              "type": "uint256[]"
            },
            {
              "internalType": "uint256",
              "name": "answerTimestamp",
              "type": "uint256"
            },
            {
              "internalType": "string",
              "name": "answerCid",
              "type": "string"
            }
          ],
          "internalType": "struct SimplePredictionsOracle.AnswerData",
          "name": "answerData",
          "type": "tuple"
        },
        {
          "internalType": "uint256",
          "name": "uniqueBuys",
          "type": "uint256"
        },
        {
          "internalType": "uint256[]",
          "name": "probabilities",
          "type": "uint256[]"
        },
        {
          "internalType": "uint256[]",
          "name": "buyAmounts",
          "type": "uint256[]"
        },
        {
          "internalType": "bool",
          "name": "isResolved",
          "type": "bool"
        },
        {
          "internalType": "bool",
          "name": "hasExpired",
          "type": "bool"
        },
        {
          "internalType": "int64",
          "name": "currentPrice",
          "type": "int64"
        },
        {
          "internalType": "int256",
          "name": "priceMovementPercent",
          "type": "int256"
        },
        {
          "internalType": "bool",
          "name": "currentlyWinning",
          "type": "bool"
        }
      ],
      "stateMutability": "view",
      "type": "function"
    },
    {
      "inputs": [
        {
          "internalType": "bytes32",
          "name": "questionId",
          "type": "bytes32"
        }
      ],
      "name": "getMarketData",
      "outputs": [
        {
          "components": [
            {
              "components": [
                {
                  "internalType": "uint256",
                  "name": "beginTimestamp",
                  "type": "uint256"
                },
                {
                  "internalType": "uint256",
                  "name": "endTimestamp",
                  "type": "uint256"
                },
                {
                  "internalType": "address",
                  "name": "fpmm",
                  "type": "address"
                },
                {
                  "internalType": "bytes32",
                  "name": "conditionId",
                  "type": "bytes32"
                },
                {
                  "internalType": "bytes32",
                  "name": "priceId",
                  "type": "bytes32"
                },
                {
                  "internalType": "int64",
                  "name": "initialPrice",
                  "type": "int64"
                },
                {
                  "internalType": "int64",
                  "name": "finalPrice",
                  "type": "int64"
                },
                {
                  "internalType": "uint256",
                  "name": "initialPriceTimestamp",
                  "type": "uint256"
                },
                {
                  "internalType": "uint256",
                  "name": "finalPriceTimestamp",
                  "type": "uint256"
                }
              ],
              "internalType": "struct SimplePredictionsOracle.QuestionData",
              "name": "questionData",
              "type": "tuple"
            },
            {
              "components": [
                {
                  "internalType": "uint256[]",
                  "name": "payouts",
                  "type": "uint256[]"
                },
                {
                  "internalType": "uint256",
                  "name": "answerTimestamp",
                  "type": "uint256"
                },
                {
                  "internalType": "string",
                  "name": "answerCid",
                  "type": "string"
                }
              ],
              "internalType": "struct SimplePredictionsOracle.AnswerData",
              "name": "answerData",
              "type": "tuple"
            },
            {
              "internalType": "uint256",
              "name": "uniqueBuys",
              "type": "uint256"
            },
            {
              "internalType": "uint256[]",
              "name": "probabilities",
              "type": "uint256[]"
            },
            {
              "internalType": "uint256[]",
              "name": "buyAmounts",
              "type": "uint256[]"
            }
          ],
          "internalType": "struct SimplePredictionsOracle.MarketData",
          "name": "",
          "type": "tuple"
        }
      ],
      "stateMutability": "view",
      "type": "function"
    },
    {
      "inputs": [
        {
          "internalType": "bytes32",
          "name": "questionId",
          "type": "bytes32"
        },
        {
          "internalType": "uint256[]",
          "name": "indexSets",
          "type": "uint256[]"
        },
        {
          "internalType": "address",
          "name": "holder",
          "type": "address"
        }
      ],
      "name": "getPositionBalances",
      "outputs": [
        {
          "internalType": "uint256[]",
          "name": "balances",
          "type": "uint256[]"
        }
      ],
      "stateMutability": "view",
      "type": "function"
    },
    {
      "inputs": [],
      "name": "getRandomMarketConfig",
      "outputs": [
        {
          "components": [
            {
              "internalType": "bytes32[]",
              "name": "priceIds",
              "type": "bytes32[]"
            },
            {
              "internalType": "uint256",
              "name": "minDuration",
              "type": "uint256"
            },
            {
              "internalType": "uint256",
              "name": "maxDuration",
              "type": "uint256"
            },
            {
              "internalType": "uint256",
              "name": "marketInterval",
              "type": "uint256"
            },
            {
              "internalType": "uint256",
              "name": "initialFunding",
              "type": "uint256"
            },
            {
              "internalType": "bool",
              "name": "autoCreateEnabled",
              "type": "bool"
            }
          ],
          "internalType": "struct SimplePredictionsOracle.RandomMarketConfig",
          "name": "",
          "type": "tuple"
        }
      ],
      "stateMutability": "view",
      "type": "function"
    },
    {
      "inputs": [
        {
          "internalType": "bytes32",
          "name": "questionId",
          "type": "bytes32"
        },
        {
          "internalType": "address",
          "name": "spender",
          "type": "address"
        }
      ],
      "name": "getRemainingBuyAmount",
      "outputs": [
        {
          "internalType": "uint256",
          "name": "",
          "type": "uint256"
        }
      ],
      "stateMutability": "view",
      "type": "function"
    },
    {
      "inputs": [
        {
          "internalType": "address",
          "name": "user",
          "type": "address"
        }
      ],
      "name": "getUserOpenPositions",
      "outputs": [
        {
          "internalType": "bytes32[]",
          "name": "",
          "type": "bytes32[]"
        }
      ],
      "stateMutability": "view",
      "type": "function"
    },
    {
      "inputs": [],
      "name": "lastRandomMarketTime",
      "outputs": [
        {
          "internalType": "uint256",
          "name": "",
          "type": "uint256"
        }
      ],
      "stateMutability": "view",
      "type": "function"
    },
    {
      "inputs": [],
      "name": "maxBuyAmountPerQuestion",
      "outputs": [
        {
          "internalType": "uint256",
          "name": "",
          "type": "uint256"
        }
      ],
      "stateMutability": "view",
      "type": "function"
    },
    {
      "inputs": [],
      "name": "minBuyAmount",
      "outputs": [
        {
          "internalType": "uint256",
          "name": "",
          "type": "uint256"
        }
      ],
      "stateMutability": "view",
      "type": "function"
    },
    {
      "inputs": [
        {
          "internalType": "address",
          "name": "",
          "type": "address"
        },
        {
          "internalType": "address",
          "name": "",
          "type": "address"
        },
        {
          "internalType": "uint256[]",
          "name": "",
          "type": "uint256[]"
        },
        {
          "internalType": "uint256[]",
          "name": "",
          "type": "uint256[]"
        },
        {
          "internalType": "bytes",
          "name": "",
          "type": "bytes"
        }
      ],
      "name": "onERC1155BatchReceived",
      "outputs": [
        {
          "internalType": "bytes4",
          "name": "",
          "type": "bytes4"
        }
      ],
      "stateMutability": "nonpayable",
      "type": "function"
    },
    {
      "inputs": [
        {
          "internalType": "address",
          "name": "",
          "type": "address"
        },
        {
          "internalType": "address",
          "name": "",
          "type": "address"
        },
        {
          "internalType": "uint256",
          "name": "",
          "type": "uint256"
        },
        {
          "internalType": "uint256",
          "name": "",
          "type": "uint256"
        },
        {
          "internalType": "bytes",
          "name": "",
          "type": "bytes"
        }
      ],
      "name": "onERC1155Received",
      "outputs": [
        {
          "internalType": "bytes4",
          "name": "",
          "type": "bytes4"
        }
      ],
      "stateMutability": "nonpayable",
      "type": "function"
    },
    {
      "inputs": [],
      "name": "owner",
      "outputs": [
        {
          "internalType": "address",
          "name": "",
          "type": "address"
        }
      ],
      "stateMutability": "view",
      "type": "function"
    },
    {
      "inputs": [],
      "name": "pythOracle",
      "outputs": [
        {
          "internalType": "contract IPyth",
          "name": "",
          "type": "address"
        }
      ],
      "stateMutability": "view",
      "type": "function"
    },
    {
      "inputs": [
        {
          "internalType": "bytes32",
          "name": "",
          "type": "bytes32"
        }
      ],
      "name": "questions",
      "outputs": [
        {
          "internalType": "uint256",
          "name": "beginTimestamp",
          "type": "uint256"
        },
        {
          "internalType": "uint256",
          "name": "endTimestamp",
          "type": "uint256"
        },
        {
          "internalType": "address",
          "name": "fpmm",
          "type": "address"
        },
        {
          "internalType": "bytes32",
          "name": "conditionId",
          "type": "bytes32"
        },
        {
          "internalType": "bytes32",
          "name": "priceId",
          "type": "bytes32"
        },
        {
          "internalType": "int64",
          "name": "initialPrice",
          "type": "int64"
        },
        {
          "internalType": "int64",
          "name": "finalPrice",
          "type": "int64"
        },
        {
          "internalType": "uint256",
          "name": "initialPriceTimestamp",
          "type": "uint256"
        },
        {
          "internalType": "uint256",
          "name": "finalPriceTimestamp",
          "type": "uint256"
        }
      ],
      "stateMutability": "view",
      "type": "function"
    },
    {
      "inputs": [],
      "name": "randomMarketConfig",
      "outputs": [
        {
          "internalType": "uint256",
          "name": "minDuration",
          "type": "uint256"
        },
        {
          "internalType": "uint256",
          "name": "maxDuration",
          "type": "uint256"
        },
        {
          "internalType": "uint256",
          "name": "marketInterval",
          "type": "uint256"
        },
        {
          "internalType": "uint256",
          "name": "initialFunding",
          "type": "uint256"
        },
        {
          "internalType": "bool",
          "name": "autoCreateEnabled",
          "type": "bool"
        }
      ],
      "stateMutability": "view",
      "type": "function"
    },
    {
      "inputs": [
        {
          "internalType": "bytes32",
          "name": "questionId",
          "type": "bytes32"
        },
        {
          "internalType": "uint256[]",
          "name": "indexSets",
          "type": "uint256[]"
        }
      ],
      "name": "redeemPosition",
      "outputs": [],
      "stateMutability": "nonpayable",
      "type": "function"
    },
    {
      "inputs": [
        {
          "internalType": "uint256",
          "name": "num",
          "type": "uint256"
        }
      ],
      "name": "redeemPositions",
      "outputs": [],
      "stateMutability": "nonpayable",
      "type": "function"
    },
    {
      "inputs": [],
      "name": "renounceOwnership",
      "outputs": [],
      "stateMutability": "nonpayable",
      "type": "function"
    },
    {
      "inputs": [],
      "name": "sellEnabled",
      "outputs": [
        {
          "internalType": "bool",
          "name": "",
          "type": "bool"
        }
      ],
      "stateMutability": "view",
      "type": "function"
    },
    {
      "inputs": [],
      "name": "stopTradingBeforeMarketEnd",
      "outputs": [
        {
          "internalType": "uint256",
          "name": "",
          "type": "uint256"
        }
      ],
      "stateMutability": "view",
      "type": "function"
    },
    {
      "inputs": [
        {
          "internalType": "bytes4",
          "name": "interfaceId",
          "type": "bytes4"
        }
      ],
      "name": "supportsInterface",
      "outputs": [
        {
          "internalType": "bool",
          "name": "",
          "type": "bool"
        }
      ],
      "stateMutability": "view",
      "type": "function"
    },
    {
      "inputs": [
        {
          "internalType": "address",
          "name": "newOwner",
          "type": "address"
        }
      ],
      "name": "transferOwnership",
      "outputs": [],
      "stateMutability": "nonpayable",
      "type": "function"
    },
    {
      "inputs": [
        {
          "internalType": "address",
          "name": "_conditionalTokens",
          "type": "address"
        },
        {
          "internalType": "address",
          "name": "_FPMMFactory",
          "type": "address"
        },
        {
          "internalType": "address",
          "name": "_collateralToken",
          "type": "address"
        },
        {
          "internalType": "address",
          "name": "_pythOracle",
          "type": "address"
        }
      ],
      "name": "updateContracts",
      "outputs": [],
      "stateMutability": "nonpayable",
      "type": "function"
    },
    {
      "inputs": [
        {
          "internalType": "uint256",
          "name": "_maxBuyAmountPerQuestion",
          "type": "uint256"
        }
      ],
      "name": "updateMaxBuyAmountPerQuestion",
      "outputs": [],
      "stateMutability": "nonpayable",
      "type": "function"
    },
    {
      "inputs": [
        {
          "internalType": "uint256",
          "name": "_minBuyAmount",
          "type": "uint256"
        }
      ],
      "name": "updateMinBuyAmount",
      "outputs": [],
      "stateMutability": "nonpayable",
      "type": "function"
    },
    {
      "inputs": [
        {
          "internalType": "bytes[]",
          "name": "priceUpdateData",
          "type": "bytes[]"
        }
      ],
      "name": "updatePriceFeeds",
      "outputs": [],
      "stateMutability": "payable",
      "type": "function"
    },
    {
      "inputs": [
        {
          "internalType": "uint256",
          "name": "_stopTradingBeforeMarketEnd",
          "type": "uint256"
        }
      ],
      "name": "updateStopTradingBeforeMarketEnd",
      "outputs": [],
      "stateMutability": "nonpayable",
      "type": "function"
    },
    {
      "inputs": [
        {
          "internalType": "bytes32",
          "name": "",
          "type": "bytes32"
        },
        {
          "internalType": "address",
          "name": "",
          "type": "address"
        }
      ],
      "name": "userBuyAmounts",
      "outputs": [
        {
          "internalType": "uint256",
          "name": "",
          "type": "uint256"
        }
      ],
      "stateMutability": "view",
      "type": "function"
    },
    {
      "inputs": [
        {
          "internalType": "address",
          "name": "",
          "type": "address"
        }
      ],
      "name": "userRedeemed",
      "outputs": [
        {
          "internalType": "uint256",
          "name": "",
          "type": "uint256"
        }
      ],
      "stateMutability": "view",
      "type": "function"
    },
    {
      "inputs": [
        {
          "internalType": "address",
          "name": "",
          "type": "address"
        }
      ],
      "name": "userSpendings",
      "outputs": [
        {
          "internalType": "uint256",
          "name": "",
          "type": "uint256"
        }
      ],
      "stateMutability": "view",
      "type": "function"
    },
    {
      "stateMutability": "payable",
      "type": "receive"
    }
  ],
  "bytecode": "0x6080604052670de0b6b3a7640000600655683635c9adc5dea0000060075561012c6008556009805460ff1916905534801561003957600080fd5b50604051615eec380380615eec83398101604081905261005891610150565b338061007e57604051631e4fbdf760e01b81526000600482015260240160405180910390fd5b610087816100e4565b5060018055600280546001600160a01b039586166001600160a01b03199182161790915560038054948616948216949094179093556004805492851692841692909217909155600580549190931691161790556000600a556101a4565b600080546001600160a01b038381166001600160a01b0319831681178455604051919092169283917f8be0079c531659141344cd1fd0a4f28419497f9722a3daafe3b4186f6b6457e09190a35050565b80516001600160a01b038116811461014b57600080fd5b919050565b6000806000806080858703121561016657600080fd5b61016f85610134565b935061017d60208601610134565b925061018b60408601610134565b915061019960608601610134565b905092959194509250565b615d39806101b36000396000f3fe6080604052600436106102e05760003560e01c80638da5cb5b11610184578063d1d0d16c116100d6578063e35950ae1161008a578063f2fde38b11610064578063f2fde38b146109d6578063f5d6ac90146109f6578063f66bf22914610a1657600080fd5b8063e35950ae14610968578063ef9e5e281461097e578063f23a6e611461099157600080fd5b8063db219e23116100bb578063db219e231461091d578063db2e21bc1461093d578063deaf431d1461095257600080fd5b8063d1d0d16c146108d0578063d79635fb146108fd57600080fd5b8063aac753b611610138578063b7d5842211610112578063b7d5842214610827578063bc197c8114610847578063bc5d7eb9146108bd57600080fd5b8063aac753b6146107c4578063af1f8356146107f2578063b2016bd41461080757600080fd5b806395addb901161016957806395addb90146106a55780639f477d7414610777578063a2e78653146107a457600080fd5b80638da5cb5b146106675780638fded67d1461068557600080fd5b8063493fc96c1161023d5780636e80ab0c116101f15780637cc52d22116101cb5780637cc52d221461061257806382994efa14610632578063845360171461065257600080fd5b80636e80ab0c146105c8578063715018a6146105ea57806376df3789146105ff57600080fd5b80635b212f3d116102225780635b212f3d1461055c5780635bd9e299146105725780636562412a1461059257600080fd5b8063493fc96c1461052257806358197a9d1461054257600080fd5b80631f3990de1161029457806330f4f4bb1161027957806330f4f4bb14610490578063320d94b2146104bd5780634441aacb146104f557600080fd5b80631f3990de1461042a5780632f6c10701461047057600080fd5b80630b751279116102c55780630b751279146103515780631561b65614610373578063161e444e146103c757600080fd5b806301ffc9a7146102ec578063039d90d51461032157600080fd5b366102e757005b600080fd5b3480156102f857600080fd5b5061030c610307366004614a89565b610a2c565b60405190151581526020015b60405180910390f35b34801561032d57600080fd5b5061030c61033c366004614acb565b60126020526000908152604090205460ff1681565b34801561035d57600080fd5b5061037161036c366004614af9565b610ac5565b005b34801561037f57600080fd5b50600c54600d54600e54600f5460105461039d949392919060ff1685565b6040805195865260208601949094529284019190915260608301521515608082015260a001610318565b3480156103d357600080fd5b506103e76103e2366004614acb565b610b35565b6040516103189190815160070b815260208083015167ffffffffffffffff169082015260408083015160030b908201526060918201519181019190915260800190565b34801561043657600080fd5b50610462610445366004614b55565b601860209081526000928352604080842090915290825290205481565b604051908152602001610318565b34801561047c57600080fd5b5061037161048b366004614acb565b610bdb565b34801561049c57600080fd5b506104b06104ab366004614acb565b610be8565b6040516103189190614cbf565b3480156104c957600080fd5b506003546104dd906001600160a01b031681565b6040516001600160a01b039091168152602001610318565b34801561050157600080fd5b50610515610510366004614d37565b611027565b6040516103189190614d54565b34801561052e57600080fd5b5061051561053d366004614e81565b611109565b34801561054e57600080fd5b5060095461030c9060ff1681565b34801561056857600080fd5b5061046260085481565b34801561057e57600080fd5b506002546104dd906001600160a01b031681565b34801561059e57600080fd5b506105b26105ad366004614acb565b6113dd565b6040516103189a99989796959493929190614edc565b3480156105d457600080fd5b506105dd6119d5565b6040516103189190614f66565b3480156105f657600080fd5b50610371611aab565b61046261060d36600461500e565b611abf565b34801561061e57600080fd5b5061037161062d36600461505e565b612700565b34801561063e57600080fd5b5061037161064d366004614acb565b6128ec565b34801561065e57600080fd5b506103716128f9565b34801561067357600080fd5b506000546001600160a01b03166104dd565b34801561069157600080fd5b506103716106a0366004614acb565b612934565b3480156106b157600080fd5b5061071f6106c0366004614acb565b60136020526000908152604090208054600182015460028301546003840154600485015460058601546006870154600797880154969795966001600160a01b03909516959394929382810b9368010000000000000000909304900b9189565b60408051998a5260208a01989098526001600160a01b039096169688019690965260608701939093526080860191909152600790810b60a08601520b60c084015260e083019190915261010082015261012001610318565b34801561078357600080fd5b50610462610792366004614d37565b60156020526000908152604090205481565b3480156107b057600080fd5b506103716107bf366004614acb565b612941565b3480156107d057600080fd5b506107e46107df366004614acb565b612c19565b6040516103189291906150dc565b3480156107fe57600080fd5b5061030c612cc1565b34801561081357600080fd5b506004546104dd906001600160a01b031681565b34801561083357600080fd5b506103716108423660046150fd565b612d7d565b34801561085357600080fd5b5061088c6108623660046151b4565b7fbc197c810000000000000000000000000000000000000000000000000000000095945050505050565b6040517fffffffff000000000000000000000000000000000000000000000000000000009091168152602001610318565b6103716108cb36600461526e565b613222565b3480156108dc57600080fd5b506104626108eb366004614d37565b60146020526000908152604090205481565b34801561090957600080fd5b50610462610918366004614b55565b613a59565b34801561092957600080fd5b506103716109383660046152df565b613a90565b34801561094957600080fd5b506103716140c2565b34801561095e57600080fd5b5061046260075481565b34801561097457600080fd5b5061046260115481565b61037161098c36600461500e565b6141e9565b34801561099d57600080fd5b5061088c6109ac36600461532c565b7ff23a6e610000000000000000000000000000000000000000000000000000000095945050505050565b3480156109e257600080fd5b506103716109f1366004614d37565b6144a5565b348015610a0257600080fd5b506005546104dd906001600160a01b031681565b348015610a2257600080fd5b5061046260065481565b60007fffffffff0000000000000000000000000000000000000000000000000000000082167f4e2312e0000000000000000000000000000000000000000000000000000000001480610abf57507f01ffc9a7000000000000000000000000000000000000000000000000000000007fffffffff000000000000000000000000000000000000000000000000000000008316145b92915050565b610acd6144f9565b600280546001600160a01b039586167fffffffffffffffffffffffff0000000000000000000000000000000000000000918216179091556003805494861694821694909417909355600480549285169284169290921790915560058054919093169116179055565b60408051608081018252600080825260208201819052818301819052606082015260055491517f96834ad30000000000000000000000000000000000000000000000000000000081526004810184905290916001600160a01b0316906396834ad390602401608060405180830381865afa158015610bb7573d6000803e3d6000fd5b505050506040513d601f19601f82011682018060405250810190610abf9190615389565b610be36144f9565b600655565b610bf061498f565b60008281526013602090815260408083206002015481517f91c024a600000000000000000000000000000000000000000000000000000000815291516001600160a01b03909116939284926391c024a692600480830193928290030181865afa158015610c61573d6000803e3d6000fd5b505050506040513d601f19601f82011682018060405250810190610c859190615406565b90506000826001600160a01b0316632cc76d3f6040518163ffffffff1660e01b8152600401600060405180830381865afa158015610cc7573d6000803e3d6000fd5b505050506040513d6000823e601f3d908101601f19168201604052610cef919081019061541f565b6040805160028082526060820183529293506000929091602083019080368337019050506040517ff55c79d0000000000000000000000000000000000000000000000000000000008152670de0b6b3a76400006004820152600060248201529091506001600160a01b0385169063f55c79d090604401602060405180830381865afa158015610d82573d6000803e3d6000fd5b505050506040513d601f19601f82011682018060405250810190610da69190615406565b81600081518110610db957610db96154ab565b60209081029190910101526040517ff55c79d0000000000000000000000000000000000000000000000000000000008152670de0b6b3a76400006004820152600160248201526001600160a01b0385169063f55c79d090604401602060405180830381865afa158015610e30573d6000803e3d6000fd5b505050506040513d601f19601f82011682018060405250810190610e549190615406565b81600181518110610e6757610e676154ab565b602090810291909101810191909152604080516000898152601384528281206101c083018452805460a08401908152600182015460c085015260028201546001600160a01b031660e0850152600382015461010085015260048201546101208501526005820154600781810b61014087015268010000000000000000909104810b6101608601526006830154610180860152909101546101a0840152825289815260178452829020825181546080818702830181019095526060820181815293958601949193849290918491840182828015610f6257602002820191906000526020600020905b815481526020019060010190808311610f4e575b5050505050815260200160018201548152602001600282018054610f85906154da565b80601f0160208091040260200160405190810160405280929190818152602001828054610fb1906154da565b8015610ffe5780601f10610fd357610100808354040283529160200191610ffe565b820191906000526020600020905b815481529060010190602001808311610fe157829003601f168201915b505050505081525050815260200184815260200183815260200182815250945050505050919050565b6001600160a01b03811660009081526016602052604081206060919061104c9061453f565b67ffffffffffffffff81111561106457611064614d67565b60405190808252806020026020018201604052801561108d578160200160208202803683370190505b50905060005b6001600160a01b03841660009081526016602052604090206110b49061453f565b811015611102576001600160a01b03841660009081526016602052604090206110dd9082614549565b8282815181106110ef576110ef6154ab565b6020908102919091010152600101611093565b5092915050565b600083815260136020526040902060039081015483516060929067ffffffffffffffff81111561113b5761113b614d67565b604051908082528060200260200182016040528015611164578160200160208202803683370190505b50925060005b85518110156113d3576000868281518110611187576111876154ab565b602002602001015190506000811180156111a057508281105b6111f15760405162461bcd60e51b815260206004820152601560248201527f476f7420696e76616c696420696e64657820736574000000000000000000000060448201526064015b60405180910390fd5b60025460048054600a546040517f856296f70000000000000000000000000000000000000000000000000000000081529283015260248201879052604482018490526000926001600160a01b03908116926339dd7530929190911690839063856296f790606401602060405180830381865afa158015611275573d6000803e3d6000fd5b505050506040513d601f19601f820116820180604052508101906112999190615406565b6040517fffffffff0000000000000000000000000000000000000000000000000000000060e085901b1681526001600160a01b0390921660048301526024820152604401602060405180830381865afa1580156112fa573d6000803e3d6000fd5b505050506040513d601f19601f8201168201806040525081019061131e9190615406565b6002546040517efdd58e0000000000000000000000000000000000000000000000000000000081526001600160a01b038a811660048301526024820184905292935091169062fdd58e90604401602060405180830381865afa158015611388573d6000803e3d6000fd5b505050506040513d601f19601f820116820180604052508101906113ac9190615406565b8684815181106113be576113be6154ab565b6020908102919091010152505060010161116a565b5050509392505050565b6040805161012081018252600080825260208201819052918101829052606081018290526080810182905260a0810182905260c0810182905260e0810182905261010081019190915261144a60405180606001604052806060815260200160008152602001606081525090565b60008381526013602090815260408083208151610120810183528154815260018201548185015260028201546001600160a01b031681840152600382015460608281019190915260048301546080808401919091526005840154600781810b60a086015268010000000000000000909104810b60c0850152600685015460e085015290930154610100830152888652601785528386208451815496870281018501909552848201868152929850909485948794859485948594859493919284929091849184018282801561153d57602002820191906000526020600020905b815481526020019060010190808311611529575b5050505050815260200160018201548152602001600282018054611560906154da565b80601f016020809104026020016040519081016040528092919081815260200182805461158c906154da565b80156115d95780601f106115ae576101008083540402835291602001916115d9565b820191906000526020600020905b8154815290600101906020018083116115bc57829003601f168201915b505050505081525050985060008a60000151116116385760405162461bcd60e51b815260206004820152601060248201527f4d61726b6574206e6f7420666f756e640000000000000000000000000000000060448201526064016111e8565b60008a604001519050806001600160a01b03166391c024a66040518163ffffffff1660e01b8152600401602060405180830381865afa15801561167f573d6000803e3d6000fd5b505050506040513d601f19601f820116820180604052508101906116a39190615406565b9850806001600160a01b0316632cc76d3f6040518163ffffffff1660e01b8152600401600060405180830381865afa1580156116e3573d6000803e3d6000fd5b505050506040513d6000823e601f3d908101601f1916820160405261170b919081019061541f565b604080516002808252606082018352929a509190602083019080368337019050506040517ff55c79d0000000000000000000000000000000000000000000000000000000008152670de0b6b3a76400006004820152600060248201529097506001600160a01b0382169063f55c79d090604401602060405180830381865afa15801561179b573d6000803e3d6000fd5b505050506040513d601f19601f820116820180604052508101906117bf9190615406565b876000815181106117d2576117d26154ab565b60209081029190910101526040517ff55c79d0000000000000000000000000000000000000000000000000000000008152670de0b6b3a76400006004820152600160248201526001600160a01b0382169063f55c79d090604401602060405180830381865afa158015611849573d6000803e3d6000fd5b505050506040513d601f19601f8201168201806040525081019061186d9190615406565b87600181518110611880576118806154ab565b60200260200101818152505060008a602001511195508a6020015142101594508580156118b3575060c08b015160070b15155b156118c4578a60c001519350611961565b60055460808c01516040517f96834ad30000000000000000000000000000000000000000000000000000000081526001600160a01b03909216916396834ad3916119149160040190815260200190565b608060405180830381865afa92505050801561194d575060408051601f3d908101601f1916820190925261194a91810190615389565b60015b61195d578a60a001519350611961565b5193505b60a08b015160070b156119be5760008b60a0015160070b8560070b611986919061555c565b60a08d015190915060070b61199d8261271061557c565b6119a791906155f7565b93508b60a0015160070b8560070b139250506119c7565b60009250600091505b509193959799509193959799565b611a106040518060c0016040528060608152602001600081526020016000815260200160008152602001600081526020016000151581525090565b60408051600b805460e0602082028401810190945260c0830181815292939192849290918491840182828015611a6557602002820191906000526020600020905b815481526020019060010190808311611a51575b50505091835250506001820154602082015260028201546040820152600382015460608201526004820154608082015260059091015460ff16151560a090910152919050565b611ab36144f9565b611abd6000614555565b565b60105460009060ff16611b3a5760405162461bcd60e51b815260206004820152602260248201527f52616e646f6d206d61726b6574206372656174696f6e2069732064697361626c60448201527f656400000000000000000000000000000000000000000000000000000000000060648201526084016111e8565b600e54601154611b4a919061565f565b421015611b995760405162461bcd60e51b815260206004820152601b60248201527f4d61726b657420696e74657276616c206e6f7420656c6170736564000000000060448201526064016111e8565b600b54611be85760405162461bcd60e51b815260206004820152601960248201527f4e6f20707269636520666565647320636f6e666967757265640000000000000060448201526064016111e8565b600f54600480546040517f70a0823100000000000000000000000000000000000000000000000000000000815230928101929092526001600160a01b0316906370a0823190602401602060405180830381865afa158015611c4d573d6000803e3d6000fd5b505050506040513d601f19601f82011682018060405250810190611c719190615406565b1015611ce45760405162461bcd60e51b8152602060048201526024808201527f496e73756666696369656e742066756e647320666f722072616e646f6d206d6160448201527f726b65740000000000000000000000000000000000000000000000000000000060648201526084016111e8565b6005546040517fd47eed450000000000000000000000000000000000000000000000000000000081526000916001600160a01b03169063d47eed4590611d30908790879060040161569d565b602060405180830381865afa158015611d4d573d6000803e3d6000fd5b505050506040513d601f19601f82011682018060405250810190611d719190615406565b905080341015611de95760405162461bcd60e51b815260206004820152602160248201527f496e73756666696369656e742066656520666f7220707269636520757064617460448201527f650000000000000000000000000000000000000000000000000000000000000060648201526084016111e8565b6005546040517fef9e5e280000000000000000000000000000000000000000000000000000000081526001600160a01b039091169063ef9e5e28908390611e36908890889060040161569d565b6000604051808303818588803b158015611e4f57600080fd5b505af1158015611e63573d6000803e3d6000fd5b5050600b5460405160009450909250611e8c915042904490602001918252602082015260400190565b6040516020818303038152906040528051906020012060001c611eaf919061577c565b90506000600b6000018281548110611ec957611ec96154ab565b60009182526020822001546005546040517f96834ad3000000000000000000000000000000000000000000000000000000008152600481018390529193506001600160a01b0316906396834ad390602401608060405180830381865afa158015611f37573d6000803e3d6000fd5b505050506040513d601f19601f82011682018060405250810190611f5b9190615389565b90506000816000015160070b13611fb45760405162461bcd60e51b815260206004820152601260248201527f496e76616c69642070726963652064617461000000000000000000000000000060448201526064016111e8565b60008160600151116120085760405162461bcd60e51b815260206004820152601760248201527f496e76616c69642070726963652074696d657374616d7000000000000000000060448201526064016111e8565b80516060820151600c54600d5460009161202191615790565b428460405160200161204092919091825260c01b602082015260280190565b6040516020818303038152906040528051906020012060001c612063919061577c565b600c54612070919061565f565b9050600061207e824261565f565b6040805160208101899052429181019190915260c086901b606082015290915060009060680160408051808303601f19018152908290528051602090910120600280547fd96ee7540000000000000000000000000000000000000000000000000000000084523060048501526024840183905260448401919091529092506001600160a01b03169063d96ee75490606401600060405180830381600087803b15801561212957600080fd5b505af115801561213d573d6000803e3d6000fd5b5050600280546040517f852c6ae2000000000000000000000000000000000000000000000000000000008152306004820152602481018690526044810192909252600093506001600160a01b0316915063852c6ae290606401602060405180830381865afa1580156121b3573d6000803e3d6000fd5b505050506040513d601f19601f820116820180604052508101906121d79190615406565b60408051600180825281830190925291925060009190602080830190803683370190505090508181600081518110612211576122116154ab565b6020908102919091010152600354600254600480546040517f4aeecdc70000000000000000000000000000000000000000000000000000000081526000946001600160a01b0390811694634aeecdc7946122839491831693919092169188916658d15e17628000918d913091016157a3565b6020604051808303816000875af11580156122a2573d6000803e3d6000fd5b505050506040513d601f19601f820116820180604052508101906122c691906157fb565b60408051600280825260608201835292935083926000926020830190803683370190505090506122ff6002670de0b6b3a7640000615818565b81600081518110612312576123126154ab565b60209081029190910101526123306002670de0b6b3a7640000615818565b81600181518110612343576123436154ab565b602090810291909101015260048054600f546040517f095ea7b30000000000000000000000000000000000000000000000000000000081526001600160a01b0386811694820194909452602481019190915291169063095ea7b3906044016020604051808303816000875af11580156123c0573d6000803e3d6000fd5b505050506040513d601f19601f820116820180604052508101906123e4919061582c565b50600f546040517fd5f15a460000000000000000000000000000000000000000000000000000000081526001600160a01b0385169163d5f15a469161242e91908590600401615849565b600060405180830381600087803b15801561244857600080fd5b505af115801561245c573d6000803e3d6000fd5b50506002546040517fa22cb4650000000000000000000000000000000000000000000000000000000081526001600160a01b03868116600483015260016024830152909116925063a22cb4659150604401600060405180830381600087803b1580156124c757600080fd5b505af11580156124db573d6000803e3d6000fd5b50505050604051806101200160405280428152602001888152602001836001600160a01b031681526020018681526020018d81526020018b60070b8152602001600060070b81526020018a8152602001600081525060136000888152602001908152602001600020600082015181600001556020820151816001015560408201518160020160006101000a8154816001600160a01b0302191690836001600160a01b03160217905550606082015181600301556080820151816004015560a08201518160050160006101000a81548167ffffffffffffffff021916908360070b67ffffffffffffffff16021790555060c08201518160050160086101000a81548167ffffffffffffffff021916908360070b67ffffffffffffffff16021790555060e082015181600601556101008201518160070155905050426011819055506001601260008e815260200190815260200160002060006101000a81548160ff0219169083151502179055508b867f7d40731c7106391fad8d0143fb35ba38dae9f8b3fae662357ea7a3398f1289008c8a8660405161269b9392919060079390930b835260208301919091526001600160a01b0316604082015260600190565b60405180910390a36040805160078c900b815267ffffffffffffffff8b1660208201528d917f4407ea639dccc6951feab9ab176063f7cd6a4379b97b58b421844522121d6472910160405180910390a250939f9e505050505050505050505050505050565b6127086144f9565b60008511801561271757508484115b6127635760405162461bcd60e51b815260206004820152601b60248201527f496e76616c6964206475726174696f6e20706172616d6574657273000000000060448201526064016111e8565b600083116127b35760405162461bcd60e51b815260206004820181905260248201527f4d61726b657420696e74657276616c206d75737420626520706f73697469766560448201526064016111e8565b600082116128035760405162461bcd60e51b815260206004820181905260248201527f496e697469616c2066756e64696e67206d75737420626520706f73697469766560448201526064016111e8565b6040518060c00160405280888880806020026020016040519081016040528093929190818152602001838360200280828437600092019190915250505090825250602080820188905260408201879052606082018690526080820185905283151560a09092019190915281518051600b92612882928492910190614a29565b506020820151600182015560408201516002820155606082015160038201556080820151600482015560a090910151600590910180547fffffffffffffffffffffffffffffffffffffffffffffffffffffffffffffff001691151591909117905550505050505050565b6128f46144f9565b600855565b6129016144f9565b6040514790339082156108fc029083906000818181858888f19350505050158015612930573d6000803e3d6000fd5b5050565b61293c6144f9565b600755565b6129496145bd565b3360009081526016602052604081206129619061453f565b9050600081116129b35760405162461bcd60e51b815260206004820152601b60248201527f4e6f206f70656e20706f736974696f6e7320746f2072656465656d000000000060448201526064016111e8565b808211156129bf578091505b60006129ca33611027565b905060008367ffffffffffffffff8111156129e7576129e7614d67565b604051908082528060200260200182016040528015612a10578160200160208202803683370190505b5090506000805b85811015612aa457600060176000868481518110612a3757612a376154ab565b60200260200101518152602001908152602001600020600101541115612a9c57838181518110612a6957612a696154ab565b6020026020010151838381518110612a8357612a836154ab565b602090810291909101015281612a9881615862565b9250505b600101612a17565b5060008111612b415760405162461bcd60e51b815260206004820152604760248201527f556e61626c6520746f2072656465656d20706f736974696f6e732c207265736f60448201527f6c7574696f6e2070656e64696e672e20506c656173652074727920616761696e60648201527f206c617465722e00000000000000000000000000000000000000000000000000608482015260a4016111e8565b60005b81811015612c08576000838281518110612b6057612b606154ab565b602002602001015190506000600267ffffffffffffffff811115612b8657612b86614d67565b604051908082528060200260200182016040528015612baf578160200160208202803683370190505b509050600181600081518110612bc757612bc76154ab565b602002602001018181525050600281600181518110612be857612be86154ab565b602002602001018181525050612bfe8282612d7d565b5050600101612b44565b5050505050612c1660018055565b50565b60176020526000908152604090206001810154600282018054919291612c3e906154da565b80601f0160208091040260200160405190810160405280929190818152602001828054612c6a906154da565b8015612cb75780601f10612c8c57610100808354040283529160200191612cb7565b820191906000526020600020905b815481529060010190602001808311612c9a57829003601f168201915b5050505050905082565b60105460009060ff168015612ce55750600e54601154612ce1919061565f565b4210155b8015612d785750600f54600480546040517f70a0823100000000000000000000000000000000000000000000000000000000815230928101929092526001600160a01b0316906370a0823190602401602060405180830381865afa158015612d51573d6000803e3d6000fd5b505050506040513d601f19601f82011682018060405250810190612d759190615406565b10155b905090565b600082815260136020908152604091829020825161012081018452815480825260018301549382019390935260028201546001600160a01b03169381019390935260038101546060840152600481015460808401526005810154600781810b60a086015268010000000000000000909104810b60c0850152600682015460e08501520154610100830152612e535760405162461bcd60e51b815260206004820152601060248201527f4d61726b6574206e6f7420666f756e640000000000000000000000000000000060448201526064016111e8565b604080516002808252606082018352600092602083019080368337019050509050600181600081518110612e8957612e896154ab565b602002602001018181525050600281600181518110612eaa57612eaa6154ab565b6020026020010181815250508251600214612f075760405162461bcd60e51b815260206004820152601260248201527f496e76616c696420696e6465782073657473000000000000000000000000000060448201526064016111e8565b80604051602001612f18919061589a565b6040516020818303038152906040528051906020012083604051602001612f3f919061589a565b6040516020818303038152906040528051906020012014612fa25760405162461bcd60e51b815260206004820152601260248201527f496e76616c696420696e6465782073657473000000000000000000000000000060448201526064016111e8565b6000612faf858533611109565b90506000805b8251811015612fed57828181518110612fd057612fd06154ab565b602002602001015182612fe3919061565f565b9150600101612fb5565b506000811161303e5760405162461bcd60e51b815260206004820152601660248201527f4e6f20706f736974696f6e7320746f2072656465656d0000000000000000000060448201526064016111e8565b60025460048054600a5460008a8152601360205260408082206003015490517f06ffc33000000000000000000000000000000000000000000000000000000000815291956001600160a01b03908116956306ffc330956130a8959216939192918d913391016158d0565b6020604051808303816000875af11580156130c7573d6000803e3d6000fd5b505050506040513d601f19601f820116820180604052508101906130eb9190615406565b600480546040517fa9059cbb0000000000000000000000000000000000000000000000000000000081523392810192909252602482018390529192506001600160a01b039091169063a9059cbb906044016020604051808303816000875af115801561315b573d6000803e3d6000fd5b505050506040513d601f19601f8201168201806040525081019061317f919061582c565b50336000908152601560205260408120805483929061319f90849061565f565b90915550503360009081526016602052604090206131bd9088614600565b506000878152601360205260409081902060020154905188916001600160a01b03169033907f395d4ff727a55028c83214812df1f1008c9880acfe64bb68226bec10e2730b8390613211908b908790615919565b60405180910390a450505050505050565b8261326f5760405162461bcd60e51b815260206004820152601760248201527f4e6f207175657374696f6e7320746f207265736f6c766500000000000000000060448201526064016111e8565b6005546040517fd47eed450000000000000000000000000000000000000000000000000000000081526000916001600160a01b03169063d47eed45906132bb908690869060040161569d565b602060405180830381865afa1580156132d8573d6000803e3d6000fd5b505050506040513d601f19601f820116820180604052508101906132fc9190615406565b9050803410156133745760405162461bcd60e51b815260206004820152602160248201527f496e73756666696369656e742066656520666f7220707269636520757064617460448201527f650000000000000000000000000000000000000000000000000000000000000060648201526084016111e8565b6005546040517fef9e5e280000000000000000000000000000000000000000000000000000000081526001600160a01b039091169063ef9e5e289083906133c1908790879060040161569d565b6000604051808303818588803b1580156133da57600080fd5b505af11580156133ee573d6000803e3d6000fd5b505050505060005b84811015613a51576000868683818110613412576134126154ab565b60209081029290920135600081815260138452604090819020815161012081018352815480825260018301549682019690965260028201546001600160a01b03169281019290925260038101546060830152600481015460808301526005810154600781810b60a085015268010000000000000000909104810b60c0840152600682015460e0840152015461010082015290935091151590506134f75760405162461bcd60e51b815260206004820152601660248201527f4d61726b6574206e6f7420696e697469616c697a65640000000000000000000060448201526064016111e8565b806020015142101561354b5760405162461bcd60e51b815260206004820152601360248201527f4d61726b6574207374696c6c206163746976650000000000000000000000000060448201526064016111e8565b600082815260176020526040902060010154156135aa5760405162461bcd60e51b815260206004820152601760248201527f4d61726b657420616c7265616479207265736f6c76656400000000000000000060448201526064016111e8565b60055460808201516040517f96834ad300000000000000000000000000000000000000000000000000000000815260048101919091526000916001600160a01b0316906396834ad390602401608060405180830381865afa158015613613573d6000803e3d6000fd5b505050506040513d601f19601f820116820180604052508101906136379190615389565b90506000816000015160070b136136905760405162461bcd60e51b815260206004820152601860248201527f496e76616c69642066696e616c2070726963652064617461000000000000000060448201526064016111e8565b60008160600151116136e45760405162461bcd60e51b815260206004820152601d60248201527f496e76616c69642066696e616c2070726963652074696d657374616d7000000060448201526064016111e8565b805160608083015160008681526013602052604080822060058101805467ffffffffffffffff881668010000000000000000027fffffffffffffffffffffffffffffffff0000000000000000ffffffffffffffff909116179055600790810184905560a088015182516002808252968101909352939493810b9086900b139281602001602082028036833701905050905081156137c957670de0b6b3a764000081600081518110613797576137976154ab565b6020026020010181815250506000816001815181106137b8576137b86154ab565b602002602001018181525050613813565b6000816000815181106137de576137de6154ab565b602002602001018181525050670de0b6b3a764000081600181518110613806576138066154ab565b6020026020010181815250505b60405180606001604052808281526020014281526020018361386a576040518060400160405280600981526020017f77656e7420444f574e00000000000000000000000000000000000000000000008152506138a1565b6040518060400160405280600781526020017f77656e74205550000000000000000000000000000000000000000000000000008152505b6138ae8960a0015161460c565b6138b78861460c565b6040516020016138c99392919061593b565b60408051601f1981840301815291815291526000898152601760209081529190208251805191926138ff92849290910190614a29565b50602082015160018201556040820151600282019061391e9082615a4b565b50506002546040517fc49298ac0000000000000000000000000000000000000000000000000000000081526001600160a01b03909116915063c49298ac9061396c908a908590600401615849565b600060405180830381600087803b15801561398657600080fd5b505af115801561399a573d6000803e3d6000fd5b50505060a087015160408051600792830b81529187900b6020830152841515908201528891507f6190db936fb0f2150219aa6a4dbd73a677ce7daec1464b421be594acccbb7d239060600160405180910390a2867fc0124204f5a2f9ebaa798d492eb00e1440c8ecd599c2d9a4283a49e1d12765d98233601760008c8152602001908152602001600020600201604051613a3693929190615b46565b60405180910390a25050600190950194506133f69350505050565b505050505050565b60008281526018602090815260408083206001600160a01b0385168452909152812054600754613a899190615790565b9392505050565b613a986145bd565b600654831015613aea5760405162461bcd60e51b815260206004820152601460248201527f416d6f756e742062656c6f77206d696e696d756d00000000000000000000000060448201526064016111e8565b600480546040517fdd62ed3e000000000000000000000000000000000000000000000000000000008152339281019290925230602483015284916001600160a01b039091169063dd62ed3e90604401602060405180830381865afa158015613b56573d6000803e3d6000fd5b505050506040513d601f19601f82011682018060405250810190613b7a9190615406565b1015613bc85760405162461bcd60e51b815260206004820152601660248201527f496e73756666696369656e7420616c6c6f77616e63650000000000000000000060448201526064016111e8565b600480546040517f70a08231000000000000000000000000000000000000000000000000000000008152339281019290925284916001600160a01b03909116906370a0823190602401602060405180830381865afa158015613c2e573d6000803e3d6000fd5b505050506040513d601f19601f82011682018060405250810190613c529190615406565b1015613ca05760405162461bcd60e51b815260206004820152601460248201527f496e73756666696369656e742062616c616e636500000000000000000000000060448201526064016111e8565b60008581526018602090815260408083206001600160a01b0385168452909152902054600754613cd0858361565f565b1115613d445760405162461bcd60e51b815260206004820152602e60248201527f416d6f756e742065786365656473206d6178696d756d2062757920616d6f756e60448201527f7420706572207175657374696f6e00000000000000000000000000000000000060648201526084016111e8565b600480546040517f23b872dd0000000000000000000000000000000000000000000000000000000081523392810192909252306024830152604482018690526001600160a01b0316906323b872dd906064016020604051808303816000875af1158015613db5573d6000803e3d6000fd5b505050506040513d601f19601f82011682018060405250810190613dd9919061582c565b50613de4848261565f565b60008781526018602090815260408083206001600160a01b0380881685529083528184209490945589835260139091529020600201541680613e685760405162461bcd60e51b815260206004820152601060248201527f4d61726b6574206e6f7420666f756e640000000000000000000000000000000060448201526064016111e8565b600480546040517f095ea7b30000000000000000000000000000000000000000000000000000000081526001600160a01b03848116938201939093526024810188905291169063095ea7b3906044016020604051808303816000875af1158015613ed6573d6000803e3d6000fd5b505050506040513d601f19601f82011682018060405250810190613efa919061582c565b506040517f80a08f470000000000000000000000000000000000000000000000000000000081526004810186905260248101879052604481018590526001600160a01b03848116606483015282916000918316906380a08f47906084016020604051808303816000875af1158015613f76573d6000803e3d6000fd5b505050506040513d601f19601f82011682018060405250810190613f9a9190615406565b6001600160a01b038616600090815260146020526040812080549293508992909190613fc790849061565f565b90915550506001600160a01b0385166000908152601660205260409020613fee908a614817565b5088836001600160a01b0316866001600160a01b03167f822019266ceea4910d00991f74bb1f8c1411d9ca7724fb43ed5500533c38bc598a866001600160a01b031663ddca3f436040518163ffffffff1660e01b8152600401602060405180830381865afa158015614064573d6000803e3d6000fd5b505050506040513d601f19601f820116820180604052508101906140889190615406565b60408051928352602083019190915281018d90526060810186905260800160405180910390a4505050506140bb60018055565b5050505050565b6140ca6144f9565b600480546040517f70a0823100000000000000000000000000000000000000000000000000000000815230928101929092526000916001600160a01b03909116906370a0823190602401602060405180830381865afa158015614131573d6000803e3d6000fd5b505050506040513d601f19601f820116820180604052508101906141559190615406565b600480546040517fa9059cbb0000000000000000000000000000000000000000000000000000000081523392810192909252602482018390529192506001600160a01b039091169063a9059cbb906044016020604051808303816000875af11580156141c5573d6000803e3d6000fd5b505050506040513d601f19601f82011682018060405250810190612930919061582c565b6005546040517fd47eed450000000000000000000000000000000000000000000000000000000081526000916001600160a01b03169063d47eed4590614235908690869060040161569d565b602060405180830381865afa158015614252573d6000803e3d6000fd5b505050506040513d601f19601f820116820180604052508101906142769190615406565b9050803410156142ee5760405162461bcd60e51b815260206004820152602160248201527f496e73756666696369656e742066656520666f7220707269636520757064617460448201527f650000000000000000000000000000000000000000000000000000000000000060648201526084016111e8565b6005546040517fef9e5e280000000000000000000000000000000000000000000000000000000081526001600160a01b039091169063ef9e5e2890839061433b908790879060040161569d565b6000604051808303818588803b15801561435457600080fd5b505af1158015614368573d6000803e3d6000fd5b505050505060005b600b5481101561449f576000600b6000018281548110614392576143926154ab565b6000918252602080832090910154808352601290915260409091205490915060ff1615614496576005546040517f96834ad3000000000000000000000000000000000000000000000000000000008152600481018390526000916001600160a01b0316906396834ad390602401608060405180830381865afa15801561441c573d6000803e3d6000fd5b505050506040513d601f19601f820116820180604052508101906144409190615389565b805160608201516040805160079390930b835267ffffffffffffffff909116602083015291925083917f4407ea639dccc6951feab9ab176063f7cd6a4379b97b58b421844522121d6472910160405180910390a2505b50600101614370565b50505050565b6144ad6144f9565b6001600160a01b0381166144f0576040517f1e4fbdf7000000000000000000000000000000000000000000000000000000008152600060048201526024016111e8565b612c1681614555565b6000546001600160a01b03163314611abd576040517f118cdaa70000000000000000000000000000000000000000000000000000000081523360048201526024016111e8565b6000610abf825490565b6000613a898383614823565b600080546001600160a01b038381167fffffffffffffffffffffffff0000000000000000000000000000000000000000831681178455604051919092169283917f8be0079c531659141344cd1fd0a4f28419497f9722a3daafe3b4186f6b6457e09190a35050565b6002600154036145f9576040517f3ee5aeb500000000000000000000000000000000000000000000000000000000815260040160405180910390fd5b6002600155565b6000613a89838361484d565b60608160070b60000361465257505060408051808201909152600181527f3000000000000000000000000000000000000000000000000000000000000000602082015290565b6000808360070b1290506000816146695783614672565b61467284615c16565b90506000815b67ffffffffffffffff8116156146a8578161469281615862565b92506146a19050600a82615c54565b9050614678565b6000846146b557826146c0565b6146c083600161565f565b67ffffffffffffffff8111156146d8576146d8614d67565b6040519080825280601f01601f191660200182016040528015614702576020820181803683370190505b509050841561476f577f2d000000000000000000000000000000000000000000000000000000000000008160008151811061473f5761473f6154ab565b60200101907effffffffffffffffffffffffffffffffffffffffffffffffffffffffffffff1916908160001a9053505b67ffffffffffffffff84161561480d5761478a600184615790565b9250614797600a85615c84565b6147a2906030615cb4565b60f81b81866147b157846147bc565b6147bc85600161565f565b815181106147cc576147cc6154ab565b60200101907effffffffffffffffffffffffffffffffffffffffffffffffffffffffffffff1916908160001a905350614806600a85615c54565b935061476f565b9695505050505050565b6000613a898383614940565b600082600001828154811061483a5761483a6154ab565b9060005260206000200154905092915050565b60008181526001830160205260408120548015614936576000614871600183615790565b855490915060009061488590600190615790565b90508082146148ea5760008660000182815481106148a5576148a56154ab565b90600052602060002001549050808760000184815481106148c8576148c86154ab565b6000918252602080832090910192909255918252600188019052604090208390555b85548690806148fb576148fb615cd4565b600190038181906000526020600020016000905590558560010160008681526020019081526020016000206000905560019350505050610abf565b6000915050610abf565b600081815260018301602052604081205461498757508154600181810184556000848152602080822090930184905584548482528286019093526040902091909155610abf565b506000610abf565b604080516101c08101909152600060a0820181815260c0830182905260e08301829052610100830182905261012083018290526101408301829052610160830182905261018083018290526101a083019190915281908152602001614a0e60405180606001604052806060815260200160008152602001606081525090565b81526020016000815260200160608152602001606081525090565b828054828255906000526020600020908101928215614a64579160200282015b82811115614a64578251825591602001919060010190614a49565b50614a70929150614a74565b5090565b5b80821115614a705760008155600101614a75565b600060208284031215614a9b57600080fd5b81357fffffffff0000000000000000000000000000000000000000000000000000000081168114613a8957600080fd5b600060208284031215614add57600080fd5b5035919050565b6001600160a01b0381168114612c1657600080fd5b60008060008060808587031215614b0f57600080fd5b8435614b1a81614ae4565b93506020850135614b2a81614ae4565b92506040850135614b3a81614ae4565b91506060850135614b4a81614ae4565b939692955090935050565b60008060408385031215614b6857600080fd5b823591506020830135614b7a81614ae4565b809150509250929050565b80518252602081015160208301526001600160a01b036040820151166040830152606081015160608301526080810151608083015260a081015160070b60a083015260c0810151614bdb60c084018260070b9052565b5060e0818101519083015261010090810151910152565b600081518084526020840193506020830160005b82811015614c24578151865260209586019590910190600101614c06565b5093949350505050565b60005b83811015614c49578181015183820152602001614c31565b50506000910152565b60008151808452614c6a816020860160208601614c2e565b601f01601f19169290920160200192915050565b6000815160608452614c936060850182614bf2565b90506020830151602085015260408301518482036040860152614cb68282614c52565b95945050505050565b60208152614cd1602082018351614b85565b600060208301516101a0610140840152614cef6101c0840182614c7e565b905060408401516101608401526060840151601f1984830301610180850152614d188282614bf2565b9150506080840151601f19848303016101a0850152614cb68282614bf2565b600060208284031215614d4957600080fd5b8135613a8981614ae4565b602081526000613a896020830184614bf2565b7f4e487b7100000000000000000000000000000000000000000000000000000000600052604160045260246000fd5b6040516080810167ffffffffffffffff81118282101715614db957614db9614d67565b60405290565b604051601f8201601f1916810167ffffffffffffffff81118282101715614de857614de8614d67565b604052919050565b600067ffffffffffffffff821115614e0a57614e0a614d67565b5060051b60200190565b600082601f830112614e2557600080fd5b8135614e38614e3382614df0565b614dbf565b8082825260208201915060208360051b860101925085831115614e5a57600080fd5b602085015b83811015614e77578035835260209283019201614e5f565b5095945050505050565b600080600060608486031215614e9657600080fd5b83359250602084013567ffffffffffffffff811115614eb457600080fd5b614ec086828701614e14565b9250506040840135614ed181614ae4565b809150509250925092565b614ee6818c614b85565b6102406101208201526000614eff61024083018c614c7e565b8a610140840152828103610160840152614f19818b614bf2565b9050828103610180840152614f2e818a614bf2565b9715156101a084015250509315156101c085015260079290920b6101e084015261020083015215156102209091015295945050505050565b602081526000825160c06020840152614f8260e0840182614bf2565b9050602084015160408401526040840151606084015260608401516080840152608084015160a084015260a0840151151560c08401528091505092915050565b60008083601f840112614fd457600080fd5b50813567ffffffffffffffff811115614fec57600080fd5b6020830191508360208260051b850101111561500757600080fd5b9250929050565b6000806020838503121561502157600080fd5b823567ffffffffffffffff81111561503857600080fd5b61504485828601614fc2565b90969095509350505050565b8015158114612c1657600080fd5b600080600080600080600060c0888a03121561507957600080fd5b873567ffffffffffffffff81111561509057600080fd5b61509c8a828b01614fc2565b9098509650506020880135945060408801359350606088013592506080880135915060a08801356150cc81615050565b8091505092959891949750929550565b8281526040602082015260006150f56040830184614c52565b949350505050565b6000806040838503121561511057600080fd5b82359150602083013567ffffffffffffffff81111561512e57600080fd5b61513a85828601614e14565b9150509250929050565b600082601f83011261515557600080fd5b813567ffffffffffffffff81111561516f5761516f614d67565b6151826020601f19601f84011601614dbf565b81815284602083860101111561519757600080fd5b816020850160208301376000918101602001919091529392505050565b600080600080600060a086880312156151cc57600080fd5b85356151d781614ae4565b945060208601356151e781614ae4565b9350604086013567ffffffffffffffff81111561520357600080fd5b61520f88828901614e14565b935050606086013567ffffffffffffffff81111561522c57600080fd5b61523888828901614e14565b925050608086013567ffffffffffffffff81111561525557600080fd5b61526188828901615144565b9150509295509295909350565b6000806000806040858703121561528457600080fd5b843567ffffffffffffffff81111561529b57600080fd5b6152a787828801614fc2565b909550935050602085013567ffffffffffffffff8111156152c757600080fd5b6152d387828801614fc2565b95989497509550505050565b600080600080600060a086880312156152f757600080fd5b85359450602086013593506040860135925060608601359150608086013561531e81614ae4565b809150509295509295909350565b600080600080600060a0868803121561534457600080fd5b853561534f81614ae4565b9450602086013561535f81614ae4565b93506040860135925060608601359150608086013567ffffffffffffffff81111561525557600080fd5b6000608082840312801561539c57600080fd5b5060006153a7614d96565b83518060070b81146153b7578283fd5b8152602084015167ffffffffffffffff811681146153d3578283fd5b60208201526040840151600381900b81146153ec578283fd5b604082015260609384015193810193909352509092915050565b60006020828403121561541857600080fd5b5051919050565b60006020828403121561543157600080fd5b815167ffffffffffffffff81111561544857600080fd5b8201601f8101841361545957600080fd5b8051615467614e3382614df0565b8082825260208201915060208360051b85010192508683111561548957600080fd5b6020840193505b8284101561480d578351825260209384019390910190615490565b7f4e487b7100000000000000000000000000000000000000000000000000000000600052603260045260246000fd5b600181811c908216806154ee57607f821691505b602082108103615527577f4e487b7100000000000000000000000000000000000000000000000000000000600052602260045260246000fd5b50919050565b7f4e487b7100000000000000000000000000000000000000000000000000000000600052601160045260246000fd5b81810360008312801583831316838312821617156111025761110261552d565b808202600082127f8000000000000000000000000000000000000000000000000000000000000000841416156155b4576155b461552d565b8181058314821517610abf57610abf61552d565b7f4e487b7100000000000000000000000000000000000000000000000000000000600052601260045260246000fd5b600082615606576156066155c8565b7fffffffffffffffffffffffffffffffffffffffffffffffffffffffffffffffff83147f80000000000000000000000000000000000000000000000000000000000000008314161561565a5761565a61552d565b500590565b80820180821115610abf57610abf61552d565b818352818160208501375060006020828401015260006020601f19601f840116840101905092915050565b6020808252810182905260006040600584901b8301810190830185837fffffffffffffffffffffffffffffffffffffffffffffffffffffffffffffffe136839003015b8782101561576f577fffffffffffffffffffffffffffffffffffffffffffffffffffffffffffffffc0878603018452823581811261571d57600080fd5b890160208101903567ffffffffffffffff81111561573a57600080fd5b80360382131561574957600080fd5b615754878284615672565b965050506020830192506020840193506001820191506156e0565b5092979650505050505050565b60008261578b5761578b6155c8565b500690565b81810381811115610abf57610abf61552d565b6001600160a01b03871681526001600160a01b038616602082015260c0604082015260006157d460c0830187614bf2565b60608301959095525060808101929092526001600160a01b031660a0909101529392505050565b60006020828403121561580d57600080fd5b8151613a8981614ae4565b600082615827576158276155c8565b500490565b60006020828403121561583e57600080fd5b8151613a8981615050565b8281526040602082015260006150f56040830184614bf2565b60007fffffffffffffffffffffffffffffffffffffffffffffffffffffffffffffffff82036158935761589361552d565b5060010190565b8151600090829060208501835b828110156158c55781518452602093840193909101906001016158a7565b509195945050505050565b6001600160a01b038616815284602082015283604082015260a0606082015260006158fe60a0830185614bf2565b90506001600160a01b03831660808301529695505050505050565b60408152600061592c6040830185614bf2565b90508260208301529392505050565b7f4175746f2d7265736f6c7665643a205072696365200000000000000000000000815260008451615973816015850160208901614c2e565b7f2066726f6d20240000000000000000000000000000000000000000000000000060159184019182015284516159b081601c840160208901614c2e565b6015818301019150507f20746f2024000000000000000000000000000000000000000000000000000000600782015283516159f281600c840160208801614c2e565b01600c0195945050505050565b601f821115615a4657806000526020600020601f840160051c81016020851015615a265750805b601f840160051c820191505b818110156140bb5760008155600101615a32565b505050565b815167ffffffffffffffff811115615a6557615a65614d67565b615a7981615a7384546154da565b846159ff565b6020601f821160018114615acb5760008315615a955750848201515b7fffffffffffffffffffffffffffffffffffffffffffffffffffffffffffffffff600385901b1c1916600184901b1784556140bb565b600084815260208120601f198516915b82811015615afb5787850151825560209485019460019092019101615adb565b5084821015615b3757868401517fffffffffffffffffffffffffffffffffffffffffffffffffffffffffffffffff600387901b60f8161c191681555b50505050600190811b01905550565b606081526000615b596060830186614bf2565b6001600160a01b0385166020840152828103604084015260008454615b7d816154da565b808452600182168015615b975760018114615bd157615c08565b7fffffffffffffffffffffffffffffffffffffffffffffffffffffffffffffff0083166020860152602082151560051b8601019350615c08565b87600052602060002060005b83811015615bff57815460208289010152600182019150602081019050615bdd565b86016020019450505b509198975050505050505050565b60008160070b7fffffffffffffffffffffffffffffffffffffffffffffffff80000000000000008103615c4b57615c4b61552d565b60000392915050565b600067ffffffffffffffff831680615c6e57615c6e6155c8565b8067ffffffffffffffff84160491505092915050565b600067ffffffffffffffff831680615c9e57615c9e6155c8565b8067ffffffffffffffff84160691505092915050565b67ffffffffffffffff8181168382160190811115610abf57610abf61552d565b7f4e487b7100000000000000000000000000000000000000000000000000000000600052603160045260246000fdfea264697066735822122023446e7f757880455e8c6a2a3c36ce6f7808091641b5522bb785a524938367b264736f6c634300081c0033",
  "linkReferences": {},
  "deployedLinkReferences": {}
}