{
  "_format": "hh-sol-artifact-1",
  "contractName": "SimplePredictionsOracle",
  "sourceName": "contracts/SimplePredictionsOracle.sol",
  "abi": [
    {
      "inputs": [
        {
          "internalType": "address",
          "name": "_conditionalTokens",
          "type": "address"
        },
        {
          "internalType": "address",
          "name": "_FPMMFactory",
          "type": "address"
        },
        {
          "internalType": "address",
          "name": "_collateralToken",
          "type": "address"
        },
        {
          "internalType": "address",
          "name": "_pythOracle",
          "type": "address"
        }
      ],
      "stateMutability": "nonpayable",
      "type": "constructor"
    },
    {
      "inputs": [
        {
          "internalType": "address",
          "name": "owner",
          "type": "address"
        }
      ],
      "name": "OwnableInvalidOwner",
      "type": "error"
    },
    {
      "inputs": [
        {
          "internalType": "address",
          "name": "account",
          "type": "address"
        }
      ],
      "name": "OwnableUnauthorizedAccount",
      "type": "error"
    },
    {
      "inputs": [],
      "name": "ReentrancyGuardReentrantCall",
      "type": "error"
    },
    {
      "anonymous": false,
      "inputs": [
        {
          "indexed": true,
          "internalType": "address",
          "name": "wallet",
          "type": "address"
        },
        {
          "indexed": true,
          "internalType": "address",
          "name": "fpmmAddress",
          "type": "address"
        },
        {
          "indexed": true,
          "internalType": "bytes32",
          "name": "questionId",
          "type": "bytes32"
        },
        {
          "indexed": false,
          "internalType": "uint256",
          "name": "investmentAmount",
          "type": "uint256"
        },
        {
          "indexed": false,
          "internalType": "uint256",
          "name": "feeAmount",
          "type": "uint256"
        },
        {
          "indexed": false,
          "internalType": "uint256",
          "name": "outcomeIndex",
          "type": "uint256"
        },
        {
          "indexed": false,
          "internalType": "uint256",
          "name": "outcomeTokensBought",
          "type": "uint256"
        }
      ],
      "name": "BuyPosition",
      "type": "event"
    },
    {
      "anonymous": false,
      "inputs": [
        {
          "indexed": true,
          "internalType": "bytes32",
          "name": "questionId",
          "type": "bytes32"
        },
        {
          "indexed": true,
          "internalType": "bytes32",
          "name": "priceId",
          "type": "bytes32"
        },
        {
          "indexed": false,
          "internalType": "int64",
          "name": "initialPrice",
          "type": "int64"
        },
        {
          "indexed": false,
          "internalType": "uint256",
          "name": "endTimestamp",
          "type": "uint256"
        },
        {
          "indexed": false,
          "internalType": "address",
          "name": "fpmmAddress",
          "type": "address"
        }
      ],
      "name": "MarketCreated",
      "type": "event"
    },
    {
      "anonymous": false,
      "inputs": [
        {
          "indexed": true,
          "internalType": "bytes32",
          "name": "questionId",
          "type": "bytes32"
        },
        {
          "indexed": false,
          "internalType": "int64",
          "name": "finalPrice",
          "type": "int64"
        },
        {
          "indexed": false,
          "internalType": "uint256[]",
          "name": "payouts",
          "type": "uint256[]"
        }
      ],
      "name": "MarketResolved",
      "type": "event"
    },
    {
      "anonymous": false,
      "inputs": [
        {
          "indexed": true,
          "internalType": "address",
          "name": "previousOwner",
          "type": "address"
        },
        {
          "indexed": true,
          "internalType": "address",
          "name": "newOwner",
          "type": "address"
        }
      ],
      "name": "OwnershipTransferred",
      "type": "event"
    },
    {
      "anonymous": false,
      "inputs": [
        {
          "indexed": true,
          "internalType": "address",
          "name": "wallet",
          "type": "address"
        },
        {
          "indexed": true,
          "internalType": "address",
          "name": "fpmmAddress",
          "type": "address"
        },
        {
          "indexed": true,
          "internalType": "bytes32",
          "name": "questionId",
          "type": "bytes32"
        },
        {
          "indexed": false,
          "internalType": "uint256[]",
          "name": "indexSets",
          "type": "uint256[]"
        },
        {
          "indexed": false,
          "internalType": "uint256",
          "name": "totalPayout",
          "type": "uint256"
        }
      ],
      "name": "RedeemPosition",
      "type": "event"
    },
    {
      "inputs": [],
      "name": "FPMMFactory",
      "outputs": [
        {
          "internalType": "contract IFactory",
          "name": "",
          "type": "address"
        }
      ],
      "stateMutability": "view",
      "type": "function"
    },
    {
      "inputs": [
        {
          "internalType": "uint256",
          "name": "",
          "type": "uint256"
        }
      ],
      "name": "activeMarketIds",
      "outputs": [
        {
          "internalType": "bytes32",
          "name": "",
          "type": "bytes32"
        }
      ],
      "stateMutability": "view",
      "type": "function"
    },
    {
      "inputs": [
        {
          "internalType": "bytes32",
          "name": "",
          "type": "bytes32"
        }
      ],
      "name": "answers",
      "outputs": [
        {
          "internalType": "uint256",
          "name": "answerTimestamp",
          "type": "uint256"
        },
        {
          "internalType": "string",
          "name": "answerCid",
          "type": "string"
        }
      ],
      "stateMutability": "view",
      "type": "function"
    },
    {
      "inputs": [
        {
          "internalType": "bytes32",
          "name": "questionId",
          "type": "bytes32"
        },
        {
          "internalType": "uint256",
          "name": "outcomeIndex",
          "type": "uint256"
        },
        {
          "internalType": "uint256",
          "name": "amount",
          "type": "uint256"
        },
        {
          "internalType": "uint256",
          "name": "minOutcomeTokensToBuy",
          "type": "uint256"
        },
        {
          "internalType": "address",
          "name": "conditionTokensReceiver",
          "type": "address"
        }
      ],
      "name": "buyPosition",
      "outputs": [],
      "stateMutability": "nonpayable",
      "type": "function"
    },
    {
      "inputs": [],
      "name": "collateralToken",
      "outputs": [
        {
          "internalType": "contract Token",
          "name": "",
          "type": "address"
        }
      ],
      "stateMutability": "view",
      "type": "function"
    },
    {
      "inputs": [],
      "name": "conditionalTokens",
      "outputs": [
        {
          "internalType": "contract ConditionalTokens",
          "name": "",
          "type": "address"
        }
      ],
      "stateMutability": "view",
      "type": "function"
    },
    {
      "inputs": [
        {
          "internalType": "bytes32[]",
          "name": "_priceIds",
          "type": "bytes32[]"
        },
        {
          "internalType": "uint256",
          "name": "_initialFunding",
          "type": "uint256"
        }
      ],
      "name": "configureMarkets",
      "outputs": [],
      "stateMutability": "nonpayable",
      "type": "function"
    },
    {
      "inputs": [
        {
          "internalType": "bytes32",
          "name": "questionId",
          "type": "bytes32"
        },
        {
          "internalType": "uint256",
          "name": "randomIndex",
          "type": "uint256"
        },
        {
          "internalType": "uint256",
          "name": "marketEndTimestamp",
          "type": "uint256"
        },
        {
          "internalType": "bytes[]",
          "name": "priceUpdateData",
          "type": "bytes[]"
        }
      ],
      "name": "createMarket",
      "outputs": [
        {
          "internalType": "bytes32",
          "name": "",
          "type": "bytes32"
        }
      ],
      "stateMutability": "payable",
      "type": "function"
    },
    {
      "inputs": [],
      "name": "emergencyWithdraw",
      "outputs": [],
      "stateMutability": "nonpayable",
      "type": "function"
    },
    {
      "inputs": [],
      "name": "emergencyWithdrawETH",
      "outputs": [],
      "stateMutability": "nonpayable",
      "type": "function"
    },
    {
      "inputs": [],
      "name": "getActiveMarketIds",
      "outputs": [
        {
          "internalType": "bytes32[]",
          "name": "",
          "type": "bytes32[]"
        }
      ],
      "stateMutability": "view",
      "type": "function"
    },
    {
      "inputs": [
        {
          "internalType": "bytes32",
          "name": "priceId",
          "type": "bytes32"
        }
      ],
      "name": "getCurrentPrice",
      "outputs": [
        {
          "components": [
            {
              "internalType": "int64",
              "name": "price",
              "type": "int64"
            },
            {
              "internalType": "uint64",
              "name": "conf",
              "type": "uint64"
            },
            {
              "internalType": "int32",
              "name": "expo",
              "type": "int32"
            },
            {
              "internalType": "uint256",
              "name": "publishTime",
              "type": "uint256"
            }
          ],
          "internalType": "struct PythStructs.Price",
          "name": "",
          "type": "tuple"
        }
      ],
      "stateMutability": "view",
      "type": "function"
    },
    {
      "inputs": [
        {
          "internalType": "bytes32",
          "name": "questionId",
          "type": "bytes32"
        }
      ],
      "name": "getDetailedMarketData",
      "outputs": [
        {
          "components": [
            {
              "internalType": "uint256",
              "name": "beginTimestamp",
              "type": "uint256"
            },
            {
              "internalType": "uint256",
              "name": "endTimestamp",
              "type": "uint256"
            },
            {
              "internalType": "address",
              "name": "fpmm",
              "type": "address"
            },
            {
              "internalType": "bytes32",
              "name": "priceFeedId",
              "type": "bytes32"
            },
            {
              "internalType": "bytes32",
              "name": "conditionId",
              "type": "bytes32"
            },
            {
              "internalType": "int64",
              "name": "initialPrice",
              "type": "int64"
            },
            {
              "internalType": "int64",
              "name": "finalPrice",
              "type": "int64"
            },
            {
              "internalType": "uint256",
              "name": "finalPriceTimestamp",
              "type": "uint256"
            }
          ],
          "internalType": "struct SimplePredictionsOracle.QuestionData",
          "name": "questionData",
          "type": "tuple"
        },
        {
          "components": [
            {
              "internalType": "uint256[]",
              "name": "payouts",
              "type": "uint256[]"
            },
            {
              "internalType": "uint256",
              "name": "answerTimestamp",
              "type": "uint256"
            },
            {
              "internalType": "string",
              "name": "answerCid",
              "type": "string"
            }
          ],
          "internalType": "struct SimplePredictionsOracle.AnswerData",
          "name": "answerData",
          "type": "tuple"
        },
        {
          "internalType": "uint256",
          "name": "uniqueBuys",
          "type": "uint256"
        },
        {
          "internalType": "uint256[]",
          "name": "probabilities",
          "type": "uint256[]"
        },
        {
          "internalType": "uint256[]",
          "name": "buyAmounts",
          "type": "uint256[]"
        },
        {
          "internalType": "bool",
          "name": "isResolved",
          "type": "bool"
        },
        {
          "internalType": "bool",
          "name": "hasExpired",
          "type": "bool"
        },
        {
          "internalType": "int64",
          "name": "currentPrice",
          "type": "int64"
        }
      ],
      "stateMutability": "view",
      "type": "function"
    },
    {
      "inputs": [],
      "name": "getMarketConfig",
      "outputs": [
        {
          "components": [
            {
              "internalType": "bytes32[]",
              "name": "priceIds",
              "type": "bytes32[]"
            },
            {
              "internalType": "uint256",
              "name": "initialFunding",
              "type": "uint256"
            }
          ],
          "internalType": "struct SimplePredictionsOracle.MarketConfig",
          "name": "",
          "type": "tuple"
        }
      ],
      "stateMutability": "view",
      "type": "function"
    },
    {
      "inputs": [
        {
          "internalType": "bytes32",
          "name": "questionId",
          "type": "bytes32"
        }
      ],
      "name": "getMarketData",
      "outputs": [
        {
          "components": [
            {
              "components": [
                {
                  "internalType": "uint256",
                  "name": "beginTimestamp",
                  "type": "uint256"
                },
                {
                  "internalType": "uint256",
                  "name": "endTimestamp",
                  "type": "uint256"
                },
                {
                  "internalType": "address",
                  "name": "fpmm",
                  "type": "address"
                },
                {
                  "internalType": "bytes32",
                  "name": "priceFeedId",
                  "type": "bytes32"
                },
                {
                  "internalType": "bytes32",
                  "name": "conditionId",
                  "type": "bytes32"
                },
                {
                  "internalType": "int64",
                  "name": "initialPrice",
                  "type": "int64"
                },
                {
                  "internalType": "int64",
                  "name": "finalPrice",
                  "type": "int64"
                },
                {
                  "internalType": "uint256",
                  "name": "finalPriceTimestamp",
                  "type": "uint256"
                }
              ],
              "internalType": "struct SimplePredictionsOracle.QuestionData",
              "name": "questionData",
              "type": "tuple"
            },
            {
              "components": [
                {
                  "internalType": "uint256[]",
                  "name": "payouts",
                  "type": "uint256[]"
                },
                {
                  "internalType": "uint256",
                  "name": "answerTimestamp",
                  "type": "uint256"
                },
                {
                  "internalType": "string",
                  "name": "answerCid",
                  "type": "string"
                }
              ],
              "internalType": "struct SimplePredictionsOracle.AnswerData",
              "name": "answerData",
              "type": "tuple"
            },
            {
              "internalType": "uint256",
              "name": "uniqueBuys",
              "type": "uint256"
            },
            {
              "internalType": "uint256[]",
              "name": "probabilities",
              "type": "uint256[]"
            },
            {
              "internalType": "uint256[]",
              "name": "buyAmounts",
              "type": "uint256[]"
            }
          ],
          "internalType": "struct SimplePredictionsOracle.MarketData",
          "name": "",
          "type": "tuple"
        }
      ],
      "stateMutability": "view",
      "type": "function"
    },
    {
      "inputs": [
        {
          "internalType": "bytes32",
          "name": "questionId",
          "type": "bytes32"
        },
        {
          "internalType": "uint256[]",
          "name": "indexSets",
          "type": "uint256[]"
        },
        {
          "internalType": "address",
          "name": "holder",
          "type": "address"
        }
      ],
      "name": "getPositionBalances",
      "outputs": [
        {
          "internalType": "uint256[]",
          "name": "balances",
          "type": "uint256[]"
        }
      ],
      "stateMutability": "view",
      "type": "function"
    },
    {
      "inputs": [
        {
          "internalType": "bytes32",
          "name": "questionId",
          "type": "bytes32"
        },
        {
          "internalType": "address",
          "name": "spender",
          "type": "address"
        }
      ],
      "name": "getRemainingBuyAmount",
      "outputs": [
        {
          "internalType": "uint256",
          "name": "",
          "type": "uint256"
        }
      ],
      "stateMutability": "view",
      "type": "function"
    },
    {
      "inputs": [
        {
          "internalType": "address",
          "name": "user",
          "type": "address"
        }
      ],
      "name": "getUserClosedPositions",
      "outputs": [
        {
          "internalType": "bytes32[]",
          "name": "",
          "type": "bytes32[]"
        }
      ],
      "stateMutability": "view",
      "type": "function"
    },
    {
      "inputs": [
        {
          "internalType": "address",
          "name": "user",
          "type": "address"
        }
      ],
      "name": "getUserOpenPositions",
      "outputs": [
        {
          "internalType": "bytes32[]",
          "name": "",
          "type": "bytes32[]"
        }
      ],
      "stateMutability": "view",
      "type": "function"
    },
    {
      "inputs": [],
      "name": "lastMarketTime",
      "outputs": [
        {
          "internalType": "uint256",
          "name": "",
          "type": "uint256"
        }
      ],
      "stateMutability": "view",
      "type": "function"
    },
    {
      "inputs": [],
      "name": "marketConfig",
      "outputs": [
        {
          "internalType": "uint256",
          "name": "initialFunding",
          "type": "uint256"
        }
      ],
      "stateMutability": "view",
      "type": "function"
    },
    {
      "inputs": [],
      "name": "maxBuyAmountPerQuestion",
      "outputs": [
        {
          "internalType": "uint256",
          "name": "",
          "type": "uint256"
        }
      ],
      "stateMutability": "view",
      "type": "function"
    },
    {
      "inputs": [],
      "name": "minBuyAmount",
      "outputs": [
        {
          "internalType": "uint256",
          "name": "",
          "type": "uint256"
        }
      ],
      "stateMutability": "view",
      "type": "function"
    },
    {
      "inputs": [
        {
          "internalType": "address",
          "name": "",
          "type": "address"
        },
        {
          "internalType": "address",
          "name": "",
          "type": "address"
        },
        {
          "internalType": "uint256[]",
          "name": "",
          "type": "uint256[]"
        },
        {
          "internalType": "uint256[]",
          "name": "",
          "type": "uint256[]"
        },
        {
          "internalType": "bytes",
          "name": "",
          "type": "bytes"
        }
      ],
      "name": "onERC1155BatchReceived",
      "outputs": [
        {
          "internalType": "bytes4",
          "name": "",
          "type": "bytes4"
        }
      ],
      "stateMutability": "nonpayable",
      "type": "function"
    },
    {
      "inputs": [
        {
          "internalType": "address",
          "name": "",
          "type": "address"
        },
        {
          "internalType": "address",
          "name": "",
          "type": "address"
        },
        {
          "internalType": "uint256",
          "name": "",
          "type": "uint256"
        },
        {
          "internalType": "uint256",
          "name": "",
          "type": "uint256"
        },
        {
          "internalType": "bytes",
          "name": "",
          "type": "bytes"
        }
      ],
      "name": "onERC1155Received",
      "outputs": [
        {
          "internalType": "bytes4",
          "name": "",
          "type": "bytes4"
        }
      ],
      "stateMutability": "nonpayable",
      "type": "function"
    },
    {
      "inputs": [],
      "name": "owner",
      "outputs": [
        {
          "internalType": "address",
          "name": "",
          "type": "address"
        }
      ],
      "stateMutability": "view",
      "type": "function"
    },
    {
      "inputs": [],
      "name": "pythOracle",
      "outputs": [
        {
          "internalType": "contract IPyth",
          "name": "",
          "type": "address"
        }
      ],
      "stateMutability": "view",
      "type": "function"
    },
    {
      "inputs": [
        {
          "internalType": "bytes32",
          "name": "",
          "type": "bytes32"
        }
      ],
      "name": "questions",
      "outputs": [
        {
          "internalType": "uint256",
          "name": "beginTimestamp",
          "type": "uint256"
        },
        {
          "internalType": "uint256",
          "name": "endTimestamp",
          "type": "uint256"
        },
        {
          "internalType": "address",
          "name": "fpmm",
          "type": "address"
        },
        {
          "internalType": "bytes32",
          "name": "priceFeedId",
          "type": "bytes32"
        },
        {
          "internalType": "bytes32",
          "name": "conditionId",
          "type": "bytes32"
        },
        {
          "internalType": "int64",
          "name": "initialPrice",
          "type": "int64"
        },
        {
          "internalType": "int64",
          "name": "finalPrice",
          "type": "int64"
        },
        {
          "internalType": "uint256",
          "name": "finalPriceTimestamp",
          "type": "uint256"
        }
      ],
      "stateMutability": "view",
      "type": "function"
    },
    {
      "inputs": [
        {
          "internalType": "bytes32",
          "name": "questionId",
          "type": "bytes32"
        },
        {
          "internalType": "uint256[]",
          "name": "indexSets",
          "type": "uint256[]"
        }
      ],
      "name": "redeemPosition",
      "outputs": [],
      "stateMutability": "nonpayable",
      "type": "function"
    },
    {
      "inputs": [
        {
          "internalType": "uint256",
          "name": "num",
          "type": "uint256"
        }
      ],
      "name": "redeemPositions",
      "outputs": [],
      "stateMutability": "nonpayable",
      "type": "function"
    },
    {
      "inputs": [],
      "name": "renounceOwnership",
      "outputs": [],
      "stateMutability": "nonpayable",
      "type": "function"
    },
    {
      "inputs": [
        {
          "internalType": "bytes32",
          "name": "questionId",
          "type": "bytes32"
        },
        {
          "internalType": "bytes[]",
          "name": "priceUpdateData",
          "type": "bytes[]"
        },
        {
          "internalType": "string",
          "name": "answerCid",
          "type": "string"
        }
      ],
      "name": "resolveMarket",
      "outputs": [],
      "stateMutability": "payable",
      "type": "function"
    },
    {
      "inputs": [],
      "name": "sellEnabled",
      "outputs": [
        {
          "internalType": "bool",
          "name": "",
          "type": "bool"
        }
      ],
      "stateMutability": "view",
      "type": "function"
    },
    {
      "inputs": [],
      "name": "stopTradingBeforeMarketEnd",
      "outputs": [
        {
          "internalType": "uint256",
          "name": "",
          "type": "uint256"
        }
      ],
      "stateMutability": "view",
      "type": "function"
    },
    {
      "inputs": [
        {
          "internalType": "bytes4",
          "name": "interfaceId",
          "type": "bytes4"
        }
      ],
      "name": "supportsInterface",
      "outputs": [
        {
          "internalType": "bool",
          "name": "",
          "type": "bool"
        }
      ],
      "stateMutability": "view",
      "type": "function"
    },
    {
      "inputs": [
        {
          "internalType": "address",
          "name": "newOwner",
          "type": "address"
        }
      ],
      "name": "transferOwnership",
      "outputs": [],
      "stateMutability": "nonpayable",
      "type": "function"
    },
    {
      "inputs": [
        {
          "internalType": "address",
          "name": "_conditionalTokens",
          "type": "address"
        },
        {
          "internalType": "address",
          "name": "_FPMMFactory",
          "type": "address"
        },
        {
          "internalType": "address",
          "name": "_collateralToken",
          "type": "address"
        },
        {
          "internalType": "address",
          "name": "_pythOracle",
          "type": "address"
        }
      ],
      "name": "updateContracts",
      "outputs": [],
      "stateMutability": "nonpayable",
      "type": "function"
    },
    {
      "inputs": [
        {
          "internalType": "uint256",
          "name": "_maxBuyAmountPerQuestion",
          "type": "uint256"
        }
      ],
      "name": "updateMaxBuyAmountPerQuestion",
      "outputs": [],
      "stateMutability": "nonpayable",
      "type": "function"
    },
    {
      "inputs": [
        {
          "internalType": "uint256",
          "name": "_minBuyAmount",
          "type": "uint256"
        }
      ],
      "name": "updateMinBuyAmount",
      "outputs": [],
      "stateMutability": "nonpayable",
      "type": "function"
    },
    {
      "inputs": [
        {
          "internalType": "uint256",
          "name": "_stopTradingBeforeMarketEnd",
          "type": "uint256"
        }
      ],
      "name": "updateStopTradingBeforeMarketEnd",
      "outputs": [],
      "stateMutability": "nonpayable",
      "type": "function"
    },
    {
      "inputs": [
        {
          "internalType": "bytes32",
          "name": "",
          "type": "bytes32"
        },
        {
          "internalType": "address",
          "name": "",
          "type": "address"
        }
      ],
      "name": "userBuyAmounts",
      "outputs": [
        {
          "internalType": "uint256",
          "name": "",
          "type": "uint256"
        }
      ],
      "stateMutability": "view",
      "type": "function"
    },
    {
      "inputs": [
        {
          "internalType": "address",
          "name": "",
          "type": "address"
        }
      ],
      "name": "userRedeemed",
      "outputs": [
        {
          "internalType": "uint256",
          "name": "",
          "type": "uint256"
        }
      ],
      "stateMutability": "view",
      "type": "function"
    },
    {
      "inputs": [
        {
          "internalType": "address",
          "name": "",
          "type": "address"
        }
      ],
      "name": "userSpendings",
      "outputs": [
        {
          "internalType": "uint256",
          "name": "",
          "type": "uint256"
        }
      ],
      "stateMutability": "view",
      "type": "function"
    },
    {
      "stateMutability": "payable",
      "type": "receive"
    }
  ],
  "bytecode": "0x6080604052670de0b6b3a7640000600655683635c9adc5dea0000060075561012c6008556009805460ff1916905534801561003957600080fd5b506040516150ce3803806150ce83398101604081905261005891610150565b338061007e57604051631e4fbdf760e01b81526000600482015260240160405180910390fd5b610087816100e4565b5060018055600280546001600160a01b039586166001600160a01b03199182161790915560038054948616948216949094179093556004805492851692841692909217909155600580549190931691161790556000600a556101a4565b600080546001600160a01b038381166001600160a01b0319831681178455604051919092169283917f8be0079c531659141344cd1fd0a4f28419497f9722a3daafe3b4186f6b6457e09190a35050565b80516001600160a01b038116811461014b57600080fd5b919050565b6000806000806080858703121561016657600080fd5b61016f85610134565b935061017d60208601610134565b925061018b60408601610134565b915061019960608601610134565b905092959194509250565b614f1b806101b36000396000f3fe6080604052600436106102e05760003560e01c80638da5cb5b11610184578063c9a8c2a3116100d6578063de8620231161008a578063f2fde38b11610064578063f2fde38b14610988578063f5d6ac90146109a8578063f66bf229146109c857600080fd5b8063de8620231461090d578063deaf431d1461092d578063f23a6e611461094357600080fd5b8063d79635fb116100bb578063d79635fb146108b8578063db219e23146108d8578063db2e21bc146108f857600080fd5b8063c9a8c2a31461086b578063d1d0d16c1461088b57600080fd5b8063a2e7865311610138578063b7d5842211610112578063b7d58422146107c0578063bc197c81146107e0578063bd243ff31461085657600080fd5b8063a2e7865314610752578063aac753b614610772578063b2016bd4146107a057600080fd5b806391da9f7a1161016957806391da9f7a1461064c57806395addb901461065f5780639f477d741461072557600080fd5b80638da5cb5b1461060e5780638fded67d1461062c57600080fd5b8063493fc96c1161023d5780636562412a116101f157806382994efa116101cb57806382994efa146105c357806384536017146105e35780638cefb59c146105f857600080fd5b80636562412a1461055a578063715018a61461058e5780637ac5d778146105a357600080fd5b80635b212f3d116102225780635b212f3d146105025780635bd9e29914610518578063614bd9441461053857600080fd5b8063493fc96c146104c857806358197a9d146104e857600080fd5b806323c113dc1161029457806330f4f4bb1161027957806330f4f4bb14610436578063320d94b2146104635780634441aacb1461049b57600080fd5b806323c113dc146103ff5780632f6c10701461041657600080fd5b8063161e444e116102c5578063161e444e1461034357806316524406146103a65780631f3990de146103b957600080fd5b806301ffc9a7146102ec5780630b7512791461032157600080fd5b366102e757005b600080fd5b3480156102f857600080fd5b5061030c610307366004613f84565b6109de565b60405190151581526020015b60405180910390f35b34801561032d57600080fd5b5061034161033c366004613fdb565b610a77565b005b34801561034f57600080fd5b5061036361035e366004614037565b610ae7565b6040516103189190815160070b815260208083015167ffffffffffffffff169082015260408083015160030b908201526060918201519181019190915260800190565b6103416103b4366004614181565b610b8d565b3480156103c557600080fd5b506103f16103d436600461420d565b601560209081526000928352604080842090915290825290205481565b604051908152602001610318565b34801561040b57600080fd5b50600c546103f19081565b34801561042257600080fd5b50610341610431366004614037565b611239565b34801561044257600080fd5b50610456610451366004614037565b611246565b6040516103189190614300565b34801561046f57600080fd5b50600354610483906001600160a01b031681565b6040516001600160a01b039091168152602001610318565b3480156104a757600080fd5b506104bb6104b63660046143d0565b61167c565b60405161031891906143ed565b3480156104d457600080fd5b506104bb6104e3366004614491565b61175e565b3480156104f457600080fd5b5060095461030c9060ff1681565b34801561050e57600080fd5b506103f160085481565b34801561052457600080fd5b50600254610483906001600160a01b031681565b34801561054457600080fd5b5061054d611a2e565b60405161031891906144ec565b34801561056657600080fd5b5061057a610575366004614037565b611aae565b60405161031898979695949392919061451e565b34801561059a57600080fd5b50610341612027565b3480156105af57600080fd5b506103416105be3660046145ef565b61203b565b3480156105cf57600080fd5b506103416105de366004614037565b612104565b3480156105ef57600080fd5b50610341612111565b34801561060457600080fd5b506103f1600d5481565b34801561061a57600080fd5b506000546001600160a01b0316610483565b34801561063857600080fd5b50610341610647366004614037565b61214c565b6103f161065a36600461463b565b612159565b34801561066b57600080fd5b506106d661067a366004614037565b600f602052600090815260409020805460018201546002830154600384015460048501546005860154600690960154949593946001600160a01b039093169391929091600781810b9268010000000000000000909204900b9088565b6040805198895260208901979097526001600160a01b039095169587019590955260608601929092526080850152600790810b60a08501529190910b60c083015260e082015261010001610318565b34801561073157600080fd5b506103f16107403660046143d0565b60116020526000908152604090205481565b34801561075e57600080fd5b5061034161076d366004614037565b612a4f565b34801561077e57600080fd5b5061079261078d366004614037565b612d27565b60405161031892919061469c565b3480156107ac57600080fd5b50600454610483906001600160a01b031681565b3480156107cc57600080fd5b506103416107db3660046146bd565b612dcf565b3480156107ec57600080fd5b506108256107fb366004614724565b7fbc197c810000000000000000000000000000000000000000000000000000000095945050505050565b6040517fffffffff000000000000000000000000000000000000000000000000000000009091168152602001610318565b34801561086257600080fd5b506104bb613284565b34801561087757600080fd5b506103f1610886366004614037565b613327565b34801561089757600080fd5b506103f16108a63660046143d0565b60106020526000908152604090205481565b3480156108c457600080fd5b506103f16108d336600461420d565b613348565b3480156108e457600080fd5b506103416108f33660046147de565b61337f565b34801561090457600080fd5b506103416139b1565b34801561091957600080fd5b506104bb6109283660046143d0565b613ad8565b34801561093957600080fd5b506103f160075481565b34801561094f57600080fd5b5061082561095e36600461482b565b7ff23a6e610000000000000000000000000000000000000000000000000000000095945050505050565b34801561099457600080fd5b506103416109a33660046143d0565b613bb3565b3480156109b457600080fd5b50600554610483906001600160a01b031681565b3480156109d457600080fd5b506103f160065481565b60007fffffffff0000000000000000000000000000000000000000000000000000000082167f4e2312e0000000000000000000000000000000000000000000000000000000001480610a7157507f01ffc9a7000000000000000000000000000000000000000000000000000000007fffffffff000000000000000000000000000000000000000000000000000000008316145b92915050565b610a7f613c07565b600280546001600160a01b039586167fffffffffffffffffffffffff0000000000000000000000000000000000000000918216179091556003805494861694821694909417909355600480549285169284169290921790915560058054919093169116179055565b60408051608081018252600080825260208201819052818301819052606082015260055491517f96834ad30000000000000000000000000000000000000000000000000000000081526004810184905290916001600160a01b0316906396834ad390602401608060405180830381865afa158015610b69573d6000803e3d6000fd5b505050506040513d601f19601f82011682018060405250810190610a719190614888565b610b95613c07565b83610be75760405162461bcd60e51b815260206004820152601660248201527f4e6f207175657374696f6e20746f207265736f6c76650000000000000000000060448201526064015b60405180910390fd5b6000848152600f6020908152604091829020825161010081018452815480825260018301549382019390935260028201546001600160a01b03169381019390935260038101546060840152600481015460808401526005810154600781810b60a086015268010000000000000000909104900b60c08401526006015460e0830152610cb45760405162461bcd60e51b815260206004820152601660248201527f4d61726b6574206e6f7420696e697469616c697a6564000000000000000000006044820152606401610bde565b8060200151421015610d085760405162461bcd60e51b815260206004820152601360248201527f4d61726b6574207374696c6c20616374697665000000000000000000000000006044820152606401610bde565b60008581526014602052604090206001015415610d675760405162461bcd60e51b815260206004820152601760248201527f4d61726b657420616c7265616479207265736f6c7665640000000000000000006044820152606401610bde565b6005546040517fd47eed450000000000000000000000000000000000000000000000000000000081526000916001600160a01b03169063d47eed4590610db39088908890600401614930565b602060405180830381865afa158015610dd0573d6000803e3d6000fd5b505050506040513d601f19601f82011682018060405250810190610df49190614a0f565b905080341015610e6c5760405162461bcd60e51b815260206004820152602160248201527f496e73756666696369656e742066656520666f7220707269636520757064617460448201527f65000000000000000000000000000000000000000000000000000000000000006064820152608401610bde565b6005546040517fef9e5e280000000000000000000000000000000000000000000000000000000081526001600160a01b039091169063ef9e5e28908390610eb99089908990600401614930565b6000604051808303818588803b158015610ed257600080fd5b505af1158015610ee6573d6000803e3d6000fd5b505060055460608601516040517f96834ad3000000000000000000000000000000000000000000000000000000008152600095506001600160a01b0390921693506396834ad39250610f3e9160040190815260200190565b608060405180830381865afa158015610f5b573d6000803e3d6000fd5b505050506040513d601f19601f82011682018060405250810190610f7f9190614888565b90506000816000015160070b13610fd85760405162461bcd60e51b815260206004820152601860248201527f496e76616c69642066696e616c207072696365206461746100000000000000006044820152606401610bde565b600081606001511161102c5760405162461bcd60e51b815260206004820152601d60248201527f496e76616c69642066696e616c2070726963652074696d657374616d700000006044820152606401610bde565b8051606080830151600783810b60c0880181905260e0880183905260a08801516040805160028082529681019091529394920b129160009181602001602082028036833701905050905081156110ca57670de0b6b3a76400008160008151811061109857611098614a28565b6020026020010181815250506000816001815181106110b9576110b9614a28565b602002602001018181525050611114565b6000816000815181106110df576110df614a28565b602002602001018181525050670de0b6b3a76400008160018151811061110757611107614a28565b6020026020010181815250505b60408051606081018252828152426020808301919091528183018b905260008e8152601482529290922081518051929391926111539284920190613e92565b5060208201516001820155604082015160028201906111729082614af0565b50506002546040517fc49298ac0000000000000000000000000000000000000000000000000000000081526001600160a01b03909116915063c49298ac906111c0908e908590600401614beb565b600060405180830381600087803b1580156111da57600080fd5b505af11580156111ee573d6000803e3d6000fd5b505050508a7f689c9a00f150f4afd036f5ba71377873dbe90921195491808afaed660a65d3738583604051611224929190614c04565b60405180910390a25050505050505050505050565b611241613c07565b600655565b61124e613edd565b6000828152600f602090815260408083206002015481517f91c024a600000000000000000000000000000000000000000000000000000000815291516001600160a01b03909116939284926391c024a692600480830193928290030181865afa1580156112bf573d6000803e3d6000fd5b505050506040513d601f19601f820116820180604052508101906112e39190614a0f565b90506000826001600160a01b0316632cc76d3f6040518163ffffffff1660e01b8152600401600060405180830381865afa158015611325573d6000803e3d6000fd5b505050506040513d6000823e601f3d908101601f1916820160405261134d9190810190614c20565b6040805160028082526060820183529293506000929091602083019080368337019050506040517ff55c79d0000000000000000000000000000000000000000000000000000000008152670de0b6b3a76400006004820152600060248201529091506001600160a01b0385169063f55c79d090604401602060405180830381865afa1580156113e0573d6000803e3d6000fd5b505050506040513d601f19601f820116820180604052508101906114049190614a0f565b8160008151811061141757611417614a28565b60209081029190910101526040517ff55c79d0000000000000000000000000000000000000000000000000000000008152670de0b6b3a76400006004820152600160248201526001600160a01b0385169063f55c79d090604401602060405180830381865afa15801561148e573d6000803e3d6000fd5b505050506040513d601f19601f820116820180604052508101906114b29190614a0f565b816001815181106114c5576114c5614a28565b602090810291909101810191909152604080516000898152600f84528281206101a083018452805460a08401908152600182015460c085015260028201546001600160a01b031660e0850152600382015461010085015260048201546101208501526005820154600781810b61014087015268010000000000000000909104900b6101608501526006909101546101808401528252898152601484528290208251815460808187028301810190955260608201818152939586019491938492909184918401828280156115b757602002820191906000526020600020905b8154815260200190600101908083116115a3575b50505050508152602001600182015481526020016002820180546115da90614a57565b80601f016020809104026020016040519081016040528092919081815260200182805461160690614a57565b80156116535780601f1061162857610100808354040283529160200191611653565b820191906000526020600020905b81548152906001019060200180831161163657829003601f168201915b505050505081525050815260200184815260200183815260200182815250945050505050919050565b6001600160a01b0381166000908152601260205260408120606091906116a190613c4d565b67ffffffffffffffff8111156116b9576116b961409c565b6040519080825280602002602001820160405280156116e2578160200160208202803683370190505b50905060005b6001600160a01b038416600090815260126020526040902061170990613c4d565b811015611757576001600160a01b03841660009081526012602052604090206117329082613c57565b82828151811061174457611744614a28565b60209081029190910101526001016116e8565b5092915050565b6000838152600f602052604090206004015482516060919060039067ffffffffffffffff8111156117915761179161409c565b6040519080825280602002602001820160405280156117ba578160200160208202803683370190505b50925060005b8551811015611a245760008682815181106117dd576117dd614a28565b602002602001015190506000811180156117f657508281105b6118425760405162461bcd60e51b815260206004820152601560248201527f476f7420696e76616c696420696e6465782073657400000000000000000000006044820152606401610bde565b60025460048054600a546040517f856296f70000000000000000000000000000000000000000000000000000000081529283015260248201879052604482018490526000926001600160a01b03908116926339dd7530929190911690839063856296f790606401602060405180830381865afa1580156118c6573d6000803e3d6000fd5b505050506040513d601f19601f820116820180604052508101906118ea9190614a0f565b6040517fffffffff0000000000000000000000000000000000000000000000000000000060e085901b1681526001600160a01b0390921660048301526024820152604401602060405180830381865afa15801561194b573d6000803e3d6000fd5b505050506040513d601f19601f8201168201806040525081019061196f9190614a0f565b6002546040517efdd58e0000000000000000000000000000000000000000000000000000000081526001600160a01b038a811660048301526024820184905292935091169062fdd58e90604401602060405180830381865afa1580156119d9573d6000803e3d6000fd5b505050506040513d601f19601f820116820180604052508101906119fd9190614a0f565b868481518110611a0f57611a0f614a28565b602090810291909101015250506001016117c0565b5050509392505050565b60408051808201909152606081526000602082015260408051600b805460606020820284018101855293830181815292939192849290918491840182828015611a9657602002820191906000526020600020905b815481526020019060010190808311611a82575b50505050508152602001600182015481525050905090565b6040805161010081018252600080825260208201819052918101829052606081018290526080810182905260a0810182905260c0810182905260e0810191909152611b1360405180606001604052806060815260200160008152602001606081525090565b6000838152600f602090815260408083208151610100810183528154815260018201548185015260028201546001600160a01b031681840152600382015460608281019190915260048301546080808401919091526005840154600781810b60a086015268010000000000000000909104900b60c084015260069093015460e08301528886526014855283862084518154968702810185019095528482018681529298509094859487948594859492938492849190840182828015611bf757602002820191906000526020600020905b815481526020019060010190808311611be3575b5050505050815260200160018201548152602001600282018054611c1a90614a57565b80601f0160208091040260200160405190810160405280929190818152602001828054611c4690614a57565b8015611c935780601f10611c6857610100808354040283529160200191611c93565b820191906000526020600020905b815481529060010190602001808311611c7657829003601f168201915b50505050508152505096506000886000015111611cf25760405162461bcd60e51b815260206004820152601060248201527f4d61726b6574206e6f7420666f756e64000000000000000000000000000000006044820152606401610bde565b600088604001519050806001600160a01b03166391c024a66040518163ffffffff1660e01b8152600401602060405180830381865afa158015611d39573d6000803e3d6000fd5b505050506040513d601f19601f82011682018060405250810190611d5d9190614a0f565b9650806001600160a01b0316632cc76d3f6040518163ffffffff1660e01b8152600401600060405180830381865afa158015611d9d573d6000803e3d6000fd5b505050506040513d6000823e601f3d908101601f19168201604052611dc59190810190614c20565b6040805160028082526060820183529298509190602083019080368337019050506040517ff55c79d0000000000000000000000000000000000000000000000000000000008152670de0b6b3a76400006004820152600060248201529095506001600160a01b0382169063f55c79d090604401602060405180830381865afa158015611e55573d6000803e3d6000fd5b505050506040513d601f19601f82011682018060405250810190611e799190614a0f565b85600081518110611e8c57611e8c614a28565b60209081029190910101526040517ff55c79d0000000000000000000000000000000000000000000000000000000008152670de0b6b3a76400006004820152600160248201526001600160a01b0382169063f55c79d090604401602060405180830381865afa158015611f03573d6000803e3d6000fd5b505050506040513d601f19601f82011682018060405250810190611f279190614a0f565b85600181518110611f3a57611f3a614a28565b6020026020010181815250506000886020015111935088602001514210159250838015611f6d575060c089015160070b15155b15611f7e578860c00151915061201b565b60055460608a01516040517f96834ad30000000000000000000000000000000000000000000000000000000081526001600160a01b03909216916396834ad391611fce9160040190815260200190565b608060405180830381865afa925050508015612007575060408051601f3d908101601f1916820190925261200491810190614888565b60015b612017578860a00151915061201b565b5191505b50919395975091939597565b61202f613c07565b6120396000613c63565b565b612043613c07565b600081116120935760405162461bcd60e51b815260206004820181905260248201527f496e697469616c2066756e64696e67206d75737420626520706f7369746976656044820152606401610bde565b6040518060400160405280848480806020026020016040519081016040528093929190818152602001838360200280828437600092019190915250505090825250602090810183905281518051600b926120f1928492910190613e92565b5060208201518160010155905050505050565b61210c613c07565b600855565b612119613c07565b6040514790339082156108fc029083906000818181858888f19350505050158015612148573d6000803e3d6000fd5b5050565b612154613c07565b600755565b600b5460009085106121ad5760405162461bcd60e51b815260206004820152601460248201527f496e76616c69642072616e646f6d20696e6465780000000000000000000000006044820152606401610bde565b600b546121fc5760405162461bcd60e51b815260206004820152601960248201527f4e6f20707269636520666565647320636f6e66696775726564000000000000006044820152606401610bde565b6005546040517fd47eed450000000000000000000000000000000000000000000000000000000081526000916001600160a01b03169063d47eed45906122489087908790600401614930565b602060405180830381865afa158015612265573d6000803e3d6000fd5b505050506040513d601f19601f820116820180604052508101906122899190614a0f565b9050803410156123015760405162461bcd60e51b815260206004820152602160248201527f496e73756666696369656e742066656520666f7220707269636520757064617460448201527f65000000000000000000000000000000000000000000000000000000000000006064820152608401610bde565b6005546040517fef9e5e280000000000000000000000000000000000000000000000000000000081526001600160a01b039091169063ef9e5e2890839061234e9088908890600401614930565b6000604051808303818588803b15801561236757600080fd5b505af115801561237b573d6000803e3d6000fd5b5050600554600b8054600095506001600160a01b0390921693506396834ad39250908a9081106123ad576123ad614a28565b90600052602060002001546040518263ffffffff1660e01b81526004016123d691815260200190565b608060405180830381865afa1580156123f3573d6000803e3d6000fd5b505050506040513d601f19601f820116820180604052508101906124179190614888565b8051600280546040517fd96ee754000000000000000000000000000000000000000000000000000000008152306004820152602481018d9052604481019290925292935090916001600160a01b03169063d96ee75490606401600060405180830381600087803b15801561248a57600080fd5b505af115801561249e573d6000803e3d6000fd5b5050600280546040517f852c6ae2000000000000000000000000000000000000000000000000000000008152306004820152602481018e90526044810192909252600093506001600160a01b0316915063852c6ae290606401602060405180830381865afa158015612514573d6000803e3d6000fd5b505050506040513d601f19601f820116820180604052508101906125389190614a0f565b6040805160018082528183019092529192506000919060208083019080368337019050509050818160008151811061257257612572614a28565b6020026020010181815250506000600360009054906101000a90046001600160a01b03166001600160a01b0316634aeecdc7600260009054906101000a90046001600160a01b0316600460009054906101000a90046001600160a01b0316856658d15e176280008f306040518763ffffffff1660e01b81526004016125fc96959493929190614cb6565b6020604051808303816000875af115801561261b573d6000803e3d6000fd5b505050506040513d601f19601f8201168201806040525081019061263f9190614d0e565b60408051600280825260608201835292935060009290916020830190803683370190505090506126786002670de0b6b3a7640000614d5a565b8160008151811061268b5761268b614a28565b60209081029190910101526126a96002670de0b6b3a7640000614d5a565b816001815181106126bc576126bc614a28565b602090810291909101015260048054600c546040517f095ea7b30000000000000000000000000000000000000000000000000000000081526001600160a01b0386811694820194909452602481019190915291169063095ea7b3906044016020604051808303816000875af1158015612739573d6000803e3d6000fd5b505050506040513d601f19601f8201168201806040525081019061275d9190614d95565b50600c546040517fd5f15a460000000000000000000000000000000000000000000000000000000081526001600160a01b0384169163d5f15a46916127a791908590600401614beb565b600060405180830381600087803b1580156127c157600080fd5b505af11580156127d5573d6000803e3d6000fd5b50506002546040517fa22cb4650000000000000000000000000000000000000000000000000000000081526001600160a01b03868116600483015260016024830152909116925063a22cb4659150604401600060405180830381600087803b15801561284057600080fd5b505af1158015612854573d6000803e3d6000fd5b505050506040518061010001604052804281526020018c8152602001836001600160a01b03168152602001600b6000018e8154811061289557612895614a28565b906000526020600020015481526020018581526020018660070b8152602001600060070b81526020016000815250600f60008f8152602001908152602001600020600082015181600001556020820151816001015560408201518160020160006101000a8154816001600160a01b0302191690836001600160a01b03160217905550606082015181600301556080820151816004015560a08201518160050160006101000a81548167ffffffffffffffff021916908360070b67ffffffffffffffff16021790555060c08201518160050160086101000a81548167ffffffffffffffff021916908360070b67ffffffffffffffff16021790555060e0820151816006015590505042600d81905550600e8d9080600181540180825580915050600190039060005260206000200160009091909190915055600b6000018c815481106129e2576129e2614a28565b6000918252602091829020015460408051600789900b81529283018e90526001600160a01b03851690830152908e907fdf8f087dcc3270a8dc5aae5cde3ee97bad699c27d1ee7520a2ef6a99df1748639060600160405180910390a3509a9b9a5050505050505050505050565b612a57613ccb565b336000908152601260205260408120612a6f90613c4d565b905060008111612ac15760405162461bcd60e51b815260206004820152601b60248201527f4e6f206f70656e20706f736974696f6e7320746f2072656465656d00000000006044820152606401610bde565b80821115612acd578091505b6000612ad83361167c565b905060008367ffffffffffffffff811115612af557612af561409c565b604051908082528060200260200182016040528015612b1e578160200160208202803683370190505b5090506000805b85811015612bb257600060146000868481518110612b4557612b45614a28565b60200260200101518152602001908152602001600020600101541115612baa57838181518110612b7757612b77614a28565b6020026020010151838381518110612b9157612b91614a28565b602090810291909101015281612ba681614db7565b9250505b600101612b25565b5060008111612c4f5760405162461bcd60e51b815260206004820152604760248201527f556e61626c6520746f2072656465656d20706f736974696f6e732c207265736f60448201527f6c7574696f6e2070656e64696e672e20506c656173652074727920616761696e60648201527f206c617465722e00000000000000000000000000000000000000000000000000608482015260a401610bde565b60005b81811015612d16576000838281518110612c6e57612c6e614a28565b602002602001015190506000600267ffffffffffffffff811115612c9457612c9461409c565b604051908082528060200260200182016040528015612cbd578160200160208202803683370190505b509050600181600081518110612cd557612cd5614a28565b602002602001018181525050600281600181518110612cf657612cf6614a28565b602002602001018181525050612d0c8282612dcf565b5050600101612c52565b5050505050612d2460018055565b50565b60146020526000908152604090206001810154600282018054919291612d4c90614a57565b80601f0160208091040260200160405190810160405280929190818152602001828054612d7890614a57565b8015612dc55780601f10612d9a57610100808354040283529160200191612dc5565b820191906000526020600020905b815481529060010190602001808311612da857829003601f168201915b5050505050905082565b6000828152600f6020908152604091829020825161010081018452815480825260018301549382019390935260028201546001600160a01b03169381019390935260038101546060840152600481015460808401526005810154600781810b60a086015268010000000000000000909104900b60c08401526006015460e0830152612e9c5760405162461bcd60e51b815260206004820152601060248201527f4d61726b6574206e6f7420666f756e64000000000000000000000000000000006044820152606401610bde565b604080516002808252606082018352600092602083019080368337019050509050600181600081518110612ed257612ed2614a28565b602002602001018181525050600281600181518110612ef357612ef3614a28565b6020026020010181815250508251600214612f505760405162461bcd60e51b815260206004820152601260248201527f496e76616c696420696e646578207365747300000000000000000000000000006044820152606401610bde565b80604051602001612f619190614def565b6040516020818303038152906040528051906020012083604051602001612f889190614def565b6040516020818303038152906040528051906020012014612feb5760405162461bcd60e51b815260206004820152601260248201527f496e76616c696420696e646578207365747300000000000000000000000000006044820152606401610bde565b6000612ff885853361175e565b90506000805b82518110156130365782818151811061301957613019614a28565b60200260200101518261302c9190614e25565b9150600101612ffe565b50600081116130875760405162461bcd60e51b815260206004820152601660248201527f4e6f20706f736974696f6e7320746f2072656465656d000000000000000000006044820152606401610bde565b60025460048054600a5460008a8152600f602052604080822085015490517f06ffc33000000000000000000000000000000000000000000000000000000000815291956001600160a01b03908116956306ffc330956130f0959216939192918d91339101614e38565b6020604051808303816000875af115801561310f573d6000803e3d6000fd5b505050506040513d601f19601f820116820180604052508101906131339190614a0f565b600480546040517fa9059cbb0000000000000000000000000000000000000000000000000000000081523392810192909252602482018390529192506001600160a01b039091169063a9059cbb906044016020604051808303816000875af11580156131a3573d6000803e3d6000fd5b505050506040513d601f19601f820116820180604052508101906131c79190614d95565b5033600090815260116020526040812080548392906131e7908490614e25565b90915550503360009081526012602052604090206132059088613d0e565b5033600090815260136020526040902061321f9088613d1a565b506000878152600f60205260409081902060020154905188916001600160a01b03169033907f395d4ff727a55028c83214812df1f1008c9880acfe64bb68226bec10e2730b8390613273908b908790614e81565b60405180910390a450505050505050565b600e5460609060009067ffffffffffffffff8111156132a5576132a561409c565b6040519080825280602002602001820160405280156132ce578160200160208202803683370190505b50905060005b600e5481101561332157600e81815481106132f1576132f1614a28565b906000526020600020015482828151811061330e5761330e614a28565b60209081029190910101526001016132d4565b50919050565b600e818154811061333757600080fd5b600091825260209091200154905081565b60008281526015602090815260408083206001600160a01b03851684529091528120546007546133789190614ea3565b9392505050565b613387613ccb565b6006548310156133d95760405162461bcd60e51b815260206004820152601460248201527f416d6f756e742062656c6f77206d696e696d756d0000000000000000000000006044820152606401610bde565b600480546040517fdd62ed3e000000000000000000000000000000000000000000000000000000008152339281019290925230602483015284916001600160a01b039091169063dd62ed3e90604401602060405180830381865afa158015613445573d6000803e3d6000fd5b505050506040513d601f19601f820116820180604052508101906134699190614a0f565b10156134b75760405162461bcd60e51b815260206004820152601660248201527f496e73756666696369656e7420616c6c6f77616e6365000000000000000000006044820152606401610bde565b600480546040517f70a08231000000000000000000000000000000000000000000000000000000008152339281019290925284916001600160a01b03909116906370a0823190602401602060405180830381865afa15801561351d573d6000803e3d6000fd5b505050506040513d601f19601f820116820180604052508101906135419190614a0f565b101561358f5760405162461bcd60e51b815260206004820152601460248201527f496e73756666696369656e742062616c616e63650000000000000000000000006044820152606401610bde565b60008581526015602090815260408083206001600160a01b03851684529091529020546007546135bf8583614e25565b11156136335760405162461bcd60e51b815260206004820152602e60248201527f416d6f756e742065786365656473206d6178696d756d2062757920616d6f756e60448201527f7420706572207175657374696f6e0000000000000000000000000000000000006064820152608401610bde565b600480546040517f23b872dd0000000000000000000000000000000000000000000000000000000081523392810192909252306024830152604482018690526001600160a01b0316906323b872dd906064016020604051808303816000875af11580156136a4573d6000803e3d6000fd5b505050506040513d601f19601f820116820180604052508101906136c89190614d95565b506136d38482614e25565b60008781526015602090815260408083206001600160a01b03808816855290835281842094909455898352600f90915290206002015416806137575760405162461bcd60e51b815260206004820152601060248201527f4d61726b6574206e6f7420666f756e64000000000000000000000000000000006044820152606401610bde565b600480546040517f095ea7b30000000000000000000000000000000000000000000000000000000081526001600160a01b03848116938201939093526024810188905291169063095ea7b3906044016020604051808303816000875af11580156137c5573d6000803e3d6000fd5b505050506040513d601f19601f820116820180604052508101906137e99190614d95565b506040517f80a08f470000000000000000000000000000000000000000000000000000000081526004810186905260248101879052604481018590526001600160a01b03848116606483015282916000918316906380a08f47906084016020604051808303816000875af1158015613865573d6000803e3d6000fd5b505050506040513d601f19601f820116820180604052508101906138899190614a0f565b6001600160a01b0386166000908152601060205260408120805492935089929091906138b6908490614e25565b90915550506001600160a01b03851660009081526012602052604090206138dd908a613d1a565b5088836001600160a01b0316866001600160a01b03167f822019266ceea4910d00991f74bb1f8c1411d9ca7724fb43ed5500533c38bc598a866001600160a01b031663ddca3f436040518163ffffffff1660e01b8152600401602060405180830381865afa158015613953573d6000803e3d6000fd5b505050506040513d601f19601f820116820180604052508101906139779190614a0f565b60408051928352602083019190915281018d90526060810186905260800160405180910390a4505050506139aa60018055565b5050505050565b6139b9613c07565b600480546040517f70a0823100000000000000000000000000000000000000000000000000000000815230928101929092526000916001600160a01b03909116906370a0823190602401602060405180830381865afa158015613a20573d6000803e3d6000fd5b505050506040513d601f19601f82011682018060405250810190613a449190614a0f565b600480546040517fa9059cbb0000000000000000000000000000000000000000000000000000000081523392810192909252602482018390529192506001600160a01b039091169063a9059cbb906044016020604051808303816000875af1158015613ab4573d6000803e3d6000fd5b505050506040513d601f19601f820116820180604052508101906121489190614d95565b6001600160a01b038116600090815260136020526040812060609190613afd90613c4d565b67ffffffffffffffff811115613b1557613b1561409c565b604051908082528060200260200182016040528015613b3e578160200160208202803683370190505b50905060005b6001600160a01b0384166000908152601360205260409020613b6590613c4d565b811015611757576001600160a01b0384166000908152601360205260409020613b8e9082613c57565b828281518110613ba057613ba0614a28565b6020908102919091010152600101613b44565b613bbb613c07565b6001600160a01b038116613bfe576040517f1e4fbdf700000000000000000000000000000000000000000000000000000000815260006004820152602401610bde565b612d2481613c63565b6000546001600160a01b03163314612039576040517f118cdaa7000000000000000000000000000000000000000000000000000000008152336004820152602401610bde565b6000610a71825490565b60006133788383613d26565b600080546001600160a01b038381167fffffffffffffffffffffffff0000000000000000000000000000000000000000831681178455604051919092169283917f8be0079c531659141344cd1fd0a4f28419497f9722a3daafe3b4186f6b6457e09190a35050565b600260015403613d07576040517f3ee5aeb500000000000000000000000000000000000000000000000000000000815260040160405180910390fd5b6002600155565b60006133788383613d50565b60006133788383613e43565b6000826000018281548110613d3d57613d3d614a28565b9060005260206000200154905092915050565b60008181526001830160205260408120548015613e39576000613d74600183614ea3565b8554909150600090613d8890600190614ea3565b9050808214613ded576000866000018281548110613da857613da8614a28565b9060005260206000200154905080876000018481548110613dcb57613dcb614a28565b6000918252602080832090910192909255918252600188019052604090208390555b8554869080613dfe57613dfe614eb6565b600190038181906000526020600020016000905590558560010160008681526020019081526020016000206000905560019350505050610a71565b6000915050610a71565b6000818152600183016020526040812054613e8a57508154600181810184556000848152602080822090930184905584548482528286019093526040902091909155610a71565b506000610a71565b828054828255906000526020600020908101928215613ecd579160200282015b82811115613ecd578251825591602001919060010190613eb2565b50613ed9929150613f6f565b5090565b604080516101a08101909152600060a0820181815260c0830182905260e08301829052610100830182905261012083018290526101408301829052610160830182905261018083019190915281908152602001613f5460405180606001604052806060815260200160008152602001606081525090565b81526020016000815260200160608152602001606081525090565b5b80821115613ed95760008155600101613f70565b600060208284031215613f9657600080fd5b81357fffffffff000000000000000000000000000000000000000000000000000000008116811461337857600080fd5b6001600160a01b0381168114612d2457600080fd5b60008060008060808587031215613ff157600080fd5b8435613ffc81613fc6565b9350602085013561400c81613fc6565b9250604085013561401c81613fc6565b9150606085013561402c81613fc6565b939692955090935050565b60006020828403121561404957600080fd5b5035919050565b60008083601f84011261406257600080fd5b50813567ffffffffffffffff81111561407a57600080fd5b6020830191508360208260051b850101111561409557600080fd5b9250929050565b7f4e487b7100000000000000000000000000000000000000000000000000000000600052604160045260246000fd5b6040516080810167ffffffffffffffff811182821017156140ee576140ee61409c565b60405290565b604051601f8201601f1916810167ffffffffffffffff8111828210171561411d5761411d61409c565b604052919050565b60008067ffffffffffffffff8411156141405761414061409c565b50601f8301601f1916602001614155816140f4565b91505082815283838301111561416a57600080fd5b828260208301376000602084830101529392505050565b6000806000806060858703121561419757600080fd5b84359350602085013567ffffffffffffffff8111156141b557600080fd5b6141c187828801614050565b909450925050604085013567ffffffffffffffff8111156141e157600080fd5b8501601f810187136141f257600080fd5b61420187823560208401614125565b91505092959194509250565b6000806040838503121561422057600080fd5b82359150602083013561423281613fc6565b809150509250929050565b600081518084526020840193506020830160005b8281101561426f578151865260209586019590910190600101614251565b5093949350505050565b6000815180845260005b8181101561429f57602081850181015186830182015201614283565b506000602082860101526020601f19601f83011685010191505092915050565b60008151606084526142d4606085018261423d565b905060208301516020850152604083015184820360408601526142f78282614279565b95945050505050565b6020815261436a60208201835180518252602081015160208301526001600160a01b036040820151166040830152606081015160608301526080810151608083015260a081015160070b60a083015260c081015160070b60c083015260e081015160e08301525050565b600060208301516101806101208401526143886101a08401826142bf565b905060408401516101408401526060840151601f19848303016101608501526143b1828261423d565b9150506080840151601f19848303016101808501526142f7828261423d565b6000602082840312156143e257600080fd5b813561337881613fc6565b602081526000613378602083018461423d565b600067ffffffffffffffff82111561441a5761441a61409c565b5060051b60200190565b600082601f83011261443557600080fd5b813561444861444382614400565b6140f4565b8082825260208201915060208360051b86010192508583111561446a57600080fd5b602085015b8381101561448757803583526020928301920161446f565b5095945050505050565b6000806000606084860312156144a657600080fd5b83359250602084013567ffffffffffffffff8111156144c457600080fd5b6144d086828701614424565b92505060408401356144e181613fc6565b809150509250925092565b602081526000825160406020840152614508606084018261423d565b9050602084015160408401528091505092915050565b614580818a80518252602081015160208301526001600160a01b036040820151166040830152606081015160608301526080810151608083015260a081015160070b60a083015260c081015160070b60c083015260e081015160e08301525050565b6101e061010082015260006145996101e083018a6142bf565b886101208401528281036101408401526145b3818961423d565b90508281036101608401526145c8818861423d565b95151561018084015250509115156101a083015260070b6101c09091015295945050505050565b60008060006040848603121561460457600080fd5b833567ffffffffffffffff81111561461b57600080fd5b61462786828701614050565b909790965060209590950135949350505050565b60008060008060006080868803121561465357600080fd5b853594506020860135935060408601359250606086013567ffffffffffffffff81111561467f57600080fd5b61468b88828901614050565b969995985093965092949392505050565b8281526040602082015260006146b56040830184614279565b949350505050565b600080604083850312156146d057600080fd5b82359150602083013567ffffffffffffffff8111156146ee57600080fd5b6146fa85828601614424565b9150509250929050565b600082601f83011261471557600080fd5b61337883833560208501614125565b600080600080600060a0868803121561473c57600080fd5b853561474781613fc6565b9450602086013561475781613fc6565b9350604086013567ffffffffffffffff81111561477357600080fd5b61477f88828901614424565b935050606086013567ffffffffffffffff81111561479c57600080fd5b6147a888828901614424565b925050608086013567ffffffffffffffff8111156147c557600080fd5b6147d188828901614704565b9150509295509295909350565b600080600080600060a086880312156147f657600080fd5b85359450602086013593506040860135925060608601359150608086013561481d81613fc6565b809150509295509295909350565b600080600080600060a0868803121561484357600080fd5b853561484e81613fc6565b9450602086013561485e81613fc6565b93506040860135925060608601359150608086013567ffffffffffffffff8111156147c557600080fd5b6000608082840312801561489b57600080fd5b5060006148a66140cb565b83518060070b81146148b6578283fd5b8152602084015167ffffffffffffffff811681146148d2578283fd5b60208201526040840151600381900b81146148eb578283fd5b604082015260609384015193810193909352509092915050565b818352818160208501375060006020828401015260006020601f19601f840116840101905092915050565b6020808252810182905260006040600584901b8301810190830185837fffffffffffffffffffffffffffffffffffffffffffffffffffffffffffffffe136839003015b87821015614a02577fffffffffffffffffffffffffffffffffffffffffffffffffffffffffffffffc087860301845282358181126149b057600080fd5b890160208101903567ffffffffffffffff8111156149cd57600080fd5b8036038213156149dc57600080fd5b6149e7878284614905565b96505050602083019250602084019350600182019150614973565b5092979650505050505050565b600060208284031215614a2157600080fd5b5051919050565b7f4e487b7100000000000000000000000000000000000000000000000000000000600052603260045260246000fd5b600181811c90821680614a6b57607f821691505b602082108103613321577f4e487b7100000000000000000000000000000000000000000000000000000000600052602260045260246000fd5b601f821115614aeb57806000526020600020601f840160051c81016020851015614acb5750805b601f840160051c820191505b818110156139aa5760008155600101614ad7565b505050565b815167ffffffffffffffff811115614b0a57614b0a61409c565b614b1e81614b188454614a57565b84614aa4565b6020601f821160018114614b705760008315614b3a5750848201515b7fffffffffffffffffffffffffffffffffffffffffffffffffffffffffffffffff600385901b1c1916600184901b1784556139aa565b600084815260208120601f198516915b82811015614ba05787850151825560209485019460019092019101614b80565b5084821015614bdc57868401517fffffffffffffffffffffffffffffffffffffffffffffffffffffffffffffffff600387901b60f8161c191681555b50505050600190811b01905550565b8281526040602082015260006146b5604083018461423d565b8260070b81526040602082015260006146b5604083018461423d565b600060208284031215614c3257600080fd5b815167ffffffffffffffff811115614c4957600080fd5b8201601f81018413614c5a57600080fd5b8051614c6861444382614400565b8082825260208201915060208360051b850101925086831115614c8a57600080fd5b6020840193505b82841015614cac578351825260209384019390910190614c91565b9695505050505050565b6001600160a01b03871681526001600160a01b038616602082015260c060408201526000614ce760c083018761423d565b60608301959095525060808101929092526001600160a01b031660a0909101529392505050565b600060208284031215614d2057600080fd5b815161337881613fc6565b7f4e487b7100000000000000000000000000000000000000000000000000000000600052601160045260246000fd5b600082614d90577f4e487b7100000000000000000000000000000000000000000000000000000000600052601260045260246000fd5b500490565b600060208284031215614da757600080fd5b8151801515811461337857600080fd5b60007fffffffffffffffffffffffffffffffffffffffffffffffffffffffffffffffff8203614de857614de8614d2b565b5060010190565b8151600090829060208501835b82811015614e1a578151845260209384019390910190600101614dfc565b509195945050505050565b80820180821115610a7157610a71614d2b565b6001600160a01b038616815284602082015283604082015260a060608201526000614e6660a083018561423d565b90506001600160a01b03831660808301529695505050505050565b604081526000614e94604083018561423d565b90508260208301529392505050565b81810381811115610a7157610a71614d2b565b7f4e487b7100000000000000000000000000000000000000000000000000000000600052603160045260246000fdfea2646970667358221220da47d05c60ade86279a4615ebeee5c8d27eb8d3b70f55f2a0fc934863317141664736f6c634300081c0033",
  "linkReferences": {},
  "deployedLinkReferences": {}
}