{
  "_format": "hh-sol-artifact-1",
  "contractName": "SimplePredictionsOracle",
  "sourceName": "contracts/SimplePredictionsOracle.sol",
  "abi": [
    {
      "inputs": [
        {
          "internalType": "address",
          "name": "_conditionalTokens",
          "type": "address"
        },
        {
          "internalType": "address",
          "name": "_FPMMFactory",
          "type": "address"
        },
        {
          "internalType": "address",
          "name": "_collateralToken",
          "type": "address"
        },
        {
          "internalType": "address",
          "name": "_pythOracle",
          "type": "address"
        }
      ],
      "stateMutability": "nonpayable",
      "type": "constructor"
    },
    {
      "inputs": [
        {
          "internalType": "address",
          "name": "owner",
          "type": "address"
        }
      ],
      "name": "OwnableInvalidOwner",
      "type": "error"
    },
    {
      "inputs": [
        {
          "internalType": "address",
          "name": "account",
          "type": "address"
        }
      ],
      "name": "OwnableUnauthorizedAccount",
      "type": "error"
    },
    {
      "inputs": [],
      "name": "ReentrancyGuardReentrantCall",
      "type": "error"
    },
    {
      "anonymous": false,
      "inputs": [
        {
          "indexed": true,
          "internalType": "address",
          "name": "wallet",
          "type": "address"
        },
        {
          "indexed": true,
          "internalType": "address",
          "name": "fpmmAddress",
          "type": "address"
        },
        {
          "indexed": true,
          "internalType": "bytes32",
          "name": "questionId",
          "type": "bytes32"
        },
        {
          "indexed": false,
          "internalType": "uint256",
          "name": "investmentAmount",
          "type": "uint256"
        },
        {
          "indexed": false,
          "internalType": "uint256",
          "name": "feeAmount",
          "type": "uint256"
        },
        {
          "indexed": false,
          "internalType": "uint256",
          "name": "outcomeIndex",
          "type": "uint256"
        },
        {
          "indexed": false,
          "internalType": "uint256",
          "name": "outcomeTokensBought",
          "type": "uint256"
        }
      ],
      "name": "BuyPosition",
      "type": "event"
    },
    {
      "anonymous": false,
      "inputs": [
        {
          "indexed": true,
          "internalType": "bytes32",
          "name": "questionId",
          "type": "bytes32"
        },
        {
          "indexed": true,
          "internalType": "bytes32",
          "name": "priceId",
          "type": "bytes32"
        },
        {
          "indexed": false,
          "internalType": "int64",
          "name": "initialPrice",
          "type": "int64"
        },
        {
          "indexed": false,
          "internalType": "uint256",
          "name": "endTimestamp",
          "type": "uint256"
        },
        {
          "indexed": false,
          "internalType": "address",
          "name": "fpmmAddress",
          "type": "address"
        }
      ],
      "name": "MarketCreated",
      "type": "event"
    },
    {
      "anonymous": false,
      "inputs": [
        {
          "indexed": true,
          "internalType": "bytes32",
          "name": "questionId",
          "type": "bytes32"
        },
        {
          "indexed": false,
          "internalType": "int64",
          "name": "finalPrice",
          "type": "int64"
        },
        {
          "indexed": false,
          "internalType": "uint256[]",
          "name": "payouts",
          "type": "uint256[]"
        }
      ],
      "name": "MarketResolved",
      "type": "event"
    },
    {
      "anonymous": false,
      "inputs": [
        {
          "indexed": true,
          "internalType": "address",
          "name": "previousOwner",
          "type": "address"
        },
        {
          "indexed": true,
          "internalType": "address",
          "name": "newOwner",
          "type": "address"
        }
      ],
      "name": "OwnershipTransferred",
      "type": "event"
    },
    {
      "anonymous": false,
      "inputs": [
        {
          "indexed": true,
          "internalType": "address",
          "name": "wallet",
          "type": "address"
        },
        {
          "indexed": true,
          "internalType": "address",
          "name": "fpmmAddress",
          "type": "address"
        },
        {
          "indexed": true,
          "internalType": "bytes32",
          "name": "questionId",
          "type": "bytes32"
        },
        {
          "indexed": false,
          "internalType": "uint256[]",
          "name": "indexSets",
          "type": "uint256[]"
        },
        {
          "indexed": false,
          "internalType": "uint256",
          "name": "totalPayout",
          "type": "uint256"
        }
      ],
      "name": "RedeemPosition",
      "type": "event"
    },
    {
      "inputs": [],
      "name": "FPMMFactory",
      "outputs": [
        {
          "internalType": "contract IFactory",
          "name": "",
          "type": "address"
        }
      ],
      "stateMutability": "view",
      "type": "function"
    },
    {
      "inputs": [
        {
          "internalType": "uint256",
          "name": "",
          "type": "uint256"
        }
      ],
      "name": "activeMarketIds",
      "outputs": [
        {
          "internalType": "bytes32",
          "name": "",
          "type": "bytes32"
        }
      ],
      "stateMutability": "view",
      "type": "function"
    },
    {
      "inputs": [
        {
          "internalType": "bytes32",
          "name": "",
          "type": "bytes32"
        }
      ],
      "name": "answers",
      "outputs": [
        {
          "internalType": "uint256",
          "name": "answerTimestamp",
          "type": "uint256"
        },
        {
          "internalType": "string",
          "name": "answerCid",
          "type": "string"
        }
      ],
      "stateMutability": "view",
      "type": "function"
    },
    {
      "inputs": [
        {
          "internalType": "bytes32",
          "name": "questionId",
          "type": "bytes32"
        },
        {
          "internalType": "uint256",
          "name": "outcomeIndex",
          "type": "uint256"
        },
        {
          "internalType": "uint256",
          "name": "amount",
          "type": "uint256"
        },
        {
          "internalType": "uint256",
          "name": "minOutcomeTokensToBuy",
          "type": "uint256"
        },
        {
          "internalType": "address",
          "name": "conditionTokensReceiver",
          "type": "address"
        }
      ],
      "name": "buyPosition",
      "outputs": [],
      "stateMutability": "nonpayable",
      "type": "function"
    },
    {
      "inputs": [],
      "name": "collateralToken",
      "outputs": [
        {
          "internalType": "contract Token",
          "name": "",
          "type": "address"
        }
      ],
      "stateMutability": "view",
      "type": "function"
    },
    {
      "inputs": [],
      "name": "conditionalTokens",
      "outputs": [
        {
          "internalType": "contract ConditionalTokens",
          "name": "",
          "type": "address"
        }
      ],
      "stateMutability": "view",
      "type": "function"
    },
    {
      "inputs": [
        {
          "internalType": "bytes32[]",
          "name": "_priceIds",
          "type": "bytes32[]"
        },
        {
          "internalType": "uint256",
          "name": "_initialFunding",
          "type": "uint256"
        }
      ],
      "name": "configureMarkets",
      "outputs": [],
      "stateMutability": "nonpayable",
      "type": "function"
    },
    {
      "inputs": [
        {
          "internalType": "bytes32",
          "name": "questionId",
          "type": "bytes32"
        },
        {
          "internalType": "uint256",
          "name": "randomIndex",
          "type": "uint256"
        },
        {
          "internalType": "uint256",
          "name": "marketEndTimestamp",
          "type": "uint256"
        },
        {
          "internalType": "bytes[]",
          "name": "priceUpdateData",
          "type": "bytes[]"
        }
      ],
      "name": "createMarket",
      "outputs": [
        {
          "internalType": "bytes32",
          "name": "",
          "type": "bytes32"
        }
      ],
      "stateMutability": "payable",
      "type": "function"
    },
    {
      "inputs": [],
      "name": "emergencyWithdraw",
      "outputs": [],
      "stateMutability": "nonpayable",
      "type": "function"
    },
    {
      "inputs": [],
      "name": "emergencyWithdrawETH",
      "outputs": [],
      "stateMutability": "nonpayable",
      "type": "function"
    },
    {
      "inputs": [],
      "name": "getActiveMarketIds",
      "outputs": [
        {
          "internalType": "bytes32[]",
          "name": "",
          "type": "bytes32[]"
        }
      ],
      "stateMutability": "view",
      "type": "function"
    },
    {
      "inputs": [
        {
          "internalType": "bytes32",
          "name": "priceId",
          "type": "bytes32"
        }
      ],
      "name": "getCurrentPrice",
      "outputs": [
        {
          "components": [
            {
              "internalType": "int64",
              "name": "price",
              "type": "int64"
            },
            {
              "internalType": "uint64",
              "name": "conf",
              "type": "uint64"
            },
            {
              "internalType": "int32",
              "name": "expo",
              "type": "int32"
            },
            {
              "internalType": "uint256",
              "name": "publishTime",
              "type": "uint256"
            }
          ],
          "internalType": "struct PythStructs.Price",
          "name": "",
          "type": "tuple"
        }
      ],
      "stateMutability": "view",
      "type": "function"
    },
    {
      "inputs": [
        {
          "internalType": "bytes32",
          "name": "questionId",
          "type": "bytes32"
        }
      ],
      "name": "getDetailedMarketData",
      "outputs": [
        {
          "components": [
            {
              "internalType": "uint256",
              "name": "beginTimestamp",
              "type": "uint256"
            },
            {
              "internalType": "uint256",
              "name": "endTimestamp",
              "type": "uint256"
            },
            {
              "internalType": "address",
              "name": "fpmm",
              "type": "address"
            },
            {
              "internalType": "bytes32",
              "name": "priceFeedId",
              "type": "bytes32"
            },
            {
              "internalType": "bytes32",
              "name": "conditionId",
              "type": "bytes32"
            },
            {
              "internalType": "int64",
              "name": "initialPrice",
              "type": "int64"
            },
            {
              "internalType": "int64",
              "name": "finalPrice",
              "type": "int64"
            },
            {
              "internalType": "uint256",
              "name": "finalPriceTimestamp",
              "type": "uint256"
            }
          ],
          "internalType": "struct SimplePredictionsOracle.QuestionData",
          "name": "questionData",
          "type": "tuple"
        },
        {
          "components": [
            {
              "internalType": "uint256[]",
              "name": "payouts",
              "type": "uint256[]"
            },
            {
              "internalType": "uint256",
              "name": "answerTimestamp",
              "type": "uint256"
            },
            {
              "internalType": "string",
              "name": "answerCid",
              "type": "string"
            }
          ],
          "internalType": "struct SimplePredictionsOracle.AnswerData",
          "name": "answerData",
          "type": "tuple"
        },
        {
          "internalType": "uint256",
          "name": "uniqueBuys",
          "type": "uint256"
        },
        {
          "internalType": "uint256[]",
          "name": "probabilities",
          "type": "uint256[]"
        },
        {
          "internalType": "uint256[]",
          "name": "buyAmounts",
          "type": "uint256[]"
        },
        {
          "internalType": "bool",
          "name": "isResolved",
          "type": "bool"
        },
        {
          "internalType": "bool",
          "name": "hasExpired",
          "type": "bool"
        },
        {
          "internalType": "int64",
          "name": "currentPrice",
          "type": "int64"
        }
      ],
      "stateMutability": "view",
      "type": "function"
    },
    {
      "inputs": [],
      "name": "getMarketConfig",
      "outputs": [
        {
          "components": [
            {
              "internalType": "bytes32[]",
              "name": "priceIds",
              "type": "bytes32[]"
            },
            {
              "internalType": "uint256",
              "name": "initialFunding",
              "type": "uint256"
            }
          ],
          "internalType": "struct SimplePredictionsOracle.MarketConfig",
          "name": "",
          "type": "tuple"
        }
      ],
      "stateMutability": "view",
      "type": "function"
    },
    {
      "inputs": [
        {
          "internalType": "bytes32",
          "name": "questionId",
          "type": "bytes32"
        }
      ],
      "name": "getMarketData",
      "outputs": [
        {
          "components": [
            {
              "components": [
                {
                  "internalType": "uint256",
                  "name": "beginTimestamp",
                  "type": "uint256"
                },
                {
                  "internalType": "uint256",
                  "name": "endTimestamp",
                  "type": "uint256"
                },
                {
                  "internalType": "address",
                  "name": "fpmm",
                  "type": "address"
                },
                {
                  "internalType": "bytes32",
                  "name": "priceFeedId",
                  "type": "bytes32"
                },
                {
                  "internalType": "bytes32",
                  "name": "conditionId",
                  "type": "bytes32"
                },
                {
                  "internalType": "int64",
                  "name": "initialPrice",
                  "type": "int64"
                },
                {
                  "internalType": "int64",
                  "name": "finalPrice",
                  "type": "int64"
                },
                {
                  "internalType": "uint256",
                  "name": "finalPriceTimestamp",
                  "type": "uint256"
                }
              ],
              "internalType": "struct SimplePredictionsOracle.QuestionData",
              "name": "questionData",
              "type": "tuple"
            },
            {
              "components": [
                {
                  "internalType": "uint256[]",
                  "name": "payouts",
                  "type": "uint256[]"
                },
                {
                  "internalType": "uint256",
                  "name": "answerTimestamp",
                  "type": "uint256"
                },
                {
                  "internalType": "string",
                  "name": "answerCid",
                  "type": "string"
                }
              ],
              "internalType": "struct SimplePredictionsOracle.AnswerData",
              "name": "answerData",
              "type": "tuple"
            },
            {
              "internalType": "uint256",
              "name": "uniqueBuys",
              "type": "uint256"
            },
            {
              "internalType": "uint256[]",
              "name": "probabilities",
              "type": "uint256[]"
            },
            {
              "internalType": "uint256[]",
              "name": "buyAmounts",
              "type": "uint256[]"
            }
          ],
          "internalType": "struct SimplePredictionsOracle.MarketData",
          "name": "",
          "type": "tuple"
        }
      ],
      "stateMutability": "view",
      "type": "function"
    },
    {
      "inputs": [
        {
          "internalType": "bytes32",
          "name": "questionId",
          "type": "bytes32"
        },
        {
          "internalType": "uint256[]",
          "name": "indexSets",
          "type": "uint256[]"
        },
        {
          "internalType": "address",
          "name": "holder",
          "type": "address"
        }
      ],
      "name": "getPositionBalances",
      "outputs": [
        {
          "internalType": "uint256[]",
          "name": "balances",
          "type": "uint256[]"
        }
      ],
      "stateMutability": "view",
      "type": "function"
    },
    {
      "inputs": [
        {
          "internalType": "bytes32",
          "name": "questionId",
          "type": "bytes32"
        },
        {
          "internalType": "address",
          "name": "spender",
          "type": "address"
        }
      ],
      "name": "getRemainingBuyAmount",
      "outputs": [
        {
          "internalType": "uint256",
          "name": "",
          "type": "uint256"
        }
      ],
      "stateMutability": "view",
      "type": "function"
    },
    {
      "inputs": [
        {
          "internalType": "address",
          "name": "user",
          "type": "address"
        }
      ],
      "name": "getUserClosedPositions",
      "outputs": [
        {
          "internalType": "bytes32[]",
          "name": "",
          "type": "bytes32[]"
        }
      ],
      "stateMutability": "view",
      "type": "function"
    },
    {
      "inputs": [
        {
          "internalType": "address",
          "name": "user",
          "type": "address"
        }
      ],
      "name": "getUserOpenPositions",
      "outputs": [
        {
          "internalType": "bytes32[]",
          "name": "",
          "type": "bytes32[]"
        }
      ],
      "stateMutability": "view",
      "type": "function"
    },
    {
      "inputs": [],
      "name": "lastMarketTime",
      "outputs": [
        {
          "internalType": "uint256",
          "name": "",
          "type": "uint256"
        }
      ],
      "stateMutability": "view",
      "type": "function"
    },
    {
      "inputs": [],
      "name": "marketConfig",
      "outputs": [
        {
          "internalType": "uint256",
          "name": "initialFunding",
          "type": "uint256"
        }
      ],
      "stateMutability": "view",
      "type": "function"
    },
    {
      "inputs": [],
      "name": "maxBuyAmountPerQuestion",
      "outputs": [
        {
          "internalType": "uint256",
          "name": "",
          "type": "uint256"
        }
      ],
      "stateMutability": "view",
      "type": "function"
    },
    {
      "inputs": [],
      "name": "minBuyAmount",
      "outputs": [
        {
          "internalType": "uint256",
          "name": "",
          "type": "uint256"
        }
      ],
      "stateMutability": "view",
      "type": "function"
    },
    {
      "inputs": [
        {
          "internalType": "address",
          "name": "",
          "type": "address"
        },
        {
          "internalType": "address",
          "name": "",
          "type": "address"
        },
        {
          "internalType": "uint256[]",
          "name": "",
          "type": "uint256[]"
        },
        {
          "internalType": "uint256[]",
          "name": "",
          "type": "uint256[]"
        },
        {
          "internalType": "bytes",
          "name": "",
          "type": "bytes"
        }
      ],
      "name": "onERC1155BatchReceived",
      "outputs": [
        {
          "internalType": "bytes4",
          "name": "",
          "type": "bytes4"
        }
      ],
      "stateMutability": "nonpayable",
      "type": "function"
    },
    {
      "inputs": [
        {
          "internalType": "address",
          "name": "",
          "type": "address"
        },
        {
          "internalType": "address",
          "name": "",
          "type": "address"
        },
        {
          "internalType": "uint256",
          "name": "",
          "type": "uint256"
        },
        {
          "internalType": "uint256",
          "name": "",
          "type": "uint256"
        },
        {
          "internalType": "bytes",
          "name": "",
          "type": "bytes"
        }
      ],
      "name": "onERC1155Received",
      "outputs": [
        {
          "internalType": "bytes4",
          "name": "",
          "type": "bytes4"
        }
      ],
      "stateMutability": "nonpayable",
      "type": "function"
    },
    {
      "inputs": [],
      "name": "owner",
      "outputs": [
        {
          "internalType": "address",
          "name": "",
          "type": "address"
        }
      ],
      "stateMutability": "view",
      "type": "function"
    },
    {
      "inputs": [],
      "name": "pythOracle",
      "outputs": [
        {
          "internalType": "contract IPyth",
          "name": "",
          "type": "address"
        }
      ],
      "stateMutability": "view",
      "type": "function"
    },
    {
      "inputs": [
        {
          "internalType": "bytes32",
          "name": "",
          "type": "bytes32"
        }
      ],
      "name": "questions",
      "outputs": [
        {
          "internalType": "uint256",
          "name": "beginTimestamp",
          "type": "uint256"
        },
        {
          "internalType": "uint256",
          "name": "endTimestamp",
          "type": "uint256"
        },
        {
          "internalType": "address",
          "name": "fpmm",
          "type": "address"
        },
        {
          "internalType": "bytes32",
          "name": "priceFeedId",
          "type": "bytes32"
        },
        {
          "internalType": "bytes32",
          "name": "conditionId",
          "type": "bytes32"
        },
        {
          "internalType": "int64",
          "name": "initialPrice",
          "type": "int64"
        },
        {
          "internalType": "int64",
          "name": "finalPrice",
          "type": "int64"
        },
        {
          "internalType": "uint256",
          "name": "finalPriceTimestamp",
          "type": "uint256"
        }
      ],
      "stateMutability": "view",
      "type": "function"
    },
    {
      "inputs": [
        {
          "internalType": "bytes32",
          "name": "questionId",
          "type": "bytes32"
        },
        {
          "internalType": "uint256[]",
          "name": "indexSets",
          "type": "uint256[]"
        }
      ],
      "name": "redeemPosition",
      "outputs": [],
      "stateMutability": "nonpayable",
      "type": "function"
    },
    {
      "inputs": [
        {
          "internalType": "uint256",
          "name": "num",
          "type": "uint256"
        }
      ],
      "name": "redeemPositions",
      "outputs": [],
      "stateMutability": "nonpayable",
      "type": "function"
    },
    {
      "inputs": [],
      "name": "renounceOwnership",
      "outputs": [],
      "stateMutability": "nonpayable",
      "type": "function"
    },
    {
      "inputs": [
        {
          "internalType": "bytes32",
          "name": "questionId",
          "type": "bytes32"
        },
        {
          "internalType": "bytes[]",
          "name": "priceUpdateData",
          "type": "bytes[]"
        },
        {
          "internalType": "string",
          "name": "answerCid",
          "type": "string"
        }
      ],
      "name": "resolveMarket",
      "outputs": [],
      "stateMutability": "payable",
      "type": "function"
    },
    {
      "inputs": [],
      "name": "sellEnabled",
      "outputs": [
        {
          "internalType": "bool",
          "name": "",
          "type": "bool"
        }
      ],
      "stateMutability": "view",
      "type": "function"
    },
    {
      "inputs": [],
      "name": "stopTradingBeforeMarketEnd",
      "outputs": [
        {
          "internalType": "uint256",
          "name": "",
          "type": "uint256"
        }
      ],
      "stateMutability": "view",
      "type": "function"
    },
    {
      "inputs": [
        {
          "internalType": "bytes4",
          "name": "interfaceId",
          "type": "bytes4"
        }
      ],
      "name": "supportsInterface",
      "outputs": [
        {
          "internalType": "bool",
          "name": "",
          "type": "bool"
        }
      ],
      "stateMutability": "view",
      "type": "function"
    },
    {
      "inputs": [
        {
          "internalType": "address",
          "name": "newOwner",
          "type": "address"
        }
      ],
      "name": "transferOwnership",
      "outputs": [],
      "stateMutability": "nonpayable",
      "type": "function"
    },
    {
      "inputs": [
        {
          "internalType": "address",
          "name": "_conditionalTokens",
          "type": "address"
        },
        {
          "internalType": "address",
          "name": "_FPMMFactory",
          "type": "address"
        },
        {
          "internalType": "address",
          "name": "_collateralToken",
          "type": "address"
        },
        {
          "internalType": "address",
          "name": "_pythOracle",
          "type": "address"
        }
      ],
      "name": "updateContracts",
      "outputs": [],
      "stateMutability": "nonpayable",
      "type": "function"
    },
    {
      "inputs": [
        {
          "internalType": "uint256",
          "name": "_maxBuyAmountPerQuestion",
          "type": "uint256"
        }
      ],
      "name": "updateMaxBuyAmountPerQuestion",
      "outputs": [],
      "stateMutability": "nonpayable",
      "type": "function"
    },
    {
      "inputs": [
        {
          "internalType": "uint256",
          "name": "_minBuyAmount",
          "type": "uint256"
        }
      ],
      "name": "updateMinBuyAmount",
      "outputs": [],
      "stateMutability": "nonpayable",
      "type": "function"
    },
    {
      "inputs": [
        {
          "internalType": "uint256",
          "name": "_stopTradingBeforeMarketEnd",
          "type": "uint256"
        }
      ],
      "name": "updateStopTradingBeforeMarketEnd",
      "outputs": [],
      "stateMutability": "nonpayable",
      "type": "function"
    },
    {
      "inputs": [
        {
          "internalType": "bytes32",
          "name": "",
          "type": "bytes32"
        },
        {
          "internalType": "address",
          "name": "",
          "type": "address"
        }
      ],
      "name": "userBuyAmounts",
      "outputs": [
        {
          "internalType": "uint256",
          "name": "",
          "type": "uint256"
        }
      ],
      "stateMutability": "view",
      "type": "function"
    },
    {
      "inputs": [
        {
          "internalType": "address",
          "name": "",
          "type": "address"
        }
      ],
      "name": "userRedeemed",
      "outputs": [
        {
          "internalType": "uint256",
          "name": "",
          "type": "uint256"
        }
      ],
      "stateMutability": "view",
      "type": "function"
    },
    {
      "inputs": [
        {
          "internalType": "address",
          "name": "",
          "type": "address"
        }
      ],
      "name": "userSpendings",
      "outputs": [
        {
          "internalType": "uint256",
          "name": "",
          "type": "uint256"
        }
      ],
      "stateMutability": "view",
      "type": "function"
    },
    {
      "stateMutability": "payable",
      "type": "receive"
    }
  ],
  "bytecode": "0x6080604052670de0b6b3a7640000600655683635c9adc5dea0000060075561012c6008556009805460ff1916905534801561003957600080fd5b5060405161506538038061506583398101604081905261005891610150565b338061007e57604051631e4fbdf760e01b81526000600482015260240160405180910390fd5b610087816100e4565b5060018055600280546001600160a01b039586166001600160a01b03199182161790915560038054948616948216949094179093556004805492851692841692909217909155600580549190931691161790556000600a556101a4565b600080546001600160a01b038381166001600160a01b0319831681178455604051919092169283917f8be0079c531659141344cd1fd0a4f28419497f9722a3daafe3b4186f6b6457e09190a35050565b80516001600160a01b038116811461014b57600080fd5b919050565b6000806000806080858703121561016657600080fd5b61016f85610134565b935061017d60208601610134565b925061018b60408601610134565b915061019960608601610134565b905092959194509250565b614eb2806101b36000396000f3fe6080604052600436106102e05760003560e01c80638da5cb5b11610184578063c9a8c2a3116100d6578063de8620231161008a578063f2fde38b11610064578063f2fde38b14610988578063f5d6ac90146109a8578063f66bf229146109c857600080fd5b8063de8620231461090d578063deaf431d1461092d578063f23a6e611461094357600080fd5b8063d79635fb116100bb578063d79635fb146108b8578063db219e23146108d8578063db2e21bc146108f857600080fd5b8063c9a8c2a31461086b578063d1d0d16c1461088b57600080fd5b8063a2e7865311610138578063b7d5842211610112578063b7d58422146107c0578063bc197c81146107e0578063bd243ff31461085657600080fd5b8063a2e7865314610752578063aac753b614610772578063b2016bd4146107a057600080fd5b806391da9f7a1161016957806391da9f7a1461064c57806395addb901461065f5780639f477d741461072557600080fd5b80638da5cb5b1461060e5780638fded67d1461062c57600080fd5b8063493fc96c1161023d5780636562412a116101f157806382994efa116101cb57806382994efa146105c357806384536017146105e35780638cefb59c146105f857600080fd5b80636562412a1461055a578063715018a61461058e5780637ac5d778146105a357600080fd5b80635b212f3d116102225780635b212f3d146105025780635bd9e29914610518578063614bd9441461053857600080fd5b8063493fc96c146104c857806358197a9d146104e857600080fd5b806323c113dc1161029457806330f4f4bb1161027957806330f4f4bb14610436578063320d94b2146104635780634441aacb1461049b57600080fd5b806323c113dc146103ff5780632f6c10701461041657600080fd5b8063161e444e116102c5578063161e444e1461034357806316524406146103a65780631f3990de146103b957600080fd5b806301ffc9a7146102ec5780630b7512791461032157600080fd5b366102e757005b600080fd5b3480156102f857600080fd5b5061030c610307366004613f1b565b6109de565b60405190151581526020015b60405180910390f35b34801561032d57600080fd5b5061034161033c366004613f72565b610a77565b005b34801561034f57600080fd5b5061036361035e366004613fce565b610ae7565b6040516103189190815160070b815260208083015167ffffffffffffffff169082015260408083015160030b908201526060918201519181019190915260800190565b6103416103b4366004614118565b610b8d565b3480156103c557600080fd5b506103f16103d43660046141a4565b601560209081526000928352604080842090915290825290205481565b604051908152602001610318565b34801561040b57600080fd5b50600c546103f19081565b34801561042257600080fd5b50610341610431366004613fce565b61122f565b34801561044257600080fd5b50610456610451366004613fce565b61123c565b6040516103189190614297565b34801561046f57600080fd5b50600354610483906001600160a01b031681565b6040516001600160a01b039091168152602001610318565b3480156104a757600080fd5b506104bb6104b6366004614367565b611668565b6040516103189190614384565b3480156104d457600080fd5b506104bb6104e3366004614428565b61174a565b3480156104f457600080fd5b5060095461030c9060ff1681565b34801561050e57600080fd5b506103f160085481565b34801561052457600080fd5b50600254610483906001600160a01b031681565b34801561054457600080fd5b5061054d611a1a565b6040516103189190614483565b34801561056657600080fd5b5061057a610575366004613fce565b611a9a565b6040516103189897969594939291906144b5565b34801561059a57600080fd5b50610341612009565b3480156105af57600080fd5b506103416105be366004614586565b61201d565b3480156105cf57600080fd5b506103416105de366004613fce565b6120e6565b3480156105ef57600080fd5b506103416120f3565b34801561060457600080fd5b506103f1600d5481565b34801561061a57600080fd5b506000546001600160a01b0316610483565b34801561063857600080fd5b50610341610647366004613fce565b61212e565b6103f161065a3660046145d2565b61213b565b34801561066b57600080fd5b506106d661067a366004613fce565b600f602052600090815260409020805460018201546002830154600384015460048501546005860154600690960154949593946001600160a01b039093169391929091600781810b9268010000000000000000909204900b9088565b6040805198895260208901979097526001600160a01b039095169587019590955260608601929092526080850152600790810b60a08501529190910b60c083015260e082015261010001610318565b34801561073157600080fd5b506103f1610740366004614367565b60116020526000908152604090205481565b34801561075e57600080fd5b5061034161076d366004613fce565b612a27565b34801561077e57600080fd5b5061079261078d366004613fce565b612cbe565b604051610318929190614633565b3480156107ac57600080fd5b50600454610483906001600160a01b031681565b3480156107cc57600080fd5b506103416107db366004614654565b612d66565b3480156107ec57600080fd5b506108256107fb3660046146bb565b7fbc197c810000000000000000000000000000000000000000000000000000000095945050505050565b6040517fffffffff000000000000000000000000000000000000000000000000000000009091168152602001610318565b34801561086257600080fd5b506104bb61321b565b34801561087757600080fd5b506103f1610886366004613fce565b6132be565b34801561089757600080fd5b506103f16108a6366004614367565b60106020526000908152604090205481565b3480156108c457600080fd5b506103f16108d33660046141a4565b6132df565b3480156108e457600080fd5b506103416108f3366004614775565b613316565b34801561090457600080fd5b50610341613948565b34801561091957600080fd5b506104bb610928366004614367565b613a6f565b34801561093957600080fd5b506103f160075481565b34801561094f57600080fd5b5061082561095e3660046147c2565b7ff23a6e610000000000000000000000000000000000000000000000000000000095945050505050565b34801561099457600080fd5b506103416109a3366004614367565b613b4a565b3480156109b457600080fd5b50600554610483906001600160a01b031681565b3480156109d457600080fd5b506103f160065481565b60007fffffffff0000000000000000000000000000000000000000000000000000000082167f4e2312e0000000000000000000000000000000000000000000000000000000001480610a7157507f01ffc9a7000000000000000000000000000000000000000000000000000000007fffffffff000000000000000000000000000000000000000000000000000000008316145b92915050565b610a7f613b9e565b600280546001600160a01b039586167fffffffffffffffffffffffff0000000000000000000000000000000000000000918216179091556003805494861694821694909417909355600480549285169284169290921790915560058054919093169116179055565b60408051608081018252600080825260208201819052818301819052606082015260055491517f96834ad30000000000000000000000000000000000000000000000000000000081526004810184905290916001600160a01b0316906396834ad390602401608060405180830381865afa158015610b69573d6000803e3d6000fd5b505050506040513d601f19601f82011682018060405250810190610a71919061481f565b610b95613b9e565b83610be75760405162461bcd60e51b815260206004820152601660248201527f4e6f207175657374696f6e20746f207265736f6c76650000000000000000000060448201526064015b60405180910390fd5b6000848152600f6020908152604091829020825161010081018452815480825260018301549382019390935260028201546001600160a01b03169381019390935260038101546060840152600481015460808401526005810154600781810b60a086015268010000000000000000909104900b60c08401526006015460e0830152610cb45760405162461bcd60e51b815260206004820152601660248201527f4d61726b6574206e6f7420696e697469616c697a6564000000000000000000006044820152606401610bde565b8060200151421015610d085760405162461bcd60e51b815260206004820152601360248201527f4d61726b6574207374696c6c20616374697665000000000000000000000000006044820152606401610bde565b60008581526014602052604090206001015415610d675760405162461bcd60e51b815260206004820152601760248201527f4d61726b657420616c7265616479207265736f6c7665640000000000000000006044820152606401610bde565b6005546040517fd47eed450000000000000000000000000000000000000000000000000000000081526000916001600160a01b03169063d47eed4590610db390889088906004016148c7565b602060405180830381865afa158015610dd0573d6000803e3d6000fd5b505050506040513d601f19601f82011682018060405250810190610df491906149a6565b905080341015610e6c5760405162461bcd60e51b815260206004820152602160248201527f496e73756666696369656e742066656520666f7220707269636520757064617460448201527f65000000000000000000000000000000000000000000000000000000000000006064820152608401610bde565b6005546040517fef9e5e280000000000000000000000000000000000000000000000000000000081526001600160a01b039091169063ef9e5e28908390610eb990899089906004016148c7565b6000604051808303818588803b158015610ed257600080fd5b505af1158015610ee6573d6000803e3d6000fd5b505060055460608601516040517f96834ad3000000000000000000000000000000000000000000000000000000008152600095506001600160a01b0390921693506396834ad39250610f3e9160040190815260200190565b608060405180830381865afa158015610f5b573d6000803e3d6000fd5b505050506040513d601f19601f82011682018060405250810190610f7f919061481f565b90506000816000015160070b13610fd85760405162461bcd60e51b815260206004820152601860248201527f496e76616c69642066696e616c207072696365206461746100000000000000006044820152606401610bde565b600081606001511161102c5760405162461bcd60e51b815260206004820152601d60248201527f496e76616c69642066696e616c2070726963652074696d657374616d700000006044820152606401610bde565b8051606080830151600783810b60c0880181905260e0880183905260a08801516040805160028082529681019091529394920b129160009181602001602082028036833701905050905081156110c557620f424081600081518110611093576110936149bf565b6020026020010181815250506000816001815181106110b4576110b46149bf565b60200260200101818152505061110a565b6000816000815181106110da576110da6149bf565b602002602001018181525050620f4240816001815181106110fd576110fd6149bf565b6020026020010181815250505b60408051606081018252828152426020808301919091528183018b905260008e8152601482529290922081518051929391926111499284920190613e29565b5060208201516001820155604082015160028201906111689082614a87565b50506002546040517fc49298ac0000000000000000000000000000000000000000000000000000000081526001600160a01b03909116915063c49298ac906111b6908e908590600401614b82565b600060405180830381600087803b1580156111d057600080fd5b505af11580156111e4573d6000803e3d6000fd5b505050508a7f689c9a00f150f4afd036f5ba71377873dbe90921195491808afaed660a65d373858360405161121a929190614b9b565b60405180910390a25050505050505050505050565b611237613b9e565b600655565b611244613e74565b6000828152600f602090815260408083206002015481517f91c024a600000000000000000000000000000000000000000000000000000000815291516001600160a01b03909116939284926391c024a692600480830193928290030181865afa1580156112b5573d6000803e3d6000fd5b505050506040513d601f19601f820116820180604052508101906112d991906149a6565b90506000826001600160a01b0316632cc76d3f6040518163ffffffff1660e01b8152600401600060405180830381865afa15801561131b573d6000803e3d6000fd5b505050506040513d6000823e601f3d908101601f191682016040526113439190810190614bb7565b6040805160028082526060820183529293506000929091602083019080368337019050506040517ff55c79d0000000000000000000000000000000000000000000000000000000008152620f42406004820152600060248201529091506001600160a01b0385169063f55c79d090604401602060405180830381865afa1580156113d1573d6000803e3d6000fd5b505050506040513d601f19601f820116820180604052508101906113f591906149a6565b81600081518110611408576114086149bf565b60209081029190910101526040517ff55c79d0000000000000000000000000000000000000000000000000000000008152620f42406004820152600160248201526001600160a01b0385169063f55c79d090604401602060405180830381865afa15801561147a573d6000803e3d6000fd5b505050506040513d601f19601f8201168201806040525081019061149e91906149a6565b816001815181106114b1576114b16149bf565b602090810291909101810191909152604080516000898152600f84528281206101a083018452805460a08401908152600182015460c085015260028201546001600160a01b031660e0850152600382015461010085015260048201546101208501526005820154600781810b61014087015268010000000000000000909104900b6101608501526006909101546101808401528252898152601484528290208251815460808187028301810190955260608201818152939586019491938492909184918401828280156115a357602002820191906000526020600020905b81548152602001906001019080831161158f575b50505050508152602001600182015481526020016002820180546115c6906149ee565b80601f01602080910402602001604051908101604052809291908181526020018280546115f2906149ee565b801561163f5780601f106116145761010080835404028352916020019161163f565b820191906000526020600020905b81548152906001019060200180831161162257829003601f168201915b505050505081525050815260200184815260200183815260200182815250945050505050919050565b6001600160a01b03811660009081526012602052604081206060919061168d90613be4565b67ffffffffffffffff8111156116a5576116a5614033565b6040519080825280602002602001820160405280156116ce578160200160208202803683370190505b50905060005b6001600160a01b03841660009081526012602052604090206116f590613be4565b811015611743576001600160a01b038416600090815260126020526040902061171e9082613bee565b828281518110611730576117306149bf565b60209081029190910101526001016116d4565b5092915050565b6000838152600f602052604090206004015482516060919060039067ffffffffffffffff81111561177d5761177d614033565b6040519080825280602002602001820160405280156117a6578160200160208202803683370190505b50925060005b8551811015611a105760008682815181106117c9576117c96149bf565b602002602001015190506000811180156117e257508281105b61182e5760405162461bcd60e51b815260206004820152601560248201527f476f7420696e76616c696420696e6465782073657400000000000000000000006044820152606401610bde565b60025460048054600a546040517f856296f70000000000000000000000000000000000000000000000000000000081529283015260248201879052604482018490526000926001600160a01b03908116926339dd7530929190911690839063856296f790606401602060405180830381865afa1580156118b2573d6000803e3d6000fd5b505050506040513d601f19601f820116820180604052508101906118d691906149a6565b6040517fffffffff0000000000000000000000000000000000000000000000000000000060e085901b1681526001600160a01b0390921660048301526024820152604401602060405180830381865afa158015611937573d6000803e3d6000fd5b505050506040513d601f19601f8201168201806040525081019061195b91906149a6565b6002546040517efdd58e0000000000000000000000000000000000000000000000000000000081526001600160a01b038a811660048301526024820184905292935091169062fdd58e90604401602060405180830381865afa1580156119c5573d6000803e3d6000fd5b505050506040513d601f19601f820116820180604052508101906119e991906149a6565b8684815181106119fb576119fb6149bf565b602090810291909101015250506001016117ac565b5050509392505050565b60408051808201909152606081526000602082015260408051600b805460606020820284018101855293830181815292939192849290918491840182828015611a8257602002820191906000526020600020905b815481526020019060010190808311611a6e575b50505050508152602001600182015481525050905090565b6040805161010081018252600080825260208201819052918101829052606081018290526080810182905260a0810182905260c0810182905260e0810191909152611aff60405180606001604052806060815260200160008152602001606081525090565b6000838152600f602090815260408083208151610100810183528154815260018201548185015260028201546001600160a01b031681840152600382015460608281019190915260048301546080808401919091526005840154600781810b60a086015268010000000000000000909104900b60c084015260069093015460e08301528886526014855283862084518154968702810185019095528482018681529298509094859487948594859492938492849190840182828015611be357602002820191906000526020600020905b815481526020019060010190808311611bcf575b5050505050815260200160018201548152602001600282018054611c06906149ee565b80601f0160208091040260200160405190810160405280929190818152602001828054611c32906149ee565b8015611c7f5780601f10611c5457610100808354040283529160200191611c7f565b820191906000526020600020905b815481529060010190602001808311611c6257829003601f168201915b50505050508152505096506000886000015111611cde5760405162461bcd60e51b815260206004820152601060248201527f4d61726b6574206e6f7420666f756e64000000000000000000000000000000006044820152606401610bde565b600088604001519050806001600160a01b03166391c024a66040518163ffffffff1660e01b8152600401602060405180830381865afa158015611d25573d6000803e3d6000fd5b505050506040513d601f19601f82011682018060405250810190611d4991906149a6565b9650806001600160a01b0316632cc76d3f6040518163ffffffff1660e01b8152600401600060405180830381865afa158015611d89573d6000803e3d6000fd5b505050506040513d6000823e601f3d908101601f19168201604052611db19190810190614bb7565b6040805160028082526060820183529298509190602083019080368337019050506040517ff55c79d0000000000000000000000000000000000000000000000000000000008152620f42406004820152600060248201529095506001600160a01b0382169063f55c79d090604401602060405180830381865afa158015611e3c573d6000803e3d6000fd5b505050506040513d601f19601f82011682018060405250810190611e6091906149a6565b85600081518110611e7357611e736149bf565b60209081029190910101526040517ff55c79d0000000000000000000000000000000000000000000000000000000008152620f42406004820152600160248201526001600160a01b0382169063f55c79d090604401602060405180830381865afa158015611ee5573d6000803e3d6000fd5b505050506040513d601f19601f82011682018060405250810190611f0991906149a6565b85600181518110611f1c57611f1c6149bf565b6020026020010181815250506000886020015111935088602001514210159250838015611f4f575060c089015160070b15155b15611f60578860c001519150611ffd565b60055460608a01516040517f96834ad30000000000000000000000000000000000000000000000000000000081526001600160a01b03909216916396834ad391611fb09160040190815260200190565b608060405180830381865afa925050508015611fe9575060408051601f3d908101601f19168201909252611fe69181019061481f565b60015b611ff9578860a001519150611ffd565b5191505b50919395975091939597565b612011613b9e565b61201b6000613bfa565b565b612025613b9e565b600081116120755760405162461bcd60e51b815260206004820181905260248201527f496e697469616c2066756e64696e67206d75737420626520706f7369746976656044820152606401610bde565b6040518060400160405280848480806020026020016040519081016040528093929190818152602001838360200280828437600092019190915250505090825250602090810183905281518051600b926120d3928492910190613e29565b5060208201518160010155905050505050565b6120ee613b9e565b600855565b6120fb613b9e565b6040514790339082156108fc029083906000818181858888f1935050505015801561212a573d6000803e3d6000fd5b5050565b612136613b9e565b600755565b600b54600090851061218f5760405162461bcd60e51b815260206004820152601460248201527f496e76616c69642072616e646f6d20696e6465780000000000000000000000006044820152606401610bde565b600b546121de5760405162461bcd60e51b815260206004820152601960248201527f4e6f20707269636520666565647320636f6e66696775726564000000000000006044820152606401610bde565b6005546040517fd47eed450000000000000000000000000000000000000000000000000000000081526000916001600160a01b03169063d47eed459061222a90879087906004016148c7565b602060405180830381865afa158015612247573d6000803e3d6000fd5b505050506040513d601f19601f8201168201806040525081019061226b91906149a6565b9050803410156122e35760405162461bcd60e51b815260206004820152602160248201527f496e73756666696369656e742066656520666f7220707269636520757064617460448201527f65000000000000000000000000000000000000000000000000000000000000006064820152608401610bde565b6005546040517fef9e5e280000000000000000000000000000000000000000000000000000000081526001600160a01b039091169063ef9e5e2890839061233090889088906004016148c7565b6000604051808303818588803b15801561234957600080fd5b505af115801561235d573d6000803e3d6000fd5b5050600554600b8054600095506001600160a01b0390921693506396834ad39250908a90811061238f5761238f6149bf565b90600052602060002001546040518263ffffffff1660e01b81526004016123b891815260200190565b608060405180830381865afa1580156123d5573d6000803e3d6000fd5b505050506040513d601f19601f820116820180604052508101906123f9919061481f565b8051600280546040517fd96ee754000000000000000000000000000000000000000000000000000000008152306004820152602481018d9052604481019290925292935090916001600160a01b03169063d96ee75490606401600060405180830381600087803b15801561246c57600080fd5b505af1158015612480573d6000803e3d6000fd5b5050600280546040517f852c6ae2000000000000000000000000000000000000000000000000000000008152306004820152602481018e90526044810192909252600093506001600160a01b0316915063852c6ae290606401602060405180830381865afa1580156124f6573d6000803e3d6000fd5b505050506040513d601f19601f8201168201806040525081019061251a91906149a6565b60408051600180825281830190925291925060009190602080830190803683370190505090508181600081518110612554576125546149bf565b6020026020010181815250506000600360009054906101000a90046001600160a01b03166001600160a01b0316634aeecdc7600260009054906101000a90046001600160a01b0316600460009054906101000a90046001600160a01b0316856658d15e176280008f306040518763ffffffff1660e01b81526004016125de96959493929190614c4d565b6020604051808303816000875af11580156125fd573d6000803e3d6000fd5b505050506040513d601f19601f820116820180604052508101906126219190614ca5565b60408051600280825260608201835292935060009290916020830190803683370190505090506126556002620f4240614cf1565b81600081518110612668576126686149bf565b60209081029190910101526126816002620f4240614cf1565b81600181518110612694576126946149bf565b602090810291909101015260048054600c546040517f095ea7b30000000000000000000000000000000000000000000000000000000081526001600160a01b0386811694820194909452602481019190915291169063095ea7b3906044016020604051808303816000875af1158015612711573d6000803e3d6000fd5b505050506040513d601f19601f820116820180604052508101906127359190614d2c565b50600c546040517fd5f15a460000000000000000000000000000000000000000000000000000000081526001600160a01b0384169163d5f15a469161277f91908590600401614b82565b600060405180830381600087803b15801561279957600080fd5b505af11580156127ad573d6000803e3d6000fd5b50506002546040517fa22cb4650000000000000000000000000000000000000000000000000000000081526001600160a01b03868116600483015260016024830152909116925063a22cb4659150604401600060405180830381600087803b15801561281857600080fd5b505af115801561282c573d6000803e3d6000fd5b505050506040518061010001604052804281526020018c8152602001836001600160a01b03168152602001600b6000018e8154811061286d5761286d6149bf565b906000526020600020015481526020018581526020018660070b8152602001600060070b81526020016000815250600f60008f8152602001908152602001600020600082015181600001556020820151816001015560408201518160020160006101000a8154816001600160a01b0302191690836001600160a01b03160217905550606082015181600301556080820151816004015560a08201518160050160006101000a81548167ffffffffffffffff021916908360070b67ffffffffffffffff16021790555060c08201518160050160086101000a81548167ffffffffffffffff021916908360070b67ffffffffffffffff16021790555060e0820151816006015590505042600d81905550600e8d9080600181540180825580915050600190039060005260206000200160009091909190915055600b6000018c815481106129ba576129ba6149bf565b6000918252602091829020015460408051600789900b81529283018e90526001600160a01b03851690830152908e907fdf8f087dcc3270a8dc5aae5cde3ee97bad699c27d1ee7520a2ef6a99df1748639060600160405180910390a3509a9b9a5050505050505050505050565b612a2f613c62565b336000908152601260205260408120612a4790613be4565b905080600003612a575750612cb2565b80821115612a63578091505b6000612a6e33611668565b905060008367ffffffffffffffff811115612a8b57612a8b614033565b604051908082528060200260200182016040528015612ab4578160200160208202803683370190505b5090506000805b85811015612b4857600060146000868481518110612adb57612adb6149bf565b60200260200101518152602001908152602001600020600101541115612b4057838181518110612b0d57612b0d6149bf565b6020026020010151838381518110612b2757612b276149bf565b602090810291909101015281612b3c81614d4e565b9250505b600101612abb565b5060008111612be55760405162461bcd60e51b815260206004820152604760248201527f556e61626c6520746f2072656465656d20706f736974696f6e732c207265736f60448201527f6c7574696f6e2070656e64696e672e20506c656173652074727920616761696e60648201527f206c617465722e00000000000000000000000000000000000000000000000000608482015260a401610bde565b60005b81811015612cac576000838281518110612c0457612c046149bf565b602002602001015190506000600267ffffffffffffffff811115612c2a57612c2a614033565b604051908082528060200260200182016040528015612c53578160200160208202803683370190505b509050600181600081518110612c6b57612c6b6149bf565b602002602001018181525050600281600181518110612c8c57612c8c6149bf565b602002602001018181525050612ca28282612d66565b5050600101612be8565b50505050505b612cbb60018055565b50565b60146020526000908152604090206001810154600282018054919291612ce3906149ee565b80601f0160208091040260200160405190810160405280929190818152602001828054612d0f906149ee565b8015612d5c5780601f10612d3157610100808354040283529160200191612d5c565b820191906000526020600020905b815481529060010190602001808311612d3f57829003601f168201915b5050505050905082565b6000828152600f6020908152604091829020825161010081018452815480825260018301549382019390935260028201546001600160a01b03169381019390935260038101546060840152600481015460808401526005810154600781810b60a086015268010000000000000000909104900b60c08401526006015460e0830152612e335760405162461bcd60e51b815260206004820152601060248201527f4d61726b6574206e6f7420666f756e64000000000000000000000000000000006044820152606401610bde565b604080516002808252606082018352600092602083019080368337019050509050600181600081518110612e6957612e696149bf565b602002602001018181525050600281600181518110612e8a57612e8a6149bf565b6020026020010181815250508251600214612ee75760405162461bcd60e51b815260206004820152601260248201527f496e76616c696420696e646578207365747300000000000000000000000000006044820152606401610bde565b80604051602001612ef89190614d86565b6040516020818303038152906040528051906020012083604051602001612f1f9190614d86565b6040516020818303038152906040528051906020012014612f825760405162461bcd60e51b815260206004820152601260248201527f496e76616c696420696e646578207365747300000000000000000000000000006044820152606401610bde565b6000612f8f85853361174a565b90506000805b8251811015612fcd57828181518110612fb057612fb06149bf565b602002602001015182612fc39190614dbc565b9150600101612f95565b506000811161301e5760405162461bcd60e51b815260206004820152601660248201527f4e6f20706f736974696f6e7320746f2072656465656d000000000000000000006044820152606401610bde565b60025460048054600a5460008a8152600f602052604080822085015490517f06ffc33000000000000000000000000000000000000000000000000000000000815291956001600160a01b03908116956306ffc33095613087959216939192918d91339101614dcf565b6020604051808303816000875af11580156130a6573d6000803e3d6000fd5b505050506040513d601f19601f820116820180604052508101906130ca91906149a6565b600480546040517fa9059cbb0000000000000000000000000000000000000000000000000000000081523392810192909252602482018390529192506001600160a01b039091169063a9059cbb906044016020604051808303816000875af115801561313a573d6000803e3d6000fd5b505050506040513d601f19601f8201168201806040525081019061315e9190614d2c565b50336000908152601160205260408120805483929061317e908490614dbc565b909155505033600090815260126020526040902061319c9088613ca5565b503360009081526013602052604090206131b69088613cb1565b506000878152600f60205260409081902060020154905188916001600160a01b03169033907f395d4ff727a55028c83214812df1f1008c9880acfe64bb68226bec10e2730b839061320a908b908790614e18565b60405180910390a450505050505050565b600e5460609060009067ffffffffffffffff81111561323c5761323c614033565b604051908082528060200260200182016040528015613265578160200160208202803683370190505b50905060005b600e548110156132b857600e8181548110613288576132886149bf565b90600052602060002001548282815181106132a5576132a56149bf565b602090810291909101015260010161326b565b50919050565b600e81815481106132ce57600080fd5b600091825260209091200154905081565b60008281526015602090815260408083206001600160a01b038516845290915281205460075461330f9190614e3a565b9392505050565b61331e613c62565b6006548310156133705760405162461bcd60e51b815260206004820152601460248201527f416d6f756e742062656c6f77206d696e696d756d0000000000000000000000006044820152606401610bde565b600480546040517fdd62ed3e000000000000000000000000000000000000000000000000000000008152339281019290925230602483015284916001600160a01b039091169063dd62ed3e90604401602060405180830381865afa1580156133dc573d6000803e3d6000fd5b505050506040513d601f19601f8201168201806040525081019061340091906149a6565b101561344e5760405162461bcd60e51b815260206004820152601660248201527f496e73756666696369656e7420616c6c6f77616e6365000000000000000000006044820152606401610bde565b600480546040517f70a08231000000000000000000000000000000000000000000000000000000008152339281019290925284916001600160a01b03909116906370a0823190602401602060405180830381865afa1580156134b4573d6000803e3d6000fd5b505050506040513d601f19601f820116820180604052508101906134d891906149a6565b10156135265760405162461bcd60e51b815260206004820152601460248201527f496e73756666696369656e742062616c616e63650000000000000000000000006044820152606401610bde565b60008581526015602090815260408083206001600160a01b03851684529091529020546007546135568583614dbc565b11156135ca5760405162461bcd60e51b815260206004820152602e60248201527f416d6f756e742065786365656473206d6178696d756d2062757920616d6f756e60448201527f7420706572207175657374696f6e0000000000000000000000000000000000006064820152608401610bde565b600480546040517f23b872dd0000000000000000000000000000000000000000000000000000000081523392810192909252306024830152604482018690526001600160a01b0316906323b872dd906064016020604051808303816000875af115801561363b573d6000803e3d6000fd5b505050506040513d601f19601f8201168201806040525081019061365f9190614d2c565b5061366a8482614dbc565b60008781526015602090815260408083206001600160a01b03808816855290835281842094909455898352600f90915290206002015416806136ee5760405162461bcd60e51b815260206004820152601060248201527f4d61726b6574206e6f7420666f756e64000000000000000000000000000000006044820152606401610bde565b600480546040517f095ea7b30000000000000000000000000000000000000000000000000000000081526001600160a01b03848116938201939093526024810188905291169063095ea7b3906044016020604051808303816000875af115801561375c573d6000803e3d6000fd5b505050506040513d601f19601f820116820180604052508101906137809190614d2c565b506040517f80a08f470000000000000000000000000000000000000000000000000000000081526004810186905260248101879052604481018590526001600160a01b03848116606483015282916000918316906380a08f47906084016020604051808303816000875af11580156137fc573d6000803e3d6000fd5b505050506040513d601f19601f8201168201806040525081019061382091906149a6565b6001600160a01b03861660009081526010602052604081208054929350899290919061384d908490614dbc565b90915550506001600160a01b0385166000908152601260205260409020613874908a613cb1565b5088836001600160a01b0316866001600160a01b03167f822019266ceea4910d00991f74bb1f8c1411d9ca7724fb43ed5500533c38bc598a866001600160a01b031663ddca3f436040518163ffffffff1660e01b8152600401602060405180830381865afa1580156138ea573d6000803e3d6000fd5b505050506040513d601f19601f8201168201806040525081019061390e91906149a6565b60408051928352602083019190915281018d90526060810186905260800160405180910390a45050505061394160018055565b5050505050565b613950613b9e565b600480546040517f70a0823100000000000000000000000000000000000000000000000000000000815230928101929092526000916001600160a01b03909116906370a0823190602401602060405180830381865afa1580156139b7573d6000803e3d6000fd5b505050506040513d601f19601f820116820180604052508101906139db91906149a6565b600480546040517fa9059cbb0000000000000000000000000000000000000000000000000000000081523392810192909252602482018390529192506001600160a01b039091169063a9059cbb906044016020604051808303816000875af1158015613a4b573d6000803e3d6000fd5b505050506040513d601f19601f8201168201806040525081019061212a9190614d2c565b6001600160a01b038116600090815260136020526040812060609190613a9490613be4565b67ffffffffffffffff811115613aac57613aac614033565b604051908082528060200260200182016040528015613ad5578160200160208202803683370190505b50905060005b6001600160a01b0384166000908152601360205260409020613afc90613be4565b811015611743576001600160a01b0384166000908152601360205260409020613b259082613bee565b828281518110613b3757613b376149bf565b6020908102919091010152600101613adb565b613b52613b9e565b6001600160a01b038116613b95576040517f1e4fbdf700000000000000000000000000000000000000000000000000000000815260006004820152602401610bde565b612cbb81613bfa565b6000546001600160a01b0316331461201b576040517f118cdaa7000000000000000000000000000000000000000000000000000000008152336004820152602401610bde565b6000610a71825490565b600061330f8383613cbd565b600080546001600160a01b038381167fffffffffffffffffffffffff0000000000000000000000000000000000000000831681178455604051919092169283917f8be0079c531659141344cd1fd0a4f28419497f9722a3daafe3b4186f6b6457e09190a35050565b600260015403613c9e576040517f3ee5aeb500000000000000000000000000000000000000000000000000000000815260040160405180910390fd5b6002600155565b600061330f8383613ce7565b600061330f8383613dda565b6000826000018281548110613cd457613cd46149bf565b9060005260206000200154905092915050565b60008181526001830160205260408120548015613dd0576000613d0b600183614e3a565b8554909150600090613d1f90600190614e3a565b9050808214613d84576000866000018281548110613d3f57613d3f6149bf565b9060005260206000200154905080876000018481548110613d6257613d626149bf565b6000918252602080832090910192909255918252600188019052604090208390555b8554869080613d9557613d95614e4d565b600190038181906000526020600020016000905590558560010160008681526020019081526020016000206000905560019350505050610a71565b6000915050610a71565b6000818152600183016020526040812054613e2157508154600181810184556000848152602080822090930184905584548482528286019093526040902091909155610a71565b506000610a71565b828054828255906000526020600020908101928215613e64579160200282015b82811115613e64578251825591602001919060010190613e49565b50613e70929150613f06565b5090565b604080516101a08101909152600060a0820181815260c0830182905260e08301829052610100830182905261012083018290526101408301829052610160830182905261018083019190915281908152602001613eeb60405180606001604052806060815260200160008152602001606081525090565b81526020016000815260200160608152602001606081525090565b5b80821115613e705760008155600101613f07565b600060208284031215613f2d57600080fd5b81357fffffffff000000000000000000000000000000000000000000000000000000008116811461330f57600080fd5b6001600160a01b0381168114612cbb57600080fd5b60008060008060808587031215613f8857600080fd5b8435613f9381613f5d565b93506020850135613fa381613f5d565b92506040850135613fb381613f5d565b91506060850135613fc381613f5d565b939692955090935050565b600060208284031215613fe057600080fd5b5035919050565b60008083601f840112613ff957600080fd5b50813567ffffffffffffffff81111561401157600080fd5b6020830191508360208260051b850101111561402c57600080fd5b9250929050565b7f4e487b7100000000000000000000000000000000000000000000000000000000600052604160045260246000fd5b6040516080810167ffffffffffffffff8111828210171561408557614085614033565b60405290565b604051601f8201601f1916810167ffffffffffffffff811182821017156140b4576140b4614033565b604052919050565b60008067ffffffffffffffff8411156140d7576140d7614033565b50601f8301601f19166020016140ec8161408b565b91505082815283838301111561410157600080fd5b828260208301376000602084830101529392505050565b6000806000806060858703121561412e57600080fd5b84359350602085013567ffffffffffffffff81111561414c57600080fd5b61415887828801613fe7565b909450925050604085013567ffffffffffffffff81111561417857600080fd5b8501601f8101871361418957600080fd5b614198878235602084016140bc565b91505092959194509250565b600080604083850312156141b757600080fd5b8235915060208301356141c981613f5d565b809150509250929050565b600081518084526020840193506020830160005b828110156142065781518652602095860195909101906001016141e8565b5093949350505050565b6000815180845260005b818110156142365760208185018101518683018201520161421a565b506000602082860101526020601f19601f83011685010191505092915050565b600081516060845261426b60608501826141d4565b9050602083015160208501526040830151848203604086015261428e8282614210565b95945050505050565b6020815261430160208201835180518252602081015160208301526001600160a01b036040820151166040830152606081015160608301526080810151608083015260a081015160070b60a083015260c081015160070b60c083015260e081015160e08301525050565b6000602083015161018061012084015261431f6101a0840182614256565b905060408401516101408401526060840151601f198483030161016085015261434882826141d4565b9150506080840151601f198483030161018085015261428e82826141d4565b60006020828403121561437957600080fd5b813561330f81613f5d565b60208152600061330f60208301846141d4565b600067ffffffffffffffff8211156143b1576143b1614033565b5060051b60200190565b600082601f8301126143cc57600080fd5b81356143df6143da82614397565b61408b565b8082825260208201915060208360051b86010192508583111561440157600080fd5b602085015b8381101561441e578035835260209283019201614406565b5095945050505050565b60008060006060848603121561443d57600080fd5b83359250602084013567ffffffffffffffff81111561445b57600080fd5b614467868287016143bb565b925050604084013561447881613f5d565b809150509250925092565b60208152600082516040602084015261449f60608401826141d4565b9050602084015160408401528091505092915050565b614517818a80518252602081015160208301526001600160a01b036040820151166040830152606081015160608301526080810151608083015260a081015160070b60a083015260c081015160070b60c083015260e081015160e08301525050565b6101e061010082015260006145306101e083018a614256565b8861012084015282810361014084015261454a81896141d4565b905082810361016084015261455f81886141d4565b95151561018084015250509115156101a083015260070b6101c09091015295945050505050565b60008060006040848603121561459b57600080fd5b833567ffffffffffffffff8111156145b257600080fd5b6145be86828701613fe7565b909790965060209590950135949350505050565b6000806000806000608086880312156145ea57600080fd5b853594506020860135935060408601359250606086013567ffffffffffffffff81111561461657600080fd5b61462288828901613fe7565b969995985093965092949392505050565b82815260406020820152600061464c6040830184614210565b949350505050565b6000806040838503121561466757600080fd5b82359150602083013567ffffffffffffffff81111561468557600080fd5b614691858286016143bb565b9150509250929050565b600082601f8301126146ac57600080fd5b61330f838335602085016140bc565b600080600080600060a086880312156146d357600080fd5b85356146de81613f5d565b945060208601356146ee81613f5d565b9350604086013567ffffffffffffffff81111561470a57600080fd5b614716888289016143bb565b935050606086013567ffffffffffffffff81111561473357600080fd5b61473f888289016143bb565b925050608086013567ffffffffffffffff81111561475c57600080fd5b6147688882890161469b565b9150509295509295909350565b600080600080600060a0868803121561478d57600080fd5b8535945060208601359350604086013592506060860135915060808601356147b481613f5d565b809150509295509295909350565b600080600080600060a086880312156147da57600080fd5b85356147e581613f5d565b945060208601356147f581613f5d565b93506040860135925060608601359150608086013567ffffffffffffffff81111561475c57600080fd5b6000608082840312801561483257600080fd5b50600061483d614062565b83518060070b811461484d578283fd5b8152602084015167ffffffffffffffff81168114614869578283fd5b60208201526040840151600381900b8114614882578283fd5b604082015260609384015193810193909352509092915050565b818352818160208501375060006020828401015260006020601f19601f840116840101905092915050565b6020808252810182905260006040600584901b8301810190830185837fffffffffffffffffffffffffffffffffffffffffffffffffffffffffffffffe136839003015b87821015614999577fffffffffffffffffffffffffffffffffffffffffffffffffffffffffffffffc0878603018452823581811261494757600080fd5b890160208101903567ffffffffffffffff81111561496457600080fd5b80360382131561497357600080fd5b61497e87828461489c565b9650505060208301925060208401935060018201915061490a565b5092979650505050505050565b6000602082840312156149b857600080fd5b5051919050565b7f4e487b7100000000000000000000000000000000000000000000000000000000600052603260045260246000fd5b600181811c90821680614a0257607f821691505b6020821081036132b8577f4e487b7100000000000000000000000000000000000000000000000000000000600052602260045260246000fd5b601f821115614a8257806000526020600020601f840160051c81016020851015614a625750805b601f840160051c820191505b818110156139415760008155600101614a6e565b505050565b815167ffffffffffffffff811115614aa157614aa1614033565b614ab581614aaf84546149ee565b84614a3b565b6020601f821160018114614b075760008315614ad15750848201515b7fffffffffffffffffffffffffffffffffffffffffffffffffffffffffffffffff600385901b1c1916600184901b178455613941565b600084815260208120601f198516915b82811015614b375787850151825560209485019460019092019101614b17565b5084821015614b7357868401517fffffffffffffffffffffffffffffffffffffffffffffffffffffffffffffffff600387901b60f8161c191681555b50505050600190811b01905550565b82815260406020820152600061464c60408301846141d4565b8260070b815260406020820152600061464c60408301846141d4565b600060208284031215614bc957600080fd5b815167ffffffffffffffff811115614be057600080fd5b8201601f81018413614bf157600080fd5b8051614bff6143da82614397565b8082825260208201915060208360051b850101925086831115614c2157600080fd5b6020840193505b82841015614c43578351825260209384019390910190614c28565b9695505050505050565b6001600160a01b03871681526001600160a01b038616602082015260c060408201526000614c7e60c08301876141d4565b60608301959095525060808101929092526001600160a01b031660a0909101529392505050565b600060208284031215614cb757600080fd5b815161330f81613f5d565b7f4e487b7100000000000000000000000000000000000000000000000000000000600052601160045260246000fd5b600082614d27577f4e487b7100000000000000000000000000000000000000000000000000000000600052601260045260246000fd5b500490565b600060208284031215614d3e57600080fd5b8151801515811461330f57600080fd5b60007fffffffffffffffffffffffffffffffffffffffffffffffffffffffffffffffff8203614d7f57614d7f614cc2565b5060010190565b8151600090829060208501835b82811015614db1578151845260209384019390910190600101614d93565b509195945050505050565b80820180821115610a7157610a71614cc2565b6001600160a01b038616815284602082015283604082015260a060608201526000614dfd60a08301856141d4565b90506001600160a01b03831660808301529695505050505050565b604081526000614e2b60408301856141d4565b90508260208301529392505050565b81810381811115610a7157610a71614cc2565b7f4e487b7100000000000000000000000000000000000000000000000000000000600052603160045260246000fdfea264697066735822122058ffd6a23fcdeb7e143cbeb9dbb8bd2cceb1be3b0e4d4f96f6966f6cb12a21bc64736f6c634300081c0033",
  "linkReferences": {},
  "deployedLinkReferences": {}
}