{
  "_format": "hh-sol-artifact-1",
  "contractName": "SimplePredictionsOracle",
  "sourceName": "contracts/SimplePredictionsOracle.sol",
  "abi": [
    {
      "inputs": [
        {
          "internalType": "address",
          "name": "_conditionalTokens",
          "type": "address"
        },
        {
          "internalType": "address",
          "name": "_FPMMFactory",
          "type": "address"
        },
        {
          "internalType": "address",
          "name": "_collateralToken",
          "type": "address"
        },
        {
          "internalType": "address",
          "name": "_pythOracle",
          "type": "address"
        }
      ],
      "stateMutability": "nonpayable",
      "type": "constructor"
    },
    {
      "inputs": [
        {
          "internalType": "address",
          "name": "owner",
          "type": "address"
        }
      ],
      "name": "OwnableInvalidOwner",
      "type": "error"
    },
    {
      "inputs": [
        {
          "internalType": "address",
          "name": "account",
          "type": "address"
        }
      ],
      "name": "OwnableUnauthorizedAccount",
      "type": "error"
    },
    {
      "inputs": [],
      "name": "ReentrancyGuardReentrantCall",
      "type": "error"
    },
    {
      "anonymous": false,
      "inputs": [
        {
          "indexed": true,
          "internalType": "address",
          "name": "wallet",
          "type": "address"
        },
        {
          "indexed": true,
          "internalType": "address",
          "name": "fpmmAddress",
          "type": "address"
        },
        {
          "indexed": true,
          "internalType": "bytes32",
          "name": "questionId",
          "type": "bytes32"
        },
        {
          "indexed": false,
          "internalType": "uint256",
          "name": "investmentAmount",
          "type": "uint256"
        },
        {
          "indexed": false,
          "internalType": "uint256",
          "name": "feeAmount",
          "type": "uint256"
        },
        {
          "indexed": false,
          "internalType": "uint256",
          "name": "outcomeIndex",
          "type": "uint256"
        },
        {
          "indexed": false,
          "internalType": "uint256",
          "name": "outcomeTokensBought",
          "type": "uint256"
        }
      ],
      "name": "BuyPosition",
      "type": "event"
    },
    {
      "anonymous": false,
      "inputs": [
        {
          "indexed": true,
          "internalType": "bytes32",
          "name": "questionId",
          "type": "bytes32"
        },
        {
          "indexed": true,
          "internalType": "bytes32",
          "name": "priceId",
          "type": "bytes32"
        },
        {
          "indexed": false,
          "internalType": "int64",
          "name": "initialPrice",
          "type": "int64"
        },
        {
          "indexed": false,
          "internalType": "uint256",
          "name": "endTimestamp",
          "type": "uint256"
        },
        {
          "indexed": false,
          "internalType": "address",
          "name": "fpmmAddress",
          "type": "address"
        }
      ],
      "name": "MarketCreated",
      "type": "event"
    },
    {
      "anonymous": false,
      "inputs": [
        {
          "indexed": true,
          "internalType": "bytes32",
          "name": "questionId",
          "type": "bytes32"
        },
        {
          "indexed": false,
          "internalType": "int64",
          "name": "finalPrice",
          "type": "int64"
        },
        {
          "indexed": false,
          "internalType": "uint256[]",
          "name": "payouts",
          "type": "uint256[]"
        }
      ],
      "name": "MarketResolved",
      "type": "event"
    },
    {
      "anonymous": false,
      "inputs": [
        {
          "indexed": true,
          "internalType": "address",
          "name": "previousOwner",
          "type": "address"
        },
        {
          "indexed": true,
          "internalType": "address",
          "name": "newOwner",
          "type": "address"
        }
      ],
      "name": "OwnershipTransferred",
      "type": "event"
    },
    {
      "anonymous": false,
      "inputs": [
        {
          "indexed": true,
          "internalType": "address",
          "name": "wallet",
          "type": "address"
        },
        {
          "indexed": true,
          "internalType": "address",
          "name": "fpmmAddress",
          "type": "address"
        },
        {
          "indexed": true,
          "internalType": "bytes32",
          "name": "questionId",
          "type": "bytes32"
        },
        {
          "indexed": false,
          "internalType": "uint256[]",
          "name": "indexSets",
          "type": "uint256[]"
        },
        {
          "indexed": false,
          "internalType": "uint256",
          "name": "totalPayout",
          "type": "uint256"
        }
      ],
      "name": "RedeemPosition",
      "type": "event"
    },
    {
      "inputs": [],
      "name": "FPMMFactory",
      "outputs": [
        {
          "internalType": "contract IFactory",
          "name": "",
          "type": "address"
        }
      ],
      "stateMutability": "view",
      "type": "function"
    },
    {
      "inputs": [
        {
          "internalType": "uint256",
          "name": "",
          "type": "uint256"
        }
      ],
      "name": "activeMarketIds",
      "outputs": [
        {
          "internalType": "bytes32",
          "name": "",
          "type": "bytes32"
        }
      ],
      "stateMutability": "view",
      "type": "function"
    },
    {
      "inputs": [
        {
          "internalType": "bytes32",
          "name": "",
          "type": "bytes32"
        }
      ],
      "name": "answers",
      "outputs": [
        {
          "internalType": "uint256",
          "name": "answerTimestamp",
          "type": "uint256"
        },
        {
          "internalType": "string",
          "name": "answerCid",
          "type": "string"
        }
      ],
      "stateMutability": "view",
      "type": "function"
    },
    {
      "inputs": [
        {
          "internalType": "bytes32",
          "name": "questionId",
          "type": "bytes32"
        },
        {
          "internalType": "uint256",
          "name": "outcomeIndex",
          "type": "uint256"
        },
        {
          "internalType": "uint256",
          "name": "amount",
          "type": "uint256"
        },
        {
          "internalType": "uint256",
          "name": "minOutcomeTokensToBuy",
          "type": "uint256"
        },
        {
          "internalType": "address",
          "name": "conditionTokensReceiver",
          "type": "address"
        }
      ],
      "name": "buyPosition",
      "outputs": [],
      "stateMutability": "nonpayable",
      "type": "function"
    },
    {
      "inputs": [],
      "name": "collateralToken",
      "outputs": [
        {
          "internalType": "contract Token",
          "name": "",
          "type": "address"
        }
      ],
      "stateMutability": "view",
      "type": "function"
    },
    {
      "inputs": [],
      "name": "conditionalTokens",
      "outputs": [
        {
          "internalType": "contract ConditionalTokens",
          "name": "",
          "type": "address"
        }
      ],
      "stateMutability": "view",
      "type": "function"
    },
    {
      "inputs": [
        {
          "internalType": "bytes32[]",
          "name": "_priceIds",
          "type": "bytes32[]"
        },
        {
          "internalType": "uint256",
          "name": "_initialFunding",
          "type": "uint256"
        }
      ],
      "name": "configureMarkets",
      "outputs": [],
      "stateMutability": "nonpayable",
      "type": "function"
    },
    {
      "inputs": [
        {
          "internalType": "bytes32",
          "name": "questionId",
          "type": "bytes32"
        },
        {
          "internalType": "uint256",
          "name": "randomIndex",
          "type": "uint256"
        },
        {
          "internalType": "uint256",
          "name": "marketEndTimestamp",
          "type": "uint256"
        },
        {
          "internalType": "bytes[]",
          "name": "priceUpdateData",
          "type": "bytes[]"
        }
      ],
      "name": "createMarket",
      "outputs": [
        {
          "internalType": "bytes32",
          "name": "",
          "type": "bytes32"
        }
      ],
      "stateMutability": "payable",
      "type": "function"
    },
    {
      "inputs": [],
      "name": "emergencyWithdraw",
      "outputs": [],
      "stateMutability": "nonpayable",
      "type": "function"
    },
    {
      "inputs": [],
      "name": "emergencyWithdrawETH",
      "outputs": [],
      "stateMutability": "nonpayable",
      "type": "function"
    },
    {
      "inputs": [
        {
          "internalType": "bytes32",
          "name": "priceId",
          "type": "bytes32"
        }
      ],
      "name": "getCurrentPrice",
      "outputs": [
        {
          "components": [
            {
              "internalType": "int64",
              "name": "price",
              "type": "int64"
            },
            {
              "internalType": "uint64",
              "name": "conf",
              "type": "uint64"
            },
            {
              "internalType": "int32",
              "name": "expo",
              "type": "int32"
            },
            {
              "internalType": "uint256",
              "name": "publishTime",
              "type": "uint256"
            }
          ],
          "internalType": "struct PythStructs.Price",
          "name": "",
          "type": "tuple"
        }
      ],
      "stateMutability": "view",
      "type": "function"
    },
    {
      "inputs": [
        {
          "internalType": "bytes32",
          "name": "questionId",
          "type": "bytes32"
        }
      ],
      "name": "getDetailedMarketData",
      "outputs": [
        {
          "components": [
            {
              "internalType": "uint256",
              "name": "beginTimestamp",
              "type": "uint256"
            },
            {
              "internalType": "uint256",
              "name": "endTimestamp",
              "type": "uint256"
            },
            {
              "internalType": "address",
              "name": "fpmm",
              "type": "address"
            },
            {
              "internalType": "bytes32",
              "name": "priceFeedId",
              "type": "bytes32"
            },
            {
              "internalType": "bytes32",
              "name": "conditionId",
              "type": "bytes32"
            },
            {
              "internalType": "int64",
              "name": "initialPrice",
              "type": "int64"
            },
            {
              "internalType": "int64",
              "name": "finalPrice",
              "type": "int64"
            },
            {
              "internalType": "uint256",
              "name": "finalPriceTimestamp",
              "type": "uint256"
            }
          ],
          "internalType": "struct SimplePredictionsOracle.QuestionData",
          "name": "questionData",
          "type": "tuple"
        },
        {
          "components": [
            {
              "internalType": "uint256[]",
              "name": "payouts",
              "type": "uint256[]"
            },
            {
              "internalType": "uint256",
              "name": "answerTimestamp",
              "type": "uint256"
            },
            {
              "internalType": "string",
              "name": "answerCid",
              "type": "string"
            }
          ],
          "internalType": "struct SimplePredictionsOracle.AnswerData",
          "name": "answerData",
          "type": "tuple"
        },
        {
          "internalType": "uint256",
          "name": "uniqueBuys",
          "type": "uint256"
        },
        {
          "internalType": "uint256[]",
          "name": "probabilities",
          "type": "uint256[]"
        },
        {
          "internalType": "uint256[]",
          "name": "buyAmounts",
          "type": "uint256[]"
        },
        {
          "internalType": "bool",
          "name": "isResolved",
          "type": "bool"
        },
        {
          "internalType": "bool",
          "name": "hasExpired",
          "type": "bool"
        },
        {
          "internalType": "int64",
          "name": "currentPrice",
          "type": "int64"
        }
      ],
      "stateMutability": "view",
      "type": "function"
    },
    {
      "inputs": [],
      "name": "getMarketConfig",
      "outputs": [
        {
          "components": [
            {
              "internalType": "bytes32[]",
              "name": "priceIds",
              "type": "bytes32[]"
            },
            {
              "internalType": "uint256",
              "name": "initialFunding",
              "type": "uint256"
            }
          ],
          "internalType": "struct SimplePredictionsOracle.MarketConfig",
          "name": "",
          "type": "tuple"
        }
      ],
      "stateMutability": "view",
      "type": "function"
    },
    {
      "inputs": [
        {
          "internalType": "bytes32",
          "name": "questionId",
          "type": "bytes32"
        }
      ],
      "name": "getMarketData",
      "outputs": [
        {
          "components": [
            {
              "components": [
                {
                  "internalType": "uint256",
                  "name": "beginTimestamp",
                  "type": "uint256"
                },
                {
                  "internalType": "uint256",
                  "name": "endTimestamp",
                  "type": "uint256"
                },
                {
                  "internalType": "address",
                  "name": "fpmm",
                  "type": "address"
                },
                {
                  "internalType": "bytes32",
                  "name": "priceFeedId",
                  "type": "bytes32"
                },
                {
                  "internalType": "bytes32",
                  "name": "conditionId",
                  "type": "bytes32"
                },
                {
                  "internalType": "int64",
                  "name": "initialPrice",
                  "type": "int64"
                },
                {
                  "internalType": "int64",
                  "name": "finalPrice",
                  "type": "int64"
                },
                {
                  "internalType": "uint256",
                  "name": "finalPriceTimestamp",
                  "type": "uint256"
                }
              ],
              "internalType": "struct SimplePredictionsOracle.QuestionData",
              "name": "questionData",
              "type": "tuple"
            },
            {
              "components": [
                {
                  "internalType": "uint256[]",
                  "name": "payouts",
                  "type": "uint256[]"
                },
                {
                  "internalType": "uint256",
                  "name": "answerTimestamp",
                  "type": "uint256"
                },
                {
                  "internalType": "string",
                  "name": "answerCid",
                  "type": "string"
                }
              ],
              "internalType": "struct SimplePredictionsOracle.AnswerData",
              "name": "answerData",
              "type": "tuple"
            },
            {
              "internalType": "uint256",
              "name": "uniqueBuys",
              "type": "uint256"
            },
            {
              "internalType": "uint256[]",
              "name": "probabilities",
              "type": "uint256[]"
            },
            {
              "internalType": "uint256[]",
              "name": "buyAmounts",
              "type": "uint256[]"
            }
          ],
          "internalType": "struct SimplePredictionsOracle.MarketData",
          "name": "",
          "type": "tuple"
        }
      ],
      "stateMutability": "view",
      "type": "function"
    },
    {
      "inputs": [
        {
          "internalType": "bytes32",
          "name": "questionId",
          "type": "bytes32"
        },
        {
          "internalType": "uint256[]",
          "name": "indexSets",
          "type": "uint256[]"
        },
        {
          "internalType": "address",
          "name": "holder",
          "type": "address"
        }
      ],
      "name": "getPositionBalances",
      "outputs": [
        {
          "internalType": "uint256[]",
          "name": "balances",
          "type": "uint256[]"
        }
      ],
      "stateMutability": "view",
      "type": "function"
    },
    {
      "inputs": [
        {
          "internalType": "bytes32",
          "name": "questionId",
          "type": "bytes32"
        },
        {
          "internalType": "address",
          "name": "spender",
          "type": "address"
        }
      ],
      "name": "getRemainingBuyAmount",
      "outputs": [
        {
          "internalType": "uint256",
          "name": "",
          "type": "uint256"
        }
      ],
      "stateMutability": "view",
      "type": "function"
    },
    {
      "inputs": [
        {
          "internalType": "address",
          "name": "user",
          "type": "address"
        }
      ],
      "name": "getUserClosedPositions",
      "outputs": [
        {
          "internalType": "bytes32[]",
          "name": "",
          "type": "bytes32[]"
        }
      ],
      "stateMutability": "view",
      "type": "function"
    },
    {
      "inputs": [
        {
          "internalType": "address",
          "name": "user",
          "type": "address"
        }
      ],
      "name": "getUserOpenPositions",
      "outputs": [
        {
          "internalType": "bytes32[]",
          "name": "",
          "type": "bytes32[]"
        }
      ],
      "stateMutability": "view",
      "type": "function"
    },
    {
      "inputs": [],
      "name": "lastMarketTime",
      "outputs": [
        {
          "internalType": "uint256",
          "name": "",
          "type": "uint256"
        }
      ],
      "stateMutability": "view",
      "type": "function"
    },
    {
      "inputs": [],
      "name": "marketConfig",
      "outputs": [
        {
          "internalType": "uint256",
          "name": "initialFunding",
          "type": "uint256"
        }
      ],
      "stateMutability": "view",
      "type": "function"
    },
    {
      "inputs": [],
      "name": "maxBuyAmountPerQuestion",
      "outputs": [
        {
          "internalType": "uint256",
          "name": "",
          "type": "uint256"
        }
      ],
      "stateMutability": "view",
      "type": "function"
    },
    {
      "inputs": [],
      "name": "minBuyAmount",
      "outputs": [
        {
          "internalType": "uint256",
          "name": "",
          "type": "uint256"
        }
      ],
      "stateMutability": "view",
      "type": "function"
    },
    {
      "inputs": [
        {
          "internalType": "address",
          "name": "",
          "type": "address"
        },
        {
          "internalType": "address",
          "name": "",
          "type": "address"
        },
        {
          "internalType": "uint256[]",
          "name": "",
          "type": "uint256[]"
        },
        {
          "internalType": "uint256[]",
          "name": "",
          "type": "uint256[]"
        },
        {
          "internalType": "bytes",
          "name": "",
          "type": "bytes"
        }
      ],
      "name": "onERC1155BatchReceived",
      "outputs": [
        {
          "internalType": "bytes4",
          "name": "",
          "type": "bytes4"
        }
      ],
      "stateMutability": "nonpayable",
      "type": "function"
    },
    {
      "inputs": [
        {
          "internalType": "address",
          "name": "",
          "type": "address"
        },
        {
          "internalType": "address",
          "name": "",
          "type": "address"
        },
        {
          "internalType": "uint256",
          "name": "",
          "type": "uint256"
        },
        {
          "internalType": "uint256",
          "name": "",
          "type": "uint256"
        },
        {
          "internalType": "bytes",
          "name": "",
          "type": "bytes"
        }
      ],
      "name": "onERC1155Received",
      "outputs": [
        {
          "internalType": "bytes4",
          "name": "",
          "type": "bytes4"
        }
      ],
      "stateMutability": "nonpayable",
      "type": "function"
    },
    {
      "inputs": [],
      "name": "owner",
      "outputs": [
        {
          "internalType": "address",
          "name": "",
          "type": "address"
        }
      ],
      "stateMutability": "view",
      "type": "function"
    },
    {
      "inputs": [],
      "name": "pythOracle",
      "outputs": [
        {
          "internalType": "contract IPyth",
          "name": "",
          "type": "address"
        }
      ],
      "stateMutability": "view",
      "type": "function"
    },
    {
      "inputs": [
        {
          "internalType": "bytes32",
          "name": "",
          "type": "bytes32"
        }
      ],
      "name": "questions",
      "outputs": [
        {
          "internalType": "uint256",
          "name": "beginTimestamp",
          "type": "uint256"
        },
        {
          "internalType": "uint256",
          "name": "endTimestamp",
          "type": "uint256"
        },
        {
          "internalType": "address",
          "name": "fpmm",
          "type": "address"
        },
        {
          "internalType": "bytes32",
          "name": "priceFeedId",
          "type": "bytes32"
        },
        {
          "internalType": "bytes32",
          "name": "conditionId",
          "type": "bytes32"
        },
        {
          "internalType": "int64",
          "name": "initialPrice",
          "type": "int64"
        },
        {
          "internalType": "int64",
          "name": "finalPrice",
          "type": "int64"
        },
        {
          "internalType": "uint256",
          "name": "finalPriceTimestamp",
          "type": "uint256"
        }
      ],
      "stateMutability": "view",
      "type": "function"
    },
    {
      "inputs": [
        {
          "internalType": "bytes32",
          "name": "questionId",
          "type": "bytes32"
        },
        {
          "internalType": "uint256[]",
          "name": "indexSets",
          "type": "uint256[]"
        }
      ],
      "name": "redeemPosition",
      "outputs": [],
      "stateMutability": "nonpayable",
      "type": "function"
    },
    {
      "inputs": [
        {
          "internalType": "uint256",
          "name": "num",
          "type": "uint256"
        }
      ],
      "name": "redeemPositions",
      "outputs": [],
      "stateMutability": "nonpayable",
      "type": "function"
    },
    {
      "inputs": [],
      "name": "renounceOwnership",
      "outputs": [],
      "stateMutability": "nonpayable",
      "type": "function"
    },
    {
      "inputs": [
        {
          "internalType": "bytes32",
          "name": "questionId",
          "type": "bytes32"
        },
        {
          "internalType": "bytes[]",
          "name": "priceUpdateData",
          "type": "bytes[]"
        },
        {
          "internalType": "string",
          "name": "answerCid",
          "type": "string"
        }
      ],
      "name": "resolveMarket",
      "outputs": [],
      "stateMutability": "payable",
      "type": "function"
    },
    {
      "inputs": [],
      "name": "sellEnabled",
      "outputs": [
        {
          "internalType": "bool",
          "name": "",
          "type": "bool"
        }
      ],
      "stateMutability": "view",
      "type": "function"
    },
    {
      "inputs": [],
      "name": "stopTradingBeforeMarketEnd",
      "outputs": [
        {
          "internalType": "uint256",
          "name": "",
          "type": "uint256"
        }
      ],
      "stateMutability": "view",
      "type": "function"
    },
    {
      "inputs": [
        {
          "internalType": "bytes4",
          "name": "interfaceId",
          "type": "bytes4"
        }
      ],
      "name": "supportsInterface",
      "outputs": [
        {
          "internalType": "bool",
          "name": "",
          "type": "bool"
        }
      ],
      "stateMutability": "view",
      "type": "function"
    },
    {
      "inputs": [
        {
          "internalType": "address",
          "name": "newOwner",
          "type": "address"
        }
      ],
      "name": "transferOwnership",
      "outputs": [],
      "stateMutability": "nonpayable",
      "type": "function"
    },
    {
      "inputs": [
        {
          "internalType": "address",
          "name": "_conditionalTokens",
          "type": "address"
        },
        {
          "internalType": "address",
          "name": "_FPMMFactory",
          "type": "address"
        },
        {
          "internalType": "address",
          "name": "_collateralToken",
          "type": "address"
        },
        {
          "internalType": "address",
          "name": "_pythOracle",
          "type": "address"
        }
      ],
      "name": "updateContracts",
      "outputs": [],
      "stateMutability": "nonpayable",
      "type": "function"
    },
    {
      "inputs": [
        {
          "internalType": "uint256",
          "name": "_maxBuyAmountPerQuestion",
          "type": "uint256"
        }
      ],
      "name": "updateMaxBuyAmountPerQuestion",
      "outputs": [],
      "stateMutability": "nonpayable",
      "type": "function"
    },
    {
      "inputs": [
        {
          "internalType": "uint256",
          "name": "_minBuyAmount",
          "type": "uint256"
        }
      ],
      "name": "updateMinBuyAmount",
      "outputs": [],
      "stateMutability": "nonpayable",
      "type": "function"
    },
    {
      "inputs": [
        {
          "internalType": "uint256",
          "name": "_stopTradingBeforeMarketEnd",
          "type": "uint256"
        }
      ],
      "name": "updateStopTradingBeforeMarketEnd",
      "outputs": [],
      "stateMutability": "nonpayable",
      "type": "function"
    },
    {
      "inputs": [
        {
          "internalType": "bytes32",
          "name": "",
          "type": "bytes32"
        },
        {
          "internalType": "address",
          "name": "",
          "type": "address"
        }
      ],
      "name": "userBuyAmounts",
      "outputs": [
        {
          "internalType": "uint256",
          "name": "",
          "type": "uint256"
        }
      ],
      "stateMutability": "view",
      "type": "function"
    },
    {
      "inputs": [
        {
          "internalType": "address",
          "name": "",
          "type": "address"
        }
      ],
      "name": "userRedeemed",
      "outputs": [
        {
          "internalType": "uint256",
          "name": "",
          "type": "uint256"
        }
      ],
      "stateMutability": "view",
      "type": "function"
    },
    {
      "inputs": [
        {
          "internalType": "address",
          "name": "",
          "type": "address"
        }
      ],
      "name": "userSpendings",
      "outputs": [
        {
          "internalType": "uint256",
          "name": "",
          "type": "uint256"
        }
      ],
      "stateMutability": "view",
      "type": "function"
    },
    {
      "stateMutability": "payable",
      "type": "receive"
    }
  ],
  "bytecode": "0x6080604052670de0b6b3a7640000600655683635c9adc5dea0000060075561012c6008556009805460ff1916905534801561003957600080fd5b50604051614ffe380380614ffe83398101604081905261005891610150565b338061007e57604051631e4fbdf760e01b81526000600482015260240160405180910390fd5b610087816100e4565b5060018055600280546001600160a01b039586166001600160a01b03199182161790915560038054948616948216949094179093556004805492851692841692909217909155600580549190931691161790556000600a556101a4565b600080546001600160a01b038381166001600160a01b0319831681178455604051919092169283917f8be0079c531659141344cd1fd0a4f28419497f9722a3daafe3b4186f6b6457e09190a35050565b80516001600160a01b038116811461014b57600080fd5b919050565b6000806000806080858703121561016657600080fd5b61016f85610134565b935061017d60208601610134565b925061018b60408601610134565b915061019960608601610134565b905092959194509250565b614e4b806101b36000396000f3fe6080604052600436106102d55760003560e01c80638da5cb5b11610179578063c9a8c2a3116100d6578063de8620231161008a578063f2fde38b11610064578063f2fde38b14610968578063f5d6ac9014610988578063f66bf229146109a857600080fd5b8063de862023146108ed578063deaf431d1461090d578063f23a6e611461092357600080fd5b8063d79635fb116100bb578063d79635fb14610898578063db219e23146108b8578063db2e21bc146108d857600080fd5b8063c9a8c2a31461084b578063d1d0d16c1461086b57600080fd5b8063a2e786531161012d578063b2016bd411610112578063b2016bd414610795578063b7d58422146107b5578063bc197c81146107d557600080fd5b8063a2e7865314610747578063aac753b61461076757600080fd5b806391da9f7a1161015e57806391da9f7a1461064157806395addb90146106545780639f477d741461071a57600080fd5b80638da5cb5b146106035780638fded67d1461062157600080fd5b8063493fc96c116102325780636562412a116101e657806382994efa116101c057806382994efa146105b857806384536017146105d85780638cefb59c146105ed57600080fd5b80636562412a1461054f578063715018a6146105835780637ac5d7781461059857600080fd5b80635b212f3d116102175780635b212f3d146104f75780635bd9e2991461050d578063614bd9441461052d57600080fd5b8063493fc96c146104bd57806358197a9d146104dd57600080fd5b806323c113dc1161028957806330f4f4bb1161026e57806330f4f4bb1461042b578063320d94b2146104585780634441aacb1461049057600080fd5b806323c113dc146103f45780632f6c10701461040b57600080fd5b8063161e444e116102ba578063161e444e14610338578063165244061461039b5780631f3990de146103ae57600080fd5b806301ffc9a7146102e15780630b7512791461031657600080fd5b366102dc57005b600080fd5b3480156102ed57600080fd5b506103016102fc366004613eae565b6109be565b60405190151581526020015b60405180910390f35b34801561032257600080fd5b50610336610331366004613f05565b610a57565b005b34801561034457600080fd5b50610358610353366004613f61565b610ac7565b60405161030d9190815160070b815260208083015167ffffffffffffffff169082015260408083015160030b908201526060918201519181019190915260800190565b6103366103a93660046140ab565b610b6d565b3480156103ba57600080fd5b506103e66103c9366004614137565b601560209081526000928352604080842090915290825290205481565b60405190815260200161030d565b34801561040057600080fd5b50600c546103e69081565b34801561041757600080fd5b50610336610426366004613f61565b611219565b34801561043757600080fd5b5061044b610446366004613f61565b611226565b60405161030d919061422a565b34801561046457600080fd5b50600354610478906001600160a01b031681565b6040516001600160a01b03909116815260200161030d565b34801561049c57600080fd5b506104b06104ab3660046142fa565b61165c565b60405161030d9190614317565b3480156104c957600080fd5b506104b06104d83660046143bb565b61173e565b3480156104e957600080fd5b506009546103019060ff1681565b34801561050357600080fd5b506103e660085481565b34801561051957600080fd5b50600254610478906001600160a01b031681565b34801561053957600080fd5b50610542611a0e565b60405161030d9190614416565b34801561055b57600080fd5b5061056f61056a366004613f61565b611a8e565b60405161030d989796959493929190614448565b34801561058f57600080fd5b50610336612007565b3480156105a457600080fd5b506103366105b3366004614519565b61201b565b3480156105c457600080fd5b506103366105d3366004613f61565b6120e4565b3480156105e457600080fd5b506103366120f1565b3480156105f957600080fd5b506103e6600d5481565b34801561060f57600080fd5b506000546001600160a01b0316610478565b34801561062d57600080fd5b5061033661063c366004613f61565b61212c565b6103e661064f366004614565565b612139565b34801561066057600080fd5b506106cb61066f366004613f61565b600f602052600090815260409020805460018201546002830154600384015460048501546005860154600690960154949593946001600160a01b039093169391929091600781810b9268010000000000000000909204900b9088565b6040805198895260208901979097526001600160a01b039095169587019590955260608601929092526080850152600790810b60a08501529190910b60c083015260e08201526101000161030d565b34801561072657600080fd5b506103e66107353660046142fa565b60116020526000908152604090205481565b34801561075357600080fd5b50610336610762366004613f61565b612a36565b34801561077357600080fd5b50610787610782366004613f61565b612d0e565b60405161030d9291906145c6565b3480156107a157600080fd5b50600454610478906001600160a01b031681565b3480156107c157600080fd5b506103366107d03660046145e7565b612db6565b3480156107e157600080fd5b5061081a6107f036600461464e565b7fbc197c810000000000000000000000000000000000000000000000000000000095945050505050565b6040517fffffffff00000000000000000000000000000000000000000000000000000000909116815260200161030d565b34801561085757600080fd5b506103e6610866366004613f61565b613251565b34801561087757600080fd5b506103e66108863660046142fa565b60106020526000908152604090205481565b3480156108a457600080fd5b506103e66108b3366004614137565b613272565b3480156108c457600080fd5b506103366108d3366004614708565b6132a9565b3480156108e457600080fd5b506103366138db565b3480156108f957600080fd5b506104b06109083660046142fa565b613a02565b34801561091957600080fd5b506103e660075481565b34801561092f57600080fd5b5061081a61093e366004614755565b7ff23a6e610000000000000000000000000000000000000000000000000000000095945050505050565b34801561097457600080fd5b506103366109833660046142fa565b613add565b34801561099457600080fd5b50600554610478906001600160a01b031681565b3480156109b457600080fd5b506103e660065481565b60007fffffffff0000000000000000000000000000000000000000000000000000000082167f4e2312e0000000000000000000000000000000000000000000000000000000001480610a5157507f01ffc9a7000000000000000000000000000000000000000000000000000000007fffffffff000000000000000000000000000000000000000000000000000000008316145b92915050565b610a5f613b31565b600280546001600160a01b039586167fffffffffffffffffffffffff0000000000000000000000000000000000000000918216179091556003805494861694821694909417909355600480549285169284169290921790915560058054919093169116179055565b60408051608081018252600080825260208201819052818301819052606082015260055491517f96834ad30000000000000000000000000000000000000000000000000000000081526004810184905290916001600160a01b0316906396834ad390602401608060405180830381865afa158015610b49573d6000803e3d6000fd5b505050506040513d601f19601f82011682018060405250810190610a5191906147b2565b610b75613b31565b83610bc75760405162461bcd60e51b815260206004820152601660248201527f4e6f207175657374696f6e20746f207265736f6c76650000000000000000000060448201526064015b60405180910390fd5b6000848152600f6020908152604091829020825161010081018452815480825260018301549382019390935260028201546001600160a01b03169381019390935260038101546060840152600481015460808401526005810154600781810b60a086015268010000000000000000909104900b60c08401526006015460e0830152610c945760405162461bcd60e51b815260206004820152601660248201527f4d61726b6574206e6f7420696e697469616c697a6564000000000000000000006044820152606401610bbe565b8060200151421015610ce85760405162461bcd60e51b815260206004820152601360248201527f4d61726b6574207374696c6c20616374697665000000000000000000000000006044820152606401610bbe565b60008581526014602052604090206001015415610d475760405162461bcd60e51b815260206004820152601760248201527f4d61726b657420616c7265616479207265736f6c7665640000000000000000006044820152606401610bbe565b6005546040517fd47eed450000000000000000000000000000000000000000000000000000000081526000916001600160a01b03169063d47eed4590610d93908890889060040161485a565b602060405180830381865afa158015610db0573d6000803e3d6000fd5b505050506040513d601f19601f82011682018060405250810190610dd49190614939565b905080341015610e4c5760405162461bcd60e51b815260206004820152602160248201527f496e73756666696369656e742066656520666f7220707269636520757064617460448201527f65000000000000000000000000000000000000000000000000000000000000006064820152608401610bbe565b6005546040517fef9e5e280000000000000000000000000000000000000000000000000000000081526001600160a01b039091169063ef9e5e28908390610e99908990899060040161485a565b6000604051808303818588803b158015610eb257600080fd5b505af1158015610ec6573d6000803e3d6000fd5b505060055460608601516040517f96834ad3000000000000000000000000000000000000000000000000000000008152600095506001600160a01b0390921693506396834ad39250610f1e9160040190815260200190565b608060405180830381865afa158015610f3b573d6000803e3d6000fd5b505050506040513d601f19601f82011682018060405250810190610f5f91906147b2565b90506000816000015160070b13610fb85760405162461bcd60e51b815260206004820152601860248201527f496e76616c69642066696e616c207072696365206461746100000000000000006044820152606401610bbe565b600081606001511161100c5760405162461bcd60e51b815260206004820152601d60248201527f496e76616c69642066696e616c2070726963652074696d657374616d700000006044820152606401610bbe565b8051606080830151600783810b60c0880181905260e0880183905260a08801516040805160028082529681019091529394920b129160009181602001602082028036833701905050905081156110aa57670de0b6b3a76400008160008151811061107857611078614952565b60200260200101818152505060008160018151811061109957611099614952565b6020026020010181815250506110f4565b6000816000815181106110bf576110bf614952565b602002602001018181525050670de0b6b3a7640000816001815181106110e7576110e7614952565b6020026020010181815250505b60408051606081018252828152426020808301919091528183018b905260008e8152601482529290922081518051929391926111339284920190613dbc565b5060208201516001820155604082015160028201906111529082614a20565b50506002546040517fc49298ac0000000000000000000000000000000000000000000000000000000081526001600160a01b03909116915063c49298ac906111a0908e908590600401614b1b565b600060405180830381600087803b1580156111ba57600080fd5b505af11580156111ce573d6000803e3d6000fd5b505050508a7f689c9a00f150f4afd036f5ba71377873dbe90921195491808afaed660a65d3738583604051611204929190614b34565b60405180910390a25050505050505050505050565b611221613b31565b600655565b61122e613e07565b6000828152600f602090815260408083206002015481517f91c024a600000000000000000000000000000000000000000000000000000000815291516001600160a01b03909116939284926391c024a692600480830193928290030181865afa15801561129f573d6000803e3d6000fd5b505050506040513d601f19601f820116820180604052508101906112c39190614939565b90506000826001600160a01b0316632cc76d3f6040518163ffffffff1660e01b8152600401600060405180830381865afa158015611305573d6000803e3d6000fd5b505050506040513d6000823e601f3d908101601f1916820160405261132d9190810190614b50565b6040805160028082526060820183529293506000929091602083019080368337019050506040517ff55c79d0000000000000000000000000000000000000000000000000000000008152670de0b6b3a76400006004820152600060248201529091506001600160a01b0385169063f55c79d090604401602060405180830381865afa1580156113c0573d6000803e3d6000fd5b505050506040513d601f19601f820116820180604052508101906113e49190614939565b816000815181106113f7576113f7614952565b60209081029190910101526040517ff55c79d0000000000000000000000000000000000000000000000000000000008152670de0b6b3a76400006004820152600160248201526001600160a01b0385169063f55c79d090604401602060405180830381865afa15801561146e573d6000803e3d6000fd5b505050506040513d601f19601f820116820180604052508101906114929190614939565b816001815181106114a5576114a5614952565b602090810291909101810191909152604080516000898152600f84528281206101a083018452805460a08401908152600182015460c085015260028201546001600160a01b031660e0850152600382015461010085015260048201546101208501526005820154600781810b61014087015268010000000000000000909104900b61016085015260069091015461018084015282528981526014845282902082518154608081870283018101909552606082018181529395860194919384929091849184018282801561159757602002820191906000526020600020905b815481526020019060010190808311611583575b50505050508152602001600182015481526020016002820180546115ba90614981565b80601f01602080910402602001604051908101604052809291908181526020018280546115e690614981565b80156116335780601f1061160857610100808354040283529160200191611633565b820191906000526020600020905b81548152906001019060200180831161161657829003601f168201915b505050505081525050815260200184815260200183815260200182815250945050505050919050565b6001600160a01b03811660009081526012602052604081206060919061168190613b77565b67ffffffffffffffff81111561169957611699613fc6565b6040519080825280602002602001820160405280156116c2578160200160208202803683370190505b50905060005b6001600160a01b03841660009081526012602052604090206116e990613b77565b811015611737576001600160a01b03841660009081526012602052604090206117129082613b81565b82828151811061172457611724614952565b60209081029190910101526001016116c8565b5092915050565b6000838152600f602052604090206004015482516060919060039067ffffffffffffffff81111561177157611771613fc6565b60405190808252806020026020018201604052801561179a578160200160208202803683370190505b50925060005b8551811015611a045760008682815181106117bd576117bd614952565b602002602001015190506000811180156117d657508281105b6118225760405162461bcd60e51b815260206004820152601560248201527f476f7420696e76616c696420696e6465782073657400000000000000000000006044820152606401610bbe565b60025460048054600a546040517f856296f70000000000000000000000000000000000000000000000000000000081529283015260248201879052604482018490526000926001600160a01b03908116926339dd7530929190911690839063856296f790606401602060405180830381865afa1580156118a6573d6000803e3d6000fd5b505050506040513d601f19601f820116820180604052508101906118ca9190614939565b6040517fffffffff0000000000000000000000000000000000000000000000000000000060e085901b1681526001600160a01b0390921660048301526024820152604401602060405180830381865afa15801561192b573d6000803e3d6000fd5b505050506040513d601f19601f8201168201806040525081019061194f9190614939565b6002546040517efdd58e0000000000000000000000000000000000000000000000000000000081526001600160a01b038a811660048301526024820184905292935091169062fdd58e90604401602060405180830381865afa1580156119b9573d6000803e3d6000fd5b505050506040513d601f19601f820116820180604052508101906119dd9190614939565b8684815181106119ef576119ef614952565b602090810291909101015250506001016117a0565b5050509392505050565b60408051808201909152606081526000602082015260408051600b805460606020820284018101855293830181815292939192849290918491840182828015611a7657602002820191906000526020600020905b815481526020019060010190808311611a62575b50505050508152602001600182015481525050905090565b6040805161010081018252600080825260208201819052918101829052606081018290526080810182905260a0810182905260c0810182905260e0810191909152611af360405180606001604052806060815260200160008152602001606081525090565b6000838152600f602090815260408083208151610100810183528154815260018201548185015260028201546001600160a01b031681840152600382015460608281019190915260048301546080808401919091526005840154600781810b60a086015268010000000000000000909104900b60c084015260069093015460e08301528886526014855283862084518154968702810185019095528482018681529298509094859487948594859492938492849190840182828015611bd757602002820191906000526020600020905b815481526020019060010190808311611bc3575b5050505050815260200160018201548152602001600282018054611bfa90614981565b80601f0160208091040260200160405190810160405280929190818152602001828054611c2690614981565b8015611c735780601f10611c4857610100808354040283529160200191611c73565b820191906000526020600020905b815481529060010190602001808311611c5657829003601f168201915b50505050508152505096506000886000015111611cd25760405162461bcd60e51b815260206004820152601060248201527f4d61726b6574206e6f7420666f756e64000000000000000000000000000000006044820152606401610bbe565b600088604001519050806001600160a01b03166391c024a66040518163ffffffff1660e01b8152600401602060405180830381865afa158015611d19573d6000803e3d6000fd5b505050506040513d601f19601f82011682018060405250810190611d3d9190614939565b9650806001600160a01b0316632cc76d3f6040518163ffffffff1660e01b8152600401600060405180830381865afa158015611d7d573d6000803e3d6000fd5b505050506040513d6000823e601f3d908101601f19168201604052611da59190810190614b50565b6040805160028082526060820183529298509190602083019080368337019050506040517ff55c79d0000000000000000000000000000000000000000000000000000000008152670de0b6b3a76400006004820152600060248201529095506001600160a01b0382169063f55c79d090604401602060405180830381865afa158015611e35573d6000803e3d6000fd5b505050506040513d601f19601f82011682018060405250810190611e599190614939565b85600081518110611e6c57611e6c614952565b60209081029190910101526040517ff55c79d0000000000000000000000000000000000000000000000000000000008152670de0b6b3a76400006004820152600160248201526001600160a01b0382169063f55c79d090604401602060405180830381865afa158015611ee3573d6000803e3d6000fd5b505050506040513d601f19601f82011682018060405250810190611f079190614939565b85600181518110611f1a57611f1a614952565b6020026020010181815250506000886020015111935088602001514210159250838015611f4d575060c089015160070b15155b15611f5e578860c001519150611ffb565b60055460608a01516040517f96834ad30000000000000000000000000000000000000000000000000000000081526001600160a01b03909216916396834ad391611fae9160040190815260200190565b608060405180830381865afa925050508015611fe7575060408051601f3d908101601f19168201909252611fe4918101906147b2565b60015b611ff7578860a001519150611ffb565b5191505b50919395975091939597565b61200f613b31565b6120196000613b8d565b565b612023613b31565b600081116120735760405162461bcd60e51b815260206004820181905260248201527f496e697469616c2066756e64696e67206d75737420626520706f7369746976656044820152606401610bbe565b6040518060400160405280848480806020026020016040519081016040528093929190818152602001838360200280828437600092019190915250505090825250602090810183905281518051600b926120d1928492910190613dbc565b5060208201518160010155905050505050565b6120ec613b31565b600855565b6120f9613b31565b6040514790339082156108fc029083906000818181858888f19350505050158015612128573d6000803e3d6000fd5b5050565b612134613b31565b600755565b6000612143613b31565b600b5485106121945760405162461bcd60e51b815260206004820152601460248201527f496e76616c69642072616e646f6d20696e6465780000000000000000000000006044820152606401610bbe565b600b546121e35760405162461bcd60e51b815260206004820152601960248201527f4e6f20707269636520666565647320636f6e66696775726564000000000000006044820152606401610bbe565b6005546040517fd47eed450000000000000000000000000000000000000000000000000000000081526000916001600160a01b03169063d47eed459061222f908790879060040161485a565b602060405180830381865afa15801561224c573d6000803e3d6000fd5b505050506040513d601f19601f820116820180604052508101906122709190614939565b9050803410156122e85760405162461bcd60e51b815260206004820152602160248201527f496e73756666696369656e742066656520666f7220707269636520757064617460448201527f65000000000000000000000000000000000000000000000000000000000000006064820152608401610bbe565b6005546040517fef9e5e280000000000000000000000000000000000000000000000000000000081526001600160a01b039091169063ef9e5e28908390612335908890889060040161485a565b6000604051808303818588803b15801561234e57600080fd5b505af1158015612362573d6000803e3d6000fd5b5050600554600b8054600095506001600160a01b0390921693506396834ad39250908a90811061239457612394614952565b90600052602060002001546040518263ffffffff1660e01b81526004016123bd91815260200190565b608060405180830381865afa1580156123da573d6000803e3d6000fd5b505050506040513d601f19601f820116820180604052508101906123fe91906147b2565b8051600280546040517fd96ee754000000000000000000000000000000000000000000000000000000008152306004820152602481018d9052604481019290925292935090916001600160a01b03169063d96ee75490606401600060405180830381600087803b15801561247157600080fd5b505af1158015612485573d6000803e3d6000fd5b5050600280546040517f852c6ae2000000000000000000000000000000000000000000000000000000008152306004820152602481018e90526044810192909252600093506001600160a01b0316915063852c6ae290606401602060405180830381865afa1580156124fb573d6000803e3d6000fd5b505050506040513d601f19601f8201168201806040525081019061251f9190614939565b6040805160018082528183019092529192506000919060208083019080368337019050509050818160008151811061255957612559614952565b6020026020010181815250506000600360009054906101000a90046001600160a01b03166001600160a01b0316634aeecdc7600260009054906101000a90046001600160a01b0316600460009054906101000a90046001600160a01b0316856658d15e176280008f306040518763ffffffff1660e01b81526004016125e396959493929190614be6565b6020604051808303816000875af1158015612602573d6000803e3d6000fd5b505050506040513d601f19601f820116820180604052508101906126269190614c3e565b604080516002808252606082018352929350600092909160208301908036833701905050905061265f6002670de0b6b3a7640000614c8a565b8160008151811061267257612672614952565b60209081029190910101526126906002670de0b6b3a7640000614c8a565b816001815181106126a3576126a3614952565b602090810291909101015260048054600c546040517f095ea7b30000000000000000000000000000000000000000000000000000000081526001600160a01b0386811694820194909452602481019190915291169063095ea7b3906044016020604051808303816000875af1158015612720573d6000803e3d6000fd5b505050506040513d601f19601f820116820180604052508101906127449190614cc5565b50600c546040517fd5f15a460000000000000000000000000000000000000000000000000000000081526001600160a01b0384169163d5f15a469161278e91908590600401614b1b565b600060405180830381600087803b1580156127a857600080fd5b505af11580156127bc573d6000803e3d6000fd5b50506002546040517fa22cb4650000000000000000000000000000000000000000000000000000000081526001600160a01b03868116600483015260016024830152909116925063a22cb4659150604401600060405180830381600087803b15801561282757600080fd5b505af115801561283b573d6000803e3d6000fd5b505050506040518061010001604052804281526020018c8152602001836001600160a01b03168152602001600b6000018e8154811061287c5761287c614952565b906000526020600020015481526020018581526020018660070b8152602001600060070b81526020016000815250600f60008f8152602001908152602001600020600082015181600001556020820151816001015560408201518160020160006101000a8154816001600160a01b0302191690836001600160a01b03160217905550606082015181600301556080820151816004015560a08201518160050160006101000a81548167ffffffffffffffff021916908360070b67ffffffffffffffff16021790555060c08201518160050160086101000a81548167ffffffffffffffff021916908360070b67ffffffffffffffff16021790555060e0820151816006015590505042600d81905550600e8d9080600181540180825580915050600190039060005260206000200160009091909190915055600b6000018c815481106129c9576129c9614952565b6000918252602091829020015460408051600789900b81529283018e90526001600160a01b03851690830152908e907fdf8f087dcc3270a8dc5aae5cde3ee97bad699c27d1ee7520a2ef6a99df1748639060600160405180910390a3509a9b9a5050505050505050505050565b612a3e613bf5565b336000908152601260205260408120612a5690613b77565b905060008111612aa85760405162461bcd60e51b815260206004820152601b60248201527f4e6f206f70656e20706f736974696f6e7320746f2072656465656d00000000006044820152606401610bbe565b80821115612ab4578091505b6000612abf3361165c565b905060008367ffffffffffffffff811115612adc57612adc613fc6565b604051908082528060200260200182016040528015612b05578160200160208202803683370190505b5090506000805b85811015612b9957600060146000868481518110612b2c57612b2c614952565b60200260200101518152602001908152602001600020600101541115612b9157838181518110612b5e57612b5e614952565b6020026020010151838381518110612b7857612b78614952565b602090810291909101015281612b8d81614ce7565b9250505b600101612b0c565b5060008111612c365760405162461bcd60e51b815260206004820152604760248201527f556e61626c6520746f2072656465656d20706f736974696f6e732c207265736f60448201527f6c7574696f6e2070656e64696e672e20506c656173652074727920616761696e60648201527f206c617465722e00000000000000000000000000000000000000000000000000608482015260a401610bbe565b60005b81811015612cfd576000838281518110612c5557612c55614952565b602002602001015190506000600267ffffffffffffffff811115612c7b57612c7b613fc6565b604051908082528060200260200182016040528015612ca4578160200160208202803683370190505b509050600181600081518110612cbc57612cbc614952565b602002602001018181525050600281600181518110612cdd57612cdd614952565b602002602001018181525050612cf38282612db6565b5050600101612c39565b5050505050612d0b60018055565b50565b60146020526000908152604090206001810154600282018054919291612d3390614981565b80601f0160208091040260200160405190810160405280929190818152602001828054612d5f90614981565b8015612dac5780601f10612d8157610100808354040283529160200191612dac565b820191906000526020600020905b815481529060010190602001808311612d8f57829003601f168201915b5050505050905082565b6000828152600f6020908152604091829020825161010081018452815480825260018301549382019390935260028201546001600160a01b03169381019390935260038101546060840152600481015460808401526005810154600781810b60a086015268010000000000000000909104900b60c08401526006015460e0830152612e835760405162461bcd60e51b815260206004820152601060248201527f4d61726b6574206e6f7420666f756e64000000000000000000000000000000006044820152606401610bbe565b604080516002808252606082018352600092602083019080368337019050509050600181600081518110612eb957612eb9614952565b602002602001018181525050600281600181518110612eda57612eda614952565b6020026020010181815250508251600214612f375760405162461bcd60e51b815260206004820152601260248201527f496e76616c696420696e646578207365747300000000000000000000000000006044820152606401610bbe565b80604051602001612f489190614d1f565b6040516020818303038152906040528051906020012083604051602001612f6f9190614d1f565b6040516020818303038152906040528051906020012014612fd25760405162461bcd60e51b815260206004820152601260248201527f496e76616c696420696e646578207365747300000000000000000000000000006044820152606401610bbe565b6000612fdf85853361173e565b90506000805b825181101561301d5782818151811061300057613000614952565b6020026020010151826130139190614d55565b9150600101612fe5565b506000811161306e5760405162461bcd60e51b815260206004820152601660248201527f4e6f20706f736974696f6e7320746f2072656465656d000000000000000000006044820152606401610bbe565b60025460048054600a5460008a8152600f602052604080822085015490517f06ffc33000000000000000000000000000000000000000000000000000000000815291956001600160a01b03908116956306ffc330956130d7959216939192918d91339101614d68565b6020604051808303816000875af11580156130f6573d6000803e3d6000fd5b505050506040513d601f19601f8201168201806040525081019061311a9190614939565b600480546040517fa9059cbb0000000000000000000000000000000000000000000000000000000081523392810192909252602482018390529192506001600160a01b039091169063a9059cbb906044016020604051808303816000875af115801561318a573d6000803e3d6000fd5b505050506040513d601f19601f820116820180604052508101906131ae9190614cc5565b5033600090815260116020526040812080548392906131ce908490614d55565b90915550503360009081526012602052604090206131ec9088613c38565b506000878152600f60205260409081902060020154905188916001600160a01b03169033907f395d4ff727a55028c83214812df1f1008c9880acfe64bb68226bec10e2730b8390613240908b908790614db1565b60405180910390a450505050505050565b600e818154811061326157600080fd5b600091825260209091200154905081565b60008281526015602090815260408083206001600160a01b03851684529091528120546007546132a29190614dd3565b9392505050565b6132b1613bf5565b6006548310156133035760405162461bcd60e51b815260206004820152601460248201527f416d6f756e742062656c6f77206d696e696d756d0000000000000000000000006044820152606401610bbe565b600480546040517fdd62ed3e000000000000000000000000000000000000000000000000000000008152339281019290925230602483015284916001600160a01b039091169063dd62ed3e90604401602060405180830381865afa15801561336f573d6000803e3d6000fd5b505050506040513d601f19601f820116820180604052508101906133939190614939565b10156133e15760405162461bcd60e51b815260206004820152601660248201527f496e73756666696369656e7420616c6c6f77616e6365000000000000000000006044820152606401610bbe565b600480546040517f70a08231000000000000000000000000000000000000000000000000000000008152339281019290925284916001600160a01b03909116906370a0823190602401602060405180830381865afa158015613447573d6000803e3d6000fd5b505050506040513d601f19601f8201168201806040525081019061346b9190614939565b10156134b95760405162461bcd60e51b815260206004820152601460248201527f496e73756666696369656e742062616c616e63650000000000000000000000006044820152606401610bbe565b60008581526015602090815260408083206001600160a01b03851684529091529020546007546134e98583614d55565b111561355d5760405162461bcd60e51b815260206004820152602e60248201527f416d6f756e742065786365656473206d6178696d756d2062757920616d6f756e60448201527f7420706572207175657374696f6e0000000000000000000000000000000000006064820152608401610bbe565b600480546040517f23b872dd0000000000000000000000000000000000000000000000000000000081523392810192909252306024830152604482018690526001600160a01b0316906323b872dd906064016020604051808303816000875af11580156135ce573d6000803e3d6000fd5b505050506040513d601f19601f820116820180604052508101906135f29190614cc5565b506135fd8482614d55565b60008781526015602090815260408083206001600160a01b03808816855290835281842094909455898352600f90915290206002015416806136815760405162461bcd60e51b815260206004820152601060248201527f4d61726b6574206e6f7420666f756e64000000000000000000000000000000006044820152606401610bbe565b600480546040517f095ea7b30000000000000000000000000000000000000000000000000000000081526001600160a01b03848116938201939093526024810188905291169063095ea7b3906044016020604051808303816000875af11580156136ef573d6000803e3d6000fd5b505050506040513d601f19601f820116820180604052508101906137139190614cc5565b506040517f80a08f470000000000000000000000000000000000000000000000000000000081526004810186905260248101879052604481018590526001600160a01b03848116606483015282916000918316906380a08f47906084016020604051808303816000875af115801561378f573d6000803e3d6000fd5b505050506040513d601f19601f820116820180604052508101906137b39190614939565b6001600160a01b0386166000908152601060205260408120805492935089929091906137e0908490614d55565b90915550506001600160a01b0385166000908152601260205260409020613807908a613c44565b5088836001600160a01b0316866001600160a01b03167f822019266ceea4910d00991f74bb1f8c1411d9ca7724fb43ed5500533c38bc598a866001600160a01b031663ddca3f436040518163ffffffff1660e01b8152600401602060405180830381865afa15801561387d573d6000803e3d6000fd5b505050506040513d601f19601f820116820180604052508101906138a19190614939565b60408051928352602083019190915281018d90526060810186905260800160405180910390a4505050506138d460018055565b5050505050565b6138e3613b31565b600480546040517f70a0823100000000000000000000000000000000000000000000000000000000815230928101929092526000916001600160a01b03909116906370a0823190602401602060405180830381865afa15801561394a573d6000803e3d6000fd5b505050506040513d601f19601f8201168201806040525081019061396e9190614939565b600480546040517fa9059cbb0000000000000000000000000000000000000000000000000000000081523392810192909252602482018390529192506001600160a01b039091169063a9059cbb906044016020604051808303816000875af11580156139de573d6000803e3d6000fd5b505050506040513d601f19601f820116820180604052508101906121289190614cc5565b6001600160a01b038116600090815260136020526040812060609190613a2790613b77565b67ffffffffffffffff811115613a3f57613a3f613fc6565b604051908082528060200260200182016040528015613a68578160200160208202803683370190505b50905060005b6001600160a01b0384166000908152601360205260409020613a8f90613b77565b811015611737576001600160a01b0384166000908152601360205260409020613ab89082613b81565b828281518110613aca57613aca614952565b6020908102919091010152600101613a6e565b613ae5613b31565b6001600160a01b038116613b28576040517f1e4fbdf700000000000000000000000000000000000000000000000000000000815260006004820152602401610bbe565b612d0b81613b8d565b6000546001600160a01b03163314612019576040517f118cdaa7000000000000000000000000000000000000000000000000000000008152336004820152602401610bbe565b6000610a51825490565b60006132a28383613c50565b600080546001600160a01b038381167fffffffffffffffffffffffff0000000000000000000000000000000000000000831681178455604051919092169283917f8be0079c531659141344cd1fd0a4f28419497f9722a3daafe3b4186f6b6457e09190a35050565b600260015403613c31576040517f3ee5aeb500000000000000000000000000000000000000000000000000000000815260040160405180910390fd5b6002600155565b60006132a28383613c7a565b60006132a28383613d6d565b6000826000018281548110613c6757613c67614952565b9060005260206000200154905092915050565b60008181526001830160205260408120548015613d63576000613c9e600183614dd3565b8554909150600090613cb290600190614dd3565b9050808214613d17576000866000018281548110613cd257613cd2614952565b9060005260206000200154905080876000018481548110613cf557613cf5614952565b6000918252602080832090910192909255918252600188019052604090208390555b8554869080613d2857613d28614de6565b600190038181906000526020600020016000905590558560010160008681526020019081526020016000206000905560019350505050610a51565b6000915050610a51565b6000818152600183016020526040812054613db457508154600181810184556000848152602080822090930184905584548482528286019093526040902091909155610a51565b506000610a51565b828054828255906000526020600020908101928215613df7579160200282015b82811115613df7578251825591602001919060010190613ddc565b50613e03929150613e99565b5090565b604080516101a08101909152600060a0820181815260c0830182905260e08301829052610100830182905261012083018290526101408301829052610160830182905261018083019190915281908152602001613e7e60405180606001604052806060815260200160008152602001606081525090565b81526020016000815260200160608152602001606081525090565b5b80821115613e035760008155600101613e9a565b600060208284031215613ec057600080fd5b81357fffffffff00000000000000000000000000000000000000000000000000000000811681146132a257600080fd5b6001600160a01b0381168114612d0b57600080fd5b60008060008060808587031215613f1b57600080fd5b8435613f2681613ef0565b93506020850135613f3681613ef0565b92506040850135613f4681613ef0565b91506060850135613f5681613ef0565b939692955090935050565b600060208284031215613f7357600080fd5b5035919050565b60008083601f840112613f8c57600080fd5b50813567ffffffffffffffff811115613fa457600080fd5b6020830191508360208260051b8501011115613fbf57600080fd5b9250929050565b7f4e487b7100000000000000000000000000000000000000000000000000000000600052604160045260246000fd5b6040516080810167ffffffffffffffff8111828210171561401857614018613fc6565b60405290565b604051601f8201601f1916810167ffffffffffffffff8111828210171561404757614047613fc6565b604052919050565b60008067ffffffffffffffff84111561406a5761406a613fc6565b50601f8301601f191660200161407f8161401e565b91505082815283838301111561409457600080fd5b828260208301376000602084830101529392505050565b600080600080606085870312156140c157600080fd5b84359350602085013567ffffffffffffffff8111156140df57600080fd5b6140eb87828801613f7a565b909450925050604085013567ffffffffffffffff81111561410b57600080fd5b8501601f8101871361411c57600080fd5b61412b8782356020840161404f565b91505092959194509250565b6000806040838503121561414a57600080fd5b82359150602083013561415c81613ef0565b809150509250929050565b600081518084526020840193506020830160005b8281101561419957815186526020958601959091019060010161417b565b5093949350505050565b6000815180845260005b818110156141c9576020818501810151868301820152016141ad565b506000602082860101526020601f19601f83011685010191505092915050565b60008151606084526141fe6060850182614167565b9050602083015160208501526040830151848203604086015261422182826141a3565b95945050505050565b6020815261429460208201835180518252602081015160208301526001600160a01b036040820151166040830152606081015160608301526080810151608083015260a081015160070b60a083015260c081015160070b60c083015260e081015160e08301525050565b600060208301516101806101208401526142b26101a08401826141e9565b905060408401516101408401526060840151601f19848303016101608501526142db8282614167565b9150506080840151601f19848303016101808501526142218282614167565b60006020828403121561430c57600080fd5b81356132a281613ef0565b6020815260006132a26020830184614167565b600067ffffffffffffffff82111561434457614344613fc6565b5060051b60200190565b600082601f83011261435f57600080fd5b813561437261436d8261432a565b61401e565b8082825260208201915060208360051b86010192508583111561439457600080fd5b602085015b838110156143b1578035835260209283019201614399565b5095945050505050565b6000806000606084860312156143d057600080fd5b83359250602084013567ffffffffffffffff8111156143ee57600080fd5b6143fa8682870161434e565b925050604084013561440b81613ef0565b809150509250925092565b6020815260008251604060208401526144326060840182614167565b9050602084015160408401528091505092915050565b6144aa818a80518252602081015160208301526001600160a01b036040820151166040830152606081015160608301526080810151608083015260a081015160070b60a083015260c081015160070b60c083015260e081015160e08301525050565b6101e061010082015260006144c36101e083018a6141e9565b886101208401528281036101408401526144dd8189614167565b90508281036101608401526144f28188614167565b95151561018084015250509115156101a083015260070b6101c09091015295945050505050565b60008060006040848603121561452e57600080fd5b833567ffffffffffffffff81111561454557600080fd5b61455186828701613f7a565b909790965060209590950135949350505050565b60008060008060006080868803121561457d57600080fd5b853594506020860135935060408601359250606086013567ffffffffffffffff8111156145a957600080fd5b6145b588828901613f7a565b969995985093965092949392505050565b8281526040602082015260006145df60408301846141a3565b949350505050565b600080604083850312156145fa57600080fd5b82359150602083013567ffffffffffffffff81111561461857600080fd5b6146248582860161434e565b9150509250929050565b600082601f83011261463f57600080fd5b6132a28383356020850161404f565b600080600080600060a0868803121561466657600080fd5b853561467181613ef0565b9450602086013561468181613ef0565b9350604086013567ffffffffffffffff81111561469d57600080fd5b6146a98882890161434e565b935050606086013567ffffffffffffffff8111156146c657600080fd5b6146d28882890161434e565b925050608086013567ffffffffffffffff8111156146ef57600080fd5b6146fb8882890161462e565b9150509295509295909350565b600080600080600060a0868803121561472057600080fd5b85359450602086013593506040860135925060608601359150608086013561474781613ef0565b809150509295509295909350565b600080600080600060a0868803121561476d57600080fd5b853561477881613ef0565b9450602086013561478881613ef0565b93506040860135925060608601359150608086013567ffffffffffffffff8111156146ef57600080fd5b600060808284031280156147c557600080fd5b5060006147d0613ff5565b83518060070b81146147e0578283fd5b8152602084015167ffffffffffffffff811681146147fc578283fd5b60208201526040840151600381900b8114614815578283fd5b604082015260609384015193810193909352509092915050565b818352818160208501375060006020828401015260006020601f19601f840116840101905092915050565b6020808252810182905260006040600584901b8301810190830185837fffffffffffffffffffffffffffffffffffffffffffffffffffffffffffffffe136839003015b8782101561492c577fffffffffffffffffffffffffffffffffffffffffffffffffffffffffffffffc087860301845282358181126148da57600080fd5b890160208101903567ffffffffffffffff8111156148f757600080fd5b80360382131561490657600080fd5b61491187828461482f565b9650505060208301925060208401935060018201915061489d565b5092979650505050505050565b60006020828403121561494b57600080fd5b5051919050565b7f4e487b7100000000000000000000000000000000000000000000000000000000600052603260045260246000fd5b600181811c9082168061499557607f821691505b6020821081036149ce577f4e487b7100000000000000000000000000000000000000000000000000000000600052602260045260246000fd5b50919050565b601f821115614a1b57806000526020600020601f840160051c810160208510156149fb5750805b601f840160051c820191505b818110156138d45760008155600101614a07565b505050565b815167ffffffffffffffff811115614a3a57614a3a613fc6565b614a4e81614a488454614981565b846149d4565b6020601f821160018114614aa05760008315614a6a5750848201515b7fffffffffffffffffffffffffffffffffffffffffffffffffffffffffffffffff600385901b1c1916600184901b1784556138d4565b600084815260208120601f198516915b82811015614ad05787850151825560209485019460019092019101614ab0565b5084821015614b0c57868401517fffffffffffffffffffffffffffffffffffffffffffffffffffffffffffffffff600387901b60f8161c191681555b50505050600190811b01905550565b8281526040602082015260006145df6040830184614167565b8260070b81526040602082015260006145df6040830184614167565b600060208284031215614b6257600080fd5b815167ffffffffffffffff811115614b7957600080fd5b8201601f81018413614b8a57600080fd5b8051614b9861436d8261432a565b8082825260208201915060208360051b850101925086831115614bba57600080fd5b6020840193505b82841015614bdc578351825260209384019390910190614bc1565b9695505050505050565b6001600160a01b03871681526001600160a01b038616602082015260c060408201526000614c1760c0830187614167565b60608301959095525060808101929092526001600160a01b031660a0909101529392505050565b600060208284031215614c5057600080fd5b81516132a281613ef0565b7f4e487b7100000000000000000000000000000000000000000000000000000000600052601160045260246000fd5b600082614cc0577f4e487b7100000000000000000000000000000000000000000000000000000000600052601260045260246000fd5b500490565b600060208284031215614cd757600080fd5b815180151581146132a257600080fd5b60007fffffffffffffffffffffffffffffffffffffffffffffffffffffffffffffffff8203614d1857614d18614c5b565b5060010190565b8151600090829060208501835b82811015614d4a578151845260209384019390910190600101614d2c565b509195945050505050565b80820180821115610a5157610a51614c5b565b6001600160a01b038616815284602082015283604082015260a060608201526000614d9660a0830185614167565b90506001600160a01b03831660808301529695505050505050565b604081526000614dc46040830185614167565b90508260208301529392505050565b81810381811115610a5157610a51614c5b565b7f4e487b7100000000000000000000000000000000000000000000000000000000600052603160045260246000fdfea2646970667358221220f65ef9d5882e7549ef5ee089a7c11298d4b2ca2ec131040e53eccf723b6d7d6b64736f6c634300081c0033",
  "linkReferences": {},
  "deployedLinkReferences": {}
}