{
  "_format": "hh-sol-artifact-1",
  "contractName": "SimplePredictionsOracle",
  "sourceName": "contracts/SimplePredictionsOracle.sol",
  "abi": [
    {
      "inputs": [
        {
          "internalType": "address",
          "name": "_conditionalTokens",
          "type": "address"
        },
        {
          "internalType": "address",
          "name": "_FPMMFactory",
          "type": "address"
        },
        {
          "internalType": "address",
          "name": "_collateralToken",
          "type": "address"
        },
        {
          "internalType": "address",
          "name": "_pythOracle",
          "type": "address"
        }
      ],
      "stateMutability": "nonpayable",
      "type": "constructor"
    },
    {
      "inputs": [
        {
          "internalType": "address",
          "name": "owner",
          "type": "address"
        }
      ],
      "name": "OwnableInvalidOwner",
      "type": "error"
    },
    {
      "inputs": [
        {
          "internalType": "address",
          "name": "account",
          "type": "address"
        }
      ],
      "name": "OwnableUnauthorizedAccount",
      "type": "error"
    },
    {
      "inputs": [],
      "name": "ReentrancyGuardReentrantCall",
      "type": "error"
    },
    {
      "anonymous": false,
      "inputs": [
        {
          "indexed": true,
          "internalType": "address",
          "name": "wallet",
          "type": "address"
        },
        {
          "indexed": true,
          "internalType": "address",
          "name": "fpmmAddress",
          "type": "address"
        },
        {
          "indexed": true,
          "internalType": "bytes32",
          "name": "questionId",
          "type": "bytes32"
        },
        {
          "indexed": false,
          "internalType": "uint256",
          "name": "investmentAmount",
          "type": "uint256"
        },
        {
          "indexed": false,
          "internalType": "uint256",
          "name": "feeAmount",
          "type": "uint256"
        },
        {
          "indexed": false,
          "internalType": "uint256",
          "name": "outcomeIndex",
          "type": "uint256"
        },
        {
          "indexed": false,
          "internalType": "uint256",
          "name": "outcomeTokensBought",
          "type": "uint256"
        }
      ],
      "name": "BuyPosition",
      "type": "event"
    },
    {
      "anonymous": false,
      "inputs": [
        {
          "indexed": true,
          "internalType": "bytes32",
          "name": "questionId",
          "type": "bytes32"
        },
        {
          "indexed": true,
          "internalType": "bytes32",
          "name": "priceId",
          "type": "bytes32"
        },
        {
          "indexed": false,
          "internalType": "int64",
          "name": "initialPrice",
          "type": "int64"
        },
        {
          "indexed": false,
          "internalType": "uint256",
          "name": "endTimestamp",
          "type": "uint256"
        },
        {
          "indexed": false,
          "internalType": "address",
          "name": "fpmmAddress",
          "type": "address"
        }
      ],
      "name": "MarketCreated",
      "type": "event"
    },
    {
      "anonymous": false,
      "inputs": [
        {
          "indexed": true,
          "internalType": "bytes32",
          "name": "questionId",
          "type": "bytes32"
        },
        {
          "indexed": false,
          "internalType": "int64",
          "name": "finalPrice",
          "type": "int64"
        },
        {
          "indexed": false,
          "internalType": "uint256[]",
          "name": "payouts",
          "type": "uint256[]"
        }
      ],
      "name": "MarketResolved",
      "type": "event"
    },
    {
      "anonymous": false,
      "inputs": [
        {
          "indexed": true,
          "internalType": "address",
          "name": "previousOwner",
          "type": "address"
        },
        {
          "indexed": true,
          "internalType": "address",
          "name": "newOwner",
          "type": "address"
        }
      ],
      "name": "OwnershipTransferred",
      "type": "event"
    },
    {
      "anonymous": false,
      "inputs": [
        {
          "indexed": true,
          "internalType": "address",
          "name": "wallet",
          "type": "address"
        },
        {
          "indexed": true,
          "internalType": "address",
          "name": "fpmmAddress",
          "type": "address"
        },
        {
          "indexed": true,
          "internalType": "bytes32",
          "name": "questionId",
          "type": "bytes32"
        },
        {
          "indexed": false,
          "internalType": "uint256[]",
          "name": "indexSets",
          "type": "uint256[]"
        },
        {
          "indexed": false,
          "internalType": "uint256",
          "name": "totalPayout",
          "type": "uint256"
        }
      ],
      "name": "RedeemPosition",
      "type": "event"
    },
    {
      "inputs": [],
      "name": "FPMMFactory",
      "outputs": [
        {
          "internalType": "contract IFactory",
          "name": "",
          "type": "address"
        }
      ],
      "stateMutability": "view",
      "type": "function"
    },
    {
      "inputs": [
        {
          "internalType": "uint256",
          "name": "",
          "type": "uint256"
        }
      ],
      "name": "activeMarketIds",
      "outputs": [
        {
          "internalType": "bytes32",
          "name": "",
          "type": "bytes32"
        }
      ],
      "stateMutability": "view",
      "type": "function"
    },
    {
      "inputs": [
        {
          "internalType": "bytes32",
          "name": "",
          "type": "bytes32"
        }
      ],
      "name": "answers",
      "outputs": [
        {
          "internalType": "uint256",
          "name": "answerTimestamp",
          "type": "uint256"
        },
        {
          "internalType": "string",
          "name": "answerCid",
          "type": "string"
        }
      ],
      "stateMutability": "view",
      "type": "function"
    },
    {
      "inputs": [
        {
          "internalType": "bytes32",
          "name": "questionId",
          "type": "bytes32"
        },
        {
          "internalType": "uint256",
          "name": "outcomeIndex",
          "type": "uint256"
        },
        {
          "internalType": "uint256",
          "name": "amount",
          "type": "uint256"
        },
        {
          "internalType": "uint256",
          "name": "minOutcomeTokensToBuy",
          "type": "uint256"
        },
        {
          "internalType": "address",
          "name": "conditionTokensReceiver",
          "type": "address"
        }
      ],
      "name": "buyPosition",
      "outputs": [],
      "stateMutability": "nonpayable",
      "type": "function"
    },
    {
      "inputs": [],
      "name": "collateralToken",
      "outputs": [
        {
          "internalType": "contract Token",
          "name": "",
          "type": "address"
        }
      ],
      "stateMutability": "view",
      "type": "function"
    },
    {
      "inputs": [],
      "name": "conditionalTokens",
      "outputs": [
        {
          "internalType": "contract ConditionalTokens",
          "name": "",
          "type": "address"
        }
      ],
      "stateMutability": "view",
      "type": "function"
    },
    {
      "inputs": [
        {
          "internalType": "bytes32[]",
          "name": "_priceIds",
          "type": "bytes32[]"
        },
        {
          "internalType": "uint256",
          "name": "_initialFunding",
          "type": "uint256"
        }
      ],
      "name": "configureMarkets",
      "outputs": [],
      "stateMutability": "nonpayable",
      "type": "function"
    },
    {
      "inputs": [
        {
          "internalType": "bytes32",
          "name": "questionId",
          "type": "bytes32"
        },
        {
          "internalType": "uint256",
          "name": "randomIndex",
          "type": "uint256"
        },
        {
          "internalType": "uint256",
          "name": "marketEndTimestamp",
          "type": "uint256"
        },
        {
          "internalType": "bytes[]",
          "name": "priceUpdateData",
          "type": "bytes[]"
        }
      ],
      "name": "createMarket",
      "outputs": [
        {
          "internalType": "bytes32",
          "name": "",
          "type": "bytes32"
        }
      ],
      "stateMutability": "payable",
      "type": "function"
    },
    {
      "inputs": [],
      "name": "emergencyWithdraw",
      "outputs": [],
      "stateMutability": "nonpayable",
      "type": "function"
    },
    {
      "inputs": [],
      "name": "emergencyWithdrawETH",
      "outputs": [],
      "stateMutability": "nonpayable",
      "type": "function"
    },
    {
      "inputs": [
        {
          "internalType": "bytes32",
          "name": "priceId",
          "type": "bytes32"
        }
      ],
      "name": "getCurrentPrice",
      "outputs": [
        {
          "components": [
            {
              "internalType": "int64",
              "name": "price",
              "type": "int64"
            },
            {
              "internalType": "uint64",
              "name": "conf",
              "type": "uint64"
            },
            {
              "internalType": "int32",
              "name": "expo",
              "type": "int32"
            },
            {
              "internalType": "uint256",
              "name": "publishTime",
              "type": "uint256"
            }
          ],
          "internalType": "struct PythStructs.Price",
          "name": "",
          "type": "tuple"
        }
      ],
      "stateMutability": "view",
      "type": "function"
    },
    {
      "inputs": [
        {
          "internalType": "bytes32",
          "name": "questionId",
          "type": "bytes32"
        }
      ],
      "name": "getDetailedMarketData",
      "outputs": [
        {
          "components": [
            {
              "internalType": "uint256",
              "name": "beginTimestamp",
              "type": "uint256"
            },
            {
              "internalType": "uint256",
              "name": "endTimestamp",
              "type": "uint256"
            },
            {
              "internalType": "address",
              "name": "fpmm",
              "type": "address"
            },
            {
              "internalType": "bytes32",
              "name": "priceFeedId",
              "type": "bytes32"
            },
            {
              "internalType": "bytes32",
              "name": "conditionId",
              "type": "bytes32"
            },
            {
              "internalType": "int64",
              "name": "initialPrice",
              "type": "int64"
            },
            {
              "internalType": "int64",
              "name": "finalPrice",
              "type": "int64"
            },
            {
              "internalType": "uint256",
              "name": "finalPriceTimestamp",
              "type": "uint256"
            }
          ],
          "internalType": "struct SimplePredictionsOracle.QuestionData",
          "name": "questionData",
          "type": "tuple"
        },
        {
          "components": [
            {
              "internalType": "uint256[]",
              "name": "payouts",
              "type": "uint256[]"
            },
            {
              "internalType": "uint256",
              "name": "answerTimestamp",
              "type": "uint256"
            },
            {
              "internalType": "string",
              "name": "answerCid",
              "type": "string"
            }
          ],
          "internalType": "struct SimplePredictionsOracle.AnswerData",
          "name": "answerData",
          "type": "tuple"
        },
        {
          "internalType": "uint256",
          "name": "uniqueBuys",
          "type": "uint256"
        },
        {
          "internalType": "uint256[]",
          "name": "probabilities",
          "type": "uint256[]"
        },
        {
          "internalType": "uint256[]",
          "name": "buyAmounts",
          "type": "uint256[]"
        },
        {
          "internalType": "bool",
          "name": "isResolved",
          "type": "bool"
        },
        {
          "internalType": "bool",
          "name": "hasExpired",
          "type": "bool"
        },
        {
          "internalType": "int64",
          "name": "currentPrice",
          "type": "int64"
        }
      ],
      "stateMutability": "view",
      "type": "function"
    },
    {
      "inputs": [],
      "name": "getMarketConfig",
      "outputs": [
        {
          "components": [
            {
              "internalType": "bytes32[]",
              "name": "priceIds",
              "type": "bytes32[]"
            },
            {
              "internalType": "uint256",
              "name": "initialFunding",
              "type": "uint256"
            }
          ],
          "internalType": "struct SimplePredictionsOracle.MarketConfig",
          "name": "",
          "type": "tuple"
        }
      ],
      "stateMutability": "view",
      "type": "function"
    },
    {
      "inputs": [
        {
          "internalType": "bytes32",
          "name": "questionId",
          "type": "bytes32"
        }
      ],
      "name": "getMarketData",
      "outputs": [
        {
          "components": [
            {
              "components": [
                {
                  "internalType": "uint256",
                  "name": "beginTimestamp",
                  "type": "uint256"
                },
                {
                  "internalType": "uint256",
                  "name": "endTimestamp",
                  "type": "uint256"
                },
                {
                  "internalType": "address",
                  "name": "fpmm",
                  "type": "address"
                },
                {
                  "internalType": "bytes32",
                  "name": "priceFeedId",
                  "type": "bytes32"
                },
                {
                  "internalType": "bytes32",
                  "name": "conditionId",
                  "type": "bytes32"
                },
                {
                  "internalType": "int64",
                  "name": "initialPrice",
                  "type": "int64"
                },
                {
                  "internalType": "int64",
                  "name": "finalPrice",
                  "type": "int64"
                },
                {
                  "internalType": "uint256",
                  "name": "finalPriceTimestamp",
                  "type": "uint256"
                }
              ],
              "internalType": "struct SimplePredictionsOracle.QuestionData",
              "name": "questionData",
              "type": "tuple"
            },
            {
              "components": [
                {
                  "internalType": "uint256[]",
                  "name": "payouts",
                  "type": "uint256[]"
                },
                {
                  "internalType": "uint256",
                  "name": "answerTimestamp",
                  "type": "uint256"
                },
                {
                  "internalType": "string",
                  "name": "answerCid",
                  "type": "string"
                }
              ],
              "internalType": "struct SimplePredictionsOracle.AnswerData",
              "name": "answerData",
              "type": "tuple"
            },
            {
              "internalType": "uint256",
              "name": "uniqueBuys",
              "type": "uint256"
            },
            {
              "internalType": "uint256[]",
              "name": "probabilities",
              "type": "uint256[]"
            },
            {
              "internalType": "uint256[]",
              "name": "buyAmounts",
              "type": "uint256[]"
            }
          ],
          "internalType": "struct SimplePredictionsOracle.MarketData",
          "name": "",
          "type": "tuple"
        }
      ],
      "stateMutability": "view",
      "type": "function"
    },
    {
      "inputs": [
        {
          "internalType": "bytes32",
          "name": "questionId",
          "type": "bytes32"
        },
        {
          "internalType": "uint256[]",
          "name": "indexSets",
          "type": "uint256[]"
        },
        {
          "internalType": "address",
          "name": "holder",
          "type": "address"
        }
      ],
      "name": "getPositionBalances",
      "outputs": [
        {
          "internalType": "uint256[]",
          "name": "balances",
          "type": "uint256[]"
        }
      ],
      "stateMutability": "view",
      "type": "function"
    },
    {
      "inputs": [
        {
          "internalType": "bytes32",
          "name": "questionId",
          "type": "bytes32"
        },
        {
          "internalType": "address",
          "name": "spender",
          "type": "address"
        }
      ],
      "name": "getRemainingBuyAmount",
      "outputs": [
        {
          "internalType": "uint256",
          "name": "",
          "type": "uint256"
        }
      ],
      "stateMutability": "view",
      "type": "function"
    },
    {
      "inputs": [
        {
          "internalType": "address",
          "name": "user",
          "type": "address"
        }
      ],
      "name": "getUserClosedPositions",
      "outputs": [
        {
          "internalType": "bytes32[]",
          "name": "",
          "type": "bytes32[]"
        }
      ],
      "stateMutability": "view",
      "type": "function"
    },
    {
      "inputs": [
        {
          "internalType": "address",
          "name": "user",
          "type": "address"
        }
      ],
      "name": "getUserOpenPositions",
      "outputs": [
        {
          "internalType": "bytes32[]",
          "name": "",
          "type": "bytes32[]"
        }
      ],
      "stateMutability": "view",
      "type": "function"
    },
    {
      "inputs": [],
      "name": "lastMarketTime",
      "outputs": [
        {
          "internalType": "uint256",
          "name": "",
          "type": "uint256"
        }
      ],
      "stateMutability": "view",
      "type": "function"
    },
    {
      "inputs": [],
      "name": "marketConfig",
      "outputs": [
        {
          "internalType": "uint256",
          "name": "initialFunding",
          "type": "uint256"
        }
      ],
      "stateMutability": "view",
      "type": "function"
    },
    {
      "inputs": [],
      "name": "maxBuyAmountPerQuestion",
      "outputs": [
        {
          "internalType": "uint256",
          "name": "",
          "type": "uint256"
        }
      ],
      "stateMutability": "view",
      "type": "function"
    },
    {
      "inputs": [],
      "name": "minBuyAmount",
      "outputs": [
        {
          "internalType": "uint256",
          "name": "",
          "type": "uint256"
        }
      ],
      "stateMutability": "view",
      "type": "function"
    },
    {
      "inputs": [
        {
          "internalType": "address",
          "name": "",
          "type": "address"
        },
        {
          "internalType": "address",
          "name": "",
          "type": "address"
        },
        {
          "internalType": "uint256[]",
          "name": "",
          "type": "uint256[]"
        },
        {
          "internalType": "uint256[]",
          "name": "",
          "type": "uint256[]"
        },
        {
          "internalType": "bytes",
          "name": "",
          "type": "bytes"
        }
      ],
      "name": "onERC1155BatchReceived",
      "outputs": [
        {
          "internalType": "bytes4",
          "name": "",
          "type": "bytes4"
        }
      ],
      "stateMutability": "nonpayable",
      "type": "function"
    },
    {
      "inputs": [
        {
          "internalType": "address",
          "name": "",
          "type": "address"
        },
        {
          "internalType": "address",
          "name": "",
          "type": "address"
        },
        {
          "internalType": "uint256",
          "name": "",
          "type": "uint256"
        },
        {
          "internalType": "uint256",
          "name": "",
          "type": "uint256"
        },
        {
          "internalType": "bytes",
          "name": "",
          "type": "bytes"
        }
      ],
      "name": "onERC1155Received",
      "outputs": [
        {
          "internalType": "bytes4",
          "name": "",
          "type": "bytes4"
        }
      ],
      "stateMutability": "nonpayable",
      "type": "function"
    },
    {
      "inputs": [],
      "name": "owner",
      "outputs": [
        {
          "internalType": "address",
          "name": "",
          "type": "address"
        }
      ],
      "stateMutability": "view",
      "type": "function"
    },
    {
      "inputs": [],
      "name": "pythOracle",
      "outputs": [
        {
          "internalType": "contract IPyth",
          "name": "",
          "type": "address"
        }
      ],
      "stateMutability": "view",
      "type": "function"
    },
    {
      "inputs": [
        {
          "internalType": "bytes32",
          "name": "",
          "type": "bytes32"
        }
      ],
      "name": "questions",
      "outputs": [
        {
          "internalType": "uint256",
          "name": "beginTimestamp",
          "type": "uint256"
        },
        {
          "internalType": "uint256",
          "name": "endTimestamp",
          "type": "uint256"
        },
        {
          "internalType": "address",
          "name": "fpmm",
          "type": "address"
        },
        {
          "internalType": "bytes32",
          "name": "priceFeedId",
          "type": "bytes32"
        },
        {
          "internalType": "bytes32",
          "name": "conditionId",
          "type": "bytes32"
        },
        {
          "internalType": "int64",
          "name": "initialPrice",
          "type": "int64"
        },
        {
          "internalType": "int64",
          "name": "finalPrice",
          "type": "int64"
        },
        {
          "internalType": "uint256",
          "name": "finalPriceTimestamp",
          "type": "uint256"
        }
      ],
      "stateMutability": "view",
      "type": "function"
    },
    {
      "inputs": [
        {
          "internalType": "bytes32",
          "name": "questionId",
          "type": "bytes32"
        },
        {
          "internalType": "uint256[]",
          "name": "indexSets",
          "type": "uint256[]"
        }
      ],
      "name": "redeemPosition",
      "outputs": [],
      "stateMutability": "nonpayable",
      "type": "function"
    },
    {
      "inputs": [
        {
          "internalType": "uint256",
          "name": "num",
          "type": "uint256"
        }
      ],
      "name": "redeemPositions",
      "outputs": [],
      "stateMutability": "nonpayable",
      "type": "function"
    },
    {
      "inputs": [],
      "name": "renounceOwnership",
      "outputs": [],
      "stateMutability": "nonpayable",
      "type": "function"
    },
    {
      "inputs": [
        {
          "internalType": "bytes32",
          "name": "questionId",
          "type": "bytes32"
        },
        {
          "internalType": "bytes[]",
          "name": "priceUpdateData",
          "type": "bytes[]"
        },
        {
          "internalType": "string",
          "name": "answerCid",
          "type": "string"
        }
      ],
      "name": "resolveMarket",
      "outputs": [],
      "stateMutability": "payable",
      "type": "function"
    },
    {
      "inputs": [],
      "name": "sellEnabled",
      "outputs": [
        {
          "internalType": "bool",
          "name": "",
          "type": "bool"
        }
      ],
      "stateMutability": "view",
      "type": "function"
    },
    {
      "inputs": [],
      "name": "stopTradingBeforeMarketEnd",
      "outputs": [
        {
          "internalType": "uint256",
          "name": "",
          "type": "uint256"
        }
      ],
      "stateMutability": "view",
      "type": "function"
    },
    {
      "inputs": [
        {
          "internalType": "bytes4",
          "name": "interfaceId",
          "type": "bytes4"
        }
      ],
      "name": "supportsInterface",
      "outputs": [
        {
          "internalType": "bool",
          "name": "",
          "type": "bool"
        }
      ],
      "stateMutability": "view",
      "type": "function"
    },
    {
      "inputs": [
        {
          "internalType": "address",
          "name": "newOwner",
          "type": "address"
        }
      ],
      "name": "transferOwnership",
      "outputs": [],
      "stateMutability": "nonpayable",
      "type": "function"
    },
    {
      "inputs": [
        {
          "internalType": "address",
          "name": "_conditionalTokens",
          "type": "address"
        },
        {
          "internalType": "address",
          "name": "_FPMMFactory",
          "type": "address"
        },
        {
          "internalType": "address",
          "name": "_collateralToken",
          "type": "address"
        },
        {
          "internalType": "address",
          "name": "_pythOracle",
          "type": "address"
        }
      ],
      "name": "updateContracts",
      "outputs": [],
      "stateMutability": "nonpayable",
      "type": "function"
    },
    {
      "inputs": [
        {
          "internalType": "uint256",
          "name": "_maxBuyAmountPerQuestion",
          "type": "uint256"
        }
      ],
      "name": "updateMaxBuyAmountPerQuestion",
      "outputs": [],
      "stateMutability": "nonpayable",
      "type": "function"
    },
    {
      "inputs": [
        {
          "internalType": "uint256",
          "name": "_minBuyAmount",
          "type": "uint256"
        }
      ],
      "name": "updateMinBuyAmount",
      "outputs": [],
      "stateMutability": "nonpayable",
      "type": "function"
    },
    {
      "inputs": [
        {
          "internalType": "uint256",
          "name": "_stopTradingBeforeMarketEnd",
          "type": "uint256"
        }
      ],
      "name": "updateStopTradingBeforeMarketEnd",
      "outputs": [],
      "stateMutability": "nonpayable",
      "type": "function"
    },
    {
      "inputs": [
        {
          "internalType": "bytes32",
          "name": "",
          "type": "bytes32"
        },
        {
          "internalType": "address",
          "name": "",
          "type": "address"
        }
      ],
      "name": "userBuyAmounts",
      "outputs": [
        {
          "internalType": "uint256",
          "name": "",
          "type": "uint256"
        }
      ],
      "stateMutability": "view",
      "type": "function"
    },
    {
      "inputs": [
        {
          "internalType": "address",
          "name": "",
          "type": "address"
        }
      ],
      "name": "userRedeemed",
      "outputs": [
        {
          "internalType": "uint256",
          "name": "",
          "type": "uint256"
        }
      ],
      "stateMutability": "view",
      "type": "function"
    },
    {
      "inputs": [
        {
          "internalType": "address",
          "name": "",
          "type": "address"
        }
      ],
      "name": "userSpendings",
      "outputs": [
        {
          "internalType": "uint256",
          "name": "",
          "type": "uint256"
        }
      ],
      "stateMutability": "view",
      "type": "function"
    },
    {
      "stateMutability": "payable",
      "type": "receive"
    }
  ],
  "bytecode": "0x6080604052670de0b6b3a7640000600655683635c9adc5dea0000060075561012c6008556009805460ff1916905534801561003957600080fd5b50604051614fef380380614fef83398101604081905261005891610150565b338061007e57604051631e4fbdf760e01b81526000600482015260240160405180910390fd5b610087816100e4565b5060018055600280546001600160a01b039586166001600160a01b03199182161790915560038054948616948216949094179093556004805492851692841692909217909155600580549190931691161790556000600a556101a4565b600080546001600160a01b038381166001600160a01b0319831681178455604051919092169283917f8be0079c531659141344cd1fd0a4f28419497f9722a3daafe3b4186f6b6457e09190a35050565b80516001600160a01b038116811461014b57600080fd5b919050565b6000806000806080858703121561016657600080fd5b61016f85610134565b935061017d60208601610134565b925061018b60408601610134565b915061019960608601610134565b905092959194509250565b614e3c806101b36000396000f3fe6080604052600436106102d55760003560e01c80638da5cb5b11610179578063c9a8c2a3116100d6578063de8620231161008a578063f2fde38b11610064578063f2fde38b14610968578063f5d6ac9014610988578063f66bf229146109a857600080fd5b8063de862023146108ed578063deaf431d1461090d578063f23a6e611461092357600080fd5b8063d79635fb116100bb578063d79635fb14610898578063db219e23146108b8578063db2e21bc146108d857600080fd5b8063c9a8c2a31461084b578063d1d0d16c1461086b57600080fd5b8063a2e786531161012d578063b2016bd411610112578063b2016bd414610795578063b7d58422146107b5578063bc197c81146107d557600080fd5b8063a2e7865314610747578063aac753b61461076757600080fd5b806391da9f7a1161015e57806391da9f7a1461064157806395addb90146106545780639f477d741461071a57600080fd5b80638da5cb5b146106035780638fded67d1461062157600080fd5b8063493fc96c116102325780636562412a116101e657806382994efa116101c057806382994efa146105b857806384536017146105d85780638cefb59c146105ed57600080fd5b80636562412a1461054f578063715018a6146105835780637ac5d7781461059857600080fd5b80635b212f3d116102175780635b212f3d146104f75780635bd9e2991461050d578063614bd9441461052d57600080fd5b8063493fc96c146104bd57806358197a9d146104dd57600080fd5b806323c113dc1161028957806330f4f4bb1161026e57806330f4f4bb1461042b578063320d94b2146104585780634441aacb1461049057600080fd5b806323c113dc146103f45780632f6c10701461040b57600080fd5b8063161e444e116102ba578063161e444e14610338578063165244061461039b5780631f3990de146103ae57600080fd5b806301ffc9a7146102e15780630b7512791461031657600080fd5b366102dc57005b600080fd5b3480156102ed57600080fd5b506103016102fc366004613e9f565b6109be565b60405190151581526020015b60405180910390f35b34801561032257600080fd5b50610336610331366004613ef6565b610a57565b005b34801561034457600080fd5b50610358610353366004613f52565b610ac7565b60405161030d9190815160070b815260208083015167ffffffffffffffff169082015260408083015160030b908201526060918201519181019190915260800190565b6103366103a936600461409c565b610b6d565b3480156103ba57600080fd5b506103e66103c9366004614128565b601560209081526000928352604080842090915290825290205481565b60405190815260200161030d565b34801561040057600080fd5b50600c546103e69081565b34801561041757600080fd5b50610336610426366004613f52565b611211565b34801561043757600080fd5b5061044b610446366004613f52565b61121e565b60405161030d919061421b565b34801561046457600080fd5b50600354610478906001600160a01b031681565b6040516001600160a01b03909116815260200161030d565b34801561049c57600080fd5b506104b06104ab3660046142eb565b611654565b60405161030d9190614308565b3480156104c957600080fd5b506104b06104d83660046143ac565b611736565b3480156104e957600080fd5b506009546103019060ff1681565b34801561050357600080fd5b506103e660085481565b34801561051957600080fd5b50600254610478906001600160a01b031681565b34801561053957600080fd5b50610542611a06565b60405161030d9190614407565b34801561055b57600080fd5b5061056f61056a366004613f52565b611a86565b60405161030d989796959493929190614439565b34801561058f57600080fd5b50610336611fff565b3480156105a457600080fd5b506103366105b336600461450a565b612013565b3480156105c457600080fd5b506103366105d3366004613f52565b6120dc565b3480156105e457600080fd5b506103366120e9565b3480156105f957600080fd5b506103e6600d5481565b34801561060f57600080fd5b506000546001600160a01b0316610478565b34801561062d57600080fd5b5061033661063c366004613f52565b612124565b6103e661064f366004614556565b612131565b34801561066057600080fd5b506106cb61066f366004613f52565b600f602052600090815260409020805460018201546002830154600384015460048501546005860154600690960154949593946001600160a01b039093169391929091600781810b9268010000000000000000909204900b9088565b6040805198895260208901979097526001600160a01b039095169587019590955260608601929092526080850152600790810b60a08501529190910b60c083015260e08201526101000161030d565b34801561072657600080fd5b506103e66107353660046142eb565b60116020526000908152604090205481565b34801561075357600080fd5b50610336610762366004613f52565b612a27565b34801561077357600080fd5b50610787610782366004613f52565b612cff565b60405161030d9291906145b7565b3480156107a157600080fd5b50600454610478906001600160a01b031681565b3480156107c157600080fd5b506103366107d03660046145d8565b612da7565b3480156107e157600080fd5b5061081a6107f036600461463f565b7fbc197c810000000000000000000000000000000000000000000000000000000095945050505050565b6040517fffffffff00000000000000000000000000000000000000000000000000000000909116815260200161030d565b34801561085757600080fd5b506103e6610866366004613f52565b613242565b34801561087757600080fd5b506103e66108863660046142eb565b60106020526000908152604090205481565b3480156108a457600080fd5b506103e66108b3366004614128565b613263565b3480156108c457600080fd5b506103366108d33660046146f9565b61329a565b3480156108e457600080fd5b506103366138cc565b3480156108f957600080fd5b506104b06109083660046142eb565b6139f3565b34801561091957600080fd5b506103e660075481565b34801561092f57600080fd5b5061081a61093e366004614746565b7ff23a6e610000000000000000000000000000000000000000000000000000000095945050505050565b34801561097457600080fd5b506103366109833660046142eb565b613ace565b34801561099457600080fd5b50600554610478906001600160a01b031681565b3480156109b457600080fd5b506103e660065481565b60007fffffffff0000000000000000000000000000000000000000000000000000000082167f4e2312e0000000000000000000000000000000000000000000000000000000001480610a5157507f01ffc9a7000000000000000000000000000000000000000000000000000000007fffffffff000000000000000000000000000000000000000000000000000000008316145b92915050565b610a5f613b22565b600280546001600160a01b039586167fffffffffffffffffffffffff0000000000000000000000000000000000000000918216179091556003805494861694821694909417909355600480549285169284169290921790915560058054919093169116179055565b60408051608081018252600080825260208201819052818301819052606082015260055491517f96834ad30000000000000000000000000000000000000000000000000000000081526004810184905290916001600160a01b0316906396834ad390602401608060405180830381865afa158015610b49573d6000803e3d6000fd5b505050506040513d601f19601f82011682018060405250810190610a5191906147a3565b83610bbf5760405162461bcd60e51b815260206004820152601660248201527f4e6f207175657374696f6e20746f207265736f6c76650000000000000000000060448201526064015b60405180910390fd5b6000848152600f6020908152604091829020825161010081018452815480825260018301549382019390935260028201546001600160a01b03169381019390935260038101546060840152600481015460808401526005810154600781810b60a086015268010000000000000000909104900b60c08401526006015460e0830152610c8c5760405162461bcd60e51b815260206004820152601660248201527f4d61726b6574206e6f7420696e697469616c697a6564000000000000000000006044820152606401610bb6565b8060200151421015610ce05760405162461bcd60e51b815260206004820152601360248201527f4d61726b6574207374696c6c20616374697665000000000000000000000000006044820152606401610bb6565b60008581526014602052604090206001015415610d3f5760405162461bcd60e51b815260206004820152601760248201527f4d61726b657420616c7265616479207265736f6c7665640000000000000000006044820152606401610bb6565b6005546040517fd47eed450000000000000000000000000000000000000000000000000000000081526000916001600160a01b03169063d47eed4590610d8b908890889060040161484b565b602060405180830381865afa158015610da8573d6000803e3d6000fd5b505050506040513d601f19601f82011682018060405250810190610dcc919061492a565b905080341015610e445760405162461bcd60e51b815260206004820152602160248201527f496e73756666696369656e742066656520666f7220707269636520757064617460448201527f65000000000000000000000000000000000000000000000000000000000000006064820152608401610bb6565b6005546040517fef9e5e280000000000000000000000000000000000000000000000000000000081526001600160a01b039091169063ef9e5e28908390610e91908990899060040161484b565b6000604051808303818588803b158015610eaa57600080fd5b505af1158015610ebe573d6000803e3d6000fd5b505060055460608601516040517f96834ad3000000000000000000000000000000000000000000000000000000008152600095506001600160a01b0390921693506396834ad39250610f169160040190815260200190565b608060405180830381865afa158015610f33573d6000803e3d6000fd5b505050506040513d601f19601f82011682018060405250810190610f5791906147a3565b90506000816000015160070b13610fb05760405162461bcd60e51b815260206004820152601860248201527f496e76616c69642066696e616c207072696365206461746100000000000000006044820152606401610bb6565b60008160600151116110045760405162461bcd60e51b815260206004820152601d60248201527f496e76616c69642066696e616c2070726963652074696d657374616d700000006044820152606401610bb6565b8051606080830151600783810b60c0880181905260e0880183905260a08801516040805160028082529681019091529394920b129160009181602001602082028036833701905050905081156110a257670de0b6b3a76400008160008151811061107057611070614943565b60200260200101818152505060008160018151811061109157611091614943565b6020026020010181815250506110ec565b6000816000815181106110b7576110b7614943565b602002602001018181525050670de0b6b3a7640000816001815181106110df576110df614943565b6020026020010181815250505b60408051606081018252828152426020808301919091528183018b905260008e81526014825292909220815180519293919261112b9284920190613dad565b50602082015160018201556040820151600282019061114a9082614a11565b50506002546040517fc49298ac0000000000000000000000000000000000000000000000000000000081526001600160a01b03909116915063c49298ac90611198908e908590600401614b0c565b600060405180830381600087803b1580156111b257600080fd5b505af11580156111c6573d6000803e3d6000fd5b505050508a7f689c9a00f150f4afd036f5ba71377873dbe90921195491808afaed660a65d37385836040516111fc929190614b25565b60405180910390a25050505050505050505050565b611219613b22565b600655565b611226613df8565b6000828152600f602090815260408083206002015481517f91c024a600000000000000000000000000000000000000000000000000000000815291516001600160a01b03909116939284926391c024a692600480830193928290030181865afa158015611297573d6000803e3d6000fd5b505050506040513d601f19601f820116820180604052508101906112bb919061492a565b90506000826001600160a01b0316632cc76d3f6040518163ffffffff1660e01b8152600401600060405180830381865afa1580156112fd573d6000803e3d6000fd5b505050506040513d6000823e601f3d908101601f191682016040526113259190810190614b41565b6040805160028082526060820183529293506000929091602083019080368337019050506040517ff55c79d0000000000000000000000000000000000000000000000000000000008152670de0b6b3a76400006004820152600060248201529091506001600160a01b0385169063f55c79d090604401602060405180830381865afa1580156113b8573d6000803e3d6000fd5b505050506040513d601f19601f820116820180604052508101906113dc919061492a565b816000815181106113ef576113ef614943565b60209081029190910101526040517ff55c79d0000000000000000000000000000000000000000000000000000000008152670de0b6b3a76400006004820152600160248201526001600160a01b0385169063f55c79d090604401602060405180830381865afa158015611466573d6000803e3d6000fd5b505050506040513d601f19601f8201168201806040525081019061148a919061492a565b8160018151811061149d5761149d614943565b602090810291909101810191909152604080516000898152600f84528281206101a083018452805460a08401908152600182015460c085015260028201546001600160a01b031660e0850152600382015461010085015260048201546101208501526005820154600781810b61014087015268010000000000000000909104900b61016085015260069091015461018084015282528981526014845282902082518154608081870283018101909552606082018181529395860194919384929091849184018282801561158f57602002820191906000526020600020905b81548152602001906001019080831161157b575b50505050508152602001600182015481526020016002820180546115b290614972565b80601f01602080910402602001604051908101604052809291908181526020018280546115de90614972565b801561162b5780601f106116005761010080835404028352916020019161162b565b820191906000526020600020905b81548152906001019060200180831161160e57829003601f168201915b505050505081525050815260200184815260200183815260200182815250945050505050919050565b6001600160a01b03811660009081526012602052604081206060919061167990613b68565b67ffffffffffffffff81111561169157611691613fb7565b6040519080825280602002602001820160405280156116ba578160200160208202803683370190505b50905060005b6001600160a01b03841660009081526012602052604090206116e190613b68565b81101561172f576001600160a01b038416600090815260126020526040902061170a9082613b72565b82828151811061171c5761171c614943565b60209081029190910101526001016116c0565b5092915050565b6000838152600f602052604090206004015482516060919060039067ffffffffffffffff81111561176957611769613fb7565b604051908082528060200260200182016040528015611792578160200160208202803683370190505b50925060005b85518110156119fc5760008682815181106117b5576117b5614943565b602002602001015190506000811180156117ce57508281105b61181a5760405162461bcd60e51b815260206004820152601560248201527f476f7420696e76616c696420696e6465782073657400000000000000000000006044820152606401610bb6565b60025460048054600a546040517f856296f70000000000000000000000000000000000000000000000000000000081529283015260248201879052604482018490526000926001600160a01b03908116926339dd7530929190911690839063856296f790606401602060405180830381865afa15801561189e573d6000803e3d6000fd5b505050506040513d601f19601f820116820180604052508101906118c2919061492a565b6040517fffffffff0000000000000000000000000000000000000000000000000000000060e085901b1681526001600160a01b0390921660048301526024820152604401602060405180830381865afa158015611923573d6000803e3d6000fd5b505050506040513d601f19601f82011682018060405250810190611947919061492a565b6002546040517efdd58e0000000000000000000000000000000000000000000000000000000081526001600160a01b038a811660048301526024820184905292935091169062fdd58e90604401602060405180830381865afa1580156119b1573d6000803e3d6000fd5b505050506040513d601f19601f820116820180604052508101906119d5919061492a565b8684815181106119e7576119e7614943565b60209081029190910101525050600101611798565b5050509392505050565b60408051808201909152606081526000602082015260408051600b805460606020820284018101855293830181815292939192849290918491840182828015611a6e57602002820191906000526020600020905b815481526020019060010190808311611a5a575b50505050508152602001600182015481525050905090565b6040805161010081018252600080825260208201819052918101829052606081018290526080810182905260a0810182905260c0810182905260e0810191909152611aeb60405180606001604052806060815260200160008152602001606081525090565b6000838152600f602090815260408083208151610100810183528154815260018201548185015260028201546001600160a01b031681840152600382015460608281019190915260048301546080808401919091526005840154600781810b60a086015268010000000000000000909104900b60c084015260069093015460e08301528886526014855283862084518154968702810185019095528482018681529298509094859487948594859492938492849190840182828015611bcf57602002820191906000526020600020905b815481526020019060010190808311611bbb575b5050505050815260200160018201548152602001600282018054611bf290614972565b80601f0160208091040260200160405190810160405280929190818152602001828054611c1e90614972565b8015611c6b5780601f10611c4057610100808354040283529160200191611c6b565b820191906000526020600020905b815481529060010190602001808311611c4e57829003601f168201915b50505050508152505096506000886000015111611cca5760405162461bcd60e51b815260206004820152601060248201527f4d61726b6574206e6f7420666f756e64000000000000000000000000000000006044820152606401610bb6565b600088604001519050806001600160a01b03166391c024a66040518163ffffffff1660e01b8152600401602060405180830381865afa158015611d11573d6000803e3d6000fd5b505050506040513d601f19601f82011682018060405250810190611d35919061492a565b9650806001600160a01b0316632cc76d3f6040518163ffffffff1660e01b8152600401600060405180830381865afa158015611d75573d6000803e3d6000fd5b505050506040513d6000823e601f3d908101601f19168201604052611d9d9190810190614b41565b6040805160028082526060820183529298509190602083019080368337019050506040517ff55c79d0000000000000000000000000000000000000000000000000000000008152670de0b6b3a76400006004820152600060248201529095506001600160a01b0382169063f55c79d090604401602060405180830381865afa158015611e2d573d6000803e3d6000fd5b505050506040513d601f19601f82011682018060405250810190611e51919061492a565b85600081518110611e6457611e64614943565b60209081029190910101526040517ff55c79d0000000000000000000000000000000000000000000000000000000008152670de0b6b3a76400006004820152600160248201526001600160a01b0382169063f55c79d090604401602060405180830381865afa158015611edb573d6000803e3d6000fd5b505050506040513d601f19601f82011682018060405250810190611eff919061492a565b85600181518110611f1257611f12614943565b6020026020010181815250506000886020015111935088602001514210159250838015611f45575060c089015160070b15155b15611f56578860c001519150611ff3565b60055460608a01516040517f96834ad30000000000000000000000000000000000000000000000000000000081526001600160a01b03909216916396834ad391611fa69160040190815260200190565b608060405180830381865afa925050508015611fdf575060408051601f3d908101601f19168201909252611fdc918101906147a3565b60015b611fef578860a001519150611ff3565b5191505b50919395975091939597565b612007613b22565b6120116000613b7e565b565b61201b613b22565b6000811161206b5760405162461bcd60e51b815260206004820181905260248201527f496e697469616c2066756e64696e67206d75737420626520706f7369746976656044820152606401610bb6565b6040518060400160405280848480806020026020016040519081016040528093929190818152602001838360200280828437600092019190915250505090825250602090810183905281518051600b926120c9928492910190613dad565b5060208201518160010155905050505050565b6120e4613b22565b600855565b6120f1613b22565b6040514790339082156108fc029083906000818181858888f19350505050158015612120573d6000803e3d6000fd5b5050565b61212c613b22565b600755565b600b5460009085106121855760405162461bcd60e51b815260206004820152601460248201527f496e76616c69642072616e646f6d20696e6465780000000000000000000000006044820152606401610bb6565b600b546121d45760405162461bcd60e51b815260206004820152601960248201527f4e6f20707269636520666565647320636f6e66696775726564000000000000006044820152606401610bb6565b6005546040517fd47eed450000000000000000000000000000000000000000000000000000000081526000916001600160a01b03169063d47eed4590612220908790879060040161484b565b602060405180830381865afa15801561223d573d6000803e3d6000fd5b505050506040513d601f19601f82011682018060405250810190612261919061492a565b9050803410156122d95760405162461bcd60e51b815260206004820152602160248201527f496e73756666696369656e742066656520666f7220707269636520757064617460448201527f65000000000000000000000000000000000000000000000000000000000000006064820152608401610bb6565b6005546040517fef9e5e280000000000000000000000000000000000000000000000000000000081526001600160a01b039091169063ef9e5e28908390612326908890889060040161484b565b6000604051808303818588803b15801561233f57600080fd5b505af1158015612353573d6000803e3d6000fd5b5050600554600b8054600095506001600160a01b0390921693506396834ad39250908a90811061238557612385614943565b90600052602060002001546040518263ffffffff1660e01b81526004016123ae91815260200190565b608060405180830381865afa1580156123cb573d6000803e3d6000fd5b505050506040513d601f19601f820116820180604052508101906123ef91906147a3565b8051600280546040517fd96ee754000000000000000000000000000000000000000000000000000000008152306004820152602481018d9052604481019290925292935090916001600160a01b03169063d96ee75490606401600060405180830381600087803b15801561246257600080fd5b505af1158015612476573d6000803e3d6000fd5b5050600280546040517f852c6ae2000000000000000000000000000000000000000000000000000000008152306004820152602481018e90526044810192909252600093506001600160a01b0316915063852c6ae290606401602060405180830381865afa1580156124ec573d6000803e3d6000fd5b505050506040513d601f19601f82011682018060405250810190612510919061492a565b6040805160018082528183019092529192506000919060208083019080368337019050509050818160008151811061254a5761254a614943565b6020026020010181815250506000600360009054906101000a90046001600160a01b03166001600160a01b0316634aeecdc7600260009054906101000a90046001600160a01b0316600460009054906101000a90046001600160a01b0316856658d15e176280008f306040518763ffffffff1660e01b81526004016125d496959493929190614bd7565b6020604051808303816000875af11580156125f3573d6000803e3d6000fd5b505050506040513d601f19601f820116820180604052508101906126179190614c2f565b60408051600280825260608201835292935060009290916020830190803683370190505090506126506002670de0b6b3a7640000614c7b565b8160008151811061266357612663614943565b60209081029190910101526126816002670de0b6b3a7640000614c7b565b8160018151811061269457612694614943565b602090810291909101015260048054600c546040517f095ea7b30000000000000000000000000000000000000000000000000000000081526001600160a01b0386811694820194909452602481019190915291169063095ea7b3906044016020604051808303816000875af1158015612711573d6000803e3d6000fd5b505050506040513d601f19601f820116820180604052508101906127359190614cb6565b50600c546040517fd5f15a460000000000000000000000000000000000000000000000000000000081526001600160a01b0384169163d5f15a469161277f91908590600401614b0c565b600060405180830381600087803b15801561279957600080fd5b505af11580156127ad573d6000803e3d6000fd5b50506002546040517fa22cb4650000000000000000000000000000000000000000000000000000000081526001600160a01b03868116600483015260016024830152909116925063a22cb4659150604401600060405180830381600087803b15801561281857600080fd5b505af115801561282c573d6000803e3d6000fd5b505050506040518061010001604052804281526020018c8152602001836001600160a01b03168152602001600b6000018e8154811061286d5761286d614943565b906000526020600020015481526020018581526020018660070b8152602001600060070b81526020016000815250600f60008f8152602001908152602001600020600082015181600001556020820151816001015560408201518160020160006101000a8154816001600160a01b0302191690836001600160a01b03160217905550606082015181600301556080820151816004015560a08201518160050160006101000a81548167ffffffffffffffff021916908360070b67ffffffffffffffff16021790555060c08201518160050160086101000a81548167ffffffffffffffff021916908360070b67ffffffffffffffff16021790555060e0820151816006015590505042600d81905550600e8d9080600181540180825580915050600190039060005260206000200160009091909190915055600b6000018c815481106129ba576129ba614943565b6000918252602091829020015460408051600789900b81529283018e90526001600160a01b03851690830152908e907fdf8f087dcc3270a8dc5aae5cde3ee97bad699c27d1ee7520a2ef6a99df1748639060600160405180910390a3509a9b9a5050505050505050505050565b612a2f613be6565b336000908152601260205260408120612a4790613b68565b905060008111612a995760405162461bcd60e51b815260206004820152601b60248201527f4e6f206f70656e20706f736974696f6e7320746f2072656465656d00000000006044820152606401610bb6565b80821115612aa5578091505b6000612ab033611654565b905060008367ffffffffffffffff811115612acd57612acd613fb7565b604051908082528060200260200182016040528015612af6578160200160208202803683370190505b5090506000805b85811015612b8a57600060146000868481518110612b1d57612b1d614943565b60200260200101518152602001908152602001600020600101541115612b8257838181518110612b4f57612b4f614943565b6020026020010151838381518110612b6957612b69614943565b602090810291909101015281612b7e81614cd8565b9250505b600101612afd565b5060008111612c275760405162461bcd60e51b815260206004820152604760248201527f556e61626c6520746f2072656465656d20706f736974696f6e732c207265736f60448201527f6c7574696f6e2070656e64696e672e20506c656173652074727920616761696e60648201527f206c617465722e00000000000000000000000000000000000000000000000000608482015260a401610bb6565b60005b81811015612cee576000838281518110612c4657612c46614943565b602002602001015190506000600267ffffffffffffffff811115612c6c57612c6c613fb7565b604051908082528060200260200182016040528015612c95578160200160208202803683370190505b509050600181600081518110612cad57612cad614943565b602002602001018181525050600281600181518110612cce57612cce614943565b602002602001018181525050612ce48282612da7565b5050600101612c2a565b5050505050612cfc60018055565b50565b60146020526000908152604090206001810154600282018054919291612d2490614972565b80601f0160208091040260200160405190810160405280929190818152602001828054612d5090614972565b8015612d9d5780601f10612d7257610100808354040283529160200191612d9d565b820191906000526020600020905b815481529060010190602001808311612d8057829003601f168201915b5050505050905082565b6000828152600f6020908152604091829020825161010081018452815480825260018301549382019390935260028201546001600160a01b03169381019390935260038101546060840152600481015460808401526005810154600781810b60a086015268010000000000000000909104900b60c08401526006015460e0830152612e745760405162461bcd60e51b815260206004820152601060248201527f4d61726b6574206e6f7420666f756e64000000000000000000000000000000006044820152606401610bb6565b604080516002808252606082018352600092602083019080368337019050509050600181600081518110612eaa57612eaa614943565b602002602001018181525050600281600181518110612ecb57612ecb614943565b6020026020010181815250508251600214612f285760405162461bcd60e51b815260206004820152601260248201527f496e76616c696420696e646578207365747300000000000000000000000000006044820152606401610bb6565b80604051602001612f399190614d10565b6040516020818303038152906040528051906020012083604051602001612f609190614d10565b6040516020818303038152906040528051906020012014612fc35760405162461bcd60e51b815260206004820152601260248201527f496e76616c696420696e646578207365747300000000000000000000000000006044820152606401610bb6565b6000612fd0858533611736565b90506000805b825181101561300e57828181518110612ff157612ff1614943565b6020026020010151826130049190614d46565b9150600101612fd6565b506000811161305f5760405162461bcd60e51b815260206004820152601660248201527f4e6f20706f736974696f6e7320746f2072656465656d000000000000000000006044820152606401610bb6565b60025460048054600a5460008a8152600f602052604080822085015490517f06ffc33000000000000000000000000000000000000000000000000000000000815291956001600160a01b03908116956306ffc330956130c8959216939192918d91339101614d59565b6020604051808303816000875af11580156130e7573d6000803e3d6000fd5b505050506040513d601f19601f8201168201806040525081019061310b919061492a565b600480546040517fa9059cbb0000000000000000000000000000000000000000000000000000000081523392810192909252602482018390529192506001600160a01b039091169063a9059cbb906044016020604051808303816000875af115801561317b573d6000803e3d6000fd5b505050506040513d601f19601f8201168201806040525081019061319f9190614cb6565b5033600090815260116020526040812080548392906131bf908490614d46565b90915550503360009081526012602052604090206131dd9088613c29565b506000878152600f60205260409081902060020154905188916001600160a01b03169033907f395d4ff727a55028c83214812df1f1008c9880acfe64bb68226bec10e2730b8390613231908b908790614da2565b60405180910390a450505050505050565b600e818154811061325257600080fd5b600091825260209091200154905081565b60008281526015602090815260408083206001600160a01b03851684529091528120546007546132939190614dc4565b9392505050565b6132a2613be6565b6006548310156132f45760405162461bcd60e51b815260206004820152601460248201527f416d6f756e742062656c6f77206d696e696d756d0000000000000000000000006044820152606401610bb6565b600480546040517fdd62ed3e000000000000000000000000000000000000000000000000000000008152339281019290925230602483015284916001600160a01b039091169063dd62ed3e90604401602060405180830381865afa158015613360573d6000803e3d6000fd5b505050506040513d601f19601f82011682018060405250810190613384919061492a565b10156133d25760405162461bcd60e51b815260206004820152601660248201527f496e73756666696369656e7420616c6c6f77616e6365000000000000000000006044820152606401610bb6565b600480546040517f70a08231000000000000000000000000000000000000000000000000000000008152339281019290925284916001600160a01b03909116906370a0823190602401602060405180830381865afa158015613438573d6000803e3d6000fd5b505050506040513d601f19601f8201168201806040525081019061345c919061492a565b10156134aa5760405162461bcd60e51b815260206004820152601460248201527f496e73756666696369656e742062616c616e63650000000000000000000000006044820152606401610bb6565b60008581526015602090815260408083206001600160a01b03851684529091529020546007546134da8583614d46565b111561354e5760405162461bcd60e51b815260206004820152602e60248201527f416d6f756e742065786365656473206d6178696d756d2062757920616d6f756e60448201527f7420706572207175657374696f6e0000000000000000000000000000000000006064820152608401610bb6565b600480546040517f23b872dd0000000000000000000000000000000000000000000000000000000081523392810192909252306024830152604482018690526001600160a01b0316906323b872dd906064016020604051808303816000875af11580156135bf573d6000803e3d6000fd5b505050506040513d601f19601f820116820180604052508101906135e39190614cb6565b506135ee8482614d46565b60008781526015602090815260408083206001600160a01b03808816855290835281842094909455898352600f90915290206002015416806136725760405162461bcd60e51b815260206004820152601060248201527f4d61726b6574206e6f7420666f756e64000000000000000000000000000000006044820152606401610bb6565b600480546040517f095ea7b30000000000000000000000000000000000000000000000000000000081526001600160a01b03848116938201939093526024810188905291169063095ea7b3906044016020604051808303816000875af11580156136e0573d6000803e3d6000fd5b505050506040513d601f19601f820116820180604052508101906137049190614cb6565b506040517f80a08f470000000000000000000000000000000000000000000000000000000081526004810186905260248101879052604481018590526001600160a01b03848116606483015282916000918316906380a08f47906084016020604051808303816000875af1158015613780573d6000803e3d6000fd5b505050506040513d601f19601f820116820180604052508101906137a4919061492a565b6001600160a01b0386166000908152601060205260408120805492935089929091906137d1908490614d46565b90915550506001600160a01b03851660009081526012602052604090206137f8908a613c35565b5088836001600160a01b0316866001600160a01b03167f822019266ceea4910d00991f74bb1f8c1411d9ca7724fb43ed5500533c38bc598a866001600160a01b031663ddca3f436040518163ffffffff1660e01b8152600401602060405180830381865afa15801561386e573d6000803e3d6000fd5b505050506040513d601f19601f82011682018060405250810190613892919061492a565b60408051928352602083019190915281018d90526060810186905260800160405180910390a4505050506138c560018055565b5050505050565b6138d4613b22565b600480546040517f70a0823100000000000000000000000000000000000000000000000000000000815230928101929092526000916001600160a01b03909116906370a0823190602401602060405180830381865afa15801561393b573d6000803e3d6000fd5b505050506040513d601f19601f8201168201806040525081019061395f919061492a565b600480546040517fa9059cbb0000000000000000000000000000000000000000000000000000000081523392810192909252602482018390529192506001600160a01b039091169063a9059cbb906044016020604051808303816000875af11580156139cf573d6000803e3d6000fd5b505050506040513d601f19601f820116820180604052508101906121209190614cb6565b6001600160a01b038116600090815260136020526040812060609190613a1890613b68565b67ffffffffffffffff811115613a3057613a30613fb7565b604051908082528060200260200182016040528015613a59578160200160208202803683370190505b50905060005b6001600160a01b0384166000908152601360205260409020613a8090613b68565b81101561172f576001600160a01b0384166000908152601360205260409020613aa99082613b72565b828281518110613abb57613abb614943565b6020908102919091010152600101613a5f565b613ad6613b22565b6001600160a01b038116613b19576040517f1e4fbdf700000000000000000000000000000000000000000000000000000000815260006004820152602401610bb6565b612cfc81613b7e565b6000546001600160a01b03163314612011576040517f118cdaa7000000000000000000000000000000000000000000000000000000008152336004820152602401610bb6565b6000610a51825490565b60006132938383613c41565b600080546001600160a01b038381167fffffffffffffffffffffffff0000000000000000000000000000000000000000831681178455604051919092169283917f8be0079c531659141344cd1fd0a4f28419497f9722a3daafe3b4186f6b6457e09190a35050565b600260015403613c22576040517f3ee5aeb500000000000000000000000000000000000000000000000000000000815260040160405180910390fd5b6002600155565b60006132938383613c6b565b60006132938383613d5e565b6000826000018281548110613c5857613c58614943565b9060005260206000200154905092915050565b60008181526001830160205260408120548015613d54576000613c8f600183614dc4565b8554909150600090613ca390600190614dc4565b9050808214613d08576000866000018281548110613cc357613cc3614943565b9060005260206000200154905080876000018481548110613ce657613ce6614943565b6000918252602080832090910192909255918252600188019052604090208390555b8554869080613d1957613d19614dd7565b600190038181906000526020600020016000905590558560010160008681526020019081526020016000206000905560019350505050610a51565b6000915050610a51565b6000818152600183016020526040812054613da557508154600181810184556000848152602080822090930184905584548482528286019093526040902091909155610a51565b506000610a51565b828054828255906000526020600020908101928215613de8579160200282015b82811115613de8578251825591602001919060010190613dcd565b50613df4929150613e8a565b5090565b604080516101a08101909152600060a0820181815260c0830182905260e08301829052610100830182905261012083018290526101408301829052610160830182905261018083019190915281908152602001613e6f60405180606001604052806060815260200160008152602001606081525090565b81526020016000815260200160608152602001606081525090565b5b80821115613df45760008155600101613e8b565b600060208284031215613eb157600080fd5b81357fffffffff000000000000000000000000000000000000000000000000000000008116811461329357600080fd5b6001600160a01b0381168114612cfc57600080fd5b60008060008060808587031215613f0c57600080fd5b8435613f1781613ee1565b93506020850135613f2781613ee1565b92506040850135613f3781613ee1565b91506060850135613f4781613ee1565b939692955090935050565b600060208284031215613f6457600080fd5b5035919050565b60008083601f840112613f7d57600080fd5b50813567ffffffffffffffff811115613f9557600080fd5b6020830191508360208260051b8501011115613fb057600080fd5b9250929050565b7f4e487b7100000000000000000000000000000000000000000000000000000000600052604160045260246000fd5b6040516080810167ffffffffffffffff8111828210171561400957614009613fb7565b60405290565b604051601f8201601f1916810167ffffffffffffffff8111828210171561403857614038613fb7565b604052919050565b60008067ffffffffffffffff84111561405b5761405b613fb7565b50601f8301601f19166020016140708161400f565b91505082815283838301111561408557600080fd5b828260208301376000602084830101529392505050565b600080600080606085870312156140b257600080fd5b84359350602085013567ffffffffffffffff8111156140d057600080fd5b6140dc87828801613f6b565b909450925050604085013567ffffffffffffffff8111156140fc57600080fd5b8501601f8101871361410d57600080fd5b61411c87823560208401614040565b91505092959194509250565b6000806040838503121561413b57600080fd5b82359150602083013561414d81613ee1565b809150509250929050565b600081518084526020840193506020830160005b8281101561418a57815186526020958601959091019060010161416c565b5093949350505050565b6000815180845260005b818110156141ba5760208185018101518683018201520161419e565b506000602082860101526020601f19601f83011685010191505092915050565b60008151606084526141ef6060850182614158565b905060208301516020850152604083015184820360408601526142128282614194565b95945050505050565b6020815261428560208201835180518252602081015160208301526001600160a01b036040820151166040830152606081015160608301526080810151608083015260a081015160070b60a083015260c081015160070b60c083015260e081015160e08301525050565b600060208301516101806101208401526142a36101a08401826141da565b905060408401516101408401526060840151601f19848303016101608501526142cc8282614158565b9150506080840151601f19848303016101808501526142128282614158565b6000602082840312156142fd57600080fd5b813561329381613ee1565b6020815260006132936020830184614158565b600067ffffffffffffffff82111561433557614335613fb7565b5060051b60200190565b600082601f83011261435057600080fd5b813561436361435e8261431b565b61400f565b8082825260208201915060208360051b86010192508583111561438557600080fd5b602085015b838110156143a257803583526020928301920161438a565b5095945050505050565b6000806000606084860312156143c157600080fd5b83359250602084013567ffffffffffffffff8111156143df57600080fd5b6143eb8682870161433f565b92505060408401356143fc81613ee1565b809150509250925092565b6020815260008251604060208401526144236060840182614158565b9050602084015160408401528091505092915050565b61449b818a80518252602081015160208301526001600160a01b036040820151166040830152606081015160608301526080810151608083015260a081015160070b60a083015260c081015160070b60c083015260e081015160e08301525050565b6101e061010082015260006144b46101e083018a6141da565b886101208401528281036101408401526144ce8189614158565b90508281036101608401526144e38188614158565b95151561018084015250509115156101a083015260070b6101c09091015295945050505050565b60008060006040848603121561451f57600080fd5b833567ffffffffffffffff81111561453657600080fd5b61454286828701613f6b565b909790965060209590950135949350505050565b60008060008060006080868803121561456e57600080fd5b853594506020860135935060408601359250606086013567ffffffffffffffff81111561459a57600080fd5b6145a688828901613f6b565b969995985093965092949392505050565b8281526040602082015260006145d06040830184614194565b949350505050565b600080604083850312156145eb57600080fd5b82359150602083013567ffffffffffffffff81111561460957600080fd5b6146158582860161433f565b9150509250929050565b600082601f83011261463057600080fd5b61329383833560208501614040565b600080600080600060a0868803121561465757600080fd5b853561466281613ee1565b9450602086013561467281613ee1565b9350604086013567ffffffffffffffff81111561468e57600080fd5b61469a8882890161433f565b935050606086013567ffffffffffffffff8111156146b757600080fd5b6146c38882890161433f565b925050608086013567ffffffffffffffff8111156146e057600080fd5b6146ec8882890161461f565b9150509295509295909350565b600080600080600060a0868803121561471157600080fd5b85359450602086013593506040860135925060608601359150608086013561473881613ee1565b809150509295509295909350565b600080600080600060a0868803121561475e57600080fd5b853561476981613ee1565b9450602086013561477981613ee1565b93506040860135925060608601359150608086013567ffffffffffffffff8111156146e057600080fd5b600060808284031280156147b657600080fd5b5060006147c1613fe6565b83518060070b81146147d1578283fd5b8152602084015167ffffffffffffffff811681146147ed578283fd5b60208201526040840151600381900b8114614806578283fd5b604082015260609384015193810193909352509092915050565b818352818160208501375060006020828401015260006020601f19601f840116840101905092915050565b6020808252810182905260006040600584901b8301810190830185837fffffffffffffffffffffffffffffffffffffffffffffffffffffffffffffffe136839003015b8782101561491d577fffffffffffffffffffffffffffffffffffffffffffffffffffffffffffffffc087860301845282358181126148cb57600080fd5b890160208101903567ffffffffffffffff8111156148e857600080fd5b8036038213156148f757600080fd5b614902878284614820565b9650505060208301925060208401935060018201915061488e565b5092979650505050505050565b60006020828403121561493c57600080fd5b5051919050565b7f4e487b7100000000000000000000000000000000000000000000000000000000600052603260045260246000fd5b600181811c9082168061498657607f821691505b6020821081036149bf577f4e487b7100000000000000000000000000000000000000000000000000000000600052602260045260246000fd5b50919050565b601f821115614a0c57806000526020600020601f840160051c810160208510156149ec5750805b601f840160051c820191505b818110156138c557600081556001016149f8565b505050565b815167ffffffffffffffff811115614a2b57614a2b613fb7565b614a3f81614a398454614972565b846149c5565b6020601f821160018114614a915760008315614a5b5750848201515b7fffffffffffffffffffffffffffffffffffffffffffffffffffffffffffffffff600385901b1c1916600184901b1784556138c5565b600084815260208120601f198516915b82811015614ac15787850151825560209485019460019092019101614aa1565b5084821015614afd57868401517fffffffffffffffffffffffffffffffffffffffffffffffffffffffffffffffff600387901b60f8161c191681555b50505050600190811b01905550565b8281526040602082015260006145d06040830184614158565b8260070b81526040602082015260006145d06040830184614158565b600060208284031215614b5357600080fd5b815167ffffffffffffffff811115614b6a57600080fd5b8201601f81018413614b7b57600080fd5b8051614b8961435e8261431b565b8082825260208201915060208360051b850101925086831115614bab57600080fd5b6020840193505b82841015614bcd578351825260209384019390910190614bb2565b9695505050505050565b6001600160a01b03871681526001600160a01b038616602082015260c060408201526000614c0860c0830187614158565b60608301959095525060808101929092526001600160a01b031660a0909101529392505050565b600060208284031215614c4157600080fd5b815161329381613ee1565b7f4e487b7100000000000000000000000000000000000000000000000000000000600052601160045260246000fd5b600082614cb1577f4e487b7100000000000000000000000000000000000000000000000000000000600052601260045260246000fd5b500490565b600060208284031215614cc857600080fd5b8151801515811461329357600080fd5b60007fffffffffffffffffffffffffffffffffffffffffffffffffffffffffffffffff8203614d0957614d09614c4c565b5060010190565b8151600090829060208501835b82811015614d3b578151845260209384019390910190600101614d1d565b509195945050505050565b80820180821115610a5157610a51614c4c565b6001600160a01b038616815284602082015283604082015260a060608201526000614d8760a0830185614158565b90506001600160a01b03831660808301529695505050505050565b604081526000614db56040830185614158565b90508260208301529392505050565b81810381811115610a5157610a51614c4c565b7f4e487b7100000000000000000000000000000000000000000000000000000000600052603160045260246000fdfea2646970667358221220e573b44cee14ac8b7ad895178f9c20cd61203ae7efc8d1548ed07eb8ffa9930464736f6c634300081c0033",
  "linkReferences": {},
  "deployedLinkReferences": {}
}